{
	"contracts/4.StudentRegistry.sol": {
		"StudentRegistry": {
			"abi": [
				{
					"anonymous": false,
					"inputs": [
						{
							"indexed": true,
							"internalType": "uint256",
							"name": "id",
							"type": "uint256"
						},
						{
							"indexed": false,
							"internalType": "string",
							"name": "name",
							"type": "string"
						},
						{
							"indexed": false,
							"internalType": "uint256",
							"name": "age",
							"type": "uint256"
						},
						{
							"indexed": false,
							"internalType": "string",
							"name": "department",
							"type": "string"
						}
					],
					"name": "StudentAdded",
					"type": "event"
				},
				{
					"inputs": [
						{
							"internalType": "uint256",
							"name": "_id",
							"type": "uint256"
						},
						{
							"internalType": "string",
							"name": "_name",
							"type": "string"
						},
						{
							"internalType": "uint256",
							"name": "_age",
							"type": "uint256"
						},
						{
							"internalType": "string",
							"name": "_department",
							"type": "string"
						}
					],
					"name": "addStudent",
					"outputs": [],
					"stateMutability": "nonpayable",
					"type": "function"
				},
				{
					"inputs": [],
					"name": "getAllStudents",
					"outputs": [
						{
							"components": [
								{
									"internalType": "uint256",
									"name": "id",
									"type": "uint256"
								},
								{
									"internalType": "string",
									"name": "name",
									"type": "string"
								},
								{
									"internalType": "uint256",
									"name": "age",
									"type": "uint256"
								},
								{
									"internalType": "string",
									"name": "department",
									"type": "string"
								},
								{
									"internalType": "bool",
									"name": "exists",
									"type": "bool"
								}
							],
							"internalType": "struct StudentRegistry.Student[]",
							"name": "",
							"type": "tuple[]"
						}
					],
					"stateMutability": "view",
					"type": "function"
				},
				{
					"inputs": [
						{
							"internalType": "uint256",
							"name": "_id",
							"type": "uint256"
						}
					],
					"name": "getStudent",
					"outputs": [
						{
							"internalType": "uint256",
							"name": "",
							"type": "uint256"
						},
						{
							"internalType": "string",
							"name": "",
							"type": "string"
						},
						{
							"internalType": "uint256",
							"name": "",
							"type": "uint256"
						},
						{
							"internalType": "string",
							"name": "",
							"type": "string"
						}
					],
					"stateMutability": "view",
					"type": "function"
				},
				{
					"inputs": [
						{
							"internalType": "uint256",
							"name": "",
							"type": "uint256"
						}
					],
					"name": "studentList",
					"outputs": [
						{
							"internalType": "uint256",
							"name": "id",
							"type": "uint256"
						},
						{
							"internalType": "string",
							"name": "name",
							"type": "string"
						},
						{
							"internalType": "uint256",
							"name": "age",
							"type": "uint256"
						},
						{
							"internalType": "string",
							"name": "department",
							"type": "string"
						},
						{
							"internalType": "bool",
							"name": "exists",
							"type": "bool"
						}
					],
					"stateMutability": "view",
					"type": "function"
				},
				{
					"inputs": [
						{
							"internalType": "uint256",
							"name": "",
							"type": "uint256"
						}
					],
					"name": "students",
					"outputs": [
						{
							"internalType": "uint256",
							"name": "id",
							"type": "uint256"
						},
						{
							"internalType": "string",
							"name": "name",
							"type": "string"
						},
						{
							"internalType": "uint256",
							"name": "age",
							"type": "uint256"
						},
						{
							"internalType": "string",
							"name": "department",
							"type": "string"
						},
						{
							"internalType": "bool",
							"name": "exists",
							"type": "bool"
						}
					],
					"stateMutability": "view",
					"type": "function"
				}
			],
			"devdoc": {
				"kind": "dev",
				"methods": {},
				"version": 1
			},
			"evm": {
				"assembly": "    /* \"contracts/4.StudentRegistry.sol\":61:1249  contract StudentRegistry{... */\n  mstore(0x40, 0x80)\n  callvalue\n  dup1\n  iszero\n  tag_1\n  jumpi\n  revert(0x00, 0x00)\ntag_1:\n  pop\n  dataSize(sub_0)\n  dup1\n  dataOffset(sub_0)\n  0x00\n  codecopy\n  0x00\n  return\nstop\n\nsub_0: assembly {\n        /* \"contracts/4.StudentRegistry.sol\":61:1249  contract StudentRegistry{... */\n      mstore(0x40, 0x80)\n      callvalue\n      dup1\n      iszero\n      tag_1\n      jumpi\n      revert(0x00, 0x00)\n    tag_1:\n      pop\n      jumpi(tag_2, lt(calldatasize, 0x04))\n      shr(0xe0, calldataload(0x00))\n      dup1\n      0x06ead22e\n      eq\n      tag_3\n      jumpi\n      dup1\n      0x5900fe9f\n      eq\n      tag_4\n      jumpi\n      dup1\n      0x642f9163\n      eq\n      tag_5\n      jumpi\n      dup1\n      0x7df221e9\n      eq\n      tag_6\n      jumpi\n      dup1\n      0xe9e30927\n      eq\n      tag_7\n      jumpi\n    tag_2:\n      revert(0x00, 0x00)\n        /* \"contracts/4.StudentRegistry.sol\":274:317  mapping(uint256 => Student) public students */\n    tag_3:\n      tag_8\n      0x04\n      dup1\n      calldatasize\n      sub\n      dup2\n      add\n      swap1\n      tag_9\n      swap2\n      swap1\n      tag_10\n      jump\t// in\n    tag_9:\n      tag_11\n      jump\t// in\n    tag_8:\n      mload(0x40)\n      tag_12\n      swap6\n      swap5\n      swap4\n      swap3\n      swap2\n      swap1\n      tag_13\n      jump\t// in\n    tag_12:\n      mload(0x40)\n      dup1\n      swap2\n      sub\n      swap1\n      return\n        /* \"contracts/4.StudentRegistry.sol\":508:856  function addStudent(uint256 _id, string memory _name, uint256 _age, string memory _department) public{... */\n    tag_4:\n      tag_14\n      0x04\n      dup1\n      calldatasize\n      sub\n      dup2\n      add\n      swap1\n      tag_15\n      swap2\n      swap1\n      tag_16\n      jump\t// in\n    tag_15:\n      tag_17\n      jump\t// in\n    tag_14:\n      stop\n        /* \"contracts/4.StudentRegistry.sol\":864:1138  function getStudent(uint256 _id) public view returns(uint256, string memory, uint256, string memory){... */\n    tag_5:\n      tag_18\n      0x04\n      dup1\n      calldatasize\n      sub\n      dup2\n      add\n      swap1\n      tag_19\n      swap2\n      swap1\n      tag_10\n      jump\t// in\n    tag_19:\n      tag_20\n      jump\t// in\n    tag_18:\n      mload(0x40)\n      tag_21\n      swap5\n      swap4\n      swap3\n      swap2\n      swap1\n      tag_22\n      jump\t// in\n    tag_21:\n      mload(0x40)\n      dup1\n      swap2\n      sub\n      swap1\n      return\n        /* \"contracts/4.StudentRegistry.sol\":237:265  Student[] public studentList */\n    tag_6:\n      tag_23\n      0x04\n      dup1\n      calldatasize\n      sub\n      dup2\n      add\n      swap1\n      tag_24\n      swap2\n      swap1\n      tag_10\n      jump\t// in\n    tag_24:\n      tag_25\n      jump\t// in\n    tag_23:\n      mload(0x40)\n      tag_26\n      swap6\n      swap5\n      swap4\n      swap3\n      swap2\n      swap1\n      tag_13\n      jump\t// in\n    tag_26:\n      mload(0x40)\n      dup1\n      swap2\n      sub\n      swap1\n      return\n        /* \"contracts/4.StudentRegistry.sol\":1146:1246  function getAllStudents() public view returns(Student[] memory){... */\n    tag_7:\n      tag_27\n      tag_28\n      jump\t// in\n    tag_27:\n      mload(0x40)\n      tag_29\n      swap2\n      swap1\n      tag_30\n      jump\t// in\n    tag_29:\n      mload(0x40)\n      dup1\n      swap2\n      sub\n      swap1\n      return\n        /* \"contracts/4.StudentRegistry.sol\":274:317  mapping(uint256 => Student) public students */\n    tag_11:\n      mstore(0x20, 0x01)\n      dup1\n      0x00\n      mstore\n      keccak256(0x00, 0x40)\n      0x00\n      swap2\n      pop\n      swap1\n      pop\n      dup1\n      0x00\n      add\n      sload\n      swap1\n      dup1\n      0x01\n      add\n      dup1\n      sload\n      tag_31\n      swap1\n      tag_32\n      jump\t// in\n    tag_31:\n      dup1\n      0x1f\n      add\n      0x20\n      dup1\n      swap2\n      div\n      mul\n      0x20\n      add\n      mload(0x40)\n      swap1\n      dup2\n      add\n      0x40\n      mstore\n      dup1\n      swap3\n      swap2\n      swap1\n      dup2\n      dup2\n      mstore\n      0x20\n      add\n      dup3\n      dup1\n      sload\n      tag_33\n      swap1\n      tag_32\n      jump\t// in\n    tag_33:\n      dup1\n      iszero\n      tag_34\n      jumpi\n      dup1\n      0x1f\n      lt\n      tag_35\n      jumpi\n      0x0100\n      dup1\n      dup4\n      sload\n      div\n      mul\n      dup4\n      mstore\n      swap2\n      0x20\n      add\n      swap2\n      jump(tag_34)\n    tag_35:\n      dup3\n      add\n      swap2\n      swap1\n      0x00\n      mstore\n      keccak256(0x00, 0x20)\n      swap1\n    tag_36:\n      dup2\n      sload\n      dup2\n      mstore\n      swap1\n      0x01\n      add\n      swap1\n      0x20\n      add\n      dup1\n      dup4\n      gt\n      tag_36\n      jumpi\n      dup3\n      swap1\n      sub\n      0x1f\n      and\n      dup3\n      add\n      swap2\n    tag_34:\n      pop\n      pop\n      pop\n      pop\n      pop\n      swap1\n      dup1\n      0x02\n      add\n      sload\n      swap1\n      dup1\n      0x03\n      add\n      dup1\n      sload\n      tag_37\n      swap1\n      tag_32\n      jump\t// in\n    tag_37:\n      dup1\n      0x1f\n      add\n      0x20\n      dup1\n      swap2\n      div\n      mul\n      0x20\n      add\n      mload(0x40)\n      swap1\n      dup2\n      add\n      0x40\n      mstore\n      dup1\n      swap3\n      swap2\n      swap1\n      dup2\n      dup2\n      mstore\n      0x20\n      add\n      dup3\n      dup1\n      sload\n      tag_38\n      swap1\n      tag_32\n      jump\t// in\n    tag_38:\n      dup1\n      iszero\n      tag_39\n      jumpi\n      dup1\n      0x1f\n      lt\n      tag_40\n      jumpi\n      0x0100\n      dup1\n      dup4\n      sload\n      div\n      mul\n      dup4\n      mstore\n      swap2\n      0x20\n      add\n      swap2\n      jump(tag_39)\n    tag_40:\n      dup3\n      add\n      swap2\n      swap1\n      0x00\n      mstore\n      keccak256(0x00, 0x20)\n      swap1\n    tag_41:\n      dup2\n      sload\n      dup2\n      mstore\n      swap1\n      0x01\n      add\n      swap1\n      0x20\n      add\n      dup1\n      dup4\n      gt\n      tag_41\n      jumpi\n      dup3\n      swap1\n      sub\n      0x1f\n      and\n      dup3\n      add\n      swap2\n    tag_39:\n      pop\n      pop\n      pop\n      pop\n      pop\n      swap1\n      dup1\n      0x04\n      add\n      0x00\n      swap1\n      sload\n      swap1\n      0x0100\n      exp\n      swap1\n      div\n      0xff\n      and\n      swap1\n      pop\n      dup6\n      jump\t// out\n        /* \"contracts/4.StudentRegistry.sol\":508:856  function addStudent(uint256 _id, string memory _name, uint256 _age, string memory _department) public{... */\n    tag_17:\n        /* \"contracts/4.StudentRegistry.sol\":629:637  students */\n      0x01\n        /* \"contracts/4.StudentRegistry.sol\":629:642  students[_id] */\n      0x00\n        /* \"contracts/4.StudentRegistry.sol\":638:641  _id */\n      dup6\n        /* \"contracts/4.StudentRegistry.sol\":629:642  students[_id] */\n      dup2\n      mstore\n      0x20\n      add\n      swap1\n      dup2\n      mstore\n      0x20\n      add\n      0x00\n      keccak256\n        /* \"contracts/4.StudentRegistry.sol\":629:649  students[_id].exists */\n      0x04\n      add\n      0x00\n      swap1\n      sload\n      swap1\n      0x0100\n      exp\n      swap1\n      div\n      0xff\n      and\n        /* \"contracts/4.StudentRegistry.sol\":628:649  !students[_id].exists */\n      iszero\n        /* \"contracts/4.StudentRegistry.sol\":620:676  require(!students[_id].exists, \"Student already exists\") */\n      tag_43\n      jumpi\n      mload(0x40)\n      0x08c379a000000000000000000000000000000000000000000000000000000000\n      dup2\n      mstore\n      0x04\n      add\n      tag_44\n      swap1\n      tag_45\n      jump\t// in\n    tag_44:\n      mload(0x40)\n      dup1\n      swap2\n      sub\n      swap1\n      revert\n    tag_43:\n        /* \"contracts/4.StudentRegistry.sol\":703:747  Student(_id, _name, _age, _department, true) */\n      mload(0x40)\n      dup1\n      0xa0\n      add\n      0x40\n      mstore\n      dup1\n        /* \"contracts/4.StudentRegistry.sol\":711:714  _id */\n      dup6\n        /* \"contracts/4.StudentRegistry.sol\":703:747  Student(_id, _name, _age, _department, true) */\n      dup2\n      mstore\n      0x20\n      add\n        /* \"contracts/4.StudentRegistry.sol\":716:721  _name */\n      dup5\n        /* \"contracts/4.StudentRegistry.sol\":703:747  Student(_id, _name, _age, _department, true) */\n      dup2\n      mstore\n      0x20\n      add\n        /* \"contracts/4.StudentRegistry.sol\":723:727  _age */\n      dup4\n        /* \"contracts/4.StudentRegistry.sol\":703:747  Student(_id, _name, _age, _department, true) */\n      dup2\n      mstore\n      0x20\n      add\n        /* \"contracts/4.StudentRegistry.sol\":729:740  _department */\n      dup3\n        /* \"contracts/4.StudentRegistry.sol\":703:747  Student(_id, _name, _age, _department, true) */\n      dup2\n      mstore\n      0x20\n      add\n        /* \"contracts/4.StudentRegistry.sol\":742:746  true */\n      0x01\n        /* \"contracts/4.StudentRegistry.sol\":703:747  Student(_id, _name, _age, _department, true) */\n      iszero\n      iszero\n      dup2\n      mstore\n      pop\n        /* \"contracts/4.StudentRegistry.sol\":687:695  students */\n      0x01\n        /* \"contracts/4.StudentRegistry.sol\":687:700  students[_id] */\n      0x00\n        /* \"contracts/4.StudentRegistry.sol\":696:699  _id */\n      dup7\n        /* \"contracts/4.StudentRegistry.sol\":687:700  students[_id] */\n      dup2\n      mstore\n      0x20\n      add\n      swap1\n      dup2\n      mstore\n      0x20\n      add\n      0x00\n      keccak256\n        /* \"contracts/4.StudentRegistry.sol\":687:747  students[_id] = Student(_id, _name, _age, _department, true) */\n      0x00\n      dup3\n      add\n      mload\n      dup2\n      0x00\n      add\n      sstore\n      0x20\n      dup3\n      add\n      mload\n      dup2\n      0x01\n      add\n      swap1\n      dup2\n      tag_46\n      swap2\n      swap1\n      tag_47\n      jump\t// in\n    tag_46:\n      pop\n      0x40\n      dup3\n      add\n      mload\n      dup2\n      0x02\n      add\n      sstore\n      0x60\n      dup3\n      add\n      mload\n      dup2\n      0x03\n      add\n      swap1\n      dup2\n      tag_48\n      swap2\n      swap1\n      tag_47\n      jump\t// in\n    tag_48:\n      pop\n      0x80\n      dup3\n      add\n      mload\n      dup2\n      0x04\n      add\n      exp(0x0100, 0x00)\n      dup2\n      sload\n      dup2\n      0xff\n      mul\n      not\n      and\n      swap1\n      dup4\n      iszero\n      iszero\n      mul\n      or\n      swap1\n      sstore\n      pop\n      swap1\n      pop\n      pop\n        /* \"contracts/4.StudentRegistry.sol\":758:769  studentList */\n      0x00\n        /* \"contracts/4.StudentRegistry.sol\":775:783  students */\n      0x01\n        /* \"contracts/4.StudentRegistry.sol\":775:788  students[_id] */\n      0x00\n        /* \"contracts/4.StudentRegistry.sol\":784:787  _id */\n      dup7\n        /* \"contracts/4.StudentRegistry.sol\":775:788  students[_id] */\n      dup2\n      mstore\n      0x20\n      add\n      swap1\n      dup2\n      mstore\n      0x20\n      add\n      0x00\n      keccak256\n        /* \"contracts/4.StudentRegistry.sol\":758:789  studentList.push(students[_id]) */\n      swap1\n      dup1\n      0x01\n      dup2\n      sload\n      add\n      dup1\n      dup3\n      sstore\n      dup1\n      swap2\n      pop\n      pop\n      0x01\n      swap1\n      sub\n      swap1\n      0x00\n      mstore\n      keccak256(0x00, 0x20)\n      swap1\n      0x05\n      mul\n      add\n      0x00\n      swap1\n      swap2\n      swap1\n      swap2\n      swap1\n      swap2\n      pop\n      0x00\n      dup3\n      add\n      sload\n      dup2\n      0x00\n      add\n      sstore\n      0x01\n      dup3\n      add\n      dup2\n      0x01\n      add\n      swap1\n      dup2\n      tag_50\n      swap2\n      swap1\n      tag_51\n      jump\t// in\n    tag_50:\n      pop\n      0x02\n      dup3\n      add\n      sload\n      dup2\n      0x02\n      add\n      sstore\n      0x03\n      dup3\n      add\n      dup2\n      0x03\n      add\n      swap1\n      dup2\n      tag_52\n      swap2\n      swap1\n      tag_51\n      jump\t// in\n    tag_52:\n      pop\n      0x04\n      dup3\n      add\n      0x00\n      swap1\n      sload\n      swap1\n      0x0100\n      exp\n      swap1\n      div\n      0xff\n      and\n      dup2\n      0x04\n      add\n      exp(0x0100, 0x00)\n      dup2\n      sload\n      dup2\n      0xff\n      mul\n      not\n      and\n      swap1\n      dup4\n      iszero\n      iszero\n      mul\n      or\n      swap1\n      sstore\n      pop\n      pop\n      pop\n        /* \"contracts/4.StudentRegistry.sol\":818:821  _id */\n      dup4\n        /* \"contracts/4.StudentRegistry.sol\":805:848  StudentAdded(_id, _name, _age, _department) */\n      0x1be1384d0e46750bf3c73e3077bce8ea0c00b17ea89a797f35d39e43210f5fed\n        /* \"contracts/4.StudentRegistry.sol\":823:828  _name */\n      dup5\n        /* \"contracts/4.StudentRegistry.sol\":830:834  _age */\n      dup5\n        /* \"contracts/4.StudentRegistry.sol\":836:847  _department */\n      dup5\n        /* \"contracts/4.StudentRegistry.sol\":805:848  StudentAdded(_id, _name, _age, _department) */\n      mload(0x40)\n      tag_53\n      swap4\n      swap3\n      swap2\n      swap1\n      tag_54\n      jump\t// in\n    tag_53:\n      mload(0x40)\n      dup1\n      swap2\n      sub\n      swap1\n      log2\n        /* \"contracts/4.StudentRegistry.sol\":508:856  function addStudent(uint256 _id, string memory _name, uint256 _age, string memory _department) public{... */\n      pop\n      pop\n      pop\n      pop\n      jump\t// out\n        /* \"contracts/4.StudentRegistry.sol\":864:1138  function getStudent(uint256 _id) public view returns(uint256, string memory, uint256, string memory){... */\n    tag_20:\n        /* \"contracts/4.StudentRegistry.sol\":917:924  uint256 */\n      0x00\n        /* \"contracts/4.StudentRegistry.sol\":926:939  string memory */\n      0x60\n        /* \"contracts/4.StudentRegistry.sol\":941:948  uint256 */\n      0x00\n        /* \"contracts/4.StudentRegistry.sol\":950:963  string memory */\n      0x60\n        /* \"contracts/4.StudentRegistry.sol\":983:991  students */\n      0x01\n        /* \"contracts/4.StudentRegistry.sol\":983:996  students[_id] */\n      0x00\n        /* \"contracts/4.StudentRegistry.sol\":992:995  _id */\n      dup7\n        /* \"contracts/4.StudentRegistry.sol\":983:996  students[_id] */\n      dup2\n      mstore\n      0x20\n      add\n      swap1\n      dup2\n      mstore\n      0x20\n      add\n      0x00\n      keccak256\n        /* \"contracts/4.StudentRegistry.sol\":983:1003  students[_id].exists */\n      0x04\n      add\n      0x00\n      swap1\n      sload\n      swap1\n      0x0100\n      exp\n      swap1\n      div\n      0xff\n      and\n        /* \"contracts/4.StudentRegistry.sol\":975:1030  require(students[_id].exists, \"Student does not exist\") */\n      tag_56\n      jumpi\n      mload(0x40)\n      0x08c379a000000000000000000000000000000000000000000000000000000000\n      dup2\n      mstore\n      0x04\n      add\n      tag_57\n      swap1\n      tag_58\n      jump\t// in\n    tag_57:\n      mload(0x40)\n      dup1\n      swap2\n      sub\n      swap1\n      revert\n    tag_56:\n        /* \"contracts/4.StudentRegistry.sol\":1048:1056  students */\n      0x01\n        /* \"contracts/4.StudentRegistry.sol\":1048:1061  students[_id] */\n      0x00\n        /* \"contracts/4.StudentRegistry.sol\":1057:1060  _id */\n      dup7\n        /* \"contracts/4.StudentRegistry.sol\":1048:1061  students[_id] */\n      dup2\n      mstore\n      0x20\n      add\n      swap1\n      dup2\n      mstore\n      0x20\n      add\n      0x00\n      keccak256\n        /* \"contracts/4.StudentRegistry.sol\":1048:1064  students[_id].id */\n      0x00\n      add\n      sload\n        /* \"contracts/4.StudentRegistry.sol\":1066:1074  students */\n      0x01\n        /* \"contracts/4.StudentRegistry.sol\":1066:1079  students[_id] */\n      0x00\n        /* \"contracts/4.StudentRegistry.sol\":1075:1078  _id */\n      dup8\n        /* \"contracts/4.StudentRegistry.sol\":1066:1079  students[_id] */\n      dup2\n      mstore\n      0x20\n      add\n      swap1\n      dup2\n      mstore\n      0x20\n      add\n      0x00\n      keccak256\n        /* \"contracts/4.StudentRegistry.sol\":1066:1084  students[_id].name */\n      0x01\n      add\n        /* \"contracts/4.StudentRegistry.sol\":1086:1094  students */\n      0x01\n        /* \"contracts/4.StudentRegistry.sol\":1086:1099  students[_id] */\n      0x00\n        /* \"contracts/4.StudentRegistry.sol\":1095:1098  _id */\n      dup9\n        /* \"contracts/4.StudentRegistry.sol\":1086:1099  students[_id] */\n      dup2\n      mstore\n      0x20\n      add\n      swap1\n      dup2\n      mstore\n      0x20\n      add\n      0x00\n      keccak256\n        /* \"contracts/4.StudentRegistry.sol\":1086:1103  students[_id].age */\n      0x02\n      add\n      sload\n        /* \"contracts/4.StudentRegistry.sol\":1105:1113  students */\n      0x01\n        /* \"contracts/4.StudentRegistry.sol\":1105:1118  students[_id] */\n      0x00\n        /* \"contracts/4.StudentRegistry.sol\":1114:1117  _id */\n      dup10\n        /* \"contracts/4.StudentRegistry.sol\":1105:1118  students[_id] */\n      dup2\n      mstore\n      0x20\n      add\n      swap1\n      dup2\n      mstore\n      0x20\n      add\n      0x00\n      keccak256\n        /* \"contracts/4.StudentRegistry.sol\":1105:1129  students[_id].department */\n      0x03\n      add\n        /* \"contracts/4.StudentRegistry.sol\":1041:1130  return(students[_id].id, students[_id].name, students[_id].age, students[_id].department) */\n      dup3\n      dup1\n      sload\n      tag_59\n      swap1\n      tag_32\n      jump\t// in\n    tag_59:\n      dup1\n      0x1f\n      add\n      0x20\n      dup1\n      swap2\n      div\n      mul\n      0x20\n      add\n      mload(0x40)\n      swap1\n      dup2\n      add\n      0x40\n      mstore\n      dup1\n      swap3\n      swap2\n      swap1\n      dup2\n      dup2\n      mstore\n      0x20\n      add\n      dup3\n      dup1\n      sload\n      tag_60\n      swap1\n      tag_32\n      jump\t// in\n    tag_60:\n      dup1\n      iszero\n      tag_61\n      jumpi\n      dup1\n      0x1f\n      lt\n      tag_62\n      jumpi\n      0x0100\n      dup1\n      dup4\n      sload\n      div\n      mul\n      dup4\n      mstore\n      swap2\n      0x20\n      add\n      swap2\n      jump(tag_61)\n    tag_62:\n      dup3\n      add\n      swap2\n      swap1\n      0x00\n      mstore\n      keccak256(0x00, 0x20)\n      swap1\n    tag_63:\n      dup2\n      sload\n      dup2\n      mstore\n      swap1\n      0x01\n      add\n      swap1\n      0x20\n      add\n      dup1\n      dup4\n      gt\n      tag_63\n      jumpi\n      dup3\n      swap1\n      sub\n      0x1f\n      and\n      dup3\n      add\n      swap2\n    tag_61:\n      pop\n      pop\n      pop\n      pop\n      pop\n      swap3\n      pop\n      dup1\n      dup1\n      sload\n      tag_64\n      swap1\n      tag_32\n      jump\t// in\n    tag_64:\n      dup1\n      0x1f\n      add\n      0x20\n      dup1\n      swap2\n      div\n      mul\n      0x20\n      add\n      mload(0x40)\n      swap1\n      dup2\n      add\n      0x40\n      mstore\n      dup1\n      swap3\n      swap2\n      swap1\n      dup2\n      dup2\n      mstore\n      0x20\n      add\n      dup3\n      dup1\n      sload\n      tag_65\n      swap1\n      tag_32\n      jump\t// in\n    tag_65:\n      dup1\n      iszero\n      tag_66\n      jumpi\n      dup1\n      0x1f\n      lt\n      tag_67\n      jumpi\n      0x0100\n      dup1\n      dup4\n      sload\n      div\n      mul\n      dup4\n      mstore\n      swap2\n      0x20\n      add\n      swap2\n      jump(tag_66)\n    tag_67:\n      dup3\n      add\n      swap2\n      swap1\n      0x00\n      mstore\n      keccak256(0x00, 0x20)\n      swap1\n    tag_68:\n      dup2\n      sload\n      dup2\n      mstore\n      swap1\n      0x01\n      add\n      swap1\n      0x20\n      add\n      dup1\n      dup4\n      gt\n      tag_68\n      jumpi\n      dup3\n      swap1\n      sub\n      0x1f\n      and\n      dup3\n      add\n      swap2\n    tag_66:\n      pop\n      pop\n      pop\n      pop\n      pop\n      swap1\n      pop\n      swap4\n      pop\n      swap4\n      pop\n      swap4\n      pop\n      swap4\n      pop\n        /* \"contracts/4.StudentRegistry.sol\":864:1138  function getStudent(uint256 _id) public view returns(uint256, string memory, uint256, string memory){... */\n      swap2\n      swap4\n      pop\n      swap2\n      swap4\n      jump\t// out\n        /* \"contracts/4.StudentRegistry.sol\":237:265  Student[] public studentList */\n    tag_25:\n      0x00\n      dup2\n      dup2\n      sload\n      dup2\n      lt\n      tag_69\n      jumpi\n      0x00\n      dup1\n      revert\n    tag_69:\n      swap1\n      0x00\n      mstore\n      keccak256(0x00, 0x20)\n      swap1\n      0x05\n      mul\n      add\n      0x00\n      swap2\n      pop\n      swap1\n      pop\n      dup1\n      0x00\n      add\n      sload\n      swap1\n      dup1\n      0x01\n      add\n      dup1\n      sload\n      tag_71\n      swap1\n      tag_32\n      jump\t// in\n    tag_71:\n      dup1\n      0x1f\n      add\n      0x20\n      dup1\n      swap2\n      div\n      mul\n      0x20\n      add\n      mload(0x40)\n      swap1\n      dup2\n      add\n      0x40\n      mstore\n      dup1\n      swap3\n      swap2\n      swap1\n      dup2\n      dup2\n      mstore\n      0x20\n      add\n      dup3\n      dup1\n      sload\n      tag_72\n      swap1\n      tag_32\n      jump\t// in\n    tag_72:\n      dup1\n      iszero\n      tag_73\n      jumpi\n      dup1\n      0x1f\n      lt\n      tag_74\n      jumpi\n      0x0100\n      dup1\n      dup4\n      sload\n      div\n      mul\n      dup4\n      mstore\n      swap2\n      0x20\n      add\n      swap2\n      jump(tag_73)\n    tag_74:\n      dup3\n      add\n      swap2\n      swap1\n      0x00\n      mstore\n      keccak256(0x00, 0x20)\n      swap1\n    tag_75:\n      dup2\n      sload\n      dup2\n      mstore\n      swap1\n      0x01\n      add\n      swap1\n      0x20\n      add\n      dup1\n      dup4\n      gt\n      tag_75\n      jumpi\n      dup3\n      swap1\n      sub\n      0x1f\n      and\n      dup3\n      add\n      swap2\n    tag_73:\n      pop\n      pop\n      pop\n      pop\n      pop\n      swap1\n      dup1\n      0x02\n      add\n      sload\n      swap1\n      dup1\n      0x03\n      add\n      dup1\n      sload\n      tag_76\n      swap1\n      tag_32\n      jump\t// in\n    tag_76:\n      dup1\n      0x1f\n      add\n      0x20\n      dup1\n      swap2\n      div\n      mul\n      0x20\n      add\n      mload(0x40)\n      swap1\n      dup2\n      add\n      0x40\n      mstore\n      dup1\n      swap3\n      swap2\n      swap1\n      dup2\n      dup2\n      mstore\n      0x20\n      add\n      dup3\n      dup1\n      sload\n      tag_77\n      swap1\n      tag_32\n      jump\t// in\n    tag_77:\n      dup1\n      iszero\n      tag_78\n      jumpi\n      dup1\n      0x1f\n      lt\n      tag_79\n      jumpi\n      0x0100\n      dup1\n      dup4\n      sload\n      div\n      mul\n      dup4\n      mstore\n      swap2\n      0x20\n      add\n      swap2\n      jump(tag_78)\n    tag_79:\n      dup3\n      add\n      swap2\n      swap1\n      0x00\n      mstore\n      keccak256(0x00, 0x20)\n      swap1\n    tag_80:\n      dup2\n      sload\n      dup2\n      mstore\n      swap1\n      0x01\n      add\n      swap1\n      0x20\n      add\n      dup1\n      dup4\n      gt\n      tag_80\n      jumpi\n      dup3\n      swap1\n      sub\n      0x1f\n      and\n      dup3\n      add\n      swap2\n    tag_78:\n      pop\n      pop\n      pop\n      pop\n      pop\n      swap1\n      dup1\n      0x04\n      add\n      0x00\n      swap1\n      sload\n      swap1\n      0x0100\n      exp\n      swap1\n      div\n      0xff\n      and\n      swap1\n      pop\n      dup6\n      jump\t// out\n        /* \"contracts/4.StudentRegistry.sol\":1146:1246  function getAllStudents() public view returns(Student[] memory){... */\n    tag_28:\n        /* \"contracts/4.StudentRegistry.sol\":1192:1208  Student[] memory */\n      0x60\n        /* \"contracts/4.StudentRegistry.sol\":1227:1238  studentList */\n      0x00\n        /* \"contracts/4.StudentRegistry.sol\":1220:1238  return studentList */\n      dup1\n      sload\n      dup1\n      0x20\n      mul\n      0x20\n      add\n      mload(0x40)\n      swap1\n      dup2\n      add\n      0x40\n      mstore\n      dup1\n      swap3\n      swap2\n      swap1\n      dup2\n      dup2\n      mstore\n      0x20\n      add\n      0x00\n      swap1\n    tag_82:\n      dup3\n      dup3\n      lt\n      iszero\n      tag_83\n      jumpi\n      dup4\n      dup3\n      swap1\n      0x00\n      mstore\n      keccak256(0x00, 0x20)\n      swap1\n      0x05\n      mul\n      add\n      mload(0x40)\n      dup1\n      0xa0\n      add\n      0x40\n      mstore\n      swap1\n      dup2\n      0x00\n      dup3\n      add\n      sload\n      dup2\n      mstore\n      0x20\n      add\n      0x01\n      dup3\n      add\n      dup1\n      sload\n      tag_85\n      swap1\n      tag_32\n      jump\t// in\n    tag_85:\n      dup1\n      0x1f\n      add\n      0x20\n      dup1\n      swap2\n      div\n      mul\n      0x20\n      add\n      mload(0x40)\n      swap1\n      dup2\n      add\n      0x40\n      mstore\n      dup1\n      swap3\n      swap2\n      swap1\n      dup2\n      dup2\n      mstore\n      0x20\n      add\n      dup3\n      dup1\n      sload\n      tag_86\n      swap1\n      tag_32\n      jump\t// in\n    tag_86:\n      dup1\n      iszero\n      tag_87\n      jumpi\n      dup1\n      0x1f\n      lt\n      tag_88\n      jumpi\n      0x0100\n      dup1\n      dup4\n      sload\n      div\n      mul\n      dup4\n      mstore\n      swap2\n      0x20\n      add\n      swap2\n      jump(tag_87)\n    tag_88:\n      dup3\n      add\n      swap2\n      swap1\n      0x00\n      mstore\n      keccak256(0x00, 0x20)\n      swap1\n    tag_89:\n      dup2\n      sload\n      dup2\n      mstore\n      swap1\n      0x01\n      add\n      swap1\n      0x20\n      add\n      dup1\n      dup4\n      gt\n      tag_89\n      jumpi\n      dup3\n      swap1\n      sub\n      0x1f\n      and\n      dup3\n      add\n      swap2\n    tag_87:\n      pop\n      pop\n      pop\n      pop\n      pop\n      dup2\n      mstore\n      0x20\n      add\n      0x02\n      dup3\n      add\n      sload\n      dup2\n      mstore\n      0x20\n      add\n      0x03\n      dup3\n      add\n      dup1\n      sload\n      tag_90\n      swap1\n      tag_32\n      jump\t// in\n    tag_90:\n      dup1\n      0x1f\n      add\n      0x20\n      dup1\n      swap2\n      div\n      mul\n      0x20\n      add\n      mload(0x40)\n      swap1\n      dup2\n      add\n      0x40\n      mstore\n      dup1\n      swap3\n      swap2\n      swap1\n      dup2\n      dup2\n      mstore\n      0x20\n      add\n      dup3\n      dup1\n      sload\n      tag_91\n      swap1\n      tag_32\n      jump\t// in\n    tag_91:\n      dup1\n      iszero\n      tag_92\n      jumpi\n      dup1\n      0x1f\n      lt\n      tag_93\n      jumpi\n      0x0100\n      dup1\n      dup4\n      sload\n      div\n      mul\n      dup4\n      mstore\n      swap2\n      0x20\n      add\n      swap2\n      jump(tag_92)\n    tag_93:\n      dup3\n      add\n      swap2\n      swap1\n      0x00\n      mstore\n      keccak256(0x00, 0x20)\n      swap1\n    tag_94:\n      dup2\n      sload\n      dup2\n      mstore\n      swap1\n      0x01\n      add\n      swap1\n      0x20\n      add\n      dup1\n      dup4\n      gt\n      tag_94\n      jumpi\n      dup3\n      swap1\n      sub\n      0x1f\n      and\n      dup3\n      add\n      swap2\n    tag_92:\n      pop\n      pop\n      pop\n      pop\n      pop\n      dup2\n      mstore\n      0x20\n      add\n      0x04\n      dup3\n      add\n      0x00\n      swap1\n      sload\n      swap1\n      0x0100\n      exp\n      swap1\n      div\n      0xff\n      and\n      iszero\n      iszero\n      iszero\n      iszero\n      dup2\n      mstore\n      pop\n      pop\n      dup2\n      mstore\n      0x20\n      add\n      swap1\n      0x01\n      add\n      swap1\n      jump(tag_82)\n    tag_83:\n      pop\n      pop\n      pop\n      pop\n      swap1\n      pop\n        /* \"contracts/4.StudentRegistry.sol\":1146:1246  function getAllStudents() public view returns(Student[] memory){... */\n      swap1\n      jump\t// out\n        /* \"#utility.yul\":7:82   */\n    tag_95:\n        /* \"#utility.yul\":40:46   */\n      0x00\n        /* \"#utility.yul\":73:75   */\n      0x40\n        /* \"#utility.yul\":67:76   */\n      mload\n        /* \"#utility.yul\":57:76   */\n      swap1\n      pop\n        /* \"#utility.yul\":7:82   */\n      swap1\n      jump\t// out\n        /* \"#utility.yul\":88:205   */\n    tag_96:\n        /* \"#utility.yul\":197:198   */\n      0x00\n        /* \"#utility.yul\":194:195   */\n      0x00\n        /* \"#utility.yul\":187:199   */\n      revert\n        /* \"#utility.yul\":211:328   */\n    tag_97:\n        /* \"#utility.yul\":320:321   */\n      0x00\n        /* \"#utility.yul\":317:318   */\n      0x00\n        /* \"#utility.yul\":310:322   */\n      revert\n        /* \"#utility.yul\":334:411   */\n    tag_98:\n        /* \"#utility.yul\":371:378   */\n      0x00\n        /* \"#utility.yul\":400:405   */\n      dup2\n        /* \"#utility.yul\":389:405   */\n      swap1\n      pop\n        /* \"#utility.yul\":334:411   */\n      swap2\n      swap1\n      pop\n      jump\t// out\n        /* \"#utility.yul\":417:539   */\n    tag_99:\n        /* \"#utility.yul\":490:514   */\n      tag_156\n        /* \"#utility.yul\":508:513   */\n      dup2\n        /* \"#utility.yul\":490:514   */\n      tag_98\n      jump\t// in\n    tag_156:\n        /* \"#utility.yul\":483:488   */\n      dup2\n        /* \"#utility.yul\":480:515   */\n      eq\n        /* \"#utility.yul\":470:533   */\n      tag_157\n      jumpi\n        /* \"#utility.yul\":529:530   */\n      0x00\n        /* \"#utility.yul\":526:527   */\n      0x00\n        /* \"#utility.yul\":519:531   */\n      revert\n        /* \"#utility.yul\":470:533   */\n    tag_157:\n        /* \"#utility.yul\":417:539   */\n      pop\n      jump\t// out\n        /* \"#utility.yul\":545:684   */\n    tag_100:\n        /* \"#utility.yul\":591:596   */\n      0x00\n        /* \"#utility.yul\":629:635   */\n      dup2\n        /* \"#utility.yul\":616:636   */\n      calldataload\n        /* \"#utility.yul\":607:636   */\n      swap1\n      pop\n        /* \"#utility.yul\":645:678   */\n      tag_159\n        /* \"#utility.yul\":672:677   */\n      dup2\n        /* \"#utility.yul\":645:678   */\n      tag_99\n      jump\t// in\n    tag_159:\n        /* \"#utility.yul\":545:684   */\n      swap3\n      swap2\n      pop\n      pop\n      jump\t// out\n        /* \"#utility.yul\":690:1019   */\n    tag_10:\n        /* \"#utility.yul\":749:755   */\n      0x00\n        /* \"#utility.yul\":798:800   */\n      0x20\n        /* \"#utility.yul\":786:795   */\n      dup3\n        /* \"#utility.yul\":777:784   */\n      dup5\n        /* \"#utility.yul\":773:796   */\n      sub\n        /* \"#utility.yul\":769:801   */\n      slt\n        /* \"#utility.yul\":766:885   */\n      iszero\n      tag_161\n      jumpi\n        /* \"#utility.yul\":804:883   */\n      tag_162\n      tag_96\n      jump\t// in\n    tag_162:\n        /* \"#utility.yul\":766:885   */\n    tag_161:\n        /* \"#utility.yul\":924:925   */\n      0x00\n        /* \"#utility.yul\":949:1002   */\n      tag_163\n        /* \"#utility.yul\":994:1001   */\n      dup5\n        /* \"#utility.yul\":985:991   */\n      dup3\n        /* \"#utility.yul\":974:983   */\n      dup6\n        /* \"#utility.yul\":970:992   */\n      add\n        /* \"#utility.yul\":949:1002   */\n      tag_100\n      jump\t// in\n    tag_163:\n        /* \"#utility.yul\":939:1002   */\n      swap2\n      pop\n        /* \"#utility.yul\":895:1012   */\n      pop\n        /* \"#utility.yul\":690:1019   */\n      swap3\n      swap2\n      pop\n      pop\n      jump\t// out\n        /* \"#utility.yul\":1025:1143   */\n    tag_101:\n        /* \"#utility.yul\":1112:1136   */\n      tag_165\n        /* \"#utility.yul\":1130:1135   */\n      dup2\n        /* \"#utility.yul\":1112:1136   */\n      tag_98\n      jump\t// in\n    tag_165:\n        /* \"#utility.yul\":1107:1110   */\n      dup3\n        /* \"#utility.yul\":1100:1137   */\n      mstore\n        /* \"#utility.yul\":1025:1143   */\n      pop\n      pop\n      jump\t// out\n        /* \"#utility.yul\":1149:1248   */\n    tag_102:\n        /* \"#utility.yul\":1201:1207   */\n      0x00\n        /* \"#utility.yul\":1235:1240   */\n      dup2\n        /* \"#utility.yul\":1229:1241   */\n      mload\n        /* \"#utility.yul\":1219:1241   */\n      swap1\n      pop\n        /* \"#utility.yul\":1149:1248   */\n      swap2\n      swap1\n      pop\n      jump\t// out\n        /* \"#utility.yul\":1254:1423   */\n    tag_103:\n        /* \"#utility.yul\":1338:1349   */\n      0x00\n        /* \"#utility.yul\":1372:1378   */\n      dup3\n        /* \"#utility.yul\":1367:1370   */\n      dup3\n        /* \"#utility.yul\":1360:1379   */\n      mstore\n        /* \"#utility.yul\":1412:1416   */\n      0x20\n        /* \"#utility.yul\":1407:1410   */\n      dup3\n        /* \"#utility.yul\":1403:1417   */\n      add\n        /* \"#utility.yul\":1388:1417   */\n      swap1\n      pop\n        /* \"#utility.yul\":1254:1423   */\n      swap3\n      swap2\n      pop\n      pop\n      jump\t// out\n        /* \"#utility.yul\":1429:1568   */\n    tag_104:\n        /* \"#utility.yul\":1518:1524   */\n      dup3\n        /* \"#utility.yul\":1513:1516   */\n      dup2\n        /* \"#utility.yul\":1508:1511   */\n      dup4\n        /* \"#utility.yul\":1502:1525   */\n      mcopy\n        /* \"#utility.yul\":1559:1560   */\n      0x00\n        /* \"#utility.yul\":1550:1556   */\n      dup4\n        /* \"#utility.yul\":1545:1548   */\n      dup4\n        /* \"#utility.yul\":1541:1557   */\n      add\n        /* \"#utility.yul\":1534:1561   */\n      mstore\n        /* \"#utility.yul\":1429:1568   */\n      pop\n      pop\n      pop\n      jump\t// out\n        /* \"#utility.yul\":1574:1676   */\n    tag_105:\n        /* \"#utility.yul\":1615:1621   */\n      0x00\n        /* \"#utility.yul\":1666:1668   */\n      0x1f\n        /* \"#utility.yul\":1662:1669   */\n      not\n        /* \"#utility.yul\":1657:1659   */\n      0x1f\n        /* \"#utility.yul\":1650:1655   */\n      dup4\n        /* \"#utility.yul\":1646:1660   */\n      add\n        /* \"#utility.yul\":1642:1670   */\n      and\n        /* \"#utility.yul\":1632:1670   */\n      swap1\n      pop\n        /* \"#utility.yul\":1574:1676   */\n      swap2\n      swap1\n      pop\n      jump\t// out\n        /* \"#utility.yul\":1682:2059   */\n    tag_106:\n        /* \"#utility.yul\":1770:1773   */\n      0x00\n        /* \"#utility.yul\":1798:1837   */\n      tag_171\n        /* \"#utility.yul\":1831:1836   */\n      dup3\n        /* \"#utility.yul\":1798:1837   */\n      tag_102\n      jump\t// in\n    tag_171:\n        /* \"#utility.yul\":1853:1924   */\n      tag_172\n        /* \"#utility.yul\":1917:1923   */\n      dup2\n        /* \"#utility.yul\":1912:1915   */\n      dup6\n        /* \"#utility.yul\":1853:1924   */\n      tag_103\n      jump\t// in\n    tag_172:\n        /* \"#utility.yul\":1846:1924   */\n      swap4\n      pop\n        /* \"#utility.yul\":1933:1998   */\n      tag_173\n        /* \"#utility.yul\":1991:1997   */\n      dup2\n        /* \"#utility.yul\":1986:1989   */\n      dup6\n        /* \"#utility.yul\":1979:1983   */\n      0x20\n        /* \"#utility.yul\":1972:1977   */\n      dup7\n        /* \"#utility.yul\":1968:1984   */\n      add\n        /* \"#utility.yul\":1933:1998   */\n      tag_104\n      jump\t// in\n    tag_173:\n        /* \"#utility.yul\":2023:2052   */\n      tag_174\n        /* \"#utility.yul\":2045:2051   */\n      dup2\n        /* \"#utility.yul\":2023:2052   */\n      tag_105\n      jump\t// in\n    tag_174:\n        /* \"#utility.yul\":2018:2021   */\n      dup5\n        /* \"#utility.yul\":2014:2053   */\n      add\n        /* \"#utility.yul\":2007:2053   */\n      swap2\n      pop\n        /* \"#utility.yul\":1774:2059   */\n      pop\n        /* \"#utility.yul\":1682:2059   */\n      swap3\n      swap2\n      pop\n      pop\n      jump\t// out\n        /* \"#utility.yul\":2065:2155   */\n    tag_107:\n        /* \"#utility.yul\":2099:2106   */\n      0x00\n        /* \"#utility.yul\":2142:2147   */\n      dup2\n        /* \"#utility.yul\":2135:2148   */\n      iszero\n        /* \"#utility.yul\":2128:2149   */\n      iszero\n        /* \"#utility.yul\":2117:2149   */\n      swap1\n      pop\n        /* \"#utility.yul\":2065:2155   */\n      swap2\n      swap1\n      pop\n      jump\t// out\n        /* \"#utility.yul\":2161:2270   */\n    tag_108:\n        /* \"#utility.yul\":2242:2263   */\n      tag_177\n        /* \"#utility.yul\":2257:2262   */\n      dup2\n        /* \"#utility.yul\":2242:2263   */\n      tag_107\n      jump\t// in\n    tag_177:\n        /* \"#utility.yul\":2237:2240   */\n      dup3\n        /* \"#utility.yul\":2230:2264   */\n      mstore\n        /* \"#utility.yul\":2161:2270   */\n      pop\n      pop\n      jump\t// out\n        /* \"#utility.yul\":2276:3110   */\n    tag_13:\n        /* \"#utility.yul\":2515:2519   */\n      0x00\n        /* \"#utility.yul\":2553:2556   */\n      0xa0\n        /* \"#utility.yul\":2542:2551   */\n      dup3\n        /* \"#utility.yul\":2538:2557   */\n      add\n        /* \"#utility.yul\":2530:2557   */\n      swap1\n      pop\n        /* \"#utility.yul\":2567:2638   */\n      tag_179\n        /* \"#utility.yul\":2635:2636   */\n      0x00\n        /* \"#utility.yul\":2624:2633   */\n      dup4\n        /* \"#utility.yul\":2620:2637   */\n      add\n        /* \"#utility.yul\":2611:2617   */\n      dup9\n        /* \"#utility.yul\":2567:2638   */\n      tag_101\n      jump\t// in\n    tag_179:\n        /* \"#utility.yul\":2685:2694   */\n      dup2\n        /* \"#utility.yul\":2679:2683   */\n      dup2\n        /* \"#utility.yul\":2675:2695   */\n      sub\n        /* \"#utility.yul\":2670:2672   */\n      0x20\n        /* \"#utility.yul\":2659:2668   */\n      dup4\n        /* \"#utility.yul\":2655:2673   */\n      add\n        /* \"#utility.yul\":2648:2696   */\n      mstore\n        /* \"#utility.yul\":2713:2791   */\n      tag_180\n        /* \"#utility.yul\":2786:2790   */\n      dup2\n        /* \"#utility.yul\":2777:2783   */\n      dup8\n        /* \"#utility.yul\":2713:2791   */\n      tag_106\n      jump\t// in\n    tag_180:\n        /* \"#utility.yul\":2705:2791   */\n      swap1\n      pop\n        /* \"#utility.yul\":2801:2873   */\n      tag_181\n        /* \"#utility.yul\":2869:2871   */\n      0x40\n        /* \"#utility.yul\":2858:2867   */\n      dup4\n        /* \"#utility.yul\":2854:2872   */\n      add\n        /* \"#utility.yul\":2845:2851   */\n      dup7\n        /* \"#utility.yul\":2801:2873   */\n      tag_101\n      jump\t// in\n    tag_181:\n        /* \"#utility.yul\":2920:2929   */\n      dup2\n        /* \"#utility.yul\":2914:2918   */\n      dup2\n        /* \"#utility.yul\":2910:2930   */\n      sub\n        /* \"#utility.yul\":2905:2907   */\n      0x60\n        /* \"#utility.yul\":2894:2903   */\n      dup4\n        /* \"#utility.yul\":2890:2908   */\n      add\n        /* \"#utility.yul\":2883:2931   */\n      mstore\n        /* \"#utility.yul\":2948:3026   */\n      tag_182\n        /* \"#utility.yul\":3021:3025   */\n      dup2\n        /* \"#utility.yul\":3012:3018   */\n      dup6\n        /* \"#utility.yul\":2948:3026   */\n      tag_106\n      jump\t// in\n    tag_182:\n        /* \"#utility.yul\":2940:3026   */\n      swap1\n      pop\n        /* \"#utility.yul\":3036:3103   */\n      tag_183\n        /* \"#utility.yul\":3098:3101   */\n      0x80\n        /* \"#utility.yul\":3087:3096   */\n      dup4\n        /* \"#utility.yul\":3083:3102   */\n      add\n        /* \"#utility.yul\":3074:3080   */\n      dup5\n        /* \"#utility.yul\":3036:3103   */\n      tag_108\n      jump\t// in\n    tag_183:\n        /* \"#utility.yul\":2276:3110   */\n      swap7\n      swap6\n      pop\n      pop\n      pop\n      pop\n      pop\n      pop\n      jump\t// out\n        /* \"#utility.yul\":3116:3233   */\n    tag_109:\n        /* \"#utility.yul\":3225:3226   */\n      0x00\n        /* \"#utility.yul\":3222:3223   */\n      0x00\n        /* \"#utility.yul\":3215:3227   */\n      revert\n        /* \"#utility.yul\":3239:3356   */\n    tag_110:\n        /* \"#utility.yul\":3348:3349   */\n      0x00\n        /* \"#utility.yul\":3345:3346   */\n      0x00\n        /* \"#utility.yul\":3338:3350   */\n      revert\n        /* \"#utility.yul\":3362:3542   */\n    tag_111:\n        /* \"#utility.yul\":3410:3487   */\n      0x4e487b7100000000000000000000000000000000000000000000000000000000\n        /* \"#utility.yul\":3407:3408   */\n      0x00\n        /* \"#utility.yul\":3400:3488   */\n      mstore\n        /* \"#utility.yul\":3507:3511   */\n      0x41\n        /* \"#utility.yul\":3504:3505   */\n      0x04\n        /* \"#utility.yul\":3497:3512   */\n      mstore\n        /* \"#utility.yul\":3531:3535   */\n      0x24\n        /* \"#utility.yul\":3528:3529   */\n      0x00\n        /* \"#utility.yul\":3521:3536   */\n      revert\n        /* \"#utility.yul\":3548:3829   */\n    tag_112:\n        /* \"#utility.yul\":3631:3658   */\n      tag_188\n        /* \"#utility.yul\":3653:3657   */\n      dup3\n        /* \"#utility.yul\":3631:3658   */\n      tag_105\n      jump\t// in\n    tag_188:\n        /* \"#utility.yul\":3623:3629   */\n      dup2\n        /* \"#utility.yul\":3619:3659   */\n      add\n        /* \"#utility.yul\":3761:3767   */\n      dup2\n        /* \"#utility.yul\":3749:3759   */\n      dup2\n        /* \"#utility.yul\":3746:3768   */\n      lt\n        /* \"#utility.yul\":3725:3743   */\n      0xffffffffffffffff\n        /* \"#utility.yul\":3713:3723   */\n      dup3\n        /* \"#utility.yul\":3710:3744   */\n      gt\n        /* \"#utility.yul\":3707:3769   */\n      or\n        /* \"#utility.yul\":3704:3792   */\n      iszero\n      tag_189\n      jumpi\n        /* \"#utility.yul\":3772:3790   */\n      tag_190\n      tag_111\n      jump\t// in\n    tag_190:\n        /* \"#utility.yul\":3704:3792   */\n    tag_189:\n        /* \"#utility.yul\":3812:3822   */\n      dup1\n        /* \"#utility.yul\":3808:3810   */\n      0x40\n        /* \"#utility.yul\":3801:3823   */\n      mstore\n        /* \"#utility.yul\":3591:3829   */\n      pop\n        /* \"#utility.yul\":3548:3829   */\n      pop\n      pop\n      jump\t// out\n        /* \"#utility.yul\":3835:3964   */\n    tag_113:\n        /* \"#utility.yul\":3869:3875   */\n      0x00\n        /* \"#utility.yul\":3896:3916   */\n      tag_192\n      tag_95\n      jump\t// in\n    tag_192:\n        /* \"#utility.yul\":3886:3916   */\n      swap1\n      pop\n        /* \"#utility.yul\":3925:3958   */\n      tag_193\n        /* \"#utility.yul\":3953:3957   */\n      dup3\n        /* \"#utility.yul\":3945:3951   */\n      dup3\n        /* \"#utility.yul\":3925:3958   */\n      tag_112\n      jump\t// in\n    tag_193:\n        /* \"#utility.yul\":3835:3964   */\n      swap2\n      swap1\n      pop\n      jump\t// out\n        /* \"#utility.yul\":3970:4278   */\n    tag_114:\n        /* \"#utility.yul\":4032:4036   */\n      0x00\n        /* \"#utility.yul\":4122:4140   */\n      0xffffffffffffffff\n        /* \"#utility.yul\":4114:4120   */\n      dup3\n        /* \"#utility.yul\":4111:4141   */\n      gt\n        /* \"#utility.yul\":4108:4164   */\n      iszero\n      tag_195\n      jumpi\n        /* \"#utility.yul\":4144:4162   */\n      tag_196\n      tag_111\n      jump\t// in\n    tag_196:\n        /* \"#utility.yul\":4108:4164   */\n    tag_195:\n        /* \"#utility.yul\":4182:4211   */\n      tag_197\n        /* \"#utility.yul\":4204:4210   */\n      dup3\n        /* \"#utility.yul\":4182:4211   */\n      tag_105\n      jump\t// in\n    tag_197:\n        /* \"#utility.yul\":4174:4211   */\n      swap1\n      pop\n        /* \"#utility.yul\":4266:4270   */\n      0x20\n        /* \"#utility.yul\":4260:4264   */\n      dup2\n        /* \"#utility.yul\":4256:4271   */\n      add\n        /* \"#utility.yul\":4248:4271   */\n      swap1\n      pop\n        /* \"#utility.yul\":3970:4278   */\n      swap2\n      swap1\n      pop\n      jump\t// out\n        /* \"#utility.yul\":4284:4432   */\n    tag_115:\n        /* \"#utility.yul\":4382:4388   */\n      dup3\n        /* \"#utility.yul\":4377:4380   */\n      dup2\n        /* \"#utility.yul\":4372:4375   */\n      dup4\n        /* \"#utility.yul\":4359:4389   */\n      calldatacopy\n        /* \"#utility.yul\":4423:4424   */\n      0x00\n        /* \"#utility.yul\":4414:4420   */\n      dup4\n        /* \"#utility.yul\":4409:4412   */\n      dup4\n        /* \"#utility.yul\":4405:4421   */\n      add\n        /* \"#utility.yul\":4398:4425   */\n      mstore\n        /* \"#utility.yul\":4284:4432   */\n      pop\n      pop\n      pop\n      jump\t// out\n        /* \"#utility.yul\":4438:4863   */\n    tag_116:\n        /* \"#utility.yul\":4516:4521   */\n      0x00\n        /* \"#utility.yul\":4541:4607   */\n      tag_200\n        /* \"#utility.yul\":4557:4606   */\n      tag_201\n        /* \"#utility.yul\":4599:4605   */\n      dup5\n        /* \"#utility.yul\":4557:4606   */\n      tag_114\n      jump\t// in\n    tag_201:\n        /* \"#utility.yul\":4541:4607   */\n      tag_113\n      jump\t// in\n    tag_200:\n        /* \"#utility.yul\":4532:4607   */\n      swap1\n      pop\n        /* \"#utility.yul\":4630:4636   */\n      dup3\n        /* \"#utility.yul\":4623:4628   */\n      dup2\n        /* \"#utility.yul\":4616:4637   */\n      mstore\n        /* \"#utility.yul\":4668:4672   */\n      0x20\n        /* \"#utility.yul\":4661:4666   */\n      dup2\n        /* \"#utility.yul\":4657:4673   */\n      add\n        /* \"#utility.yul\":4706:4709   */\n      dup5\n        /* \"#utility.yul\":4697:4703   */\n      dup5\n        /* \"#utility.yul\":4692:4695   */\n      dup5\n        /* \"#utility.yul\":4688:4704   */\n      add\n        /* \"#utility.yul\":4685:4710   */\n      gt\n        /* \"#utility.yul\":4682:4794   */\n      iszero\n      tag_202\n      jumpi\n        /* \"#utility.yul\":4713:4792   */\n      tag_203\n      tag_110\n      jump\t// in\n    tag_203:\n        /* \"#utility.yul\":4682:4794   */\n    tag_202:\n        /* \"#utility.yul\":4803:4857   */\n      tag_204\n        /* \"#utility.yul\":4850:4856   */\n      dup5\n        /* \"#utility.yul\":4845:4848   */\n      dup3\n        /* \"#utility.yul\":4840:4843   */\n      dup6\n        /* \"#utility.yul\":4803:4857   */\n      tag_115\n      jump\t// in\n    tag_204:\n        /* \"#utility.yul\":4522:4863   */\n      pop\n        /* \"#utility.yul\":4438:4863   */\n      swap4\n      swap3\n      pop\n      pop\n      pop\n      jump\t// out\n        /* \"#utility.yul\":4883:5223   */\n    tag_117:\n        /* \"#utility.yul\":4939:4944   */\n      0x00\n        /* \"#utility.yul\":4988:4991   */\n      dup3\n        /* \"#utility.yul\":4981:4985   */\n      0x1f\n        /* \"#utility.yul\":4973:4979   */\n      dup4\n        /* \"#utility.yul\":4969:4986   */\n      add\n        /* \"#utility.yul\":4965:4992   */\n      slt\n        /* \"#utility.yul\":4955:5077   */\n      tag_206\n      jumpi\n        /* \"#utility.yul\":4996:5075   */\n      tag_207\n      tag_109\n      jump\t// in\n    tag_207:\n        /* \"#utility.yul\":4955:5077   */\n    tag_206:\n        /* \"#utility.yul\":5113:5119   */\n      dup2\n        /* \"#utility.yul\":5100:5120   */\n      calldataload\n        /* \"#utility.yul\":5138:5217   */\n      tag_208\n        /* \"#utility.yul\":5213:5216   */\n      dup5\n        /* \"#utility.yul\":5205:5211   */\n      dup3\n        /* \"#utility.yul\":5198:5202   */\n      0x20\n        /* \"#utility.yul\":5190:5196   */\n      dup7\n        /* \"#utility.yul\":5186:5203   */\n      add\n        /* \"#utility.yul\":5138:5217   */\n      tag_116\n      jump\t// in\n    tag_208:\n        /* \"#utility.yul\":5129:5217   */\n      swap2\n      pop\n        /* \"#utility.yul\":4945:5223   */\n      pop\n        /* \"#utility.yul\":4883:5223   */\n      swap3\n      swap2\n      pop\n      pop\n      jump\t// out\n        /* \"#utility.yul\":5229:6354   */\n    tag_16:\n        /* \"#utility.yul\":5335:5341   */\n      0x00\n        /* \"#utility.yul\":5343:5349   */\n      0x00\n        /* \"#utility.yul\":5351:5357   */\n      0x00\n        /* \"#utility.yul\":5359:5365   */\n      0x00\n        /* \"#utility.yul\":5408:5411   */\n      0x80\n        /* \"#utility.yul\":5396:5405   */\n      dup6\n        /* \"#utility.yul\":5387:5394   */\n      dup8\n        /* \"#utility.yul\":5383:5406   */\n      sub\n        /* \"#utility.yul\":5379:5412   */\n      slt\n        /* \"#utility.yul\":5376:5496   */\n      iszero\n      tag_210\n      jumpi\n        /* \"#utility.yul\":5415:5494   */\n      tag_211\n      tag_96\n      jump\t// in\n    tag_211:\n        /* \"#utility.yul\":5376:5496   */\n    tag_210:\n        /* \"#utility.yul\":5535:5536   */\n      0x00\n        /* \"#utility.yul\":5560:5613   */\n      tag_212\n        /* \"#utility.yul\":5605:5612   */\n      dup8\n        /* \"#utility.yul\":5596:5602   */\n      dup3\n        /* \"#utility.yul\":5585:5594   */\n      dup9\n        /* \"#utility.yul\":5581:5603   */\n      add\n        /* \"#utility.yul\":5560:5613   */\n      tag_100\n      jump\t// in\n    tag_212:\n        /* \"#utility.yul\":5550:5613   */\n      swap5\n      pop\n        /* \"#utility.yul\":5506:5623   */\n      pop\n        /* \"#utility.yul\":5690:5692   */\n      0x20\n        /* \"#utility.yul\":5679:5688   */\n      dup6\n        /* \"#utility.yul\":5675:5693   */\n      add\n        /* \"#utility.yul\":5662:5694   */\n      calldataload\n        /* \"#utility.yul\":5721:5739   */\n      0xffffffffffffffff\n        /* \"#utility.yul\":5713:5719   */\n      dup2\n        /* \"#utility.yul\":5710:5740   */\n      gt\n        /* \"#utility.yul\":5707:5824   */\n      iszero\n      tag_213\n      jumpi\n        /* \"#utility.yul\":5743:5822   */\n      tag_214\n      tag_97\n      jump\t// in\n    tag_214:\n        /* \"#utility.yul\":5707:5824   */\n    tag_213:\n        /* \"#utility.yul\":5848:5911   */\n      tag_215\n        /* \"#utility.yul\":5903:5910   */\n      dup8\n        /* \"#utility.yul\":5894:5900   */\n      dup3\n        /* \"#utility.yul\":5883:5892   */\n      dup9\n        /* \"#utility.yul\":5879:5901   */\n      add\n        /* \"#utility.yul\":5848:5911   */\n      tag_117\n      jump\t// in\n    tag_215:\n        /* \"#utility.yul\":5838:5911   */\n      swap4\n      pop\n        /* \"#utility.yul\":5633:5921   */\n      pop\n        /* \"#utility.yul\":5960:5962   */\n      0x40\n        /* \"#utility.yul\":5986:6039   */\n      tag_216\n        /* \"#utility.yul\":6031:6038   */\n      dup8\n        /* \"#utility.yul\":6022:6028   */\n      dup3\n        /* \"#utility.yul\":6011:6020   */\n      dup9\n        /* \"#utility.yul\":6007:6029   */\n      add\n        /* \"#utility.yul\":5986:6039   */\n      tag_100\n      jump\t// in\n    tag_216:\n        /* \"#utility.yul\":5976:6039   */\n      swap3\n      pop\n        /* \"#utility.yul\":5931:6049   */\n      pop\n        /* \"#utility.yul\":6116:6118   */\n      0x60\n        /* \"#utility.yul\":6105:6114   */\n      dup6\n        /* \"#utility.yul\":6101:6119   */\n      add\n        /* \"#utility.yul\":6088:6120   */\n      calldataload\n        /* \"#utility.yul\":6147:6165   */\n      0xffffffffffffffff\n        /* \"#utility.yul\":6139:6145   */\n      dup2\n        /* \"#utility.yul\":6136:6166   */\n      gt\n        /* \"#utility.yul\":6133:6250   */\n      iszero\n      tag_217\n      jumpi\n        /* \"#utility.yul\":6169:6248   */\n      tag_218\n      tag_97\n      jump\t// in\n    tag_218:\n        /* \"#utility.yul\":6133:6250   */\n    tag_217:\n        /* \"#utility.yul\":6274:6337   */\n      tag_219\n        /* \"#utility.yul\":6329:6336   */\n      dup8\n        /* \"#utility.yul\":6320:6326   */\n      dup3\n        /* \"#utility.yul\":6309:6318   */\n      dup9\n        /* \"#utility.yul\":6305:6327   */\n      add\n        /* \"#utility.yul\":6274:6337   */\n      tag_117\n      jump\t// in\n    tag_219:\n        /* \"#utility.yul\":6264:6337   */\n      swap2\n      pop\n        /* \"#utility.yul\":6059:6347   */\n      pop\n        /* \"#utility.yul\":5229:6354   */\n      swap3\n      swap6\n      swap2\n      swap5\n      pop\n      swap3\n      pop\n      jump\t// out\n        /* \"#utility.yul\":6360:7095   */\n    tag_22:\n        /* \"#utility.yul\":6577:6581   */\n      0x00\n        /* \"#utility.yul\":6615:6618   */\n      0x80\n        /* \"#utility.yul\":6604:6613   */\n      dup3\n        /* \"#utility.yul\":6600:6619   */\n      add\n        /* \"#utility.yul\":6592:6619   */\n      swap1\n      pop\n        /* \"#utility.yul\":6629:6700   */\n      tag_221\n        /* \"#utility.yul\":6697:6698   */\n      0x00\n        /* \"#utility.yul\":6686:6695   */\n      dup4\n        /* \"#utility.yul\":6682:6699   */\n      add\n        /* \"#utility.yul\":6673:6679   */\n      dup8\n        /* \"#utility.yul\":6629:6700   */\n      tag_101\n      jump\t// in\n    tag_221:\n        /* \"#utility.yul\":6747:6756   */\n      dup2\n        /* \"#utility.yul\":6741:6745   */\n      dup2\n        /* \"#utility.yul\":6737:6757   */\n      sub\n        /* \"#utility.yul\":6732:6734   */\n      0x20\n        /* \"#utility.yul\":6721:6730   */\n      dup4\n        /* \"#utility.yul\":6717:6735   */\n      add\n        /* \"#utility.yul\":6710:6758   */\n      mstore\n        /* \"#utility.yul\":6775:6853   */\n      tag_222\n        /* \"#utility.yul\":6848:6852   */\n      dup2\n        /* \"#utility.yul\":6839:6845   */\n      dup7\n        /* \"#utility.yul\":6775:6853   */\n      tag_106\n      jump\t// in\n    tag_222:\n        /* \"#utility.yul\":6767:6853   */\n      swap1\n      pop\n        /* \"#utility.yul\":6863:6935   */\n      tag_223\n        /* \"#utility.yul\":6931:6933   */\n      0x40\n        /* \"#utility.yul\":6920:6929   */\n      dup4\n        /* \"#utility.yul\":6916:6934   */\n      add\n        /* \"#utility.yul\":6907:6913   */\n      dup6\n        /* \"#utility.yul\":6863:6935   */\n      tag_101\n      jump\t// in\n    tag_223:\n        /* \"#utility.yul\":6982:6991   */\n      dup2\n        /* \"#utility.yul\":6976:6980   */\n      dup2\n        /* \"#utility.yul\":6972:6992   */\n      sub\n        /* \"#utility.yul\":6967:6969   */\n      0x60\n        /* \"#utility.yul\":6956:6965   */\n      dup4\n        /* \"#utility.yul\":6952:6970   */\n      add\n        /* \"#utility.yul\":6945:6993   */\n      mstore\n        /* \"#utility.yul\":7010:7088   */\n      tag_224\n        /* \"#utility.yul\":7083:7087   */\n      dup2\n        /* \"#utility.yul\":7074:7080   */\n      dup5\n        /* \"#utility.yul\":7010:7088   */\n      tag_106\n      jump\t// in\n    tag_224:\n        /* \"#utility.yul\":7002:7088   */\n      swap1\n      pop\n        /* \"#utility.yul\":6360:7095   */\n      swap6\n      swap5\n      pop\n      pop\n      pop\n      pop\n      pop\n      jump\t// out\n        /* \"#utility.yul\":7101:7238   */\n    tag_118:\n        /* \"#utility.yul\":7191:7197   */\n      0x00\n        /* \"#utility.yul\":7225:7230   */\n      dup2\n        /* \"#utility.yul\":7219:7231   */\n      mload\n        /* \"#utility.yul\":7209:7231   */\n      swap1\n      pop\n        /* \"#utility.yul\":7101:7238   */\n      swap2\n      swap1\n      pop\n      jump\t// out\n        /* \"#utility.yul\":7244:7451   */\n    tag_119:\n        /* \"#utility.yul\":7366:7377   */\n      0x00\n        /* \"#utility.yul\":7400:7406   */\n      dup3\n        /* \"#utility.yul\":7395:7398   */\n      dup3\n        /* \"#utility.yul\":7388:7407   */\n      mstore\n        /* \"#utility.yul\":7440:7444   */\n      0x20\n        /* \"#utility.yul\":7435:7438   */\n      dup3\n        /* \"#utility.yul\":7431:7445   */\n      add\n        /* \"#utility.yul\":7416:7445   */\n      swap1\n      pop\n        /* \"#utility.yul\":7244:7451   */\n      swap3\n      swap2\n      pop\n      pop\n      jump\t// out\n        /* \"#utility.yul\":7457:7612   */\n    tag_120:\n        /* \"#utility.yul\":7547:7551   */\n      0x00\n        /* \"#utility.yul\":7570:7573   */\n      dup2\n        /* \"#utility.yul\":7562:7573   */\n      swap1\n      pop\n        /* \"#utility.yul\":7600:7604   */\n      0x20\n        /* \"#utility.yul\":7595:7598   */\n      dup3\n        /* \"#utility.yul\":7591:7605   */\n      add\n        /* \"#utility.yul\":7583:7605   */\n      swap1\n      pop\n        /* \"#utility.yul\":7457:7612   */\n      swap2\n      swap1\n      pop\n      jump\t// out\n        /* \"#utility.yul\":7618:7726   */\n    tag_121:\n        /* \"#utility.yul\":7695:7719   */\n      tag_229\n        /* \"#utility.yul\":7713:7718   */\n      dup2\n        /* \"#utility.yul\":7695:7719   */\n      tag_98\n      jump\t// in\n    tag_229:\n        /* \"#utility.yul\":7690:7693   */\n      dup3\n        /* \"#utility.yul\":7683:7720   */\n      mstore\n        /* \"#utility.yul\":7618:7726   */\n      pop\n      pop\n      jump\t// out\n        /* \"#utility.yul\":7732:7891   */\n    tag_122:\n        /* \"#utility.yul\":7806:7817   */\n      0x00\n        /* \"#utility.yul\":7840:7846   */\n      dup3\n        /* \"#utility.yul\":7835:7838   */\n      dup3\n        /* \"#utility.yul\":7828:7847   */\n      mstore\n        /* \"#utility.yul\":7880:7884   */\n      0x20\n        /* \"#utility.yul\":7875:7878   */\n      dup3\n        /* \"#utility.yul\":7871:7885   */\n      add\n        /* \"#utility.yul\":7856:7885   */\n      swap1\n      pop\n        /* \"#utility.yul\":7732:7891   */\n      swap3\n      swap2\n      pop\n      pop\n      jump\t// out\n        /* \"#utility.yul\":7897:8254   */\n    tag_123:\n        /* \"#utility.yul\":7975:7978   */\n      0x00\n        /* \"#utility.yul\":8003:8042   */\n      tag_232\n        /* \"#utility.yul\":8036:8041   */\n      dup3\n        /* \"#utility.yul\":8003:8042   */\n      tag_102\n      jump\t// in\n    tag_232:\n        /* \"#utility.yul\":8058:8119   */\n      tag_233\n        /* \"#utility.yul\":8112:8118   */\n      dup2\n        /* \"#utility.yul\":8107:8110   */\n      dup6\n        /* \"#utility.yul\":8058:8119   */\n      tag_122\n      jump\t// in\n    tag_233:\n        /* \"#utility.yul\":8051:8119   */\n      swap4\n      pop\n        /* \"#utility.yul\":8128:8193   */\n      tag_234\n        /* \"#utility.yul\":8186:8192   */\n      dup2\n        /* \"#utility.yul\":8181:8184   */\n      dup6\n        /* \"#utility.yul\":8174:8178   */\n      0x20\n        /* \"#utility.yul\":8167:8172   */\n      dup7\n        /* \"#utility.yul\":8163:8179   */\n      add\n        /* \"#utility.yul\":8128:8193   */\n      tag_104\n      jump\t// in\n    tag_234:\n        /* \"#utility.yul\":8218:8247   */\n      tag_235\n        /* \"#utility.yul\":8240:8246   */\n      dup2\n        /* \"#utility.yul\":8218:8247   */\n      tag_105\n      jump\t// in\n    tag_235:\n        /* \"#utility.yul\":8213:8216   */\n      dup5\n        /* \"#utility.yul\":8209:8248   */\n      add\n        /* \"#utility.yul\":8202:8248   */\n      swap2\n      pop\n        /* \"#utility.yul\":7979:8254   */\n      pop\n        /* \"#utility.yul\":7897:8254   */\n      swap3\n      swap2\n      pop\n      pop\n      jump\t// out\n        /* \"#utility.yul\":8260:8359   */\n    tag_124:\n        /* \"#utility.yul\":8331:8352   */\n      tag_237\n        /* \"#utility.yul\":8346:8351   */\n      dup2\n        /* \"#utility.yul\":8331:8352   */\n      tag_107\n      jump\t// in\n    tag_237:\n        /* \"#utility.yul\":8326:8329   */\n      dup3\n        /* \"#utility.yul\":8319:8353   */\n      mstore\n        /* \"#utility.yul\":8260:8359   */\n      pop\n      pop\n      jump\t// out\n        /* \"#utility.yul\":8437:9621   */\n    tag_125:\n        /* \"#utility.yul\":8542:8545   */\n      0x00\n        /* \"#utility.yul\":8578:8582   */\n      0xa0\n        /* \"#utility.yul\":8573:8576   */\n      dup4\n        /* \"#utility.yul\":8569:8583   */\n      add\n        /* \"#utility.yul\":8663:8667   */\n      0x00\n        /* \"#utility.yul\":8656:8661   */\n      dup4\n        /* \"#utility.yul\":8652:8668   */\n      add\n        /* \"#utility.yul\":8646:8669   */\n      mload\n        /* \"#utility.yul\":8682:8745   */\n      tag_239\n        /* \"#utility.yul\":8739:8743   */\n      0x00\n        /* \"#utility.yul\":8734:8737   */\n      dup7\n        /* \"#utility.yul\":8730:8744   */\n      add\n        /* \"#utility.yul\":8716:8728   */\n      dup3\n        /* \"#utility.yul\":8682:8745   */\n      tag_121\n      jump\t// in\n    tag_239:\n        /* \"#utility.yul\":8593:8755   */\n      pop\n        /* \"#utility.yul\":8837:8841   */\n      0x20\n        /* \"#utility.yul\":8830:8835   */\n      dup4\n        /* \"#utility.yul\":8826:8842   */\n      add\n        /* \"#utility.yul\":8820:8843   */\n      mload\n        /* \"#utility.yul\":8890:8893   */\n      dup5\n        /* \"#utility.yul\":8884:8888   */\n      dup3\n        /* \"#utility.yul\":8880:8894   */\n      sub\n        /* \"#utility.yul\":8873:8877   */\n      0x20\n        /* \"#utility.yul\":8868:8871   */\n      dup7\n        /* \"#utility.yul\":8864:8878   */\n      add\n        /* \"#utility.yul\":8857:8895   */\n      mstore\n        /* \"#utility.yul\":8916:8989   */\n      tag_240\n        /* \"#utility.yul\":8984:8988   */\n      dup3\n        /* \"#utility.yul\":8970:8982   */\n      dup3\n        /* \"#utility.yul\":8916:8989   */\n      tag_123\n      jump\t// in\n    tag_240:\n        /* \"#utility.yul\":8908:8989   */\n      swap2\n      pop\n        /* \"#utility.yul\":8765:9000   */\n      pop\n        /* \"#utility.yul\":9081:9085   */\n      0x40\n        /* \"#utility.yul\":9074:9079   */\n      dup4\n        /* \"#utility.yul\":9070:9086   */\n      add\n        /* \"#utility.yul\":9064:9087   */\n      mload\n        /* \"#utility.yul\":9100:9163   */\n      tag_241\n        /* \"#utility.yul\":9157:9161   */\n      0x40\n        /* \"#utility.yul\":9152:9155   */\n      dup7\n        /* \"#utility.yul\":9148:9162   */\n      add\n        /* \"#utility.yul\":9134:9146   */\n      dup3\n        /* \"#utility.yul\":9100:9163   */\n      tag_121\n      jump\t// in\n    tag_241:\n        /* \"#utility.yul\":9010:9173   */\n      pop\n        /* \"#utility.yul\":9261:9265   */\n      0x60\n        /* \"#utility.yul\":9254:9259   */\n      dup4\n        /* \"#utility.yul\":9250:9266   */\n      add\n        /* \"#utility.yul\":9244:9267   */\n      mload\n        /* \"#utility.yul\":9314:9317   */\n      dup5\n        /* \"#utility.yul\":9308:9312   */\n      dup3\n        /* \"#utility.yul\":9304:9318   */\n      sub\n        /* \"#utility.yul\":9297:9301   */\n      0x60\n        /* \"#utility.yul\":9292:9295   */\n      dup7\n        /* \"#utility.yul\":9288:9302   */\n      add\n        /* \"#utility.yul\":9281:9319   */\n      mstore\n        /* \"#utility.yul\":9340:9413   */\n      tag_242\n        /* \"#utility.yul\":9408:9412   */\n      dup3\n        /* \"#utility.yul\":9394:9406   */\n      dup3\n        /* \"#utility.yul\":9340:9413   */\n      tag_123\n      jump\t// in\n    tag_242:\n        /* \"#utility.yul\":9332:9413   */\n      swap2\n      pop\n        /* \"#utility.yul\":9183:9424   */\n      pop\n        /* \"#utility.yul\":9508:9512   */\n      0x80\n        /* \"#utility.yul\":9501:9506   */\n      dup4\n        /* \"#utility.yul\":9497:9513   */\n      add\n        /* \"#utility.yul\":9491:9514   */\n      mload\n        /* \"#utility.yul\":9527:9584   */\n      tag_243\n        /* \"#utility.yul\":9578:9582   */\n      0x80\n        /* \"#utility.yul\":9573:9576   */\n      dup7\n        /* \"#utility.yul\":9569:9583   */\n      add\n        /* \"#utility.yul\":9555:9567   */\n      dup3\n        /* \"#utility.yul\":9527:9584   */\n      tag_124\n      jump\t// in\n    tag_243:\n        /* \"#utility.yul\":9434:9594   */\n      pop\n        /* \"#utility.yul\":9611:9615   */\n      dup1\n        /* \"#utility.yul\":9604:9615   */\n      swap2\n      pop\n        /* \"#utility.yul\":8547:9621   */\n      pop\n        /* \"#utility.yul\":8437:9621   */\n      swap3\n      swap2\n      pop\n      pop\n      jump\t// out\n        /* \"#utility.yul\":9627:9875   */\n    tag_126:\n        /* \"#utility.yul\":9742:9752   */\n      0x00\n        /* \"#utility.yul\":9777:9869   */\n      tag_245\n        /* \"#utility.yul\":9865:9868   */\n      dup4\n        /* \"#utility.yul\":9857:9863   */\n      dup4\n        /* \"#utility.yul\":9777:9869   */\n      tag_125\n      jump\t// in\n    tag_245:\n        /* \"#utility.yul\":9763:9869   */\n      swap1\n      pop\n        /* \"#utility.yul\":9627:9875   */\n      swap3\n      swap2\n      pop\n      pop\n      jump\t// out\n        /* \"#utility.yul\":9881:10017   */\n    tag_127:\n        /* \"#utility.yul\":9974:9978   */\n      0x00\n        /* \"#utility.yul\":10006:10010   */\n      0x20\n        /* \"#utility.yul\":10001:10004   */\n      dup3\n        /* \"#utility.yul\":9997:10011   */\n      add\n        /* \"#utility.yul\":9989:10011   */\n      swap1\n      pop\n        /* \"#utility.yul\":9881:10017   */\n      swap2\n      swap1\n      pop\n      jump\t// out\n        /* \"#utility.yul\":10099:11194   */\n    tag_128:\n        /* \"#utility.yul\":10264:10267   */\n      0x00\n        /* \"#utility.yul\":10293:10370   */\n      tag_248\n        /* \"#utility.yul\":10364:10369   */\n      dup3\n        /* \"#utility.yul\":10293:10370   */\n      tag_118\n      jump\t// in\n    tag_248:\n        /* \"#utility.yul\":10386:10495   */\n      tag_249\n        /* \"#utility.yul\":10488:10494   */\n      dup2\n        /* \"#utility.yul\":10483:10486   */\n      dup6\n        /* \"#utility.yul\":10386:10495   */\n      tag_119\n      jump\t// in\n    tag_249:\n        /* \"#utility.yul\":10379:10495   */\n      swap4\n      pop\n        /* \"#utility.yul\":10521:10524   */\n      dup4\n        /* \"#utility.yul\":10566:10570   */\n      0x20\n        /* \"#utility.yul\":10558:10564   */\n      dup3\n        /* \"#utility.yul\":10554:10571   */\n      mul\n        /* \"#utility.yul\":10549:10552   */\n      dup6\n        /* \"#utility.yul\":10545:10572   */\n      add\n        /* \"#utility.yul\":10596:10675   */\n      tag_250\n        /* \"#utility.yul\":10669:10674   */\n      dup6\n        /* \"#utility.yul\":10596:10675   */\n      tag_120\n      jump\t// in\n    tag_250:\n        /* \"#utility.yul\":10698:10705   */\n      dup1\n        /* \"#utility.yul\":10729:10730   */\n      0x00\n        /* \"#utility.yul\":10714:11149   */\n    tag_251:\n        /* \"#utility.yul\":10739:10745   */\n      dup6\n        /* \"#utility.yul\":10736:10737   */\n      dup2\n        /* \"#utility.yul\":10733:10746   */\n      lt\n        /* \"#utility.yul\":10714:11149   */\n      iszero\n      tag_253\n      jumpi\n        /* \"#utility.yul\":10810:10819   */\n      dup5\n        /* \"#utility.yul\":10804:10808   */\n      dup5\n        /* \"#utility.yul\":10800:10820   */\n      sub\n        /* \"#utility.yul\":10795:10798   */\n      dup10\n        /* \"#utility.yul\":10788:10821   */\n      mstore\n        /* \"#utility.yul\":10861:10867   */\n      dup2\n        /* \"#utility.yul\":10855:10868   */\n      mload\n        /* \"#utility.yul\":10889:10999   */\n      tag_254\n        /* \"#utility.yul\":10994:10998   */\n      dup6\n        /* \"#utility.yul\":10979:10992   */\n      dup3\n        /* \"#utility.yul\":10889:10999   */\n      tag_126\n      jump\t// in\n    tag_254:\n        /* \"#utility.yul\":10881:10999   */\n      swap5\n      pop\n        /* \"#utility.yul\":11022:11105   */\n      tag_255\n        /* \"#utility.yul\":11098:11104   */\n      dup4\n        /* \"#utility.yul\":11022:11105   */\n      tag_127\n      jump\t// in\n    tag_255:\n        /* \"#utility.yul\":11012:11105   */\n      swap3\n      pop\n        /* \"#utility.yul\":11134:11138   */\n      0x20\n        /* \"#utility.yul\":11129:11132   */\n      dup11\n        /* \"#utility.yul\":11125:11139   */\n      add\n        /* \"#utility.yul\":11118:11139   */\n      swap10\n      pop\n        /* \"#utility.yul\":10774:11149   */\n      pop\n        /* \"#utility.yul\":10761:10762   */\n      0x01\n        /* \"#utility.yul\":10758:10759   */\n      dup2\n        /* \"#utility.yul\":10754:10763   */\n      add\n        /* \"#utility.yul\":10749:10763   */\n      swap1\n      pop\n        /* \"#utility.yul\":10714:11149   */\n      jump(tag_251)\n    tag_253:\n        /* \"#utility.yul\":10718:10732   */\n      pop\n        /* \"#utility.yul\":11165:11169   */\n      dup3\n        /* \"#utility.yul\":11158:11169   */\n      swap8\n      pop\n        /* \"#utility.yul\":11185:11188   */\n      dup8\n        /* \"#utility.yul\":11178:11188   */\n      swap6\n      pop\n        /* \"#utility.yul\":10269:11194   */\n      pop\n      pop\n      pop\n      pop\n      pop\n        /* \"#utility.yul\":10099:11194   */\n      swap3\n      swap2\n      pop\n      pop\n      jump\t// out\n        /* \"#utility.yul\":11200:11665   */\n    tag_30:\n        /* \"#utility.yul\":11389:11393   */\n      0x00\n        /* \"#utility.yul\":11427:11429   */\n      0x20\n        /* \"#utility.yul\":11416:11425   */\n      dup3\n        /* \"#utility.yul\":11412:11430   */\n      add\n        /* \"#utility.yul\":11404:11430   */\n      swap1\n      pop\n        /* \"#utility.yul\":11476:11485   */\n      dup2\n        /* \"#utility.yul\":11470:11474   */\n      dup2\n        /* \"#utility.yul\":11466:11486   */\n      sub\n        /* \"#utility.yul\":11462:11463   */\n      0x00\n        /* \"#utility.yul\":11451:11460   */\n      dup4\n        /* \"#utility.yul\":11447:11464   */\n      add\n        /* \"#utility.yul\":11440:11487   */\n      mstore\n        /* \"#utility.yul\":11504:11658   */\n      tag_257\n        /* \"#utility.yul\":11653:11657   */\n      dup2\n        /* \"#utility.yul\":11644:11650   */\n      dup5\n        /* \"#utility.yul\":11504:11658   */\n      tag_128\n      jump\t// in\n    tag_257:\n        /* \"#utility.yul\":11496:11658   */\n      swap1\n      pop\n        /* \"#utility.yul\":11200:11665   */\n      swap3\n      swap2\n      pop\n      pop\n      jump\t// out\n        /* \"#utility.yul\":11671:11851   */\n    tag_129:\n        /* \"#utility.yul\":11719:11796   */\n      0x4e487b7100000000000000000000000000000000000000000000000000000000\n        /* \"#utility.yul\":11716:11717   */\n      0x00\n        /* \"#utility.yul\":11709:11797   */\n      mstore\n        /* \"#utility.yul\":11816:11820   */\n      0x22\n        /* \"#utility.yul\":11813:11814   */\n      0x04\n        /* \"#utility.yul\":11806:11821   */\n      mstore\n        /* \"#utility.yul\":11840:11844   */\n      0x24\n        /* \"#utility.yul\":11837:11838   */\n      0x00\n        /* \"#utility.yul\":11830:11845   */\n      revert\n        /* \"#utility.yul\":11857:12177   */\n    tag_32:\n        /* \"#utility.yul\":11901:11907   */\n      0x00\n        /* \"#utility.yul\":11938:11939   */\n      0x02\n        /* \"#utility.yul\":11932:11936   */\n      dup3\n        /* \"#utility.yul\":11928:11940   */\n      div\n        /* \"#utility.yul\":11918:11940   */\n      swap1\n      pop\n        /* \"#utility.yul\":11985:11986   */\n      0x01\n        /* \"#utility.yul\":11979:11983   */\n      dup3\n        /* \"#utility.yul\":11975:11987   */\n      and\n        /* \"#utility.yul\":12006:12024   */\n      dup1\n        /* \"#utility.yul\":11996:12077   */\n      tag_260\n      jumpi\n        /* \"#utility.yul\":12062:12066   */\n      0x7f\n        /* \"#utility.yul\":12054:12060   */\n      dup3\n        /* \"#utility.yul\":12050:12067   */\n      and\n        /* \"#utility.yul\":12040:12067   */\n      swap2\n      pop\n        /* \"#utility.yul\":11996:12077   */\n    tag_260:\n        /* \"#utility.yul\":12124:12126   */\n      0x20\n        /* \"#utility.yul\":12116:12122   */\n      dup3\n        /* \"#utility.yul\":12113:12127   */\n      lt\n        /* \"#utility.yul\":12093:12111   */\n      dup2\n        /* \"#utility.yul\":12090:12128   */\n      sub\n        /* \"#utility.yul\":12087:12171   */\n      tag_261\n      jumpi\n        /* \"#utility.yul\":12143:12161   */\n      tag_262\n      tag_129\n      jump\t// in\n    tag_262:\n        /* \"#utility.yul\":12087:12171   */\n    tag_261:\n        /* \"#utility.yul\":11908:12177   */\n      pop\n        /* \"#utility.yul\":11857:12177   */\n      swap2\n      swap1\n      pop\n      jump\t// out\n        /* \"#utility.yul\":12183:12355   */\n    tag_130:\n        /* \"#utility.yul\":12323:12347   */\n      0x53747564656e7420616c72656164792065786973747300000000000000000000\n        /* \"#utility.yul\":12319:12320   */\n      0x00\n        /* \"#utility.yul\":12311:12317   */\n      dup3\n        /* \"#utility.yul\":12307:12321   */\n      add\n        /* \"#utility.yul\":12300:12348   */\n      mstore\n        /* \"#utility.yul\":12183:12355   */\n      pop\n      jump\t// out\n        /* \"#utility.yul\":12361:12727   */\n    tag_131:\n        /* \"#utility.yul\":12503:12506   */\n      0x00\n        /* \"#utility.yul\":12524:12591   */\n      tag_265\n        /* \"#utility.yul\":12588:12590   */\n      0x16\n        /* \"#utility.yul\":12583:12586   */\n      dup4\n        /* \"#utility.yul\":12524:12591   */\n      tag_103\n      jump\t// in\n    tag_265:\n        /* \"#utility.yul\":12517:12591   */\n      swap2\n      pop\n        /* \"#utility.yul\":12600:12693   */\n      tag_266\n        /* \"#utility.yul\":12689:12692   */\n      dup3\n        /* \"#utility.yul\":12600:12693   */\n      tag_130\n      jump\t// in\n    tag_266:\n        /* \"#utility.yul\":12718:12720   */\n      0x20\n        /* \"#utility.yul\":12713:12716   */\n      dup3\n        /* \"#utility.yul\":12709:12721   */\n      add\n        /* \"#utility.yul\":12702:12721   */\n      swap1\n      pop\n        /* \"#utility.yul\":12361:12727   */\n      swap2\n      swap1\n      pop\n      jump\t// out\n        /* \"#utility.yul\":12733:13152   */\n    tag_45:\n        /* \"#utility.yul\":12899:12903   */\n      0x00\n        /* \"#utility.yul\":12937:12939   */\n      0x20\n        /* \"#utility.yul\":12926:12935   */\n      dup3\n        /* \"#utility.yul\":12922:12940   */\n      add\n        /* \"#utility.yul\":12914:12940   */\n      swap1\n      pop\n        /* \"#utility.yul\":12986:12995   */\n      dup2\n        /* \"#utility.yul\":12980:12984   */\n      dup2\n        /* \"#utility.yul\":12976:12996   */\n      sub\n        /* \"#utility.yul\":12972:12973   */\n      0x00\n        /* \"#utility.yul\":12961:12970   */\n      dup4\n        /* \"#utility.yul\":12957:12974   */\n      add\n        /* \"#utility.yul\":12950:12997   */\n      mstore\n        /* \"#utility.yul\":13014:13145   */\n      tag_268\n        /* \"#utility.yul\":13140:13144   */\n      dup2\n        /* \"#utility.yul\":13014:13145   */\n      tag_131\n      jump\t// in\n    tag_268:\n        /* \"#utility.yul\":13006:13145   */\n      swap1\n      pop\n        /* \"#utility.yul\":12733:13152   */\n      swap2\n      swap1\n      pop\n      jump\t// out\n        /* \"#utility.yul\":13158:13299   */\n    tag_132:\n        /* \"#utility.yul\":13207:13211   */\n      0x00\n        /* \"#utility.yul\":13230:13233   */\n      dup2\n        /* \"#utility.yul\":13222:13233   */\n      swap1\n      pop\n        /* \"#utility.yul\":13253:13256   */\n      dup2\n        /* \"#utility.yul\":13250:13251   */\n      0x00\n        /* \"#utility.yul\":13243:13257   */\n      mstore\n        /* \"#utility.yul\":13287:13291   */\n      0x20\n        /* \"#utility.yul\":13284:13285   */\n      0x00\n        /* \"#utility.yul\":13274:13292   */\n      keccak256\n        /* \"#utility.yul\":13266:13292   */\n      swap1\n      pop\n        /* \"#utility.yul\":13158:13299   */\n      swap2\n      swap1\n      pop\n      jump\t// out\n        /* \"#utility.yul\":13305:13398   */\n    tag_133:\n        /* \"#utility.yul\":13342:13348   */\n      0x00\n        /* \"#utility.yul\":13389:13391   */\n      0x20\n        /* \"#utility.yul\":13384:13386   */\n      0x1f\n        /* \"#utility.yul\":13377:13382   */\n      dup4\n        /* \"#utility.yul\":13373:13387   */\n      add\n        /* \"#utility.yul\":13369:13392   */\n      div\n        /* \"#utility.yul\":13359:13392   */\n      swap1\n      pop\n        /* \"#utility.yul\":13305:13398   */\n      swap2\n      swap1\n      pop\n      jump\t// out\n        /* \"#utility.yul\":13404:13511   */\n    tag_134:\n        /* \"#utility.yul\":13448:13456   */\n      0x00\n        /* \"#utility.yul\":13498:13503   */\n      dup3\n        /* \"#utility.yul\":13492:13496   */\n      dup3\n        /* \"#utility.yul\":13488:13504   */\n      shl\n        /* \"#utility.yul\":13467:13504   */\n      swap1\n      pop\n        /* \"#utility.yul\":13404:13511   */\n      swap3\n      swap2\n      pop\n      pop\n      jump\t// out\n        /* \"#utility.yul\":13517:13910   */\n    tag_135:\n        /* \"#utility.yul\":13586:13592   */\n      0x00\n        /* \"#utility.yul\":13636:13637   */\n      0x08\n        /* \"#utility.yul\":13624:13634   */\n      dup4\n        /* \"#utility.yul\":13620:13638   */\n      mul\n        /* \"#utility.yul\":13659:13756   */\n      tag_273\n        /* \"#utility.yul\":13689:13755   */\n      0xffffffffffffffffffffffffffffffffffffffffffffffffffffffffffffffff\n        /* \"#utility.yul\":13678:13687   */\n      dup3\n        /* \"#utility.yul\":13659:13756   */\n      tag_134\n      jump\t// in\n    tag_273:\n        /* \"#utility.yul\":13777:13816   */\n      tag_274\n        /* \"#utility.yul\":13807:13815   */\n      dup7\n        /* \"#utility.yul\":13796:13805   */\n      dup4\n        /* \"#utility.yul\":13777:13816   */\n      tag_134\n      jump\t// in\n    tag_274:\n        /* \"#utility.yul\":13765:13816   */\n      swap6\n      pop\n        /* \"#utility.yul\":13849:13853   */\n      dup1\n        /* \"#utility.yul\":13845:13854   */\n      not\n        /* \"#utility.yul\":13838:13843   */\n      dup5\n        /* \"#utility.yul\":13834:13855   */\n      and\n        /* \"#utility.yul\":13825:13855   */\n      swap4\n      pop\n        /* \"#utility.yul\":13898:13902   */\n      dup1\n        /* \"#utility.yul\":13888:13896   */\n      dup7\n        /* \"#utility.yul\":13884:13903   */\n      and\n        /* \"#utility.yul\":13877:13882   */\n      dup5\n        /* \"#utility.yul\":13874:13904   */\n      or\n        /* \"#utility.yul\":13864:13904   */\n      swap3\n      pop\n        /* \"#utility.yul\":13593:13910   */\n      pop\n      pop\n        /* \"#utility.yul\":13517:13910   */\n      swap4\n      swap3\n      pop\n      pop\n      pop\n      jump\t// out\n        /* \"#utility.yul\":13916:13976   */\n    tag_136:\n        /* \"#utility.yul\":13944:13947   */\n      0x00\n        /* \"#utility.yul\":13965:13970   */\n      dup2\n        /* \"#utility.yul\":13958:13970   */\n      swap1\n      pop\n        /* \"#utility.yul\":13916:13976   */\n      swap2\n      swap1\n      pop\n      jump\t// out\n        /* \"#utility.yul\":13982:14124   */\n    tag_137:\n        /* \"#utility.yul\":14032:14041   */\n      0x00\n        /* \"#utility.yul\":14065:14118   */\n      tag_277\n        /* \"#utility.yul\":14083:14117   */\n      tag_278\n        /* \"#utility.yul\":14092:14116   */\n      tag_279\n        /* \"#utility.yul\":14110:14115   */\n      dup5\n        /* \"#utility.yul\":14092:14116   */\n      tag_98\n      jump\t// in\n    tag_279:\n        /* \"#utility.yul\":14083:14117   */\n      tag_136\n      jump\t// in\n    tag_278:\n        /* \"#utility.yul\":14065:14118   */\n      tag_98\n      jump\t// in\n    tag_277:\n        /* \"#utility.yul\":14052:14118   */\n      swap1\n      pop\n        /* \"#utility.yul\":13982:14124   */\n      swap2\n      swap1\n      pop\n      jump\t// out\n        /* \"#utility.yul\":14130:14205   */\n    tag_138:\n        /* \"#utility.yul\":14173:14176   */\n      0x00\n        /* \"#utility.yul\":14194:14199   */\n      dup2\n        /* \"#utility.yul\":14187:14199   */\n      swap1\n      pop\n        /* \"#utility.yul\":14130:14205   */\n      swap2\n      swap1\n      pop\n      jump\t// out\n        /* \"#utility.yul\":14211:14480   */\n    tag_139:\n        /* \"#utility.yul\":14321:14360   */\n      tag_282\n        /* \"#utility.yul\":14352:14359   */\n      dup4\n        /* \"#utility.yul\":14321:14360   */\n      tag_137\n      jump\t// in\n    tag_282:\n        /* \"#utility.yul\":14382:14473   */\n      tag_283\n        /* \"#utility.yul\":14431:14472   */\n      tag_284\n        /* \"#utility.yul\":14455:14471   */\n      dup3\n        /* \"#utility.yul\":14431:14472   */\n      tag_138\n      jump\t// in\n    tag_284:\n        /* \"#utility.yul\":14423:14429   */\n      dup5\n        /* \"#utility.yul\":14416:14420   */\n      dup5\n        /* \"#utility.yul\":14410:14421   */\n      sload\n        /* \"#utility.yul\":14382:14473   */\n      tag_135\n      jump\t// in\n    tag_283:\n        /* \"#utility.yul\":14376:14380   */\n      dup3\n        /* \"#utility.yul\":14369:14474   */\n      sstore\n        /* \"#utility.yul\":14287:14480   */\n      pop\n        /* \"#utility.yul\":14211:14480   */\n      pop\n      pop\n      pop\n      jump\t// out\n        /* \"#utility.yul\":14486:14559   */\n    tag_140:\n        /* \"#utility.yul\":14531:14534   */\n      0x00\n        /* \"#utility.yul\":14552:14553   */\n      0x00\n        /* \"#utility.yul\":14545:14553   */\n      swap1\n      pop\n        /* \"#utility.yul\":14486:14559   */\n      swap1\n      jump\t// out\n        /* \"#utility.yul\":14565:14754   */\n    tag_141:\n        /* \"#utility.yul\":14642:14674   */\n      tag_287\n      tag_140\n      jump\t// in\n    tag_287:\n        /* \"#utility.yul\":14683:14748   */\n      tag_288\n        /* \"#utility.yul\":14741:14747   */\n      dup2\n        /* \"#utility.yul\":14733:14739   */\n      dup5\n        /* \"#utility.yul\":14727:14731   */\n      dup5\n        /* \"#utility.yul\":14683:14748   */\n      tag_139\n      jump\t// in\n    tag_288:\n        /* \"#utility.yul\":14618:14754   */\n      pop\n        /* \"#utility.yul\":14565:14754   */\n      pop\n      pop\n      jump\t// out\n        /* \"#utility.yul\":14760:14974   */\n    tag_142:\n        /* \"#utility.yul\":14845:14846   */\n      0x00\n        /* \"#utility.yul\":14830:14968   */\n    tag_290:\n        /* \"#utility.yul\":14855:14864   */\n      dup3\n        /* \"#utility.yul\":14852:14853   */\n      dup2\n        /* \"#utility.yul\":14849:14865   */\n      lt\n        /* \"#utility.yul\":14830:14968   */\n      iszero\n      tag_292\n      jumpi\n        /* \"#utility.yul\":14907:14958   */\n      tag_293\n        /* \"#utility.yul\":14956:14957   */\n      0x00\n        /* \"#utility.yul\":14952:14953   */\n      dup3\n        /* \"#utility.yul\":14941:14950   */\n      dup5\n        /* \"#utility.yul\":14937:14954   */\n      add\n        /* \"#utility.yul\":14907:14958   */\n      tag_141\n      jump\t// in\n    tag_293:\n        /* \"#utility.yul\":14880:14881   */\n      0x01\n        /* \"#utility.yul\":14877:14878   */\n      dup2\n        /* \"#utility.yul\":14873:14882   */\n      add\n        /* \"#utility.yul\":14868:14882   */\n      swap1\n      pop\n        /* \"#utility.yul\":14830:14968   */\n      jump(tag_290)\n    tag_292:\n        /* \"#utility.yul\":14834:14848   */\n      pop\n        /* \"#utility.yul\":14760:14974   */\n      pop\n      pop\n      jump\t// out\n        /* \"#utility.yul\":14980:15726   */\n    tag_143:\n        /* \"#utility.yul\":15081:15083   */\n      0x1f\n        /* \"#utility.yul\":15076:15079   */\n      dup3\n        /* \"#utility.yul\":15073:15084   */\n      gt\n        /* \"#utility.yul\":15070:15719   */\n      iszero\n      tag_295\n      jumpi\n        /* \"#utility.yul\":15110:15120   */\n      dup3\n        /* \"#utility.yul\":15105:15108   */\n      dup3\n        /* \"#utility.yul\":15102:15121   */\n      gt\n        /* \"#utility.yul\":15099:15709   */\n      iszero\n      tag_296\n      jumpi\n        /* \"#utility.yul\":15156:15194   */\n      tag_297\n        /* \"#utility.yul\":15188:15193   */\n      dup2\n        /* \"#utility.yul\":15156:15194   */\n      tag_132\n      jump\t// in\n    tag_297:\n        /* \"#utility.yul\":15231:15253   */\n      tag_298\n        /* \"#utility.yul\":15249:15252   */\n      dup4\n        /* \"#utility.yul\":15231:15253   */\n      tag_133\n      jump\t// in\n    tag_298:\n        /* \"#utility.yul\":15290:15319   */\n      tag_299\n        /* \"#utility.yul\":15308:15318   */\n      dup6\n        /* \"#utility.yul\":15290:15319   */\n      tag_133\n      jump\t// in\n    tag_299:\n        /* \"#utility.yul\":15480:15482   */\n      0x20\n        /* \"#utility.yul\":15468:15478   */\n      dup7\n        /* \"#utility.yul\":15465:15483   */\n      lt\n        /* \"#utility.yul\":15462:15541   */\n      iszero\n      tag_300\n      jumpi\n        /* \"#utility.yul\":15522:15523   */\n      0x00\n        /* \"#utility.yul\":15506:15523   */\n      swap1\n      pop\n        /* \"#utility.yul\":15462:15541   */\n    tag_300:\n        /* \"#utility.yul\":15591:15603   */\n      dup1\n        /* \"#utility.yul\":15581:15589   */\n      dup4\n        /* \"#utility.yul\":15577:15604   */\n      add\n        /* \"#utility.yul\":15621:15695   */\n      tag_301\n        /* \"#utility.yul\":15681:15693   */\n      dup3\n        /* \"#utility.yul\":15667:15679   */\n      dup5\n        /* \"#utility.yul\":15663:15694   */\n      sub\n        /* \"#utility.yul\":15650:15661   */\n      dup3\n        /* \"#utility.yul\":15621:15695   */\n      tag_142\n      jump\t// in\n    tag_301:\n        /* \"#utility.yul\":15122:15709   */\n      pop\n      pop\n      pop\n      pop\n        /* \"#utility.yul\":15099:15709   */\n    tag_296:\n        /* \"#utility.yul\":15070:15719   */\n    tag_295:\n        /* \"#utility.yul\":14980:15726   */\n      pop\n      pop\n      pop\n      jump\t// out\n        /* \"#utility.yul\":15732:15849   */\n    tag_144:\n        /* \"#utility.yul\":15786:15794   */\n      0x00\n        /* \"#utility.yul\":15836:15841   */\n      dup3\n        /* \"#utility.yul\":15830:15834   */\n      dup3\n        /* \"#utility.yul\":15826:15842   */\n      shr\n        /* \"#utility.yul\":15805:15842   */\n      swap1\n      pop\n        /* \"#utility.yul\":15732:15849   */\n      swap3\n      swap2\n      pop\n      pop\n      jump\t// out\n        /* \"#utility.yul\":15855:16024   */\n    tag_145:\n        /* \"#utility.yul\":15899:15905   */\n      0x00\n        /* \"#utility.yul\":15932:15983   */\n      tag_304\n        /* \"#utility.yul\":15980:15981   */\n      0x00\n        /* \"#utility.yul\":15976:15982   */\n      not\n        /* \"#utility.yul\":15968:15973   */\n      dup5\n        /* \"#utility.yul\":15965:15966   */\n      0x08\n        /* \"#utility.yul\":15961:15974   */\n      mul\n        /* \"#utility.yul\":15932:15983   */\n      tag_144\n      jump\t// in\n    tag_304:\n        /* \"#utility.yul\":15928:15984   */\n      not\n        /* \"#utility.yul\":16013:16017   */\n      dup1\n        /* \"#utility.yul\":16007:16011   */\n      dup4\n        /* \"#utility.yul\":16003:16018   */\n      and\n        /* \"#utility.yul\":15993:16018   */\n      swap2\n      pop\n        /* \"#utility.yul\":15906:16024   */\n      pop\n        /* \"#utility.yul\":15855:16024   */\n      swap3\n      swap2\n      pop\n      pop\n      jump\t// out\n        /* \"#utility.yul\":16029:16324   */\n    tag_146:\n        /* \"#utility.yul\":16105:16109   */\n      0x00\n        /* \"#utility.yul\":16251:16280   */\n      tag_306\n        /* \"#utility.yul\":16276:16279   */\n      dup4\n        /* \"#utility.yul\":16270:16274   */\n      dup4\n        /* \"#utility.yul\":16251:16280   */\n      tag_145\n      jump\t// in\n    tag_306:\n        /* \"#utility.yul\":16243:16280   */\n      swap2\n      pop\n        /* \"#utility.yul\":16313:16316   */\n      dup3\n        /* \"#utility.yul\":16310:16311   */\n      0x02\n        /* \"#utility.yul\":16306:16317   */\n      mul\n        /* \"#utility.yul\":16300:16304   */\n      dup3\n        /* \"#utility.yul\":16297:16318   */\n      or\n        /* \"#utility.yul\":16289:16318   */\n      swap1\n      pop\n        /* \"#utility.yul\":16029:16324   */\n      swap3\n      swap2\n      pop\n      pop\n      jump\t// out\n        /* \"#utility.yul\":16329:17724   */\n    tag_47:\n        /* \"#utility.yul\":16446:16483   */\n      tag_308\n        /* \"#utility.yul\":16479:16482   */\n      dup3\n        /* \"#utility.yul\":16446:16483   */\n      tag_102\n      jump\t// in\n    tag_308:\n        /* \"#utility.yul\":16548:16566   */\n      0xffffffffffffffff\n        /* \"#utility.yul\":16540:16546   */\n      dup2\n        /* \"#utility.yul\":16537:16567   */\n      gt\n        /* \"#utility.yul\":16534:16590   */\n      iszero\n      tag_309\n      jumpi\n        /* \"#utility.yul\":16570:16588   */\n      tag_310\n      tag_111\n      jump\t// in\n    tag_310:\n        /* \"#utility.yul\":16534:16590   */\n    tag_309:\n        /* \"#utility.yul\":16614:16652   */\n      tag_311\n        /* \"#utility.yul\":16646:16650   */\n      dup3\n        /* \"#utility.yul\":16640:16651   */\n      sload\n        /* \"#utility.yul\":16614:16652   */\n      tag_32\n      jump\t// in\n    tag_311:\n        /* \"#utility.yul\":16699:16766   */\n      tag_312\n        /* \"#utility.yul\":16759:16765   */\n      dup3\n        /* \"#utility.yul\":16751:16757   */\n      dup3\n        /* \"#utility.yul\":16745:16749   */\n      dup6\n        /* \"#utility.yul\":16699:16766   */\n      tag_143\n      jump\t// in\n    tag_312:\n        /* \"#utility.yul\":16793:16794   */\n      0x00\n        /* \"#utility.yul\":16817:16821   */\n      0x20\n        /* \"#utility.yul\":16804:16821   */\n      swap1\n      pop\n        /* \"#utility.yul\":16849:16851   */\n      0x1f\n        /* \"#utility.yul\":16841:16847   */\n      dup4\n        /* \"#utility.yul\":16838:16852   */\n      gt\n        /* \"#utility.yul\":16866:16867   */\n      0x01\n        /* \"#utility.yul\":16861:17479   */\n      dup2\n      eq\n      tag_314\n      jumpi\n        /* \"#utility.yul\":17523:17524   */\n      0x00\n        /* \"#utility.yul\":17540:17546   */\n      dup5\n        /* \"#utility.yul\":17537:17614   */\n      iszero\n      tag_315\n      jumpi\n        /* \"#utility.yul\":17589:17598   */\n      dup3\n        /* \"#utility.yul\":17584:17587   */\n      dup8\n        /* \"#utility.yul\":17580:17599   */\n      add\n        /* \"#utility.yul\":17574:17600   */\n      mload\n        /* \"#utility.yul\":17565:17600   */\n      swap1\n      pop\n        /* \"#utility.yul\":17537:17614   */\n    tag_315:\n        /* \"#utility.yul\":17640:17707   */\n      tag_316\n        /* \"#utility.yul\":17700:17706   */\n      dup6\n        /* \"#utility.yul\":17693:17698   */\n      dup3\n        /* \"#utility.yul\":17640:17707   */\n      tag_146\n      jump\t// in\n    tag_316:\n        /* \"#utility.yul\":17634:17638   */\n      dup7\n        /* \"#utility.yul\":17627:17708   */\n      sstore\n        /* \"#utility.yul\":17496:17718   */\n      pop\n        /* \"#utility.yul\":16831:17718   */\n      jump(tag_313)\n        /* \"#utility.yul\":16861:17479   */\n    tag_314:\n        /* \"#utility.yul\":16913:16917   */\n      0x1f\n        /* \"#utility.yul\":16909:16918   */\n      not\n        /* \"#utility.yul\":16901:16907   */\n      dup5\n        /* \"#utility.yul\":16897:16919   */\n      and\n        /* \"#utility.yul\":16947:16984   */\n      tag_317\n        /* \"#utility.yul\":16979:16983   */\n      dup7\n        /* \"#utility.yul\":16947:16984   */\n      tag_132\n      jump\t// in\n    tag_317:\n        /* \"#utility.yul\":17006:17007   */\n      0x00\n        /* \"#utility.yul\":17020:17228   */\n    tag_318:\n        /* \"#utility.yul\":17034:17041   */\n      dup3\n        /* \"#utility.yul\":17031:17032   */\n      dup2\n        /* \"#utility.yul\":17028:17042   */\n      lt\n        /* \"#utility.yul\":17020:17228   */\n      iszero\n      tag_320\n      jumpi\n        /* \"#utility.yul\":17113:17122   */\n      dup5\n        /* \"#utility.yul\":17108:17111   */\n      dup10\n        /* \"#utility.yul\":17104:17123   */\n      add\n        /* \"#utility.yul\":17098:17124   */\n      mload\n        /* \"#utility.yul\":17090:17096   */\n      dup3\n        /* \"#utility.yul\":17083:17125   */\n      sstore\n        /* \"#utility.yul\":17164:17165   */\n      0x01\n        /* \"#utility.yul\":17156:17162   */\n      dup3\n        /* \"#utility.yul\":17152:17166   */\n      add\n        /* \"#utility.yul\":17142:17166   */\n      swap2\n      pop\n        /* \"#utility.yul\":17211:17213   */\n      0x20\n        /* \"#utility.yul\":17200:17209   */\n      dup6\n        /* \"#utility.yul\":17196:17214   */\n      add\n        /* \"#utility.yul\":17183:17214   */\n      swap5\n      pop\n        /* \"#utility.yul\":17057:17061   */\n      0x20\n        /* \"#utility.yul\":17054:17055   */\n      dup2\n        /* \"#utility.yul\":17050:17062   */\n      add\n        /* \"#utility.yul\":17045:17062   */\n      swap1\n      pop\n        /* \"#utility.yul\":17020:17228   */\n      jump(tag_318)\n    tag_320:\n        /* \"#utility.yul\":17256:17262   */\n      dup7\n        /* \"#utility.yul\":17247:17254   */\n      dup4\n        /* \"#utility.yul\":17244:17263   */\n      lt\n        /* \"#utility.yul\":17241:17420   */\n      iszero\n      tag_321\n      jumpi\n        /* \"#utility.yul\":17314:17323   */\n      dup5\n        /* \"#utility.yul\":17309:17312   */\n      dup10\n        /* \"#utility.yul\":17305:17324   */\n      add\n        /* \"#utility.yul\":17299:17325   */\n      mload\n        /* \"#utility.yul\":17357:17405   */\n      tag_322\n        /* \"#utility.yul\":17399:17403   */\n      0x1f\n        /* \"#utility.yul\":17391:17397   */\n      dup10\n        /* \"#utility.yul\":17387:17404   */\n      and\n        /* \"#utility.yul\":17376:17385   */\n      dup3\n        /* \"#utility.yul\":17357:17405   */\n      tag_145\n      jump\t// in\n    tag_322:\n        /* \"#utility.yul\":17349:17355   */\n      dup4\n        /* \"#utility.yul\":17342:17406   */\n      sstore\n        /* \"#utility.yul\":17264:17420   */\n      pop\n        /* \"#utility.yul\":17241:17420   */\n    tag_321:\n        /* \"#utility.yul\":17466:17467   */\n      0x01\n        /* \"#utility.yul\":17462:17463   */\n      0x02\n        /* \"#utility.yul\":17454:17460   */\n      dup9\n        /* \"#utility.yul\":17450:17464   */\n      mul\n        /* \"#utility.yul\":17446:17468   */\n      add\n        /* \"#utility.yul\":17440:17444   */\n      dup9\n        /* \"#utility.yul\":17433:17469   */\n      sstore\n        /* \"#utility.yul\":16868:17479   */\n      pop\n      pop\n      pop\n        /* \"#utility.yul\":16831:17718   */\n    tag_313:\n      pop\n        /* \"#utility.yul\":16421:17724   */\n      pop\n      pop\n      pop\n        /* \"#utility.yul\":16329:17724   */\n      pop\n      pop\n      jump\t// out\n        /* \"#utility.yul\":17730:17879   */\n    tag_147:\n        /* \"#utility.yul\":17779:17785   */\n      0x00\n        /* \"#utility.yul\":17813:17818   */\n      dup2\n        /* \"#utility.yul\":17807:17819   */\n      sload\n        /* \"#utility.yul\":17797:17819   */\n      swap1\n      pop\n        /* \"#utility.yul\":17839:17872   */\n      tag_324\n        /* \"#utility.yul\":17865:17871   */\n      dup2\n        /* \"#utility.yul\":17839:17872   */\n      tag_32\n      jump\t// in\n    tag_324:\n        /* \"#utility.yul\":17829:17872   */\n      swap1\n      pop\n        /* \"#utility.yul\":17730:17879   */\n      swap2\n      swap1\n      pop\n      jump\t// out\n        /* \"#utility.yul\":17885:19336   */\n    tag_51:\n        /* \"#utility.yul\":17996:17999   */\n      dup2\n        /* \"#utility.yul\":17990:17994   */\n      dup2\n        /* \"#utility.yul\":17987:18000   */\n      sub\n        /* \"#utility.yul\":17984:18010   */\n      tag_326\n      jumpi\n        /* \"#utility.yul\":18003:18008   */\n      pop\n      pop\n      jump(tag_325)\n        /* \"#utility.yul\":17984:18010   */\n    tag_326:\n        /* \"#utility.yul\":18034:18068   */\n      tag_327\n        /* \"#utility.yul\":18064:18067   */\n      dup3\n        /* \"#utility.yul\":18034:18068   */\n      tag_147\n      jump\t// in\n    tag_327:\n        /* \"#utility.yul\":18133:18151   */\n      0xffffffffffffffff\n        /* \"#utility.yul\":18125:18131   */\n      dup2\n        /* \"#utility.yul\":18122:18152   */\n      gt\n        /* \"#utility.yul\":18119:18175   */\n      iszero\n      tag_328\n      jumpi\n        /* \"#utility.yul\":18155:18173   */\n      tag_329\n      tag_111\n      jump\t// in\n    tag_329:\n        /* \"#utility.yul\":18119:18175   */\n    tag_328:\n        /* \"#utility.yul\":18199:18237   */\n      tag_330\n        /* \"#utility.yul\":18231:18235   */\n      dup3\n        /* \"#utility.yul\":18225:18236   */\n      sload\n        /* \"#utility.yul\":18199:18237   */\n      tag_32\n      jump\t// in\n    tag_330:\n        /* \"#utility.yul\":18284:18351   */\n      tag_331\n        /* \"#utility.yul\":18344:18350   */\n      dup3\n        /* \"#utility.yul\":18336:18342   */\n      dup3\n        /* \"#utility.yul\":18330:18334   */\n      dup6\n        /* \"#utility.yul\":18284:18351   */\n      tag_143\n      jump\t// in\n    tag_331:\n        /* \"#utility.yul\":18378:18379   */\n      0x00\n        /* \"#utility.yul\":18407:18409   */\n      0x1f\n        /* \"#utility.yul\":18399:18405   */\n      dup4\n        /* \"#utility.yul\":18396:18410   */\n      gt\n        /* \"#utility.yul\":18424:18425   */\n      0x01\n        /* \"#utility.yul\":18419:19091   */\n      dup2\n      eq\n      tag_333\n      jumpi\n        /* \"#utility.yul\":19135:19136   */\n      0x00\n        /* \"#utility.yul\":19152:19158   */\n      dup5\n        /* \"#utility.yul\":19149:19226   */\n      iszero\n      tag_334\n      jumpi\n        /* \"#utility.yul\":19201:19210   */\n      dup3\n        /* \"#utility.yul\":19196:19199   */\n      dup8\n        /* \"#utility.yul\":19192:19211   */\n      add\n        /* \"#utility.yul\":19186:19212   */\n      sload\n        /* \"#utility.yul\":19177:19212   */\n      swap1\n      pop\n        /* \"#utility.yul\":19149:19226   */\n    tag_334:\n        /* \"#utility.yul\":19252:19319   */\n      tag_335\n        /* \"#utility.yul\":19312:19318   */\n      dup6\n        /* \"#utility.yul\":19305:19310   */\n      dup3\n        /* \"#utility.yul\":19252:19319   */\n      tag_146\n      jump\t// in\n    tag_335:\n        /* \"#utility.yul\":19246:19250   */\n      dup7\n        /* \"#utility.yul\":19239:19320   */\n      sstore\n        /* \"#utility.yul\":19108:19330   */\n      pop\n        /* \"#utility.yul\":18389:19330   */\n      jump(tag_332)\n        /* \"#utility.yul\":18419:19091   */\n    tag_333:\n        /* \"#utility.yul\":18471:18475   */\n      0x1f\n        /* \"#utility.yul\":18467:18476   */\n      not\n        /* \"#utility.yul\":18459:18465   */\n      dup5\n        /* \"#utility.yul\":18455:18477   */\n      and\n        /* \"#utility.yul\":18497:18533   */\n      tag_336\n        /* \"#utility.yul\":18529:18532   */\n      dup8\n        /* \"#utility.yul\":18497:18533   */\n      tag_132\n      jump\t// in\n    tag_336:\n        /* \"#utility.yul\":18490:18533   */\n      swap7\n      pop\n        /* \"#utility.yul\":18560:18597   */\n      tag_337\n        /* \"#utility.yul\":18592:18596   */\n      dup7\n        /* \"#utility.yul\":18560:18597   */\n      tag_132\n      jump\t// in\n    tag_337:\n        /* \"#utility.yul\":18619:18620   */\n      0x00\n        /* \"#utility.yul\":18633:18840   */\n    tag_338:\n        /* \"#utility.yul\":18647:18654   */\n      dup3\n        /* \"#utility.yul\":18644:18645   */\n      dup2\n        /* \"#utility.yul\":18641:18655   */\n      lt\n        /* \"#utility.yul\":18633:18840   */\n      iszero\n      tag_340\n      jumpi\n        /* \"#utility.yul\":18726:18735   */\n      dup5\n        /* \"#utility.yul\":18721:18724   */\n      dup10\n        /* \"#utility.yul\":18717:18736   */\n      add\n        /* \"#utility.yul\":18711:18737   */\n      sload\n        /* \"#utility.yul\":18703:18709   */\n      dup3\n        /* \"#utility.yul\":18696:18738   */\n      sstore\n        /* \"#utility.yul\":18777:18778   */\n      0x01\n        /* \"#utility.yul\":18769:18775   */\n      dup3\n        /* \"#utility.yul\":18765:18779   */\n      add\n        /* \"#utility.yul\":18755:18779   */\n      swap2\n      pop\n        /* \"#utility.yul\":18824:18825   */\n      0x01\n        /* \"#utility.yul\":18813:18822   */\n      dup6\n        /* \"#utility.yul\":18809:18826   */\n      add\n        /* \"#utility.yul\":18796:18826   */\n      swap5\n      pop\n        /* \"#utility.yul\":18670:18674   */\n      0x20\n        /* \"#utility.yul\":18667:18668   */\n      dup2\n        /* \"#utility.yul\":18663:18675   */\n      add\n        /* \"#utility.yul\":18658:18675   */\n      swap1\n      pop\n        /* \"#utility.yul\":18633:18840   */\n      jump(tag_338)\n    tag_340:\n        /* \"#utility.yul\":18868:18874   */\n      dup7\n        /* \"#utility.yul\":18859:18866   */\n      dup4\n        /* \"#utility.yul\":18856:18875   */\n      lt\n        /* \"#utility.yul\":18853:19032   */\n      iszero\n      tag_341\n      jumpi\n        /* \"#utility.yul\":18926:18935   */\n      dup5\n        /* \"#utility.yul\":18921:18924   */\n      dup10\n        /* \"#utility.yul\":18917:18936   */\n      add\n        /* \"#utility.yul\":18911:18937   */\n      sload\n        /* \"#utility.yul\":18969:19017   */\n      tag_342\n        /* \"#utility.yul\":19011:19015   */\n      0x1f\n        /* \"#utility.yul\":19003:19009   */\n      dup10\n        /* \"#utility.yul\":18999:19016   */\n      and\n        /* \"#utility.yul\":18988:18997   */\n      dup3\n        /* \"#utility.yul\":18969:19017   */\n      tag_145\n      jump\t// in\n    tag_342:\n        /* \"#utility.yul\":18961:18967   */\n      dup4\n        /* \"#utility.yul\":18954:19018   */\n      sstore\n        /* \"#utility.yul\":18876:19032   */\n      pop\n        /* \"#utility.yul\":18853:19032   */\n    tag_341:\n        /* \"#utility.yul\":19078:19079   */\n      0x01\n        /* \"#utility.yul\":19074:19075   */\n      0x02\n        /* \"#utility.yul\":19066:19072   */\n      dup9\n        /* \"#utility.yul\":19062:19076   */\n      mul\n        /* \"#utility.yul\":19058:19080   */\n      add\n        /* \"#utility.yul\":19052:19056   */\n      dup9\n        /* \"#utility.yul\":19045:19081   */\n      sstore\n        /* \"#utility.yul\":18426:19091   */\n      pop\n      pop\n      pop\n        /* \"#utility.yul\":18389:19330   */\n    tag_332:\n      pop\n        /* \"#utility.yul\":17974:19336   */\n      pop\n      pop\n      pop\n        /* \"#utility.yul\":17885:19336   */\n      pop\n      pop\n    tag_325:\n      jump\t// out\n        /* \"#utility.yul\":19342:19966   */\n    tag_54:\n        /* \"#utility.yul\":19531:19535   */\n      0x00\n        /* \"#utility.yul\":19569:19571   */\n      0x60\n        /* \"#utility.yul\":19558:19567   */\n      dup3\n        /* \"#utility.yul\":19554:19572   */\n      add\n        /* \"#utility.yul\":19546:19572   */\n      swap1\n      pop\n        /* \"#utility.yul\":19618:19627   */\n      dup2\n        /* \"#utility.yul\":19612:19616   */\n      dup2\n        /* \"#utility.yul\":19608:19628   */\n      sub\n        /* \"#utility.yul\":19604:19605   */\n      0x00\n        /* \"#utility.yul\":19593:19602   */\n      dup4\n        /* \"#utility.yul\":19589:19606   */\n      add\n        /* \"#utility.yul\":19582:19629   */\n      mstore\n        /* \"#utility.yul\":19646:19724   */\n      tag_344\n        /* \"#utility.yul\":19719:19723   */\n      dup2\n        /* \"#utility.yul\":19710:19716   */\n      dup7\n        /* \"#utility.yul\":19646:19724   */\n      tag_106\n      jump\t// in\n    tag_344:\n        /* \"#utility.yul\":19638:19724   */\n      swap1\n      pop\n        /* \"#utility.yul\":19734:19806   */\n      tag_345\n        /* \"#utility.yul\":19802:19804   */\n      0x20\n        /* \"#utility.yul\":19791:19800   */\n      dup4\n        /* \"#utility.yul\":19787:19805   */\n      add\n        /* \"#utility.yul\":19778:19784   */\n      dup6\n        /* \"#utility.yul\":19734:19806   */\n      tag_101\n      jump\t// in\n    tag_345:\n        /* \"#utility.yul\":19853:19862   */\n      dup2\n        /* \"#utility.yul\":19847:19851   */\n      dup2\n        /* \"#utility.yul\":19843:19863   */\n      sub\n        /* \"#utility.yul\":19838:19840   */\n      0x40\n        /* \"#utility.yul\":19827:19836   */\n      dup4\n        /* \"#utility.yul\":19823:19841   */\n      add\n        /* \"#utility.yul\":19816:19864   */\n      mstore\n        /* \"#utility.yul\":19881:19959   */\n      tag_346\n        /* \"#utility.yul\":19954:19958   */\n      dup2\n        /* \"#utility.yul\":19945:19951   */\n      dup5\n        /* \"#utility.yul\":19881:19959   */\n      tag_106\n      jump\t// in\n    tag_346:\n        /* \"#utility.yul\":19873:19959   */\n      swap1\n      pop\n        /* \"#utility.yul\":19342:19966   */\n      swap5\n      swap4\n      pop\n      pop\n      pop\n      pop\n      jump\t// out\n        /* \"#utility.yul\":19972:20144   */\n    tag_148:\n        /* \"#utility.yul\":20112:20136   */\n      0x53747564656e7420646f6573206e6f7420657869737400000000000000000000\n        /* \"#utility.yul\":20108:20109   */\n      0x00\n        /* \"#utility.yul\":20100:20106   */\n      dup3\n        /* \"#utility.yul\":20096:20110   */\n      add\n        /* \"#utility.yul\":20089:20137   */\n      mstore\n        /* \"#utility.yul\":19972:20144   */\n      pop\n      jump\t// out\n        /* \"#utility.yul\":20150:20516   */\n    tag_149:\n        /* \"#utility.yul\":20292:20295   */\n      0x00\n        /* \"#utility.yul\":20313:20380   */\n      tag_349\n        /* \"#utility.yul\":20377:20379   */\n      0x16\n        /* \"#utility.yul\":20372:20375   */\n      dup4\n        /* \"#utility.yul\":20313:20380   */\n      tag_103\n      jump\t// in\n    tag_349:\n        /* \"#utility.yul\":20306:20380   */\n      swap2\n      pop\n        /* \"#utility.yul\":20389:20482   */\n      tag_350\n        /* \"#utility.yul\":20478:20481   */\n      dup3\n        /* \"#utility.yul\":20389:20482   */\n      tag_148\n      jump\t// in\n    tag_350:\n        /* \"#utility.yul\":20507:20509   */\n      0x20\n        /* \"#utility.yul\":20502:20505   */\n      dup3\n        /* \"#utility.yul\":20498:20510   */\n      add\n        /* \"#utility.yul\":20491:20510   */\n      swap1\n      pop\n        /* \"#utility.yul\":20150:20516   */\n      swap2\n      swap1\n      pop\n      jump\t// out\n        /* \"#utility.yul\":20522:20941   */\n    tag_58:\n        /* \"#utility.yul\":20688:20692   */\n      0x00\n        /* \"#utility.yul\":20726:20728   */\n      0x20\n        /* \"#utility.yul\":20715:20724   */\n      dup3\n        /* \"#utility.yul\":20711:20729   */\n      add\n        /* \"#utility.yul\":20703:20729   */\n      swap1\n      pop\n        /* \"#utility.yul\":20775:20784   */\n      dup2\n        /* \"#utility.yul\":20769:20773   */\n      dup2\n        /* \"#utility.yul\":20765:20785   */\n      sub\n        /* \"#utility.yul\":20761:20762   */\n      0x00\n        /* \"#utility.yul\":20750:20759   */\n      dup4\n        /* \"#utility.yul\":20746:20763   */\n      add\n        /* \"#utility.yul\":20739:20786   */\n      mstore\n        /* \"#utility.yul\":20803:20934   */\n      tag_352\n        /* \"#utility.yul\":20929:20933   */\n      dup2\n        /* \"#utility.yul\":20803:20934   */\n      tag_149\n      jump\t// in\n    tag_352:\n        /* \"#utility.yul\":20795:20934   */\n      swap1\n      pop\n        /* \"#utility.yul\":20522:20941   */\n      swap2\n      swap1\n      pop\n      jump\t// out\n\n    auxdata: 0xa2646970667358221220f7984abc01869bcebec838618529bd39573807e1dddb83e1f3975f4003200aad64736f6c63430008220033\n}\n",
				"bytecode": {
					"linkReferences": {},
					"object": "6080604052348015600e575f5ffd5b5061138c8061001c5f395ff3fe608060405234801561000f575f5ffd5b5060043610610055575f3560e01c806306ead22e146100595780635900fe9f1461008d578063642f9163146100a95780637df221e9146100dc578063e9e3092714610110575b5f5ffd5b610073600480360381019061006e9190610975565b61012e565b604051610084959493929190610a39565b60405180910390f35b6100a760048036038101906100a29190610bc4565b610278565b005b6100c360048036038101906100be9190610975565b610457565b6040516100d39493929190610c60565b60405180910390f35b6100f660048036038101906100f19190610975565b610631565b604051610107959493929190610a39565b60405180910390f35b610118610789565b6040516101259190610e4c565b60405180910390f35b6001602052805f5260405f205f91509050805f01549080600101805461015390610e99565b80601f016020809104026020016040519081016040528092919081815260200182805461017f90610e99565b80156101ca5780601f106101a1576101008083540402835291602001916101ca565b820191905f5260205f20905b8154815290600101906020018083116101ad57829003601f168201915b5050505050908060020154908060030180546101e590610e99565b80601f016020809104026020016040519081016040528092919081815260200182805461021190610e99565b801561025c5780601f106102335761010080835404028352916020019161025c565b820191905f5260205f20905b81548152906001019060200180831161023f57829003601f168201915b505050505090806004015f9054906101000a900460ff16905085565b60015f8581526020019081526020015f206004015f9054906101000a900460ff16156102d9576040517f08c379a00000000000000000000000000000000000000000000000000000000081526004016102d090610f13565b60405180910390fd5b6040518060a001604052808581526020018481526020018381526020018281526020016001151581525060015f8681526020019081526020015f205f820151815f0155602082015181600101908161033191906110e2565b5060408201518160020155606082015181600301908161035191906110e2565b506080820151816004015f6101000a81548160ff0219169083151502179055509050505f60015f8681526020019081526020015f20908060018154018082558091505060019003905f5260205f2090600502015f909190919091505f820154815f0155600182018160010190816103c891906111c6565b5060028201548160020155600382018160030190816103e791906111c6565b50600482015f9054906101000a900460ff16816004015f6101000a81548160ff0219169083151502179055505050837f1be1384d0e46750bf3c73e3077bce8ea0c00b17ea89a797f35d39e43210f5fed848484604051610449939291906112ab565b60405180910390a250505050565b5f60605f606060015f8681526020019081526020015f206004015f9054906101000a900460ff166104bd576040517f08c379a00000000000000000000000000000000000000000000000000000000081526004016104b490611338565b60405180910390fd5b60015f8681526020019081526020015f205f015460015f8781526020019081526020015f2060010160015f8881526020019081526020015f206002015460015f8981526020019081526020015f2060030182805461051a90610e99565b80601f016020809104026020016040519081016040528092919081815260200182805461054690610e99565b80156105915780601f1061056857610100808354040283529160200191610591565b820191905f5260205f20905b81548152906001019060200180831161057457829003601f168201915b505050505092508080546105a490610e99565b80601f01602080910402602001604051908101604052809291908181526020018280546105d090610e99565b801561061b5780601f106105f25761010080835404028352916020019161061b565b820191905f5260205f20905b8154815290600101906020018083116105fe57829003601f168201915b5050505050905093509350935093509193509193565b5f818154811061063f575f80fd5b905f5260205f2090600502015f91509050805f01549080600101805461066490610e99565b80601f016020809104026020016040519081016040528092919081815260200182805461069090610e99565b80156106db5780601f106106b2576101008083540402835291602001916106db565b820191905f5260205f20905b8154815290600101906020018083116106be57829003601f168201915b5050505050908060020154908060030180546106f690610e99565b80601f016020809104026020016040519081016040528092919081815260200182805461072290610e99565b801561076d5780601f106107445761010080835404028352916020019161076d565b820191905f5260205f20905b81548152906001019060200180831161075057829003601f168201915b505050505090806004015f9054906101000a900460ff16905085565b60605f805480602002602001604051908101604052809291908181526020015f905b82821015610928578382905f5260205f2090600502016040518060a00160405290815f82015481526020016001820180546107e590610e99565b80601f016020809104026020016040519081016040528092919081815260200182805461081190610e99565b801561085c5780601f106108335761010080835404028352916020019161085c565b820191905f5260205f20905b81548152906001019060200180831161083f57829003601f168201915b505050505081526020016002820154815260200160038201805461087f90610e99565b80601f01602080910402602001604051908101604052809291908181526020018280546108ab90610e99565b80156108f65780601f106108cd576101008083540402835291602001916108f6565b820191905f5260205f20905b8154815290600101906020018083116108d957829003601f168201915b50505050508152602001600482015f9054906101000a900460ff161515151581525050815260200190600101906107ab565b50505050905090565b5f604051905090565b5f5ffd5b5f5ffd5b5f819050919050565b61095481610942565b811461095e575f5ffd5b50565b5f8135905061096f8161094b565b92915050565b5f6020828403121561098a5761098961093a565b5b5f61099784828501610961565b91505092915050565b6109a981610942565b82525050565b5f81519050919050565b5f82825260208201905092915050565b8281835e5f83830152505050565b5f601f19601f8301169050919050565b5f6109f1826109af565b6109fb81856109b9565b9350610a0b8185602086016109c9565b610a14816109d7565b840191505092915050565b5f8115159050919050565b610a3381610a1f565b82525050565b5f60a082019050610a4c5f8301886109a0565b8181036020830152610a5e81876109e7565b9050610a6d60408301866109a0565b8181036060830152610a7f81856109e7565b9050610a8e6080830184610a2a565b9695505050505050565b5f5ffd5b5f5ffd5b7f4e487b71000000000000000000000000000000000000000000000000000000005f52604160045260245ffd5b610ad6826109d7565b810181811067ffffffffffffffff82111715610af557610af4610aa0565b5b80604052505050565b5f610b07610931565b9050610b138282610acd565b919050565b5f67ffffffffffffffff821115610b3257610b31610aa0565b5b610b3b826109d7565b9050602081019050919050565b828183375f83830152505050565b5f610b68610b6384610b18565b610afe565b905082815260208101848484011115610b8457610b83610a9c565b5b610b8f848285610b48565b509392505050565b5f82601f830112610bab57610baa610a98565b5b8135610bbb848260208601610b56565b91505092915050565b5f5f5f5f60808587031215610bdc57610bdb61093a565b5b5f610be987828801610961565b945050602085013567ffffffffffffffff811115610c0a57610c0961093e565b5b610c1687828801610b97565b9350506040610c2787828801610961565b925050606085013567ffffffffffffffff811115610c4857610c4761093e565b5b610c5487828801610b97565b91505092959194509250565b5f608082019050610c735f8301876109a0565b8181036020830152610c8581866109e7565b9050610c9460408301856109a0565b8181036060830152610ca681846109e7565b905095945050505050565b5f81519050919050565b5f82825260208201905092915050565b5f819050602082019050919050565b610ce381610942565b82525050565b5f82825260208201905092915050565b5f610d03826109af565b610d0d8185610ce9565b9350610d1d8185602086016109c9565b610d26816109d7565b840191505092915050565b610d3a81610a1f565b82525050565b5f60a083015f830151610d555f860182610cda565b5060208301518482036020860152610d6d8282610cf9565b9150506040830151610d826040860182610cda565b5060608301518482036060860152610d9a8282610cf9565b9150506080830151610daf6080860182610d31565b508091505092915050565b5f610dc58383610d40565b905092915050565b5f602082019050919050565b5f610de382610cb1565b610ded8185610cbb565b935083602082028501610dff85610ccb565b805f5b85811015610e3a5784840389528151610e1b8582610dba565b9450610e2683610dcd565b925060208a01995050600181019050610e02565b50829750879550505050505092915050565b5f6020820190508181035f830152610e648184610dd9565b905092915050565b7f4e487b71000000000000000000000000000000000000000000000000000000005f52602260045260245ffd5b5f6002820490506001821680610eb057607f821691505b602082108103610ec357610ec2610e6c565b5b50919050565b7f53747564656e7420616c726561647920657869737473000000000000000000005f82015250565b5f610efd6016836109b9565b9150610f0882610ec9565b602082019050919050565b5f6020820190508181035f830152610f2a81610ef1565b9050919050565b5f819050815f5260205f209050919050565b5f6020601f8301049050919050565b5f82821b905092915050565b5f60088302610f8d7fffffffffffffffffffffffffffffffffffffffffffffffffffffffffffffffff82610f52565b610f978683610f52565b95508019841693508086168417925050509392505050565b5f819050919050565b5f610fd2610fcd610fc884610942565b610faf565b610942565b9050919050565b5f819050919050565b610feb83610fb8565b610fff610ff782610fd9565b848454610f5e565b825550505050565b5f5f905090565b611016611007565b611021818484610fe2565b505050565b5f5b828110156110475761103c5f82840161100e565b600181019050611028565b505050565b601f82111561109a57828211156110995761106681610f31565b61106f83610f43565b61107885610f43565b6020861015611085575f90505b80830161109482840382611026565b505050505b5b505050565b5f82821c905092915050565b5f6110ba5f198460080261109f565b1980831691505092915050565b5f6110d283836110ab565b9150826002028217905092915050565b6110eb826109af565b67ffffffffffffffff81111561110457611103610aa0565b5b61110e8254610e99565b61111982828561104c565b5f60209050601f83116001811461114a575f8415611138578287015190505b61114285826110c7565b8655506111a9565b601f19841661115886610f31565b5f5b8281101561117f5784890151825560018201915060208501945060208101905061115a565b8683101561119c5784890151611198601f8916826110ab565b8355505b6001600288020188555050505b505050505050565b5f815490506111bf81610e99565b9050919050565b8181036111d45750506112a9565b6111dd826111b1565b67ffffffffffffffff8111156111f6576111f5610aa0565b5b6112008254610e99565b61120b82828561104c565b5f601f831160018114611238575f8415611226578287015490505b61123085826110c7565b8655506112a2565b601f19841661124687610f31565b965061125186610f31565b5f5b8281101561127857848901548255600182019150600185019450602081019050611253565b868310156112955784890154611291601f8916826110ab565b8355505b6001600288020188555050505b5050505050505b565b5f6060820190508181035f8301526112c381866109e7565b90506112d260208301856109a0565b81810360408301526112e481846109e7565b9050949350505050565b7f53747564656e7420646f6573206e6f74206578697374000000000000000000005f82015250565b5f6113226016836109b9565b915061132d826112ee565b602082019050919050565b5f6020820190508181035f83015261134f81611316565b905091905056fea2646970667358221220f7984abc01869bcebec838618529bd39573807e1dddb83e1f3975f4003200aad64736f6c63430008220033",
					"opcodes": "PUSH1 0x80 PUSH1 0x40 MSTORE CALLVALUE DUP1 ISZERO PUSH1 0xE JUMPI PUSH0 PUSH0 REVERT JUMPDEST POP PUSH2 0x138C DUP1 PUSH2 0x1C PUSH0 CODECOPY PUSH0 RETURN INVALID PUSH1 0x80 PUSH1 0x40 MSTORE CALLVALUE DUP1 ISZERO PUSH2 0xF JUMPI PUSH0 PUSH0 REVERT JUMPDEST POP PUSH1 0x4 CALLDATASIZE LT PUSH2 0x55 JUMPI PUSH0 CALLDATALOAD PUSH1 0xE0 SHR DUP1 PUSH4 0x6EAD22E EQ PUSH2 0x59 JUMPI DUP1 PUSH4 0x5900FE9F EQ PUSH2 0x8D JUMPI DUP1 PUSH4 0x642F9163 EQ PUSH2 0xA9 JUMPI DUP1 PUSH4 0x7DF221E9 EQ PUSH2 0xDC JUMPI DUP1 PUSH4 0xE9E30927 EQ PUSH2 0x110 JUMPI JUMPDEST PUSH0 PUSH0 REVERT JUMPDEST PUSH2 0x73 PUSH1 0x4 DUP1 CALLDATASIZE SUB DUP2 ADD SWAP1 PUSH2 0x6E SWAP2 SWAP1 PUSH2 0x975 JUMP JUMPDEST PUSH2 0x12E JUMP JUMPDEST PUSH1 0x40 MLOAD PUSH2 0x84 SWAP6 SWAP5 SWAP4 SWAP3 SWAP2 SWAP1 PUSH2 0xA39 JUMP JUMPDEST PUSH1 0x40 MLOAD DUP1 SWAP2 SUB SWAP1 RETURN JUMPDEST PUSH2 0xA7 PUSH1 0x4 DUP1 CALLDATASIZE SUB DUP2 ADD SWAP1 PUSH2 0xA2 SWAP2 SWAP1 PUSH2 0xBC4 JUMP JUMPDEST PUSH2 0x278 JUMP JUMPDEST STOP JUMPDEST PUSH2 0xC3 PUSH1 0x4 DUP1 CALLDATASIZE SUB DUP2 ADD SWAP1 PUSH2 0xBE SWAP2 SWAP1 PUSH2 0x975 JUMP JUMPDEST PUSH2 0x457 JUMP JUMPDEST PUSH1 0x40 MLOAD PUSH2 0xD3 SWAP5 SWAP4 SWAP3 SWAP2 SWAP1 PUSH2 0xC60 JUMP JUMPDEST PUSH1 0x40 MLOAD DUP1 SWAP2 SUB SWAP1 RETURN JUMPDEST PUSH2 0xF6 PUSH1 0x4 DUP1 CALLDATASIZE SUB DUP2 ADD SWAP1 PUSH2 0xF1 SWAP2 SWAP1 PUSH2 0x975 JUMP JUMPDEST PUSH2 0x631 JUMP JUMPDEST PUSH1 0x40 MLOAD PUSH2 0x107 SWAP6 SWAP5 SWAP4 SWAP3 SWAP2 SWAP1 PUSH2 0xA39 JUMP JUMPDEST PUSH1 0x40 MLOAD DUP1 SWAP2 SUB SWAP1 RETURN JUMPDEST PUSH2 0x118 PUSH2 0x789 JUMP JUMPDEST PUSH1 0x40 MLOAD PUSH2 0x125 SWAP2 SWAP1 PUSH2 0xE4C JUMP JUMPDEST PUSH1 0x40 MLOAD DUP1 SWAP2 SUB SWAP1 RETURN JUMPDEST PUSH1 0x1 PUSH1 0x20 MSTORE DUP1 PUSH0 MSTORE PUSH1 0x40 PUSH0 KECCAK256 PUSH0 SWAP2 POP SWAP1 POP DUP1 PUSH0 ADD SLOAD SWAP1 DUP1 PUSH1 0x1 ADD DUP1 SLOAD PUSH2 0x153 SWAP1 PUSH2 0xE99 JUMP JUMPDEST DUP1 PUSH1 0x1F ADD PUSH1 0x20 DUP1 SWAP2 DIV MUL PUSH1 0x20 ADD PUSH1 0x40 MLOAD SWAP1 DUP2 ADD PUSH1 0x40 MSTORE DUP1 SWAP3 SWAP2 SWAP1 DUP2 DUP2 MSTORE PUSH1 0x20 ADD DUP3 DUP1 SLOAD PUSH2 0x17F SWAP1 PUSH2 0xE99 JUMP JUMPDEST DUP1 ISZERO PUSH2 0x1CA JUMPI DUP1 PUSH1 0x1F LT PUSH2 0x1A1 JUMPI PUSH2 0x100 DUP1 DUP4 SLOAD DIV MUL DUP4 MSTORE SWAP2 PUSH1 0x20 ADD SWAP2 PUSH2 0x1CA JUMP JUMPDEST DUP3 ADD SWAP2 SWAP1 PUSH0 MSTORE PUSH1 0x20 PUSH0 KECCAK256 SWAP1 JUMPDEST DUP2 SLOAD DUP2 MSTORE SWAP1 PUSH1 0x1 ADD SWAP1 PUSH1 0x20 ADD DUP1 DUP4 GT PUSH2 0x1AD JUMPI DUP3 SWAP1 SUB PUSH1 0x1F AND DUP3 ADD SWAP2 JUMPDEST POP POP POP POP POP SWAP1 DUP1 PUSH1 0x2 ADD SLOAD SWAP1 DUP1 PUSH1 0x3 ADD DUP1 SLOAD PUSH2 0x1E5 SWAP1 PUSH2 0xE99 JUMP JUMPDEST DUP1 PUSH1 0x1F ADD PUSH1 0x20 DUP1 SWAP2 DIV MUL PUSH1 0x20 ADD PUSH1 0x40 MLOAD SWAP1 DUP2 ADD PUSH1 0x40 MSTORE DUP1 SWAP3 SWAP2 SWAP1 DUP2 DUP2 MSTORE PUSH1 0x20 ADD DUP3 DUP1 SLOAD PUSH2 0x211 SWAP1 PUSH2 0xE99 JUMP JUMPDEST DUP1 ISZERO PUSH2 0x25C JUMPI DUP1 PUSH1 0x1F LT PUSH2 0x233 JUMPI PUSH2 0x100 DUP1 DUP4 SLOAD DIV MUL DUP4 MSTORE SWAP2 PUSH1 0x20 ADD SWAP2 PUSH2 0x25C JUMP JUMPDEST DUP3 ADD SWAP2 SWAP1 PUSH0 MSTORE PUSH1 0x20 PUSH0 KECCAK256 SWAP1 JUMPDEST DUP2 SLOAD DUP2 MSTORE SWAP1 PUSH1 0x1 ADD SWAP1 PUSH1 0x20 ADD DUP1 DUP4 GT PUSH2 0x23F JUMPI DUP3 SWAP1 SUB PUSH1 0x1F AND DUP3 ADD SWAP2 JUMPDEST POP POP POP POP POP SWAP1 DUP1 PUSH1 0x4 ADD PUSH0 SWAP1 SLOAD SWAP1 PUSH2 0x100 EXP SWAP1 DIV PUSH1 0xFF AND SWAP1 POP DUP6 JUMP JUMPDEST PUSH1 0x1 PUSH0 DUP6 DUP2 MSTORE PUSH1 0x20 ADD SWAP1 DUP2 MSTORE PUSH1 0x20 ADD PUSH0 KECCAK256 PUSH1 0x4 ADD PUSH0 SWAP1 SLOAD SWAP1 PUSH2 0x100 EXP SWAP1 DIV PUSH1 0xFF AND ISZERO PUSH2 0x2D9 JUMPI PUSH1 0x40 MLOAD PUSH32 0x8C379A000000000000000000000000000000000000000000000000000000000 DUP2 MSTORE PUSH1 0x4 ADD PUSH2 0x2D0 SWAP1 PUSH2 0xF13 JUMP JUMPDEST PUSH1 0x40 MLOAD DUP1 SWAP2 SUB SWAP1 REVERT JUMPDEST PUSH1 0x40 MLOAD DUP1 PUSH1 0xA0 ADD PUSH1 0x40 MSTORE DUP1 DUP6 DUP2 MSTORE PUSH1 0x20 ADD DUP5 DUP2 MSTORE PUSH1 0x20 ADD DUP4 DUP2 MSTORE PUSH1 0x20 ADD DUP3 DUP2 MSTORE PUSH1 0x20 ADD PUSH1 0x1 ISZERO ISZERO DUP2 MSTORE POP PUSH1 0x1 PUSH0 DUP7 DUP2 MSTORE PUSH1 0x20 ADD SWAP1 DUP2 MSTORE PUSH1 0x20 ADD PUSH0 KECCAK256 PUSH0 DUP3 ADD MLOAD DUP2 PUSH0 ADD SSTORE PUSH1 0x20 DUP3 ADD MLOAD DUP2 PUSH1 0x1 ADD SWAP1 DUP2 PUSH2 0x331 SWAP2 SWAP1 PUSH2 0x10E2 JUMP JUMPDEST POP PUSH1 0x40 DUP3 ADD MLOAD DUP2 PUSH1 0x2 ADD SSTORE PUSH1 0x60 DUP3 ADD MLOAD DUP2 PUSH1 0x3 ADD SWAP1 DUP2 PUSH2 0x351 SWAP2 SWAP1 PUSH2 0x10E2 JUMP JUMPDEST POP PUSH1 0x80 DUP3 ADD MLOAD DUP2 PUSH1 0x4 ADD PUSH0 PUSH2 0x100 EXP DUP2 SLOAD DUP2 PUSH1 0xFF MUL NOT AND SWAP1 DUP4 ISZERO ISZERO MUL OR SWAP1 SSTORE POP SWAP1 POP POP PUSH0 PUSH1 0x1 PUSH0 DUP7 DUP2 MSTORE PUSH1 0x20 ADD SWAP1 DUP2 MSTORE PUSH1 0x20 ADD PUSH0 KECCAK256 SWAP1 DUP1 PUSH1 0x1 DUP2 SLOAD ADD DUP1 DUP3 SSTORE DUP1 SWAP2 POP POP PUSH1 0x1 SWAP1 SUB SWAP1 PUSH0 MSTORE PUSH1 0x20 PUSH0 KECCAK256 SWAP1 PUSH1 0x5 MUL ADD PUSH0 SWAP1 SWAP2 SWAP1 SWAP2 SWAP1 SWAP2 POP PUSH0 DUP3 ADD SLOAD DUP2 PUSH0 ADD SSTORE PUSH1 0x1 DUP3 ADD DUP2 PUSH1 0x1 ADD SWAP1 DUP2 PUSH2 0x3C8 SWAP2 SWAP1 PUSH2 0x11C6 JUMP JUMPDEST POP PUSH1 0x2 DUP3 ADD SLOAD DUP2 PUSH1 0x2 ADD SSTORE PUSH1 0x3 DUP3 ADD DUP2 PUSH1 0x3 ADD SWAP1 DUP2 PUSH2 0x3E7 SWAP2 SWAP1 PUSH2 0x11C6 JUMP JUMPDEST POP PUSH1 0x4 DUP3 ADD PUSH0 SWAP1 SLOAD SWAP1 PUSH2 0x100 EXP SWAP1 DIV PUSH1 0xFF AND DUP2 PUSH1 0x4 ADD PUSH0 PUSH2 0x100 EXP DUP2 SLOAD DUP2 PUSH1 0xFF MUL NOT AND SWAP1 DUP4 ISZERO ISZERO MUL OR SWAP1 SSTORE POP POP POP DUP4 PUSH32 0x1BE1384D0E46750BF3C73E3077BCE8EA0C00B17EA89A797F35D39E43210F5FED DUP5 DUP5 DUP5 PUSH1 0x40 MLOAD PUSH2 0x449 SWAP4 SWAP3 SWAP2 SWAP1 PUSH2 0x12AB JUMP JUMPDEST PUSH1 0x40 MLOAD DUP1 SWAP2 SUB SWAP1 LOG2 POP POP POP POP JUMP JUMPDEST PUSH0 PUSH1 0x60 PUSH0 PUSH1 0x60 PUSH1 0x1 PUSH0 DUP7 DUP2 MSTORE PUSH1 0x20 ADD SWAP1 DUP2 MSTORE PUSH1 0x20 ADD PUSH0 KECCAK256 PUSH1 0x4 ADD PUSH0 SWAP1 SLOAD SWAP1 PUSH2 0x100 EXP SWAP1 DIV PUSH1 0xFF AND PUSH2 0x4BD JUMPI PUSH1 0x40 MLOAD PUSH32 0x8C379A000000000000000000000000000000000000000000000000000000000 DUP2 MSTORE PUSH1 0x4 ADD PUSH2 0x4B4 SWAP1 PUSH2 0x1338 JUMP JUMPDEST PUSH1 0x40 MLOAD DUP1 SWAP2 SUB SWAP1 REVERT JUMPDEST PUSH1 0x1 PUSH0 DUP7 DUP2 MSTORE PUSH1 0x20 ADD SWAP1 DUP2 MSTORE PUSH1 0x20 ADD PUSH0 KECCAK256 PUSH0 ADD SLOAD PUSH1 0x1 PUSH0 DUP8 DUP2 MSTORE PUSH1 0x20 ADD SWAP1 DUP2 MSTORE PUSH1 0x20 ADD PUSH0 KECCAK256 PUSH1 0x1 ADD PUSH1 0x1 PUSH0 DUP9 DUP2 MSTORE PUSH1 0x20 ADD SWAP1 DUP2 MSTORE PUSH1 0x20 ADD PUSH0 KECCAK256 PUSH1 0x2 ADD SLOAD PUSH1 0x1 PUSH0 DUP10 DUP2 MSTORE PUSH1 0x20 ADD SWAP1 DUP2 MSTORE PUSH1 0x20 ADD PUSH0 KECCAK256 PUSH1 0x3 ADD DUP3 DUP1 SLOAD PUSH2 0x51A SWAP1 PUSH2 0xE99 JUMP JUMPDEST DUP1 PUSH1 0x1F ADD PUSH1 0x20 DUP1 SWAP2 DIV MUL PUSH1 0x20 ADD PUSH1 0x40 MLOAD SWAP1 DUP2 ADD PUSH1 0x40 MSTORE DUP1 SWAP3 SWAP2 SWAP1 DUP2 DUP2 MSTORE PUSH1 0x20 ADD DUP3 DUP1 SLOAD PUSH2 0x546 SWAP1 PUSH2 0xE99 JUMP JUMPDEST DUP1 ISZERO PUSH2 0x591 JUMPI DUP1 PUSH1 0x1F LT PUSH2 0x568 JUMPI PUSH2 0x100 DUP1 DUP4 SLOAD DIV MUL DUP4 MSTORE SWAP2 PUSH1 0x20 ADD SWAP2 PUSH2 0x591 JUMP JUMPDEST DUP3 ADD SWAP2 SWAP1 PUSH0 MSTORE PUSH1 0x20 PUSH0 KECCAK256 SWAP1 JUMPDEST DUP2 SLOAD DUP2 MSTORE SWAP1 PUSH1 0x1 ADD SWAP1 PUSH1 0x20 ADD DUP1 DUP4 GT PUSH2 0x574 JUMPI DUP3 SWAP1 SUB PUSH1 0x1F AND DUP3 ADD SWAP2 JUMPDEST POP POP POP POP POP SWAP3 POP DUP1 DUP1 SLOAD PUSH2 0x5A4 SWAP1 PUSH2 0xE99 JUMP JUMPDEST DUP1 PUSH1 0x1F ADD PUSH1 0x20 DUP1 SWAP2 DIV MUL PUSH1 0x20 ADD PUSH1 0x40 MLOAD SWAP1 DUP2 ADD PUSH1 0x40 MSTORE DUP1 SWAP3 SWAP2 SWAP1 DUP2 DUP2 MSTORE PUSH1 0x20 ADD DUP3 DUP1 SLOAD PUSH2 0x5D0 SWAP1 PUSH2 0xE99 JUMP JUMPDEST DUP1 ISZERO PUSH2 0x61B JUMPI DUP1 PUSH1 0x1F LT PUSH2 0x5F2 JUMPI PUSH2 0x100 DUP1 DUP4 SLOAD DIV MUL DUP4 MSTORE SWAP2 PUSH1 0x20 ADD SWAP2 PUSH2 0x61B JUMP JUMPDEST DUP3 ADD SWAP2 SWAP1 PUSH0 MSTORE PUSH1 0x20 PUSH0 KECCAK256 SWAP1 JUMPDEST DUP2 SLOAD DUP2 MSTORE SWAP1 PUSH1 0x1 ADD SWAP1 PUSH1 0x20 ADD DUP1 DUP4 GT PUSH2 0x5FE JUMPI DUP3 SWAP1 SUB PUSH1 0x1F AND DUP3 ADD SWAP2 JUMPDEST POP POP POP POP POP SWAP1 POP SWAP4 POP SWAP4 POP SWAP4 POP SWAP4 POP SWAP2 SWAP4 POP SWAP2 SWAP4 JUMP JUMPDEST PUSH0 DUP2 DUP2 SLOAD DUP2 LT PUSH2 0x63F JUMPI PUSH0 DUP1 REVERT JUMPDEST SWAP1 PUSH0 MSTORE PUSH1 0x20 PUSH0 KECCAK256 SWAP1 PUSH1 0x5 MUL ADD PUSH0 SWAP2 POP SWAP1 POP DUP1 PUSH0 ADD SLOAD SWAP1 DUP1 PUSH1 0x1 ADD DUP1 SLOAD PUSH2 0x664 SWAP1 PUSH2 0xE99 JUMP JUMPDEST DUP1 PUSH1 0x1F ADD PUSH1 0x20 DUP1 SWAP2 DIV MUL PUSH1 0x20 ADD PUSH1 0x40 MLOAD SWAP1 DUP2 ADD PUSH1 0x40 MSTORE DUP1 SWAP3 SWAP2 SWAP1 DUP2 DUP2 MSTORE PUSH1 0x20 ADD DUP3 DUP1 SLOAD PUSH2 0x690 SWAP1 PUSH2 0xE99 JUMP JUMPDEST DUP1 ISZERO PUSH2 0x6DB JUMPI DUP1 PUSH1 0x1F LT PUSH2 0x6B2 JUMPI PUSH2 0x100 DUP1 DUP4 SLOAD DIV MUL DUP4 MSTORE SWAP2 PUSH1 0x20 ADD SWAP2 PUSH2 0x6DB JUMP JUMPDEST DUP3 ADD SWAP2 SWAP1 PUSH0 MSTORE PUSH1 0x20 PUSH0 KECCAK256 SWAP1 JUMPDEST DUP2 SLOAD DUP2 MSTORE SWAP1 PUSH1 0x1 ADD SWAP1 PUSH1 0x20 ADD DUP1 DUP4 GT PUSH2 0x6BE JUMPI DUP3 SWAP1 SUB PUSH1 0x1F AND DUP3 ADD SWAP2 JUMPDEST POP POP POP POP POP SWAP1 DUP1 PUSH1 0x2 ADD SLOAD SWAP1 DUP1 PUSH1 0x3 ADD DUP1 SLOAD PUSH2 0x6F6 SWAP1 PUSH2 0xE99 JUMP JUMPDEST DUP1 PUSH1 0x1F ADD PUSH1 0x20 DUP1 SWAP2 DIV MUL PUSH1 0x20 ADD PUSH1 0x40 MLOAD SWAP1 DUP2 ADD PUSH1 0x40 MSTORE DUP1 SWAP3 SWAP2 SWAP1 DUP2 DUP2 MSTORE PUSH1 0x20 ADD DUP3 DUP1 SLOAD PUSH2 0x722 SWAP1 PUSH2 0xE99 JUMP JUMPDEST DUP1 ISZERO PUSH2 0x76D JUMPI DUP1 PUSH1 0x1F LT PUSH2 0x744 JUMPI PUSH2 0x100 DUP1 DUP4 SLOAD DIV MUL DUP4 MSTORE SWAP2 PUSH1 0x20 ADD SWAP2 PUSH2 0x76D JUMP JUMPDEST DUP3 ADD SWAP2 SWAP1 PUSH0 MSTORE PUSH1 0x20 PUSH0 KECCAK256 SWAP1 JUMPDEST DUP2 SLOAD DUP2 MSTORE SWAP1 PUSH1 0x1 ADD SWAP1 PUSH1 0x20 ADD DUP1 DUP4 GT PUSH2 0x750 JUMPI DUP3 SWAP1 SUB PUSH1 0x1F AND DUP3 ADD SWAP2 JUMPDEST POP POP POP POP POP SWAP1 DUP1 PUSH1 0x4 ADD PUSH0 SWAP1 SLOAD SWAP1 PUSH2 0x100 EXP SWAP1 DIV PUSH1 0xFF AND SWAP1 POP DUP6 JUMP JUMPDEST PUSH1 0x60 PUSH0 DUP1 SLOAD DUP1 PUSH1 0x20 MUL PUSH1 0x20 ADD PUSH1 0x40 MLOAD SWAP1 DUP2 ADD PUSH1 0x40 MSTORE DUP1 SWAP3 SWAP2 SWAP1 DUP2 DUP2 MSTORE PUSH1 0x20 ADD PUSH0 SWAP1 JUMPDEST DUP3 DUP3 LT ISZERO PUSH2 0x928 JUMPI DUP4 DUP3 SWAP1 PUSH0 MSTORE PUSH1 0x20 PUSH0 KECCAK256 SWAP1 PUSH1 0x5 MUL ADD PUSH1 0x40 MLOAD DUP1 PUSH1 0xA0 ADD PUSH1 0x40 MSTORE SWAP1 DUP2 PUSH0 DUP3 ADD SLOAD DUP2 MSTORE PUSH1 0x20 ADD PUSH1 0x1 DUP3 ADD DUP1 SLOAD PUSH2 0x7E5 SWAP1 PUSH2 0xE99 JUMP JUMPDEST DUP1 PUSH1 0x1F ADD PUSH1 0x20 DUP1 SWAP2 DIV MUL PUSH1 0x20 ADD PUSH1 0x40 MLOAD SWAP1 DUP2 ADD PUSH1 0x40 MSTORE DUP1 SWAP3 SWAP2 SWAP1 DUP2 DUP2 MSTORE PUSH1 0x20 ADD DUP3 DUP1 SLOAD PUSH2 0x811 SWAP1 PUSH2 0xE99 JUMP JUMPDEST DUP1 ISZERO PUSH2 0x85C JUMPI DUP1 PUSH1 0x1F LT PUSH2 0x833 JUMPI PUSH2 0x100 DUP1 DUP4 SLOAD DIV MUL DUP4 MSTORE SWAP2 PUSH1 0x20 ADD SWAP2 PUSH2 0x85C JUMP JUMPDEST DUP3 ADD SWAP2 SWAP1 PUSH0 MSTORE PUSH1 0x20 PUSH0 KECCAK256 SWAP1 JUMPDEST DUP2 SLOAD DUP2 MSTORE SWAP1 PUSH1 0x1 ADD SWAP1 PUSH1 0x20 ADD DUP1 DUP4 GT PUSH2 0x83F JUMPI DUP3 SWAP1 SUB PUSH1 0x1F AND DUP3 ADD SWAP2 JUMPDEST POP POP POP POP POP DUP2 MSTORE PUSH1 0x20 ADD PUSH1 0x2 DUP3 ADD SLOAD DUP2 MSTORE PUSH1 0x20 ADD PUSH1 0x3 DUP3 ADD DUP1 SLOAD PUSH2 0x87F SWAP1 PUSH2 0xE99 JUMP JUMPDEST DUP1 PUSH1 0x1F ADD PUSH1 0x20 DUP1 SWAP2 DIV MUL PUSH1 0x20 ADD PUSH1 0x40 MLOAD SWAP1 DUP2 ADD PUSH1 0x40 MSTORE DUP1 SWAP3 SWAP2 SWAP1 DUP2 DUP2 MSTORE PUSH1 0x20 ADD DUP3 DUP1 SLOAD PUSH2 0x8AB SWAP1 PUSH2 0xE99 JUMP JUMPDEST DUP1 ISZERO PUSH2 0x8F6 JUMPI DUP1 PUSH1 0x1F LT PUSH2 0x8CD JUMPI PUSH2 0x100 DUP1 DUP4 SLOAD DIV MUL DUP4 MSTORE SWAP2 PUSH1 0x20 ADD SWAP2 PUSH2 0x8F6 JUMP JUMPDEST DUP3 ADD SWAP2 SWAP1 PUSH0 MSTORE PUSH1 0x20 PUSH0 KECCAK256 SWAP1 JUMPDEST DUP2 SLOAD DUP2 MSTORE SWAP1 PUSH1 0x1 ADD SWAP1 PUSH1 0x20 ADD DUP1 DUP4 GT PUSH2 0x8D9 JUMPI DUP3 SWAP1 SUB PUSH1 0x1F AND DUP3 ADD SWAP2 JUMPDEST POP POP POP POP POP DUP2 MSTORE PUSH1 0x20 ADD PUSH1 0x4 DUP3 ADD PUSH0 SWAP1 SLOAD SWAP1 PUSH2 0x100 EXP SWAP1 DIV PUSH1 0xFF AND ISZERO ISZERO ISZERO ISZERO DUP2 MSTORE POP POP DUP2 MSTORE PUSH1 0x20 ADD SWAP1 PUSH1 0x1 ADD SWAP1 PUSH2 0x7AB JUMP JUMPDEST POP POP POP POP SWAP1 POP SWAP1 JUMP JUMPDEST PUSH0 PUSH1 0x40 MLOAD SWAP1 POP SWAP1 JUMP JUMPDEST PUSH0 PUSH0 REVERT JUMPDEST PUSH0 PUSH0 REVERT JUMPDEST PUSH0 DUP2 SWAP1 POP SWAP2 SWAP1 POP JUMP JUMPDEST PUSH2 0x954 DUP2 PUSH2 0x942 JUMP JUMPDEST DUP2 EQ PUSH2 0x95E JUMPI PUSH0 PUSH0 REVERT JUMPDEST POP JUMP JUMPDEST PUSH0 DUP2 CALLDATALOAD SWAP1 POP PUSH2 0x96F DUP2 PUSH2 0x94B JUMP JUMPDEST SWAP3 SWAP2 POP POP JUMP JUMPDEST PUSH0 PUSH1 0x20 DUP3 DUP5 SUB SLT ISZERO PUSH2 0x98A JUMPI PUSH2 0x989 PUSH2 0x93A JUMP JUMPDEST JUMPDEST PUSH0 PUSH2 0x997 DUP5 DUP3 DUP6 ADD PUSH2 0x961 JUMP JUMPDEST SWAP2 POP POP SWAP3 SWAP2 POP POP JUMP JUMPDEST PUSH2 0x9A9 DUP2 PUSH2 0x942 JUMP JUMPDEST DUP3 MSTORE POP POP JUMP JUMPDEST PUSH0 DUP2 MLOAD SWAP1 POP SWAP2 SWAP1 POP JUMP JUMPDEST PUSH0 DUP3 DUP3 MSTORE PUSH1 0x20 DUP3 ADD SWAP1 POP SWAP3 SWAP2 POP POP JUMP JUMPDEST DUP3 DUP2 DUP4 MCOPY PUSH0 DUP4 DUP4 ADD MSTORE POP POP POP JUMP JUMPDEST PUSH0 PUSH1 0x1F NOT PUSH1 0x1F DUP4 ADD AND SWAP1 POP SWAP2 SWAP1 POP JUMP JUMPDEST PUSH0 PUSH2 0x9F1 DUP3 PUSH2 0x9AF JUMP JUMPDEST PUSH2 0x9FB DUP2 DUP6 PUSH2 0x9B9 JUMP JUMPDEST SWAP4 POP PUSH2 0xA0B DUP2 DUP6 PUSH1 0x20 DUP7 ADD PUSH2 0x9C9 JUMP JUMPDEST PUSH2 0xA14 DUP2 PUSH2 0x9D7 JUMP JUMPDEST DUP5 ADD SWAP2 POP POP SWAP3 SWAP2 POP POP JUMP JUMPDEST PUSH0 DUP2 ISZERO ISZERO SWAP1 POP SWAP2 SWAP1 POP JUMP JUMPDEST PUSH2 0xA33 DUP2 PUSH2 0xA1F JUMP JUMPDEST DUP3 MSTORE POP POP JUMP JUMPDEST PUSH0 PUSH1 0xA0 DUP3 ADD SWAP1 POP PUSH2 0xA4C PUSH0 DUP4 ADD DUP9 PUSH2 0x9A0 JUMP JUMPDEST DUP2 DUP2 SUB PUSH1 0x20 DUP4 ADD MSTORE PUSH2 0xA5E DUP2 DUP8 PUSH2 0x9E7 JUMP JUMPDEST SWAP1 POP PUSH2 0xA6D PUSH1 0x40 DUP4 ADD DUP7 PUSH2 0x9A0 JUMP JUMPDEST DUP2 DUP2 SUB PUSH1 0x60 DUP4 ADD MSTORE PUSH2 0xA7F DUP2 DUP6 PUSH2 0x9E7 JUMP JUMPDEST SWAP1 POP PUSH2 0xA8E PUSH1 0x80 DUP4 ADD DUP5 PUSH2 0xA2A JUMP JUMPDEST SWAP7 SWAP6 POP POP POP POP POP POP JUMP JUMPDEST PUSH0 PUSH0 REVERT JUMPDEST PUSH0 PUSH0 REVERT JUMPDEST PUSH32 0x4E487B7100000000000000000000000000000000000000000000000000000000 PUSH0 MSTORE PUSH1 0x41 PUSH1 0x4 MSTORE PUSH1 0x24 PUSH0 REVERT JUMPDEST PUSH2 0xAD6 DUP3 PUSH2 0x9D7 JUMP JUMPDEST DUP2 ADD DUP2 DUP2 LT PUSH8 0xFFFFFFFFFFFFFFFF DUP3 GT OR ISZERO PUSH2 0xAF5 JUMPI PUSH2 0xAF4 PUSH2 0xAA0 JUMP JUMPDEST JUMPDEST DUP1 PUSH1 0x40 MSTORE POP POP POP JUMP JUMPDEST PUSH0 PUSH2 0xB07 PUSH2 0x931 JUMP JUMPDEST SWAP1 POP PUSH2 0xB13 DUP3 DUP3 PUSH2 0xACD JUMP JUMPDEST SWAP2 SWAP1 POP JUMP JUMPDEST PUSH0 PUSH8 0xFFFFFFFFFFFFFFFF DUP3 GT ISZERO PUSH2 0xB32 JUMPI PUSH2 0xB31 PUSH2 0xAA0 JUMP JUMPDEST JUMPDEST PUSH2 0xB3B DUP3 PUSH2 0x9D7 JUMP JUMPDEST SWAP1 POP PUSH1 0x20 DUP2 ADD SWAP1 POP SWAP2 SWAP1 POP JUMP JUMPDEST DUP3 DUP2 DUP4 CALLDATACOPY PUSH0 DUP4 DUP4 ADD MSTORE POP POP POP JUMP JUMPDEST PUSH0 PUSH2 0xB68 PUSH2 0xB63 DUP5 PUSH2 0xB18 JUMP JUMPDEST PUSH2 0xAFE JUMP JUMPDEST SWAP1 POP DUP3 DUP2 MSTORE PUSH1 0x20 DUP2 ADD DUP5 DUP5 DUP5 ADD GT ISZERO PUSH2 0xB84 JUMPI PUSH2 0xB83 PUSH2 0xA9C JUMP JUMPDEST JUMPDEST PUSH2 0xB8F DUP5 DUP3 DUP6 PUSH2 0xB48 JUMP JUMPDEST POP SWAP4 SWAP3 POP POP POP JUMP JUMPDEST PUSH0 DUP3 PUSH1 0x1F DUP4 ADD SLT PUSH2 0xBAB JUMPI PUSH2 0xBAA PUSH2 0xA98 JUMP JUMPDEST JUMPDEST DUP2 CALLDATALOAD PUSH2 0xBBB DUP5 DUP3 PUSH1 0x20 DUP7 ADD PUSH2 0xB56 JUMP JUMPDEST SWAP2 POP POP SWAP3 SWAP2 POP POP JUMP JUMPDEST PUSH0 PUSH0 PUSH0 PUSH0 PUSH1 0x80 DUP6 DUP8 SUB SLT ISZERO PUSH2 0xBDC JUMPI PUSH2 0xBDB PUSH2 0x93A JUMP JUMPDEST JUMPDEST PUSH0 PUSH2 0xBE9 DUP8 DUP3 DUP9 ADD PUSH2 0x961 JUMP JUMPDEST SWAP5 POP POP PUSH1 0x20 DUP6 ADD CALLDATALOAD PUSH8 0xFFFFFFFFFFFFFFFF DUP2 GT ISZERO PUSH2 0xC0A JUMPI PUSH2 0xC09 PUSH2 0x93E JUMP JUMPDEST JUMPDEST PUSH2 0xC16 DUP8 DUP3 DUP9 ADD PUSH2 0xB97 JUMP JUMPDEST SWAP4 POP POP PUSH1 0x40 PUSH2 0xC27 DUP8 DUP3 DUP9 ADD PUSH2 0x961 JUMP JUMPDEST SWAP3 POP POP PUSH1 0x60 DUP6 ADD CALLDATALOAD PUSH8 0xFFFFFFFFFFFFFFFF DUP2 GT ISZERO PUSH2 0xC48 JUMPI PUSH2 0xC47 PUSH2 0x93E JUMP JUMPDEST JUMPDEST PUSH2 0xC54 DUP8 DUP3 DUP9 ADD PUSH2 0xB97 JUMP JUMPDEST SWAP2 POP POP SWAP3 SWAP6 SWAP2 SWAP5 POP SWAP3 POP JUMP JUMPDEST PUSH0 PUSH1 0x80 DUP3 ADD SWAP1 POP PUSH2 0xC73 PUSH0 DUP4 ADD DUP8 PUSH2 0x9A0 JUMP JUMPDEST DUP2 DUP2 SUB PUSH1 0x20 DUP4 ADD MSTORE PUSH2 0xC85 DUP2 DUP7 PUSH2 0x9E7 JUMP JUMPDEST SWAP1 POP PUSH2 0xC94 PUSH1 0x40 DUP4 ADD DUP6 PUSH2 0x9A0 JUMP JUMPDEST DUP2 DUP2 SUB PUSH1 0x60 DUP4 ADD MSTORE PUSH2 0xCA6 DUP2 DUP5 PUSH2 0x9E7 JUMP JUMPDEST SWAP1 POP SWAP6 SWAP5 POP POP POP POP POP JUMP JUMPDEST PUSH0 DUP2 MLOAD SWAP1 POP SWAP2 SWAP1 POP JUMP JUMPDEST PUSH0 DUP3 DUP3 MSTORE PUSH1 0x20 DUP3 ADD SWAP1 POP SWAP3 SWAP2 POP POP JUMP JUMPDEST PUSH0 DUP2 SWAP1 POP PUSH1 0x20 DUP3 ADD SWAP1 POP SWAP2 SWAP1 POP JUMP JUMPDEST PUSH2 0xCE3 DUP2 PUSH2 0x942 JUMP JUMPDEST DUP3 MSTORE POP POP JUMP JUMPDEST PUSH0 DUP3 DUP3 MSTORE PUSH1 0x20 DUP3 ADD SWAP1 POP SWAP3 SWAP2 POP POP JUMP JUMPDEST PUSH0 PUSH2 0xD03 DUP3 PUSH2 0x9AF JUMP JUMPDEST PUSH2 0xD0D DUP2 DUP6 PUSH2 0xCE9 JUMP JUMPDEST SWAP4 POP PUSH2 0xD1D DUP2 DUP6 PUSH1 0x20 DUP7 ADD PUSH2 0x9C9 JUMP JUMPDEST PUSH2 0xD26 DUP2 PUSH2 0x9D7 JUMP JUMPDEST DUP5 ADD SWAP2 POP POP SWAP3 SWAP2 POP POP JUMP JUMPDEST PUSH2 0xD3A DUP2 PUSH2 0xA1F JUMP JUMPDEST DUP3 MSTORE POP POP JUMP JUMPDEST PUSH0 PUSH1 0xA0 DUP4 ADD PUSH0 DUP4 ADD MLOAD PUSH2 0xD55 PUSH0 DUP7 ADD DUP3 PUSH2 0xCDA JUMP JUMPDEST POP PUSH1 0x20 DUP4 ADD MLOAD DUP5 DUP3 SUB PUSH1 0x20 DUP7 ADD MSTORE PUSH2 0xD6D DUP3 DUP3 PUSH2 0xCF9 JUMP JUMPDEST SWAP2 POP POP PUSH1 0x40 DUP4 ADD MLOAD PUSH2 0xD82 PUSH1 0x40 DUP7 ADD DUP3 PUSH2 0xCDA JUMP JUMPDEST POP PUSH1 0x60 DUP4 ADD MLOAD DUP5 DUP3 SUB PUSH1 0x60 DUP7 ADD MSTORE PUSH2 0xD9A DUP3 DUP3 PUSH2 0xCF9 JUMP JUMPDEST SWAP2 POP POP PUSH1 0x80 DUP4 ADD MLOAD PUSH2 0xDAF PUSH1 0x80 DUP7 ADD DUP3 PUSH2 0xD31 JUMP JUMPDEST POP DUP1 SWAP2 POP POP SWAP3 SWAP2 POP POP JUMP JUMPDEST PUSH0 PUSH2 0xDC5 DUP4 DUP4 PUSH2 0xD40 JUMP JUMPDEST SWAP1 POP SWAP3 SWAP2 POP POP JUMP JUMPDEST PUSH0 PUSH1 0x20 DUP3 ADD SWAP1 POP SWAP2 SWAP1 POP JUMP JUMPDEST PUSH0 PUSH2 0xDE3 DUP3 PUSH2 0xCB1 JUMP JUMPDEST PUSH2 0xDED DUP2 DUP6 PUSH2 0xCBB JUMP JUMPDEST SWAP4 POP DUP4 PUSH1 0x20 DUP3 MUL DUP6 ADD PUSH2 0xDFF DUP6 PUSH2 0xCCB JUMP JUMPDEST DUP1 PUSH0 JUMPDEST DUP6 DUP2 LT ISZERO PUSH2 0xE3A JUMPI DUP5 DUP5 SUB DUP10 MSTORE DUP2 MLOAD PUSH2 0xE1B DUP6 DUP3 PUSH2 0xDBA JUMP JUMPDEST SWAP5 POP PUSH2 0xE26 DUP4 PUSH2 0xDCD JUMP JUMPDEST SWAP3 POP PUSH1 0x20 DUP11 ADD SWAP10 POP POP PUSH1 0x1 DUP2 ADD SWAP1 POP PUSH2 0xE02 JUMP JUMPDEST POP DUP3 SWAP8 POP DUP8 SWAP6 POP POP POP POP POP POP SWAP3 SWAP2 POP POP JUMP JUMPDEST PUSH0 PUSH1 0x20 DUP3 ADD SWAP1 POP DUP2 DUP2 SUB PUSH0 DUP4 ADD MSTORE PUSH2 0xE64 DUP2 DUP5 PUSH2 0xDD9 JUMP JUMPDEST SWAP1 POP SWAP3 SWAP2 POP POP JUMP JUMPDEST PUSH32 0x4E487B7100000000000000000000000000000000000000000000000000000000 PUSH0 MSTORE PUSH1 0x22 PUSH1 0x4 MSTORE PUSH1 0x24 PUSH0 REVERT JUMPDEST PUSH0 PUSH1 0x2 DUP3 DIV SWAP1 POP PUSH1 0x1 DUP3 AND DUP1 PUSH2 0xEB0 JUMPI PUSH1 0x7F DUP3 AND SWAP2 POP JUMPDEST PUSH1 0x20 DUP3 LT DUP2 SUB PUSH2 0xEC3 JUMPI PUSH2 0xEC2 PUSH2 0xE6C JUMP JUMPDEST JUMPDEST POP SWAP2 SWAP1 POP JUMP JUMPDEST PUSH32 0x53747564656E7420616C72656164792065786973747300000000000000000000 PUSH0 DUP3 ADD MSTORE POP JUMP JUMPDEST PUSH0 PUSH2 0xEFD PUSH1 0x16 DUP4 PUSH2 0x9B9 JUMP JUMPDEST SWAP2 POP PUSH2 0xF08 DUP3 PUSH2 0xEC9 JUMP JUMPDEST PUSH1 0x20 DUP3 ADD SWAP1 POP SWAP2 SWAP1 POP JUMP JUMPDEST PUSH0 PUSH1 0x20 DUP3 ADD SWAP1 POP DUP2 DUP2 SUB PUSH0 DUP4 ADD MSTORE PUSH2 0xF2A DUP2 PUSH2 0xEF1 JUMP JUMPDEST SWAP1 POP SWAP2 SWAP1 POP JUMP JUMPDEST PUSH0 DUP2 SWAP1 POP DUP2 PUSH0 MSTORE PUSH1 0x20 PUSH0 KECCAK256 SWAP1 POP SWAP2 SWAP1 POP JUMP JUMPDEST PUSH0 PUSH1 0x20 PUSH1 0x1F DUP4 ADD DIV SWAP1 POP SWAP2 SWAP1 POP JUMP JUMPDEST PUSH0 DUP3 DUP3 SHL SWAP1 POP SWAP3 SWAP2 POP POP JUMP JUMPDEST PUSH0 PUSH1 0x8 DUP4 MUL PUSH2 0xF8D PUSH32 0xFFFFFFFFFFFFFFFFFFFFFFFFFFFFFFFFFFFFFFFFFFFFFFFFFFFFFFFFFFFFFFFF DUP3 PUSH2 0xF52 JUMP JUMPDEST PUSH2 0xF97 DUP7 DUP4 PUSH2 0xF52 JUMP JUMPDEST SWAP6 POP DUP1 NOT DUP5 AND SWAP4 POP DUP1 DUP7 AND DUP5 OR SWAP3 POP POP POP SWAP4 SWAP3 POP POP POP JUMP JUMPDEST PUSH0 DUP2 SWAP1 POP SWAP2 SWAP1 POP JUMP JUMPDEST PUSH0 PUSH2 0xFD2 PUSH2 0xFCD PUSH2 0xFC8 DUP5 PUSH2 0x942 JUMP JUMPDEST PUSH2 0xFAF JUMP JUMPDEST PUSH2 0x942 JUMP JUMPDEST SWAP1 POP SWAP2 SWAP1 POP JUMP JUMPDEST PUSH0 DUP2 SWAP1 POP SWAP2 SWAP1 POP JUMP JUMPDEST PUSH2 0xFEB DUP4 PUSH2 0xFB8 JUMP JUMPDEST PUSH2 0xFFF PUSH2 0xFF7 DUP3 PUSH2 0xFD9 JUMP JUMPDEST DUP5 DUP5 SLOAD PUSH2 0xF5E JUMP JUMPDEST DUP3 SSTORE POP POP POP POP JUMP JUMPDEST PUSH0 PUSH0 SWAP1 POP SWAP1 JUMP JUMPDEST PUSH2 0x1016 PUSH2 0x1007 JUMP JUMPDEST PUSH2 0x1021 DUP2 DUP5 DUP5 PUSH2 0xFE2 JUMP JUMPDEST POP POP POP JUMP JUMPDEST PUSH0 JUMPDEST DUP3 DUP2 LT ISZERO PUSH2 0x1047 JUMPI PUSH2 0x103C PUSH0 DUP3 DUP5 ADD PUSH2 0x100E JUMP JUMPDEST PUSH1 0x1 DUP2 ADD SWAP1 POP PUSH2 0x1028 JUMP JUMPDEST POP POP POP JUMP JUMPDEST PUSH1 0x1F DUP3 GT ISZERO PUSH2 0x109A JUMPI DUP3 DUP3 GT ISZERO PUSH2 0x1099 JUMPI PUSH2 0x1066 DUP2 PUSH2 0xF31 JUMP JUMPDEST PUSH2 0x106F DUP4 PUSH2 0xF43 JUMP JUMPDEST PUSH2 0x1078 DUP6 PUSH2 0xF43 JUMP JUMPDEST PUSH1 0x20 DUP7 LT ISZERO PUSH2 0x1085 JUMPI PUSH0 SWAP1 POP JUMPDEST DUP1 DUP4 ADD PUSH2 0x1094 DUP3 DUP5 SUB DUP3 PUSH2 0x1026 JUMP JUMPDEST POP POP POP POP JUMPDEST JUMPDEST POP POP POP JUMP JUMPDEST PUSH0 DUP3 DUP3 SHR SWAP1 POP SWAP3 SWAP2 POP POP JUMP JUMPDEST PUSH0 PUSH2 0x10BA PUSH0 NOT DUP5 PUSH1 0x8 MUL PUSH2 0x109F JUMP JUMPDEST NOT DUP1 DUP4 AND SWAP2 POP POP SWAP3 SWAP2 POP POP JUMP JUMPDEST PUSH0 PUSH2 0x10D2 DUP4 DUP4 PUSH2 0x10AB JUMP JUMPDEST SWAP2 POP DUP3 PUSH1 0x2 MUL DUP3 OR SWAP1 POP SWAP3 SWAP2 POP POP JUMP JUMPDEST PUSH2 0x10EB DUP3 PUSH2 0x9AF JUMP JUMPDEST PUSH8 0xFFFFFFFFFFFFFFFF DUP2 GT ISZERO PUSH2 0x1104 JUMPI PUSH2 0x1103 PUSH2 0xAA0 JUMP JUMPDEST JUMPDEST PUSH2 0x110E DUP3 SLOAD PUSH2 0xE99 JUMP JUMPDEST PUSH2 0x1119 DUP3 DUP3 DUP6 PUSH2 0x104C JUMP JUMPDEST PUSH0 PUSH1 0x20 SWAP1 POP PUSH1 0x1F DUP4 GT PUSH1 0x1 DUP2 EQ PUSH2 0x114A JUMPI PUSH0 DUP5 ISZERO PUSH2 0x1138 JUMPI DUP3 DUP8 ADD MLOAD SWAP1 POP JUMPDEST PUSH2 0x1142 DUP6 DUP3 PUSH2 0x10C7 JUMP JUMPDEST DUP7 SSTORE POP PUSH2 0x11A9 JUMP JUMPDEST PUSH1 0x1F NOT DUP5 AND PUSH2 0x1158 DUP7 PUSH2 0xF31 JUMP JUMPDEST PUSH0 JUMPDEST DUP3 DUP2 LT ISZERO PUSH2 0x117F JUMPI DUP5 DUP10 ADD MLOAD DUP3 SSTORE PUSH1 0x1 DUP3 ADD SWAP2 POP PUSH1 0x20 DUP6 ADD SWAP5 POP PUSH1 0x20 DUP2 ADD SWAP1 POP PUSH2 0x115A JUMP JUMPDEST DUP7 DUP4 LT ISZERO PUSH2 0x119C JUMPI DUP5 DUP10 ADD MLOAD PUSH2 0x1198 PUSH1 0x1F DUP10 AND DUP3 PUSH2 0x10AB JUMP JUMPDEST DUP4 SSTORE POP JUMPDEST PUSH1 0x1 PUSH1 0x2 DUP9 MUL ADD DUP9 SSTORE POP POP POP JUMPDEST POP POP POP POP POP POP JUMP JUMPDEST PUSH0 DUP2 SLOAD SWAP1 POP PUSH2 0x11BF DUP2 PUSH2 0xE99 JUMP JUMPDEST SWAP1 POP SWAP2 SWAP1 POP JUMP JUMPDEST DUP2 DUP2 SUB PUSH2 0x11D4 JUMPI POP POP PUSH2 0x12A9 JUMP JUMPDEST PUSH2 0x11DD DUP3 PUSH2 0x11B1 JUMP JUMPDEST PUSH8 0xFFFFFFFFFFFFFFFF DUP2 GT ISZERO PUSH2 0x11F6 JUMPI PUSH2 0x11F5 PUSH2 0xAA0 JUMP JUMPDEST JUMPDEST PUSH2 0x1200 DUP3 SLOAD PUSH2 0xE99 JUMP JUMPDEST PUSH2 0x120B DUP3 DUP3 DUP6 PUSH2 0x104C JUMP JUMPDEST PUSH0 PUSH1 0x1F DUP4 GT PUSH1 0x1 DUP2 EQ PUSH2 0x1238 JUMPI PUSH0 DUP5 ISZERO PUSH2 0x1226 JUMPI DUP3 DUP8 ADD SLOAD SWAP1 POP JUMPDEST PUSH2 0x1230 DUP6 DUP3 PUSH2 0x10C7 JUMP JUMPDEST DUP7 SSTORE POP PUSH2 0x12A2 JUMP JUMPDEST PUSH1 0x1F NOT DUP5 AND PUSH2 0x1246 DUP8 PUSH2 0xF31 JUMP JUMPDEST SWAP7 POP PUSH2 0x1251 DUP7 PUSH2 0xF31 JUMP JUMPDEST PUSH0 JUMPDEST DUP3 DUP2 LT ISZERO PUSH2 0x1278 JUMPI DUP5 DUP10 ADD SLOAD DUP3 SSTORE PUSH1 0x1 DUP3 ADD SWAP2 POP PUSH1 0x1 DUP6 ADD SWAP5 POP PUSH1 0x20 DUP2 ADD SWAP1 POP PUSH2 0x1253 JUMP JUMPDEST DUP7 DUP4 LT ISZERO PUSH2 0x1295 JUMPI DUP5 DUP10 ADD SLOAD PUSH2 0x1291 PUSH1 0x1F DUP10 AND DUP3 PUSH2 0x10AB JUMP JUMPDEST DUP4 SSTORE POP JUMPDEST PUSH1 0x1 PUSH1 0x2 DUP9 MUL ADD DUP9 SSTORE POP POP POP JUMPDEST POP POP POP POP POP POP JUMPDEST JUMP JUMPDEST PUSH0 PUSH1 0x60 DUP3 ADD SWAP1 POP DUP2 DUP2 SUB PUSH0 DUP4 ADD MSTORE PUSH2 0x12C3 DUP2 DUP7 PUSH2 0x9E7 JUMP JUMPDEST SWAP1 POP PUSH2 0x12D2 PUSH1 0x20 DUP4 ADD DUP6 PUSH2 0x9A0 JUMP JUMPDEST DUP2 DUP2 SUB PUSH1 0x40 DUP4 ADD MSTORE PUSH2 0x12E4 DUP2 DUP5 PUSH2 0x9E7 JUMP JUMPDEST SWAP1 POP SWAP5 SWAP4 POP POP POP POP JUMP JUMPDEST PUSH32 0x53747564656E7420646F6573206E6F7420657869737400000000000000000000 PUSH0 DUP3 ADD MSTORE POP JUMP JUMPDEST PUSH0 PUSH2 0x1322 PUSH1 0x16 DUP4 PUSH2 0x9B9 JUMP JUMPDEST SWAP2 POP PUSH2 0x132D DUP3 PUSH2 0x12EE JUMP JUMPDEST PUSH1 0x20 DUP3 ADD SWAP1 POP SWAP2 SWAP1 POP JUMP JUMPDEST PUSH0 PUSH1 0x20 DUP3 ADD SWAP1 POP DUP2 DUP2 SUB PUSH0 DUP4 ADD MSTORE PUSH2 0x134F DUP2 PUSH2 0x1316 JUMP JUMPDEST SWAP1 POP SWAP2 SWAP1 POP JUMP INVALID LOG2 PUSH5 0x6970667358 0x22 SLT KECCAK256 0xF7 SWAP9 BLOBBASEFEE 0xBC ADD DUP7 SWAP12 0xCE 0xBE 0xC8 CODESIZE PUSH2 0x8529 0xBD CODECOPY JUMPI CODESIZE SMOD RJUMPI 0xDDDB DUP4 RJUMPI 0xF397 PUSH0 BLOCKHASH SUB KECCAK256 EXP 0xAD PUSH5 0x736F6C6343 STOP ADDMOD 0x22 STOP CALLER "
				},
				"gasEstimates": {
					"creation": {
						"codeDepositCost": "1000800",
						"executionCost": "1039",
						"totalCost": "1001839"
					},
					"external": {
						"addStudent(uint256,string,uint256,string)": "infinite",
						"getAllStudents()": "infinite",
						"getStudent(uint256)": "infinite",
						"studentList(uint256)": "infinite",
						"students(uint256)": "infinite"
					}
				},
				"methodIdentifiers": {
					"addStudent(uint256,string,uint256,string)": "5900fe9f",
					"getAllStudents()": "e9e30927",
					"getStudent(uint256)": "642f9163",
					"studentList(uint256)": "7df221e9",
					"students(uint256)": "06ead22e"
				}
			},
			"storageLayout": {
				"storage": [
					{
						"astId": 16,
						"contract": "contracts/4.StudentRegistry.sol:StudentRegistry",
						"label": "studentList",
						"offset": 0,
						"slot": "0",
						"type": "t_array(t_struct(Student)12_storage)dyn_storage"
					},
					{
						"astId": 21,
						"contract": "contracts/4.StudentRegistry.sol:StudentRegistry",
						"label": "students",
						"offset": 0,
						"slot": "1",
						"type": "t_mapping(t_uint256,t_struct(Student)12_storage)"
					}
				],
				"types": {
					"t_array(t_struct(Student)12_storage)dyn_storage": {
						"base": "t_struct(Student)12_storage",
						"encoding": "dynamic_array",
						"label": "struct StudentRegistry.Student[]",
						"numberOfBytes": "32"
					},
					"t_bool": {
						"encoding": "inplace",
						"label": "bool",
						"numberOfBytes": "1"
					},
					"t_mapping(t_uint256,t_struct(Student)12_storage)": {
						"encoding": "mapping",
						"key": "t_uint256",
						"label": "mapping(uint256 => struct StudentRegistry.Student)",
						"numberOfBytes": "32",
						"value": "t_struct(Student)12_storage"
					},
					"t_string_storage": {
						"encoding": "bytes",
						"label": "string",
						"numberOfBytes": "32"
					},
					"t_struct(Student)12_storage": {
						"encoding": "inplace",
						"label": "struct StudentRegistry.Student",
						"members": [
							{
								"astId": 3,
								"contract": "contracts/4.StudentRegistry.sol:StudentRegistry",
								"label": "id",
								"offset": 0,
								"slot": "0",
								"type": "t_uint256"
							},
							{
								"astId": 5,
								"contract": "contracts/4.StudentRegistry.sol:StudentRegistry",
								"label": "name",
								"offset": 0,
								"slot": "1",
								"type": "t_string_storage"
							},
							{
								"astId": 7,
								"contract": "contracts/4.StudentRegistry.sol:StudentRegistry",
								"label": "age",
								"offset": 0,
								"slot": "2",
								"type": "t_uint256"
							},
							{
								"astId": 9,
								"contract": "contracts/4.StudentRegistry.sol:StudentRegistry",
								"label": "department",
								"offset": 0,
								"slot": "3",
								"type": "t_string_storage"
							},
							{
								"astId": 11,
								"contract": "contracts/4.StudentRegistry.sol:StudentRegistry",
								"label": "exists",
								"offset": 0,
								"slot": "4",
								"type": "t_bool"
							}
						],
						"numberOfBytes": "160"
					},
					"t_uint256": {
						"encoding": "inplace",
						"label": "uint256",
						"numberOfBytes": "32"
					}
				}
			},
			"userdoc": {
				"kind": "user",
				"methods": {},
				"version": 1
			}
		}
	}
}