{
	"contracts/6.Inherit.sol": {
		"Cube": {
			"abi": [
				{
					"inputs": [
						{
							"internalType": "uint256",
							"name": "_length",
							"type": "uint256"
						}
					],
					"stateMutability": "nonpayable",
					"type": "constructor"
				},
				{
					"anonymous": false,
					"inputs": [
						{
							"indexed": false,
							"internalType": "uint256",
							"name": "oldLength",
							"type": "uint256"
						},
						{
							"indexed": false,
							"internalType": "uint256",
							"name": "newLength",
							"type": "uint256"
						}
					],
					"name": "ChangeLength",
					"type": "event"
				},
				{
					"inputs": [
						{
							"internalType": "uint256",
							"name": "_newLength",
							"type": "uint256"
						}
					],
					"name": "changeLength",
					"outputs": [],
					"stateMutability": "nonpayable",
					"type": "function"
				},
				{
					"inputs": [],
					"name": "surfaceArea",
					"outputs": [
						{
							"internalType": "uint256",
							"name": "",
							"type": "uint256"
						}
					],
					"stateMutability": "view",
					"type": "function"
				},
				{
					"inputs": [],
					"name": "volume",
					"outputs": [
						{
							"internalType": "uint256",
							"name": "",
							"type": "uint256"
						}
					],
					"stateMutability": "view",
					"type": "function"
				}
			],
			"devdoc": {
				"kind": "dev",
				"methods": {},
				"version": 1
			},
			"evm": {
				"assembly": "    /* \"contracts/6.Inherit.sol\":386:936  contract Cube is Geometry{... */\n  mstore(0x40, 0x80)\n    /* \"contracts/6.Inherit.sol\":438:498  constructor(uint _length){... */\n  callvalue\n  dup1\n  iszero\n  tag_1\n  jumpi\n  revert(0x00, 0x00)\ntag_1:\n  pop\n  mload(0x40)\n  sub(codesize, bytecodeSize)\n  dup1\n  bytecodeSize\n  dup4\n  codecopy\n  dup2\n  dup2\n  add\n  0x40\n  mstore\n  dup2\n  add\n  swap1\n  tag_2\n  swap2\n  swap1\n  tag_3\n  jump\t// in\ntag_2:\n    /* \"contracts/6.Inherit.sol\":483:490  _length */\n  dup1\n    /* \"contracts/6.Inherit.sol\":474:480  length */\n  0x00\n    /* \"contracts/6.Inherit.sol\":474:490  length = _length */\n  dup2\n  swap1\n  sstore\n  pop\n    /* \"contracts/6.Inherit.sol\":438:498  constructor(uint _length){... */\n  pop\n    /* \"contracts/6.Inherit.sol\":386:936  contract Cube is Geometry{... */\n  jump(tag_6)\n    /* \"#utility.yul\":88:205   */\ntag_8:\n    /* \"#utility.yul\":197:198   */\n  0x00\n    /* \"#utility.yul\":194:195   */\n  0x00\n    /* \"#utility.yul\":187:199   */\n  revert\n    /* \"#utility.yul\":334:411   */\ntag_10:\n    /* \"#utility.yul\":371:378   */\n  0x00\n    /* \"#utility.yul\":400:405   */\n  dup2\n    /* \"#utility.yul\":389:405   */\n  swap1\n  pop\n    /* \"#utility.yul\":334:411   */\n  swap2\n  swap1\n  pop\n  jump\t// out\n    /* \"#utility.yul\":417:539   */\ntag_11:\n    /* \"#utility.yul\":490:514   */\n  tag_19\n    /* \"#utility.yul\":508:513   */\n  dup2\n    /* \"#utility.yul\":490:514   */\n  tag_10\n  jump\t// in\ntag_19:\n    /* \"#utility.yul\":483:488   */\n  dup2\n    /* \"#utility.yul\":480:515   */\n  eq\n    /* \"#utility.yul\":470:533   */\n  tag_20\n  jumpi\n    /* \"#utility.yul\":529:530   */\n  0x00\n    /* \"#utility.yul\":526:527   */\n  0x00\n    /* \"#utility.yul\":519:531   */\n  revert\n    /* \"#utility.yul\":470:533   */\ntag_20:\n    /* \"#utility.yul\":417:539   */\n  pop\n  jump\t// out\n    /* \"#utility.yul\":545:688   */\ntag_12:\n    /* \"#utility.yul\":602:607   */\n  0x00\n    /* \"#utility.yul\":633:639   */\n  dup2\n    /* \"#utility.yul\":627:640   */\n  mload\n    /* \"#utility.yul\":618:640   */\n  swap1\n  pop\n    /* \"#utility.yul\":649:682   */\n  tag_22\n    /* \"#utility.yul\":676:681   */\n  dup2\n    /* \"#utility.yul\":649:682   */\n  tag_11\n  jump\t// in\ntag_22:\n    /* \"#utility.yul\":545:688   */\n  swap3\n  swap2\n  pop\n  pop\n  jump\t// out\n    /* \"#utility.yul\":694:1045   */\ntag_3:\n    /* \"#utility.yul\":764:770   */\n  0x00\n    /* \"#utility.yul\":813:815   */\n  0x20\n    /* \"#utility.yul\":801:810   */\n  dup3\n    /* \"#utility.yul\":792:799   */\n  dup5\n    /* \"#utility.yul\":788:811   */\n  sub\n    /* \"#utility.yul\":784:816   */\n  slt\n    /* \"#utility.yul\":781:900   */\n  iszero\n  tag_24\n  jumpi\n    /* \"#utility.yul\":819:898   */\n  tag_25\n  tag_8\n  jump\t// in\ntag_25:\n    /* \"#utility.yul\":781:900   */\ntag_24:\n    /* \"#utility.yul\":939:940   */\n  0x00\n    /* \"#utility.yul\":964:1028   */\n  tag_26\n    /* \"#utility.yul\":1020:1027   */\n  dup5\n    /* \"#utility.yul\":1011:1017   */\n  dup3\n    /* \"#utility.yul\":1000:1009   */\n  dup6\n    /* \"#utility.yul\":996:1018   */\n  add\n    /* \"#utility.yul\":964:1028   */\n  tag_12\n  jump\t// in\ntag_26:\n    /* \"#utility.yul\":954:1028   */\n  swap2\n  pop\n    /* \"#utility.yul\":910:1038   */\n  pop\n    /* \"#utility.yul\":694:1045   */\n  swap3\n  swap2\n  pop\n  pop\n  jump\t// out\n    /* \"contracts/6.Inherit.sol\":386:936  contract Cube is Geometry{... */\ntag_6:\n  dataSize(sub_0)\n  dup1\n  dataOffset(sub_0)\n  0x00\n  codecopy\n  0x00\n  return\nstop\n\nsub_0: assembly {\n        /* \"contracts/6.Inherit.sol\":386:936  contract Cube is Geometry{... */\n      mstore(0x40, 0x80)\n      callvalue\n      dup1\n      iszero\n      tag_1\n      jumpi\n      revert(0x00, 0x00)\n    tag_1:\n      pop\n      jumpi(tag_2, lt(calldatasize, 0x04))\n      shr(0xe0, calldataload(0x00))\n      dup1\n      0x7f65ec0b\n      eq\n      tag_3\n      jumpi\n      dup1\n      0x89e7995f\n      eq\n      tag_4\n      jumpi\n      dup1\n      0xc618a1e4\n      eq\n      tag_5\n      jumpi\n    tag_2:\n      revert(0x00, 0x00)\n        /* \"contracts/6.Inherit.sol\":565:718  function changeLength(uint _newLength) public {... */\n    tag_3:\n      tag_6\n      0x04\n      dup1\n      calldatasize\n      sub\n      dup2\n      add\n      swap1\n      tag_7\n      swap2\n      swap1\n      tag_8\n      jump\t// in\n    tag_7:\n      tag_9\n      jump\t// in\n    tag_6:\n      stop\n        /* \"contracts/6.Inherit.sol\":726:831  function surfaceArea() public view override returns(uint256){... */\n    tag_4:\n      tag_10\n      tag_11\n      jump\t// in\n    tag_10:\n      mload(0x40)\n      tag_12\n      swap2\n      swap1\n      tag_13\n      jump\t// in\n    tag_12:\n      mload(0x40)\n      dup1\n      swap2\n      sub\n      swap1\n      return\n        /* \"contracts/6.Inherit.sol\":837:931  function volume() public view  override  returns(uint256){... */\n    tag_5:\n      tag_14\n      tag_15\n      jump\t// in\n    tag_14:\n      mload(0x40)\n      tag_16\n      swap2\n      swap1\n      tag_13\n      jump\t// in\n    tag_16:\n      mload(0x40)\n      dup1\n      swap2\n      sub\n      swap1\n      return\n        /* \"contracts/6.Inherit.sol\":565:718  function changeLength(uint _newLength) public {... */\n    tag_9:\n        /* \"contracts/6.Inherit.sol\":622:630  uint old */\n      0x00\n        /* \"contracts/6.Inherit.sol\":633:639  length */\n      sload(0x00)\n        /* \"contracts/6.Inherit.sol\":622:639  uint old = length */\n      swap1\n      pop\n        /* \"contracts/6.Inherit.sol\":659:669  _newLength */\n      dup2\n        /* \"contracts/6.Inherit.sol\":650:656  length */\n      0x00\n        /* \"contracts/6.Inherit.sol\":650:669  length = _newLength */\n      dup2\n      swap1\n      sstore\n      pop\n        /* \"contracts/6.Inherit.sol\":685:710  ChangeLength(old, length) */\n      0x595c9fa3efed59adc342a5b5b456236702a900f50e31a6d9b9b15dbdfa445336\n        /* \"contracts/6.Inherit.sol\":698:701  old */\n      dup2\n        /* \"contracts/6.Inherit.sol\":703:709  length */\n      sload(0x00)\n        /* \"contracts/6.Inherit.sol\":685:710  ChangeLength(old, length) */\n      mload(0x40)\n      tag_18\n      swap3\n      swap2\n      swap1\n      tag_19\n      jump\t// in\n    tag_18:\n      mload(0x40)\n      dup1\n      swap2\n      sub\n      swap1\n      log1\n        /* \"contracts/6.Inherit.sol\":611:718  {... */\n      pop\n        /* \"contracts/6.Inherit.sol\":565:718  function changeLength(uint _newLength) public {... */\n      pop\n      jump\t// out\n        /* \"contracts/6.Inherit.sol\":726:831  function surfaceArea() public view override returns(uint256){... */\n    tag_11:\n        /* \"contracts/6.Inherit.sol\":778:785  uint256 */\n      0x00\n        /* \"contracts/6.Inherit.sol\":817:823  length */\n      sload(0x00)\n        /* \"contracts/6.Inherit.sol\":808:814  length */\n      sload(0x00)\n        /* \"contracts/6.Inherit.sol\":804:805  6 */\n      0x06\n        /* \"contracts/6.Inherit.sol\":804:814  6 * length */\n      tag_21\n      swap2\n      swap1\n      tag_22\n      jump\t// in\n    tag_21:\n        /* \"contracts/6.Inherit.sol\":804:823  6 * length * length */\n      tag_23\n      swap2\n      swap1\n      tag_22\n      jump\t// in\n    tag_23:\n        /* \"contracts/6.Inherit.sol\":797:823  return 6 * length * length */\n      swap1\n      pop\n        /* \"contracts/6.Inherit.sol\":726:831  function surfaceArea() public view override returns(uint256){... */\n      swap1\n      jump\t// out\n        /* \"contracts/6.Inherit.sol\":837:931  function volume() public view  override  returns(uint256){... */\n    tag_15:\n        /* \"contracts/6.Inherit.sol\":886:893  uint256 */\n      0x00\n        /* \"contracts/6.Inherit.sol\":922:923  3 */\n      0x03\n        /* \"contracts/6.Inherit.sol\":912:918  length */\n      sload(0x00)\n        /* \"contracts/6.Inherit.sol\":912:923  length ** 3 */\n      tag_25\n      swap2\n      swap1\n      tag_26\n      jump\t// in\n    tag_25:\n        /* \"contracts/6.Inherit.sol\":905:923  return length ** 3 */\n      swap1\n      pop\n        /* \"contracts/6.Inherit.sol\":837:931  function volume() public view  override  returns(uint256){... */\n      swap1\n      jump\t// out\n        /* \"#utility.yul\":88:205   */\n    tag_28:\n        /* \"#utility.yul\":197:198   */\n      0x00\n        /* \"#utility.yul\":194:195   */\n      0x00\n        /* \"#utility.yul\":187:199   */\n      revert\n        /* \"#utility.yul\":334:411   */\n    tag_30:\n        /* \"#utility.yul\":371:378   */\n      0x00\n        /* \"#utility.yul\":400:405   */\n      dup2\n        /* \"#utility.yul\":389:405   */\n      swap1\n      pop\n        /* \"#utility.yul\":334:411   */\n      swap2\n      swap1\n      pop\n      jump\t// out\n        /* \"#utility.yul\":417:539   */\n    tag_31:\n        /* \"#utility.yul\":490:514   */\n      tag_45\n        /* \"#utility.yul\":508:513   */\n      dup2\n        /* \"#utility.yul\":490:514   */\n      tag_30\n      jump\t// in\n    tag_45:\n        /* \"#utility.yul\":483:488   */\n      dup2\n        /* \"#utility.yul\":480:515   */\n      eq\n        /* \"#utility.yul\":470:533   */\n      tag_46\n      jumpi\n        /* \"#utility.yul\":529:530   */\n      0x00\n        /* \"#utility.yul\":526:527   */\n      0x00\n        /* \"#utility.yul\":519:531   */\n      revert\n        /* \"#utility.yul\":470:533   */\n    tag_46:\n        /* \"#utility.yul\":417:539   */\n      pop\n      jump\t// out\n        /* \"#utility.yul\":545:684   */\n    tag_32:\n        /* \"#utility.yul\":591:596   */\n      0x00\n        /* \"#utility.yul\":629:635   */\n      dup2\n        /* \"#utility.yul\":616:636   */\n      calldataload\n        /* \"#utility.yul\":607:636   */\n      swap1\n      pop\n        /* \"#utility.yul\":645:678   */\n      tag_48\n        /* \"#utility.yul\":672:677   */\n      dup2\n        /* \"#utility.yul\":645:678   */\n      tag_31\n      jump\t// in\n    tag_48:\n        /* \"#utility.yul\":545:684   */\n      swap3\n      swap2\n      pop\n      pop\n      jump\t// out\n        /* \"#utility.yul\":690:1019   */\n    tag_8:\n        /* \"#utility.yul\":749:755   */\n      0x00\n        /* \"#utility.yul\":798:800   */\n      0x20\n        /* \"#utility.yul\":786:795   */\n      dup3\n        /* \"#utility.yul\":777:784   */\n      dup5\n        /* \"#utility.yul\":773:796   */\n      sub\n        /* \"#utility.yul\":769:801   */\n      slt\n        /* \"#utility.yul\":766:885   */\n      iszero\n      tag_50\n      jumpi\n        /* \"#utility.yul\":804:883   */\n      tag_51\n      tag_28\n      jump\t// in\n    tag_51:\n        /* \"#utility.yul\":766:885   */\n    tag_50:\n        /* \"#utility.yul\":924:925   */\n      0x00\n        /* \"#utility.yul\":949:1002   */\n      tag_52\n        /* \"#utility.yul\":994:1001   */\n      dup5\n        /* \"#utility.yul\":985:991   */\n      dup3\n        /* \"#utility.yul\":974:983   */\n      dup6\n        /* \"#utility.yul\":970:992   */\n      add\n        /* \"#utility.yul\":949:1002   */\n      tag_32\n      jump\t// in\n    tag_52:\n        /* \"#utility.yul\":939:1002   */\n      swap2\n      pop\n        /* \"#utility.yul\":895:1012   */\n      pop\n        /* \"#utility.yul\":690:1019   */\n      swap3\n      swap2\n      pop\n      pop\n      jump\t// out\n        /* \"#utility.yul\":1025:1143   */\n    tag_33:\n        /* \"#utility.yul\":1112:1136   */\n      tag_54\n        /* \"#utility.yul\":1130:1135   */\n      dup2\n        /* \"#utility.yul\":1112:1136   */\n      tag_30\n      jump\t// in\n    tag_54:\n        /* \"#utility.yul\":1107:1110   */\n      dup3\n        /* \"#utility.yul\":1100:1137   */\n      mstore\n        /* \"#utility.yul\":1025:1143   */\n      pop\n      pop\n      jump\t// out\n        /* \"#utility.yul\":1149:1371   */\n    tag_13:\n        /* \"#utility.yul\":1242:1246   */\n      0x00\n        /* \"#utility.yul\":1280:1282   */\n      0x20\n        /* \"#utility.yul\":1269:1278   */\n      dup3\n        /* \"#utility.yul\":1265:1283   */\n      add\n        /* \"#utility.yul\":1257:1283   */\n      swap1\n      pop\n        /* \"#utility.yul\":1293:1364   */\n      tag_56\n        /* \"#utility.yul\":1361:1362   */\n      0x00\n        /* \"#utility.yul\":1350:1359   */\n      dup4\n        /* \"#utility.yul\":1346:1363   */\n      add\n        /* \"#utility.yul\":1337:1343   */\n      dup5\n        /* \"#utility.yul\":1293:1364   */\n      tag_33\n      jump\t// in\n    tag_56:\n        /* \"#utility.yul\":1149:1371   */\n      swap3\n      swap2\n      pop\n      pop\n      jump\t// out\n        /* \"#utility.yul\":1377:1709   */\n    tag_19:\n        /* \"#utility.yul\":1498:1502   */\n      0x00\n        /* \"#utility.yul\":1536:1538   */\n      0x40\n        /* \"#utility.yul\":1525:1534   */\n      dup3\n        /* \"#utility.yul\":1521:1539   */\n      add\n        /* \"#utility.yul\":1513:1539   */\n      swap1\n      pop\n        /* \"#utility.yul\":1549:1620   */\n      tag_58\n        /* \"#utility.yul\":1617:1618   */\n      0x00\n        /* \"#utility.yul\":1606:1615   */\n      dup4\n        /* \"#utility.yul\":1602:1619   */\n      add\n        /* \"#utility.yul\":1593:1599   */\n      dup6\n        /* \"#utility.yul\":1549:1620   */\n      tag_33\n      jump\t// in\n    tag_58:\n        /* \"#utility.yul\":1630:1702   */\n      tag_59\n        /* \"#utility.yul\":1698:1700   */\n      0x20\n        /* \"#utility.yul\":1687:1696   */\n      dup4\n        /* \"#utility.yul\":1683:1701   */\n      add\n        /* \"#utility.yul\":1674:1680   */\n      dup5\n        /* \"#utility.yul\":1630:1702   */\n      tag_33\n      jump\t// in\n    tag_59:\n        /* \"#utility.yul\":1377:1709   */\n      swap4\n      swap3\n      pop\n      pop\n      pop\n      jump\t// out\n        /* \"#utility.yul\":1715:1895   */\n    tag_34:\n        /* \"#utility.yul\":1763:1840   */\n      0x4e487b7100000000000000000000000000000000000000000000000000000000\n        /* \"#utility.yul\":1760:1761   */\n      0x00\n        /* \"#utility.yul\":1753:1841   */\n      mstore\n        /* \"#utility.yul\":1860:1864   */\n      0x11\n        /* \"#utility.yul\":1857:1858   */\n      0x04\n        /* \"#utility.yul\":1850:1865   */\n      mstore\n        /* \"#utility.yul\":1884:1888   */\n      0x24\n        /* \"#utility.yul\":1881:1882   */\n      0x00\n        /* \"#utility.yul\":1874:1889   */\n      revert\n        /* \"#utility.yul\":1901:2311   */\n    tag_22:\n        /* \"#utility.yul\":1941:1948   */\n      0x00\n        /* \"#utility.yul\":1964:1984   */\n      tag_62\n        /* \"#utility.yul\":1982:1983   */\n      dup3\n        /* \"#utility.yul\":1964:1984   */\n      tag_30\n      jump\t// in\n    tag_62:\n        /* \"#utility.yul\":1959:1984   */\n      swap2\n      pop\n        /* \"#utility.yul\":1998:2018   */\n      tag_63\n        /* \"#utility.yul\":2016:2017   */\n      dup4\n        /* \"#utility.yul\":1998:2018   */\n      tag_30\n      jump\t// in\n    tag_63:\n        /* \"#utility.yul\":1993:2018   */\n      swap3\n      pop\n        /* \"#utility.yul\":2053:2054   */\n      dup3\n        /* \"#utility.yul\":2050:2051   */\n      dup3\n        /* \"#utility.yul\":2046:2055   */\n      mul\n        /* \"#utility.yul\":2075:2105   */\n      tag_64\n        /* \"#utility.yul\":2093:2104   */\n      dup2\n        /* \"#utility.yul\":2075:2105   */\n      tag_30\n      jump\t// in\n    tag_64:\n        /* \"#utility.yul\":2064:2105   */\n      swap2\n      pop\n        /* \"#utility.yul\":2254:2255   */\n      dup3\n        /* \"#utility.yul\":2245:2252   */\n      dup3\n        /* \"#utility.yul\":2241:2256   */\n      div\n        /* \"#utility.yul\":2238:2239   */\n      dup5\n        /* \"#utility.yul\":2235:2257   */\n      eq\n        /* \"#utility.yul\":2215:2216   */\n      dup4\n        /* \"#utility.yul\":2208:2217   */\n      iszero\n        /* \"#utility.yul\":2188:2271   */\n      or\n        /* \"#utility.yul\":2165:2304   */\n      tag_65\n      jumpi\n        /* \"#utility.yul\":2284:2302   */\n      tag_66\n      tag_34\n      jump\t// in\n    tag_66:\n        /* \"#utility.yul\":2165:2304   */\n    tag_65:\n        /* \"#utility.yul\":1949:2311   */\n      pop\n        /* \"#utility.yul\":1901:2311   */\n      swap3\n      swap2\n      pop\n      pop\n      jump\t// out\n        /* \"#utility.yul\":2317:2419   */\n    tag_35:\n        /* \"#utility.yul\":2359:2367   */\n      0x00\n        /* \"#utility.yul\":2406:2411   */\n      dup2\n        /* \"#utility.yul\":2403:2404   */\n      0x01\n        /* \"#utility.yul\":2399:2412   */\n      shr\n        /* \"#utility.yul\":2378:2412   */\n      swap1\n      pop\n        /* \"#utility.yul\":2317:2419   */\n      swap2\n      swap1\n      pop\n      jump\t// out\n        /* \"#utility.yul\":2425:3273   */\n    tag_36:\n        /* \"#utility.yul\":2486:2491   */\n      0x00\n        /* \"#utility.yul\":2493:2497   */\n      0x00\n        /* \"#utility.yul\":2517:2523   */\n      dup3\n        /* \"#utility.yul\":2508:2523   */\n      swap2\n      pop\n        /* \"#utility.yul\":2541:2546   */\n      dup4\n        /* \"#utility.yul\":2532:2546   */\n      swap1\n      pop\n        /* \"#utility.yul\":2555:3267   */\n    tag_69:\n        /* \"#utility.yul\":2576:2577   */\n      0x01\n        /* \"#utility.yul\":2566:2574   */\n      dup6\n        /* \"#utility.yul\":2563:2578   */\n      gt\n        /* \"#utility.yul\":2555:3267   */\n      iszero\n      tag_71\n      jumpi\n        /* \"#utility.yul\":2671:2675   */\n      dup1\n        /* \"#utility.yul\":2666:2669   */\n      dup7\n        /* \"#utility.yul\":2662:2676   */\n      div\n        /* \"#utility.yul\":2656:2660   */\n      dup2\n        /* \"#utility.yul\":2653:2677   */\n      gt\n        /* \"#utility.yul\":2650:2700   */\n      iszero\n      tag_72\n      jumpi\n        /* \"#utility.yul\":2680:2698   */\n      tag_73\n      tag_34\n      jump\t// in\n    tag_73:\n        /* \"#utility.yul\":2650:2700   */\n    tag_72:\n        /* \"#utility.yul\":2730:2731   */\n      0x01\n        /* \"#utility.yul\":2720:2728   */\n      dup6\n        /* \"#utility.yul\":2716:2732   */\n      and\n        /* \"#utility.yul\":2713:3164   */\n      iszero\n      tag_74\n      jumpi\n        /* \"#utility.yul\":3145:3149   */\n      dup1\n        /* \"#utility.yul\":3138:3143   */\n      dup3\n        /* \"#utility.yul\":3134:3150   */\n      mul\n        /* \"#utility.yul\":3125:3150   */\n      swap2\n      pop\n        /* \"#utility.yul\":2713:3164   */\n    tag_74:\n        /* \"#utility.yul\":3195:3199   */\n      dup1\n        /* \"#utility.yul\":3189:3193   */\n      dup2\n        /* \"#utility.yul\":3185:3200   */\n      mul\n        /* \"#utility.yul\":3177:3200   */\n      swap1\n      pop\n        /* \"#utility.yul\":3225:3257   */\n      tag_75\n        /* \"#utility.yul\":3248:3256   */\n      dup6\n        /* \"#utility.yul\":3225:3257   */\n      tag_35\n      jump\t// in\n    tag_75:\n        /* \"#utility.yul\":3213:3257   */\n      swap5\n      pop\n        /* \"#utility.yul\":2555:3267   */\n      jump(tag_69)\n    tag_71:\n        /* \"#utility.yul\":2425:3273   */\n      swap5\n      pop\n      swap5\n      swap3\n      pop\n      pop\n      pop\n      jump\t// out\n        /* \"#utility.yul\":3279:4352   */\n    tag_37:\n        /* \"#utility.yul\":3333:3338   */\n      0x00\n        /* \"#utility.yul\":3524:3532   */\n      dup3\n        /* \"#utility.yul\":3514:3554   */\n      tag_77\n      jumpi\n        /* \"#utility.yul\":3545:3546   */\n      0x01\n        /* \"#utility.yul\":3536:3546   */\n      swap1\n      pop\n        /* \"#utility.yul\":3547:3552   */\n      jump(tag_76)\n        /* \"#utility.yul\":3514:3554   */\n    tag_77:\n        /* \"#utility.yul\":3573:3577   */\n      dup2\n        /* \"#utility.yul\":3563:3599   */\n      tag_78\n      jumpi\n        /* \"#utility.yul\":3590:3591   */\n      0x00\n        /* \"#utility.yul\":3581:3591   */\n      swap1\n      pop\n        /* \"#utility.yul\":3592:3597   */\n      jump(tag_76)\n        /* \"#utility.yul\":3563:3599   */\n    tag_78:\n        /* \"#utility.yul\":3659:3663   */\n      dup2\n        /* \"#utility.yul\":3707:3708   */\n      0x01\n        /* \"#utility.yul\":3702:3729   */\n      dup2\n      eq\n      tag_80\n      jumpi\n        /* \"#utility.yul\":3743:3744   */\n      0x02\n        /* \"#utility.yul\":3738:3929   */\n      dup2\n      eq\n      tag_81\n      jumpi\n        /* \"#utility.yul\":3652:3929   */\n      jump(tag_79)\n        /* \"#utility.yul\":3702:3729   */\n    tag_80:\n        /* \"#utility.yul\":3720:3721   */\n      0x01\n        /* \"#utility.yul\":3711:3721   */\n      swap2\n      pop\n        /* \"#utility.yul\":3722:3727   */\n      pop\n      jump(tag_76)\n        /* \"#utility.yul\":3738:3929   */\n    tag_81:\n        /* \"#utility.yul\":3783:3786   */\n      0xff\n        /* \"#utility.yul\":3773:3781   */\n      dup5\n        /* \"#utility.yul\":3770:3787   */\n      gt\n        /* \"#utility.yul\":3767:3810   */\n      iszero\n      tag_82\n      jumpi\n        /* \"#utility.yul\":3790:3808   */\n      tag_83\n      tag_34\n      jump\t// in\n    tag_83:\n        /* \"#utility.yul\":3767:3810   */\n    tag_82:\n        /* \"#utility.yul\":3839:3847   */\n      dup4\n        /* \"#utility.yul\":3836:3837   */\n      0x02\n        /* \"#utility.yul\":3832:3848   */\n      exp\n        /* \"#utility.yul\":3823:3848   */\n      swap2\n      pop\n        /* \"#utility.yul\":3874:3877   */\n      dup5\n        /* \"#utility.yul\":3867:3872   */\n      dup3\n        /* \"#utility.yul\":3864:3878   */\n      gt\n        /* \"#utility.yul\":3861:3901   */\n      iszero\n      tag_84\n      jumpi\n        /* \"#utility.yul\":3881:3899   */\n      tag_85\n      tag_34\n      jump\t// in\n    tag_85:\n        /* \"#utility.yul\":3861:3901   */\n    tag_84:\n        /* \"#utility.yul\":3914:3919   */\n      pop\n      jump(tag_76)\n        /* \"#utility.yul\":3652:3929   */\n    tag_79:\n      pop\n        /* \"#utility.yul\":4038:4040   */\n      0x20\n        /* \"#utility.yul\":4028:4036   */\n      dup4\n        /* \"#utility.yul\":4025:4041   */\n      lt\n        /* \"#utility.yul\":4019:4022   */\n      0x0133\n        /* \"#utility.yul\":4013:4017   */\n      dup4\n        /* \"#utility.yul\":4010:4023   */\n      lt\n        /* \"#utility.yul\":4006:4042   */\n      and\n        /* \"#utility.yul\":3988:3990   */\n      0x4e\n        /* \"#utility.yul\":3978:3986   */\n      dup5\n        /* \"#utility.yul\":3975:3991   */\n      lt\n        /* \"#utility.yul\":3970:3972   */\n      0x0b\n        /* \"#utility.yul\":3964:3968   */\n      dup5\n        /* \"#utility.yul\":3961:3973   */\n      lt\n        /* \"#utility.yul\":3957:3992   */\n      and\n        /* \"#utility.yul\":3941:4052   */\n      or\n        /* \"#utility.yul\":3938:4184   */\n      iszero\n      tag_86\n      jumpi\n        /* \"#utility.yul\":4094:4102   */\n      dup3\n        /* \"#utility.yul\":4088:4092   */\n      dup3\n        /* \"#utility.yul\":4084:4103   */\n      exp\n        /* \"#utility.yul\":4075:4103   */\n      swap1\n      pop\n        /* \"#utility.yul\":4129:4132   */\n      dup4\n        /* \"#utility.yul\":4122:4127   */\n      dup2\n        /* \"#utility.yul\":4119:4133   */\n      gt\n        /* \"#utility.yul\":4116:4156   */\n      iszero\n      tag_87\n      jumpi\n        /* \"#utility.yul\":4136:4154   */\n      tag_88\n      tag_34\n      jump\t// in\n    tag_88:\n        /* \"#utility.yul\":4116:4156   */\n    tag_87:\n        /* \"#utility.yul\":4169:4174   */\n      jump(tag_76)\n        /* \"#utility.yul\":3938:4184   */\n    tag_86:\n        /* \"#utility.yul\":4209:4251   */\n      tag_89\n        /* \"#utility.yul\":4247:4250   */\n      dup5\n        /* \"#utility.yul\":4237:4245   */\n      dup5\n        /* \"#utility.yul\":4231:4235   */\n      dup5\n        /* \"#utility.yul\":4228:4229   */\n      0x01\n        /* \"#utility.yul\":4209:4251   */\n      tag_36\n      jump\t// in\n    tag_89:\n        /* \"#utility.yul\":4194:4251   */\n      swap3\n      pop\n      swap1\n      pop\n        /* \"#utility.yul\":4283:4287   */\n      dup2\n        /* \"#utility.yul\":4278:4281   */\n      dup5\n        /* \"#utility.yul\":4274:4288   */\n      div\n        /* \"#utility.yul\":4267:4272   */\n      dup2\n        /* \"#utility.yul\":4264:4289   */\n      gt\n        /* \"#utility.yul\":4261:4312   */\n      iszero\n      tag_90\n      jumpi\n        /* \"#utility.yul\":4292:4310   */\n      tag_91\n      tag_34\n      jump\t// in\n    tag_91:\n        /* \"#utility.yul\":4261:4312   */\n    tag_90:\n        /* \"#utility.yul\":4341:4345   */\n      dup2\n        /* \"#utility.yul\":4334:4339   */\n      dup2\n        /* \"#utility.yul\":4330:4346   */\n      mul\n        /* \"#utility.yul\":4321:4346   */\n      swap1\n      pop\n        /* \"#utility.yul\":3279:4352   */\n    tag_76:\n      swap4\n      swap3\n      pop\n      pop\n      pop\n      jump\t// out\n        /* \"#utility.yul\":4358:4444   */\n    tag_38:\n        /* \"#utility.yul\":4393:4400   */\n      0x00\n        /* \"#utility.yul\":4433:4437   */\n      0xff\n        /* \"#utility.yul\":4426:4431   */\n      dup3\n        /* \"#utility.yul\":4422:4438   */\n      and\n        /* \"#utility.yul\":4411:4438   */\n      swap1\n      pop\n        /* \"#utility.yul\":4358:4444   */\n      swap2\n      swap1\n      pop\n      jump\t// out\n        /* \"#utility.yul\":4450:4731   */\n    tag_26:\n        /* \"#utility.yul\":4508:4513   */\n      0x00\n        /* \"#utility.yul\":4532:4555   */\n      tag_94\n        /* \"#utility.yul\":4550:4554   */\n      dup3\n        /* \"#utility.yul\":4532:4555   */\n      tag_30\n      jump\t// in\n    tag_94:\n        /* \"#utility.yul\":4524:4555   */\n      swap2\n      pop\n        /* \"#utility.yul\":4576:4601   */\n      tag_95\n        /* \"#utility.yul\":4592:4600   */\n      dup4\n        /* \"#utility.yul\":4576:4601   */\n      tag_38\n      jump\t// in\n    tag_95:\n        /* \"#utility.yul\":4564:4601   */\n      swap3\n      pop\n        /* \"#utility.yul\":4620:4724   */\n      tag_96\n        /* \"#utility.yul\":4657:4723   */\n      0xffffffffffffffffffffffffffffffffffffffffffffffffffffffffffffffff\n        /* \"#utility.yul\":4647:4655   */\n      dup5\n        /* \"#utility.yul\":4641:4645   */\n      dup5\n        /* \"#utility.yul\":4620:4724   */\n      tag_37\n      jump\t// in\n    tag_96:\n        /* \"#utility.yul\":4611:4724   */\n      swap1\n      pop\n        /* \"#utility.yul\":4450:4731   */\n      swap3\n      swap2\n      pop\n      pop\n      jump\t// out\n\n    auxdata: 0xa264697066735822122045438591d708e42abf8e227913a6252fc14d5768d1c8c912fe0448af268a5ace64736f6c63430008220033\n}\n",
				"bytecode": {
					"linkReferences": {},
					"object": "6080604052348015600e575f5ffd5b506040516104903803806104908339818101604052810190602e9190606b565b805f81905550506091565b5f5ffd5b5f819050919050565b604d81603d565b81146056575f5ffd5b50565b5f815190506065816046565b92915050565b5f60208284031215607d57607c6039565b5b5f6088848285016059565b91505092915050565b6103f28061009e5f395ff3fe608060405234801561000f575f5ffd5b506004361061003f575f3560e01c80637f65ec0b1461004357806389e7995f1461005f578063c618a1e41461007d575b5f5ffd5b61005d6004803603810190610058919061014f565b61009b565b005b6100676100e4565b6040516100749190610189565b60405180910390f35b610085610104565b6040516100929190610189565b60405180910390f35b5f5f549050815f819055507f595c9fa3efed59adc342a5b5b456236702a900f50e31a6d9b9b15dbdfa445336815f546040516100d89291906101a2565b60405180910390a15050565b5f5f545f5460066100f591906101f6565b6100ff91906101f6565b905090565b5f60035f546101139190610372565b905090565b5f5ffd5b5f819050919050565b61012e8161011c565b8114610138575f5ffd5b50565b5f8135905061014981610125565b92915050565b5f6020828403121561016457610163610118565b5b5f6101718482850161013b565b91505092915050565b6101838161011c565b82525050565b5f60208201905061019c5f83018461017a565b92915050565b5f6040820190506101b55f83018561017a565b6101c2602083018461017a565b9392505050565b7f4e487b71000000000000000000000000000000000000000000000000000000005f52601160045260245ffd5b5f6102008261011c565b915061020b8361011c565b92508282026102198161011c565b915082820484148315176102305761022f6101c9565b5b5092915050565b5f8160011c9050919050565b5f5f8291508390505b600185111561028c57808604811115610268576102676101c9565b5b60018516156102775780820291505b808102905061028585610237565b945061024c565b94509492505050565b5f826102a4576001905061035f565b816102b1575f905061035f565b81600181146102c757600281146102d157610300565b600191505061035f565b60ff8411156102e3576102e26101c9565b5b8360020a9150848211156102fa576102f96101c9565b5b5061035f565b5060208310610133831016604e8410600b84101617156103355782820a9050838111156103305761032f6101c9565b5b61035f565b6103428484846001610243565b92509050818404811115610359576103586101c9565b5b81810290505b9392505050565b5f60ff82169050919050565b5f61037c8261011c565b915061038783610366565b92506103b47fffffffffffffffffffffffffffffffffffffffffffffffffffffffffffffffff8484610295565b90509291505056fea264697066735822122045438591d708e42abf8e227913a6252fc14d5768d1c8c912fe0448af268a5ace64736f6c63430008220033",
					"opcodes": "PUSH1 0x80 PUSH1 0x40 MSTORE CALLVALUE DUP1 ISZERO PUSH1 0xE JUMPI PUSH0 PUSH0 REVERT JUMPDEST POP PUSH1 0x40 MLOAD PUSH2 0x490 CODESIZE SUB DUP1 PUSH2 0x490 DUP4 CODECOPY DUP2 DUP2 ADD PUSH1 0x40 MSTORE DUP2 ADD SWAP1 PUSH1 0x2E SWAP2 SWAP1 PUSH1 0x6B JUMP JUMPDEST DUP1 PUSH0 DUP2 SWAP1 SSTORE POP POP PUSH1 0x91 JUMP JUMPDEST PUSH0 PUSH0 REVERT JUMPDEST PUSH0 DUP2 SWAP1 POP SWAP2 SWAP1 POP JUMP JUMPDEST PUSH1 0x4D DUP2 PUSH1 0x3D JUMP JUMPDEST DUP2 EQ PUSH1 0x56 JUMPI PUSH0 PUSH0 REVERT JUMPDEST POP JUMP JUMPDEST PUSH0 DUP2 MLOAD SWAP1 POP PUSH1 0x65 DUP2 PUSH1 0x46 JUMP JUMPDEST SWAP3 SWAP2 POP POP JUMP JUMPDEST PUSH0 PUSH1 0x20 DUP3 DUP5 SUB SLT ISZERO PUSH1 0x7D JUMPI PUSH1 0x7C PUSH1 0x39 JUMP JUMPDEST JUMPDEST PUSH0 PUSH1 0x88 DUP5 DUP3 DUP6 ADD PUSH1 0x59 JUMP JUMPDEST SWAP2 POP POP SWAP3 SWAP2 POP POP JUMP JUMPDEST PUSH2 0x3F2 DUP1 PUSH2 0x9E PUSH0 CODECOPY PUSH0 RETURN INVALID PUSH1 0x80 PUSH1 0x40 MSTORE CALLVALUE DUP1 ISZERO PUSH2 0xF JUMPI PUSH0 PUSH0 REVERT JUMPDEST POP PUSH1 0x4 CALLDATASIZE LT PUSH2 0x3F JUMPI PUSH0 CALLDATALOAD PUSH1 0xE0 SHR DUP1 PUSH4 0x7F65EC0B EQ PUSH2 0x43 JUMPI DUP1 PUSH4 0x89E7995F EQ PUSH2 0x5F JUMPI DUP1 PUSH4 0xC618A1E4 EQ PUSH2 0x7D JUMPI JUMPDEST PUSH0 PUSH0 REVERT JUMPDEST PUSH2 0x5D PUSH1 0x4 DUP1 CALLDATASIZE SUB DUP2 ADD SWAP1 PUSH2 0x58 SWAP2 SWAP1 PUSH2 0x14F JUMP JUMPDEST PUSH2 0x9B JUMP JUMPDEST STOP JUMPDEST PUSH2 0x67 PUSH2 0xE4 JUMP JUMPDEST PUSH1 0x40 MLOAD PUSH2 0x74 SWAP2 SWAP1 PUSH2 0x189 JUMP JUMPDEST PUSH1 0x40 MLOAD DUP1 SWAP2 SUB SWAP1 RETURN JUMPDEST PUSH2 0x85 PUSH2 0x104 JUMP JUMPDEST PUSH1 0x40 MLOAD PUSH2 0x92 SWAP2 SWAP1 PUSH2 0x189 JUMP JUMPDEST PUSH1 0x40 MLOAD DUP1 SWAP2 SUB SWAP1 RETURN JUMPDEST PUSH0 PUSH0 SLOAD SWAP1 POP DUP2 PUSH0 DUP2 SWAP1 SSTORE POP PUSH32 0x595C9FA3EFED59ADC342A5B5B456236702A900F50E31A6D9B9B15DBDFA445336 DUP2 PUSH0 SLOAD PUSH1 0x40 MLOAD PUSH2 0xD8 SWAP3 SWAP2 SWAP1 PUSH2 0x1A2 JUMP JUMPDEST PUSH1 0x40 MLOAD DUP1 SWAP2 SUB SWAP1 LOG1 POP POP JUMP JUMPDEST PUSH0 PUSH0 SLOAD PUSH0 SLOAD PUSH1 0x6 PUSH2 0xF5 SWAP2 SWAP1 PUSH2 0x1F6 JUMP JUMPDEST PUSH2 0xFF SWAP2 SWAP1 PUSH2 0x1F6 JUMP JUMPDEST SWAP1 POP SWAP1 JUMP JUMPDEST PUSH0 PUSH1 0x3 PUSH0 SLOAD PUSH2 0x113 SWAP2 SWAP1 PUSH2 0x372 JUMP JUMPDEST SWAP1 POP SWAP1 JUMP JUMPDEST PUSH0 PUSH0 REVERT JUMPDEST PUSH0 DUP2 SWAP1 POP SWAP2 SWAP1 POP JUMP JUMPDEST PUSH2 0x12E DUP2 PUSH2 0x11C JUMP JUMPDEST DUP2 EQ PUSH2 0x138 JUMPI PUSH0 PUSH0 REVERT JUMPDEST POP JUMP JUMPDEST PUSH0 DUP2 CALLDATALOAD SWAP1 POP PUSH2 0x149 DUP2 PUSH2 0x125 JUMP JUMPDEST SWAP3 SWAP2 POP POP JUMP JUMPDEST PUSH0 PUSH1 0x20 DUP3 DUP5 SUB SLT ISZERO PUSH2 0x164 JUMPI PUSH2 0x163 PUSH2 0x118 JUMP JUMPDEST JUMPDEST PUSH0 PUSH2 0x171 DUP5 DUP3 DUP6 ADD PUSH2 0x13B JUMP JUMPDEST SWAP2 POP POP SWAP3 SWAP2 POP POP JUMP JUMPDEST PUSH2 0x183 DUP2 PUSH2 0x11C JUMP JUMPDEST DUP3 MSTORE POP POP JUMP JUMPDEST PUSH0 PUSH1 0x20 DUP3 ADD SWAP1 POP PUSH2 0x19C PUSH0 DUP4 ADD DUP5 PUSH2 0x17A JUMP JUMPDEST SWAP3 SWAP2 POP POP JUMP JUMPDEST PUSH0 PUSH1 0x40 DUP3 ADD SWAP1 POP PUSH2 0x1B5 PUSH0 DUP4 ADD DUP6 PUSH2 0x17A JUMP JUMPDEST PUSH2 0x1C2 PUSH1 0x20 DUP4 ADD DUP5 PUSH2 0x17A JUMP JUMPDEST SWAP4 SWAP3 POP POP POP JUMP JUMPDEST PUSH32 0x4E487B7100000000000000000000000000000000000000000000000000000000 PUSH0 MSTORE PUSH1 0x11 PUSH1 0x4 MSTORE PUSH1 0x24 PUSH0 REVERT JUMPDEST PUSH0 PUSH2 0x200 DUP3 PUSH2 0x11C JUMP JUMPDEST SWAP2 POP PUSH2 0x20B DUP4 PUSH2 0x11C JUMP JUMPDEST SWAP3 POP DUP3 DUP3 MUL PUSH2 0x219 DUP2 PUSH2 0x11C JUMP JUMPDEST SWAP2 POP DUP3 DUP3 DIV DUP5 EQ DUP4 ISZERO OR PUSH2 0x230 JUMPI PUSH2 0x22F PUSH2 0x1C9 JUMP JUMPDEST JUMPDEST POP SWAP3 SWAP2 POP POP JUMP JUMPDEST PUSH0 DUP2 PUSH1 0x1 SHR SWAP1 POP SWAP2 SWAP1 POP JUMP JUMPDEST PUSH0 PUSH0 DUP3 SWAP2 POP DUP4 SWAP1 POP JUMPDEST PUSH1 0x1 DUP6 GT ISZERO PUSH2 0x28C JUMPI DUP1 DUP7 DIV DUP2 GT ISZERO PUSH2 0x268 JUMPI PUSH2 0x267 PUSH2 0x1C9 JUMP JUMPDEST JUMPDEST PUSH1 0x1 DUP6 AND ISZERO PUSH2 0x277 JUMPI DUP1 DUP3 MUL SWAP2 POP JUMPDEST DUP1 DUP2 MUL SWAP1 POP PUSH2 0x285 DUP6 PUSH2 0x237 JUMP JUMPDEST SWAP5 POP PUSH2 0x24C JUMP JUMPDEST SWAP5 POP SWAP5 SWAP3 POP POP POP JUMP JUMPDEST PUSH0 DUP3 PUSH2 0x2A4 JUMPI PUSH1 0x1 SWAP1 POP PUSH2 0x35F JUMP JUMPDEST DUP2 PUSH2 0x2B1 JUMPI PUSH0 SWAP1 POP PUSH2 0x35F JUMP JUMPDEST DUP2 PUSH1 0x1 DUP2 EQ PUSH2 0x2C7 JUMPI PUSH1 0x2 DUP2 EQ PUSH2 0x2D1 JUMPI PUSH2 0x300 JUMP JUMPDEST PUSH1 0x1 SWAP2 POP POP PUSH2 0x35F JUMP JUMPDEST PUSH1 0xFF DUP5 GT ISZERO PUSH2 0x2E3 JUMPI PUSH2 0x2E2 PUSH2 0x1C9 JUMP JUMPDEST JUMPDEST DUP4 PUSH1 0x2 EXP SWAP2 POP DUP5 DUP3 GT ISZERO PUSH2 0x2FA JUMPI PUSH2 0x2F9 PUSH2 0x1C9 JUMP JUMPDEST JUMPDEST POP PUSH2 0x35F JUMP JUMPDEST POP PUSH1 0x20 DUP4 LT PUSH2 0x133 DUP4 LT AND PUSH1 0x4E DUP5 LT PUSH1 0xB DUP5 LT AND OR ISZERO PUSH2 0x335 JUMPI DUP3 DUP3 EXP SWAP1 POP DUP4 DUP2 GT ISZERO PUSH2 0x330 JUMPI PUSH2 0x32F PUSH2 0x1C9 JUMP JUMPDEST JUMPDEST PUSH2 0x35F JUMP JUMPDEST PUSH2 0x342 DUP5 DUP5 DUP5 PUSH1 0x1 PUSH2 0x243 JUMP JUMPDEST SWAP3 POP SWAP1 POP DUP2 DUP5 DIV DUP2 GT ISZERO PUSH2 0x359 JUMPI PUSH2 0x358 PUSH2 0x1C9 JUMP JUMPDEST JUMPDEST DUP2 DUP2 MUL SWAP1 POP JUMPDEST SWAP4 SWAP3 POP POP POP JUMP JUMPDEST PUSH0 PUSH1 0xFF DUP3 AND SWAP1 POP SWAP2 SWAP1 POP JUMP JUMPDEST PUSH0 PUSH2 0x37C DUP3 PUSH2 0x11C JUMP JUMPDEST SWAP2 POP PUSH2 0x387 DUP4 PUSH2 0x366 JUMP JUMPDEST SWAP3 POP PUSH2 0x3B4 PUSH32 0xFFFFFFFFFFFFFFFFFFFFFFFFFFFFFFFFFFFFFFFFFFFFFFFFFFFFFFFFFFFFFFFF DUP5 DUP5 PUSH2 0x295 JUMP JUMPDEST SWAP1 POP SWAP3 SWAP2 POP POP JUMP INVALID LOG2 PUSH5 0x6970667358 0x22 SLT KECCAK256 GASLIMIT NUMBER DUP6 SWAP2 0xD7 ADDMOD RETF 0x2A 0xBF DUP15 0x22 PUSH26 0x13A6252FC14D5768D1C8C912FE0448AF268A5ACE64736F6C6343 STOP ADDMOD 0x22 STOP CALLER "
				},
				"gasEstimates": {
					"creation": {
						"codeDepositCost": "202000",
						"executionCost": "infinite",
						"totalCost": "infinite"
					},
					"external": {
						"changeLength(uint256)": "infinite",
						"surfaceArea()": "infinite",
						"volume()": "infinite"
					}
				},
				"methodIdentifiers": {
					"changeLength(uint256)": "7f65ec0b",
					"surfaceArea()": "89e7995f",
					"volume()": "c618a1e4"
				}
			},
			"storageLayout": {
				"storage": [
					{
						"astId": 16,
						"contract": "contracts/6.Inherit.sol:Cube",
						"label": "length",
						"offset": 0,
						"slot": "0",
						"type": "t_uint256"
					}
				],
				"types": {
					"t_uint256": {
						"encoding": "inplace",
						"label": "uint256",
						"numberOfBytes": "32"
					}
				}
			},
			"userdoc": {
				"kind": "user",
				"methods": {},
				"version": 1
			}
		}
	}
}