{
	"contracts/VisibilityDemo.sol": {
		"B": {
			"abi": [
				{
					"inputs": [
						{
							"internalType": "uint256",
							"name": "a",
							"type": "uint256"
						},
						{
							"internalType": "uint256",
							"name": "b",
							"type": "uint256"
						}
					],
					"name": "add",
					"outputs": [
						{
							"internalType": "uint256",
							"name": "",
							"type": "uint256"
						}
					],
					"stateMutability": "pure",
					"type": "function"
				},
				{
					"inputs": [],
					"name": "deposit",
					"outputs": [],
					"stateMutability": "payable",
					"type": "function"
				},
				{
					"inputs": [],
					"name": "getBalance",
					"outputs": [
						{
							"internalType": "uint256",
							"name": "",
							"type": "uint256"
						}
					],
					"stateMutability": "view",
					"type": "function"
				},
				{
					"inputs": [],
					"name": "readAll",
					"outputs": [
						{
							"internalType": "uint256",
							"name": "",
							"type": "uint256"
						},
						{
							"internalType": "uint256",
							"name": "",
							"type": "uint256"
						},
						{
							"internalType": "uint256",
							"name": "",
							"type": "uint256"
						}
					],
					"stateMutability": "view",
					"type": "function"
				},
				{
					"inputs": [],
					"name": "readX",
					"outputs": [
						{
							"internalType": "uint256",
							"name": "",
							"type": "uint256"
						}
					],
					"stateMutability": "view",
					"type": "function"
				},
				{
					"inputs": [],
					"name": "readY",
					"outputs": [
						{
							"internalType": "uint256",
							"name": "",
							"type": "uint256"
						}
					],
					"stateMutability": "view",
					"type": "function"
				},
				{
					"inputs": [],
					"name": "readZ",
					"outputs": [
						{
							"internalType": "uint256",
							"name": "",
							"type": "uint256"
						}
					],
					"stateMutability": "view",
					"type": "function"
				},
				{
					"inputs": [
						{
							"internalType": "uint256",
							"name": "_x",
							"type": "uint256"
						}
					],
					"name": "setX",
					"outputs": [],
					"stateMutability": "nonpayable",
					"type": "function"
				},
				{
					"inputs": [
						{
							"internalType": "uint256",
							"name": "_y",
							"type": "uint256"
						}
					],
					"name": "setY",
					"outputs": [],
					"stateMutability": "nonpayable",
					"type": "function"
				},
				{
					"inputs": [
						{
							"internalType": "uint256",
							"name": "_z",
							"type": "uint256"
						}
					],
					"name": "setZ",
					"outputs": [],
					"stateMutability": "nonpayable",
					"type": "function"
				},
				{
					"inputs": [],
					"name": "x",
					"outputs": [
						{
							"internalType": "uint256",
							"name": "",
							"type": "uint256"
						}
					],
					"stateMutability": "view",
					"type": "function"
				}
			],
			"devdoc": {
				"kind": "dev",
				"methods": {},
				"version": 1
			},
			"evm": {
				"assembly": "    /* \"contracts/VisibilityDemo.sol\":1248:1419  contract B is A{... */\n  mstore(0x40, 0x80)\n  callvalue\n  dup1\n  iszero\n  tag_1\n  jumpi\n  revert(0x00, 0x00)\ntag_1:\n  pop\n  dataSize(sub_0)\n  dup1\n  dataOffset(sub_0)\n  0x00\n  codecopy\n  0x00\n  return\nstop\n\nsub_0: assembly {\n        /* \"contracts/VisibilityDemo.sol\":1248:1419  contract B is A{... */\n      mstore(0x40, 0x80)\n      jumpi(tag_1, lt(calldatasize, 0x04))\n      shr(0xe0, calldataload(0x00))\n      dup1\n      0x68d466b8\n      gt\n      tag_13\n      jumpi\n      dup1\n      0x68d466b8\n      eq\n      tag_7\n      jumpi\n      dup1\n      0x771602f7\n      eq\n      tag_8\n      jumpi\n      dup1\n      0x7bf14593\n      eq\n      tag_9\n      jumpi\n      dup1\n      0xa806df85\n      eq\n      tag_10\n      jumpi\n      dup1\n      0xacbefdb2\n      eq\n      tag_11\n      jumpi\n      dup1\n      0xd0e30db0\n      eq\n      tag_12\n      jumpi\n      jump(tag_1)\n    tag_13:\n      dup1\n      0x0c55699c\n      eq\n      tag_2\n      jumpi\n      dup1\n      0x12065fe0\n      eq\n      tag_3\n      jumpi\n      dup1\n      0x3f2bff51\n      eq\n      tag_4\n      jumpi\n      dup1\n      0x4018d9aa\n      eq\n      tag_5\n      jumpi\n      dup1\n      0x41f654f7\n      eq\n      tag_6\n      jumpi\n    tag_1:\n      revert(0x00, 0x00)\n        /* \"contracts/VisibilityDemo.sol\":78:91  uint public x */\n    tag_2:\n      callvalue\n      dup1\n      iszero\n      tag_14\n      jumpi\n      revert(0x00, 0x00)\n    tag_14:\n      pop\n      tag_15\n      tag_16\n      jump\t// in\n    tag_15:\n      mload(0x40)\n      tag_17\n      swap2\n      swap1\n      tag_18\n      jump\t// in\n    tag_17:\n      mload(0x40)\n      dup1\n      swap2\n      sub\n      swap1\n      return\n        /* \"contracts/VisibilityDemo.sol\":1145:1241  function getBalance() public view returns (uint) {... */\n    tag_3:\n      callvalue\n      dup1\n      iszero\n      tag_19\n      jumpi\n      revert(0x00, 0x00)\n    tag_19:\n      pop\n      tag_20\n      tag_21\n      jump\t// in\n    tag_20:\n      mload(0x40)\n      tag_22\n      swap2\n      swap1\n      tag_18\n      jump\t// in\n    tag_22:\n      mload(0x40)\n      dup1\n      swap2\n      sub\n      swap1\n      return\n        /* \"contracts/VisibilityDemo.sol\":374:429  function setZ(uint _z) public {... */\n    tag_4:\n      callvalue\n      dup1\n      iszero\n      tag_23\n      jumpi\n      revert(0x00, 0x00)\n    tag_23:\n      pop\n      tag_24\n      0x04\n      dup1\n      calldatasize\n      sub\n      dup2\n      add\n      swap1\n      tag_25\n      swap2\n      swap1\n      tag_26\n      jump\t// in\n    tag_25:\n      tag_27\n      jump\t// in\n    tag_24:\n      stop\n        /* \"contracts/VisibilityDemo.sol\":248:303  function setX(uint _x) public {... */\n    tag_5:\n      callvalue\n      dup1\n      iszero\n      tag_28\n      jumpi\n      revert(0x00, 0x00)\n    tag_28:\n      pop\n      tag_29\n      0x04\n      dup1\n      calldatasize\n      sub\n      dup2\n      add\n      swap1\n      tag_30\n      swap2\n      swap1\n      tag_26\n      jump\t// in\n    tag_30:\n      tag_31\n      jump\t// in\n    tag_29:\n      stop\n        /* \"contracts/VisibilityDemo.sol\":896:998  function readAll() public view returns(uint, uint, uint){... */\n    tag_6:\n      callvalue\n      dup1\n      iszero\n      tag_32\n      jumpi\n      revert(0x00, 0x00)\n    tag_32:\n      pop\n      tag_33\n      tag_34\n      jump\t// in\n    tag_33:\n      mload(0x40)\n      tag_35\n      swap4\n      swap3\n      swap2\n      swap1\n      tag_36\n      jump\t// in\n    tag_35:\n      mload(0x40)\n      dup1\n      swap2\n      sub\n      swap1\n      return\n        /* \"contracts/VisibilityDemo.sol\":311:366  function setY(uint _y) public {... */\n    tag_7:\n      callvalue\n      dup1\n      iszero\n      tag_37\n      jumpi\n      revert(0x00, 0x00)\n    tag_37:\n      pop\n      tag_38\n      0x04\n      dup1\n      calldatasize\n      sub\n      dup2\n      add\n      swap1\n      tag_39\n      swap2\n      swap1\n      tag_26\n      jump\t// in\n    tag_39:\n      tag_40\n      jump\t// in\n    tag_38:\n      stop\n        /* \"contracts/VisibilityDemo.sol\":1006:1093  function add(uint a, uint b) public pure returns (uint) {... */\n    tag_8:\n      callvalue\n      dup1\n      iszero\n      tag_41\n      jumpi\n      revert(0x00, 0x00)\n    tag_41:\n      pop\n      tag_42\n      0x04\n      dup1\n      calldatasize\n      sub\n      dup2\n      add\n      swap1\n      tag_43\n      swap2\n      swap1\n      tag_44\n      jump\t// in\n    tag_43:\n      tag_45\n      jump\t// in\n    tag_42:\n      mload(0x40)\n      tag_46\n      swap2\n      swap1\n      tag_18\n      jump\t// in\n    tag_46:\n      mload(0x40)\n      dup1\n      swap2\n      sub\n      swap1\n      return\n        /* \"contracts/VisibilityDemo.sol\":522:593  function readY() external view returns(uint){... */\n    tag_9:\n      callvalue\n      dup1\n      iszero\n      tag_47\n      jumpi\n      revert(0x00, 0x00)\n    tag_47:\n      pop\n      tag_48\n      tag_49\n      jump\t// in\n    tag_48:\n      mload(0x40)\n      tag_50\n      swap2\n      swap1\n      tag_18\n      jump\t// in\n    tag_50:\n      mload(0x40)\n      dup1\n      swap2\n      sub\n      swap1\n      return\n        /* \"contracts/VisibilityDemo.sol\":1347:1416  function readZ() public view returns(uint){... */\n    tag_10:\n      callvalue\n      dup1\n      iszero\n      tag_51\n      jumpi\n      revert(0x00, 0x00)\n    tag_51:\n      pop\n      tag_52\n      tag_53\n      jump\t// in\n    tag_52:\n      mload(0x40)\n      tag_54\n      swap2\n      swap1\n      tag_18\n      jump\t// in\n    tag_54:\n      mload(0x40)\n      dup1\n      swap2\n      sub\n      swap1\n      return\n        /* \"contracts/VisibilityDemo.sol\":1270:1339  function readX() public view returns(uint){... */\n    tag_11:\n      callvalue\n      dup1\n      iszero\n      tag_55\n      jumpi\n      revert(0x00, 0x00)\n    tag_55:\n      pop\n      tag_56\n      tag_57\n      jump\t// in\n    tag_56:\n      mload(0x40)\n      tag_58\n      swap2\n      swap1\n      tag_18\n      jump\t// in\n    tag_58:\n      mload(0x40)\n      dup1\n      swap2\n      sub\n      swap1\n      return\n        /* \"contracts/VisibilityDemo.sol\":1101:1137  function deposit() public payable {} */\n    tag_12:\n      tag_59\n      tag_60\n      jump\t// in\n    tag_59:\n      stop\n        /* \"contracts/VisibilityDemo.sol\":78:91  uint public x */\n    tag_16:\n      sload(0x00)\n      dup2\n      jump\t// out\n        /* \"contracts/VisibilityDemo.sol\":1145:1241  function getBalance() public view returns (uint) {... */\n    tag_21:\n        /* \"contracts/VisibilityDemo.sol\":1188:1192  uint */\n      0x00\n        /* \"contracts/VisibilityDemo.sol\":1212:1233  address(this).balance */\n      selfbalance\n        /* \"contracts/VisibilityDemo.sol\":1205:1233  return address(this).balance */\n      swap1\n      pop\n        /* \"contracts/VisibilityDemo.sol\":1145:1241  function getBalance() public view returns (uint) {... */\n      swap1\n      jump\t// out\n        /* \"contracts/VisibilityDemo.sol\":374:429  function setZ(uint _z) public {... */\n    tag_27:\n        /* \"contracts/VisibilityDemo.sol\":419:421  _z */\n      dup1\n        /* \"contracts/VisibilityDemo.sol\":415:416  z */\n      0x02\n        /* \"contracts/VisibilityDemo.sol\":415:421  z = _z */\n      dup2\n      swap1\n      sstore\n      pop\n        /* \"contracts/VisibilityDemo.sol\":374:429  function setZ(uint _z) public {... */\n      pop\n      jump\t// out\n        /* \"contracts/VisibilityDemo.sol\":248:303  function setX(uint _x) public {... */\n    tag_31:\n        /* \"contracts/VisibilityDemo.sol\":293:295  _x */\n      dup1\n        /* \"contracts/VisibilityDemo.sol\":289:290  x */\n      0x00\n        /* \"contracts/VisibilityDemo.sol\":289:295  x = _x */\n      dup2\n      swap1\n      sstore\n      pop\n        /* \"contracts/VisibilityDemo.sol\":248:303  function setX(uint _x) public {... */\n      pop\n      jump\t// out\n        /* \"contracts/VisibilityDemo.sol\":896:998  function readAll() public view returns(uint, uint, uint){... */\n    tag_34:\n        /* \"contracts/VisibilityDemo.sol\":935:939  uint */\n      0x00\n        /* \"contracts/VisibilityDemo.sol\":941:945  uint */\n      0x00\n        /* \"contracts/VisibilityDemo.sol\":947:951  uint */\n      0x00\n        /* \"contracts/VisibilityDemo.sol\":971:972  x */\n      sload(0x00)\n        /* \"contracts/VisibilityDemo.sol\":974:978  this */\n      address\n        /* \"contracts/VisibilityDemo.sol\":974:984  this.readY */\n      0xffffffffffffffffffffffffffffffffffffffff\n      and\n      0x7bf14593\n        /* \"contracts/VisibilityDemo.sol\":974:986  this.readY() */\n      mload(0x40)\n      dup2\n      0xffffffff\n      and\n      0xe0\n      shl\n      dup2\n      mstore\n      0x04\n      add\n      0x20\n      mload(0x40)\n      dup1\n      dup4\n      sub\n      dup2\n      dup7\n      gas\n      staticcall\n      iszero\n      dup1\n      iszero\n      tag_66\n      jumpi\n      returndatacopy(0x00, 0x00, returndatasize)\n      revert(0x00, returndatasize)\n    tag_66:\n      pop\n      pop\n      pop\n      pop\n      mload(0x40)\n      returndatasize\n      not(0x1f)\n      0x1f\n      dup3\n      add\n      and\n      dup3\n      add\n      dup1\n      0x40\n      mstore\n      pop\n      dup2\n      add\n      swap1\n      tag_67\n      swap2\n      swap1\n      tag_68\n      jump\t// in\n    tag_67:\n        /* \"contracts/VisibilityDemo.sol\":988:989  z */\n      sload(0x02)\n        /* \"contracts/VisibilityDemo.sol\":963:990  return (x, this.readY(), z) */\n      swap3\n      pop\n      swap3\n      pop\n      swap3\n      pop\n        /* \"contracts/VisibilityDemo.sol\":896:998  function readAll() public view returns(uint, uint, uint){... */\n      swap1\n      swap2\n      swap3\n      jump\t// out\n        /* \"contracts/VisibilityDemo.sol\":311:366  function setY(uint _y) public {... */\n    tag_40:\n        /* \"contracts/VisibilityDemo.sol\":356:358  _y */\n      dup1\n        /* \"contracts/VisibilityDemo.sol\":352:353  y */\n      0x01\n        /* \"contracts/VisibilityDemo.sol\":352:358  y = _y */\n      dup2\n      swap1\n      sstore\n      pop\n        /* \"contracts/VisibilityDemo.sol\":311:366  function setY(uint _y) public {... */\n      pop\n      jump\t// out\n        /* \"contracts/VisibilityDemo.sol\":1006:1093  function add(uint a, uint b) public pure returns (uint) {... */\n    tag_45:\n        /* \"contracts/VisibilityDemo.sol\":1056:1060  uint */\n      0x00\n        /* \"contracts/VisibilityDemo.sol\":1084:1085  b */\n      dup2\n        /* \"contracts/VisibilityDemo.sol\":1080:1081  a */\n      dup4\n        /* \"contracts/VisibilityDemo.sol\":1080:1085  a + b */\n      tag_71\n      swap2\n      swap1\n      tag_72\n      jump\t// in\n    tag_71:\n        /* \"contracts/VisibilityDemo.sol\":1073:1085  return a + b */\n      swap1\n      pop\n        /* \"contracts/VisibilityDemo.sol\":1006:1093  function add(uint a, uint b) public pure returns (uint) {... */\n      swap3\n      swap2\n      pop\n      pop\n      jump\t// out\n        /* \"contracts/VisibilityDemo.sol\":522:593  function readY() external view returns(uint){... */\n    tag_49:\n        /* \"contracts/VisibilityDemo.sol\":561:565  uint */\n      0x00\n        /* \"contracts/VisibilityDemo.sol\":584:585  y */\n      sload(0x01)\n        /* \"contracts/VisibilityDemo.sol\":577:585  return y */\n      swap1\n      pop\n        /* \"contracts/VisibilityDemo.sol\":522:593  function readY() external view returns(uint){... */\n      swap1\n      jump\t// out\n        /* \"contracts/VisibilityDemo.sol\":1347:1416  function readZ() public view returns(uint){... */\n    tag_53:\n        /* \"contracts/VisibilityDemo.sol\":1384:1388  uint */\n      0x00\n        /* \"contracts/VisibilityDemo.sol\":1407:1408  z */\n      sload(0x02)\n        /* \"contracts/VisibilityDemo.sol\":1400:1408  return z */\n      swap1\n      pop\n        /* \"contracts/VisibilityDemo.sol\":1347:1416  function readZ() public view returns(uint){... */\n      swap1\n      jump\t// out\n        /* \"contracts/VisibilityDemo.sol\":1270:1339  function readX() public view returns(uint){... */\n    tag_57:\n        /* \"contracts/VisibilityDemo.sol\":1307:1311  uint */\n      0x00\n        /* \"contracts/VisibilityDemo.sol\":1330:1331  x */\n      sload(0x00)\n        /* \"contracts/VisibilityDemo.sol\":1323:1331  return x */\n      swap1\n      pop\n        /* \"contracts/VisibilityDemo.sol\":1270:1339  function readX() public view returns(uint){... */\n      swap1\n      jump\t// out\n        /* \"contracts/VisibilityDemo.sol\":1101:1137  function deposit() public payable {} */\n    tag_60:\n      jump\t// out\n        /* \"#utility.yul\":7:84   */\n    tag_77:\n        /* \"#utility.yul\":44:51   */\n      0x00\n        /* \"#utility.yul\":73:78   */\n      dup2\n        /* \"#utility.yul\":62:78   */\n      swap1\n      pop\n        /* \"#utility.yul\":7:84   */\n      swap2\n      swap1\n      pop\n      jump\t// out\n        /* \"#utility.yul\":90:208   */\n    tag_78:\n        /* \"#utility.yul\":177:201   */\n      tag_89\n        /* \"#utility.yul\":195:200   */\n      dup2\n        /* \"#utility.yul\":177:201   */\n      tag_77\n      jump\t// in\n    tag_89:\n        /* \"#utility.yul\":172:175   */\n      dup3\n        /* \"#utility.yul\":165:202   */\n      mstore\n        /* \"#utility.yul\":90:208   */\n      pop\n      pop\n      jump\t// out\n        /* \"#utility.yul\":214:436   */\n    tag_18:\n        /* \"#utility.yul\":307:311   */\n      0x00\n        /* \"#utility.yul\":345:347   */\n      0x20\n        /* \"#utility.yul\":334:343   */\n      dup3\n        /* \"#utility.yul\":330:348   */\n      add\n        /* \"#utility.yul\":322:348   */\n      swap1\n      pop\n        /* \"#utility.yul\":358:429   */\n      tag_91\n        /* \"#utility.yul\":426:427   */\n      0x00\n        /* \"#utility.yul\":415:424   */\n      dup4\n        /* \"#utility.yul\":411:428   */\n      add\n        /* \"#utility.yul\":402:408   */\n      dup5\n        /* \"#utility.yul\":358:429   */\n      tag_78\n      jump\t// in\n    tag_91:\n        /* \"#utility.yul\":214:436   */\n      swap3\n      swap2\n      pop\n      pop\n      jump\t// out\n        /* \"#utility.yul\":523:640   */\n    tag_80:\n        /* \"#utility.yul\":632:633   */\n      0x00\n        /* \"#utility.yul\":629:630   */\n      0x00\n        /* \"#utility.yul\":622:634   */\n      revert\n        /* \"#utility.yul\":769:891   */\n    tag_82:\n        /* \"#utility.yul\":842:866   */\n      tag_96\n        /* \"#utility.yul\":860:865   */\n      dup2\n        /* \"#utility.yul\":842:866   */\n      tag_77\n      jump\t// in\n    tag_96:\n        /* \"#utility.yul\":835:840   */\n      dup2\n        /* \"#utility.yul\":832:867   */\n      eq\n        /* \"#utility.yul\":822:885   */\n      tag_97\n      jumpi\n        /* \"#utility.yul\":881:882   */\n      0x00\n        /* \"#utility.yul\":878:879   */\n      0x00\n        /* \"#utility.yul\":871:883   */\n      revert\n        /* \"#utility.yul\":822:885   */\n    tag_97:\n        /* \"#utility.yul\":769:891   */\n      pop\n      jump\t// out\n        /* \"#utility.yul\":897:1036   */\n    tag_83:\n        /* \"#utility.yul\":943:948   */\n      0x00\n        /* \"#utility.yul\":981:987   */\n      dup2\n        /* \"#utility.yul\":968:988   */\n      calldataload\n        /* \"#utility.yul\":959:988   */\n      swap1\n      pop\n        /* \"#utility.yul\":997:1030   */\n      tag_99\n        /* \"#utility.yul\":1024:1029   */\n      dup2\n        /* \"#utility.yul\":997:1030   */\n      tag_82\n      jump\t// in\n    tag_99:\n        /* \"#utility.yul\":897:1036   */\n      swap3\n      swap2\n      pop\n      pop\n      jump\t// out\n        /* \"#utility.yul\":1042:1371   */\n    tag_26:\n        /* \"#utility.yul\":1101:1107   */\n      0x00\n        /* \"#utility.yul\":1150:1152   */\n      0x20\n        /* \"#utility.yul\":1138:1147   */\n      dup3\n        /* \"#utility.yul\":1129:1136   */\n      dup5\n        /* \"#utility.yul\":1125:1148   */\n      sub\n        /* \"#utility.yul\":1121:1153   */\n      slt\n        /* \"#utility.yul\":1118:1237   */\n      iszero\n      tag_101\n      jumpi\n        /* \"#utility.yul\":1156:1235   */\n      tag_102\n      tag_80\n      jump\t// in\n    tag_102:\n        /* \"#utility.yul\":1118:1237   */\n    tag_101:\n        /* \"#utility.yul\":1276:1277   */\n      0x00\n        /* \"#utility.yul\":1301:1354   */\n      tag_103\n        /* \"#utility.yul\":1346:1353   */\n      dup5\n        /* \"#utility.yul\":1337:1343   */\n      dup3\n        /* \"#utility.yul\":1326:1335   */\n      dup6\n        /* \"#utility.yul\":1322:1344   */\n      add\n        /* \"#utility.yul\":1301:1354   */\n      tag_83\n      jump\t// in\n    tag_103:\n        /* \"#utility.yul\":1291:1354   */\n      swap2\n      pop\n        /* \"#utility.yul\":1247:1364   */\n      pop\n        /* \"#utility.yul\":1042:1371   */\n      swap3\n      swap2\n      pop\n      pop\n      jump\t// out\n        /* \"#utility.yul\":1377:1819   */\n    tag_36:\n        /* \"#utility.yul\":1526:1530   */\n      0x00\n        /* \"#utility.yul\":1564:1566   */\n      0x60\n        /* \"#utility.yul\":1553:1562   */\n      dup3\n        /* \"#utility.yul\":1549:1567   */\n      add\n        /* \"#utility.yul\":1541:1567   */\n      swap1\n      pop\n        /* \"#utility.yul\":1577:1648   */\n      tag_105\n        /* \"#utility.yul\":1645:1646   */\n      0x00\n        /* \"#utility.yul\":1634:1643   */\n      dup4\n        /* \"#utility.yul\":1630:1647   */\n      add\n        /* \"#utility.yul\":1621:1627   */\n      dup7\n        /* \"#utility.yul\":1577:1648   */\n      tag_78\n      jump\t// in\n    tag_105:\n        /* \"#utility.yul\":1658:1730   */\n      tag_106\n        /* \"#utility.yul\":1726:1728   */\n      0x20\n        /* \"#utility.yul\":1715:1724   */\n      dup4\n        /* \"#utility.yul\":1711:1729   */\n      add\n        /* \"#utility.yul\":1702:1708   */\n      dup6\n        /* \"#utility.yul\":1658:1730   */\n      tag_78\n      jump\t// in\n    tag_106:\n        /* \"#utility.yul\":1740:1812   */\n      tag_107\n        /* \"#utility.yul\":1808:1810   */\n      0x40\n        /* \"#utility.yul\":1797:1806   */\n      dup4\n        /* \"#utility.yul\":1793:1811   */\n      add\n        /* \"#utility.yul\":1784:1790   */\n      dup5\n        /* \"#utility.yul\":1740:1812   */\n      tag_78\n      jump\t// in\n    tag_107:\n        /* \"#utility.yul\":1377:1819   */\n      swap5\n      swap4\n      pop\n      pop\n      pop\n      pop\n      jump\t// out\n        /* \"#utility.yul\":1825:2299   */\n    tag_44:\n        /* \"#utility.yul\":1893:1899   */\n      0x00\n        /* \"#utility.yul\":1901:1907   */\n      0x00\n        /* \"#utility.yul\":1950:1952   */\n      0x40\n        /* \"#utility.yul\":1938:1947   */\n      dup4\n        /* \"#utility.yul\":1929:1936   */\n      dup6\n        /* \"#utility.yul\":1925:1948   */\n      sub\n        /* \"#utility.yul\":1921:1953   */\n      slt\n        /* \"#utility.yul\":1918:2037   */\n      iszero\n      tag_109\n      jumpi\n        /* \"#utility.yul\":1956:2035   */\n      tag_110\n      tag_80\n      jump\t// in\n    tag_110:\n        /* \"#utility.yul\":1918:2037   */\n    tag_109:\n        /* \"#utility.yul\":2076:2077   */\n      0x00\n        /* \"#utility.yul\":2101:2154   */\n      tag_111\n        /* \"#utility.yul\":2146:2153   */\n      dup6\n        /* \"#utility.yul\":2137:2143   */\n      dup3\n        /* \"#utility.yul\":2126:2135   */\n      dup7\n        /* \"#utility.yul\":2122:2144   */\n      add\n        /* \"#utility.yul\":2101:2154   */\n      tag_83\n      jump\t// in\n    tag_111:\n        /* \"#utility.yul\":2091:2154   */\n      swap3\n      pop\n        /* \"#utility.yul\":2047:2164   */\n      pop\n        /* \"#utility.yul\":2203:2205   */\n      0x20\n        /* \"#utility.yul\":2229:2282   */\n      tag_112\n        /* \"#utility.yul\":2274:2281   */\n      dup6\n        /* \"#utility.yul\":2265:2271   */\n      dup3\n        /* \"#utility.yul\":2254:2263   */\n      dup7\n        /* \"#utility.yul\":2250:2272   */\n      add\n        /* \"#utility.yul\":2229:2282   */\n      tag_83\n      jump\t// in\n    tag_112:\n        /* \"#utility.yul\":2219:2282   */\n      swap2\n      pop\n        /* \"#utility.yul\":2174:2292   */\n      pop\n        /* \"#utility.yul\":1825:2299   */\n      swap3\n      pop\n      swap3\n      swap1\n      pop\n      jump\t// out\n        /* \"#utility.yul\":2305:2448   */\n    tag_84:\n        /* \"#utility.yul\":2362:2367   */\n      0x00\n        /* \"#utility.yul\":2393:2399   */\n      dup2\n        /* \"#utility.yul\":2387:2400   */\n      mload\n        /* \"#utility.yul\":2378:2400   */\n      swap1\n      pop\n        /* \"#utility.yul\":2409:2442   */\n      tag_114\n        /* \"#utility.yul\":2436:2441   */\n      dup2\n        /* \"#utility.yul\":2409:2442   */\n      tag_82\n      jump\t// in\n    tag_114:\n        /* \"#utility.yul\":2305:2448   */\n      swap3\n      swap2\n      pop\n      pop\n      jump\t// out\n        /* \"#utility.yul\":2454:2805   */\n    tag_68:\n        /* \"#utility.yul\":2524:2530   */\n      0x00\n        /* \"#utility.yul\":2573:2575   */\n      0x20\n        /* \"#utility.yul\":2561:2570   */\n      dup3\n        /* \"#utility.yul\":2552:2559   */\n      dup5\n        /* \"#utility.yul\":2548:2571   */\n      sub\n        /* \"#utility.yul\":2544:2576   */\n      slt\n        /* \"#utility.yul\":2541:2660   */\n      iszero\n      tag_116\n      jumpi\n        /* \"#utility.yul\":2579:2658   */\n      tag_117\n      tag_80\n      jump\t// in\n    tag_117:\n        /* \"#utility.yul\":2541:2660   */\n    tag_116:\n        /* \"#utility.yul\":2699:2700   */\n      0x00\n        /* \"#utility.yul\":2724:2788   */\n      tag_118\n        /* \"#utility.yul\":2780:2787   */\n      dup5\n        /* \"#utility.yul\":2771:2777   */\n      dup3\n        /* \"#utility.yul\":2760:2769   */\n      dup6\n        /* \"#utility.yul\":2756:2778   */\n      add\n        /* \"#utility.yul\":2724:2788   */\n      tag_84\n      jump\t// in\n    tag_118:\n        /* \"#utility.yul\":2714:2788   */\n      swap2\n      pop\n        /* \"#utility.yul\":2670:2798   */\n      pop\n        /* \"#utility.yul\":2454:2805   */\n      swap3\n      swap2\n      pop\n      pop\n      jump\t// out\n        /* \"#utility.yul\":2811:2991   */\n    tag_85:\n        /* \"#utility.yul\":2859:2936   */\n      0x4e487b7100000000000000000000000000000000000000000000000000000000\n        /* \"#utility.yul\":2856:2857   */\n      0x00\n        /* \"#utility.yul\":2849:2937   */\n      mstore\n        /* \"#utility.yul\":2956:2960   */\n      0x11\n        /* \"#utility.yul\":2953:2954   */\n      0x04\n        /* \"#utility.yul\":2946:2961   */\n      mstore\n        /* \"#utility.yul\":2980:2984   */\n      0x24\n        /* \"#utility.yul\":2977:2978   */\n      0x00\n        /* \"#utility.yul\":2970:2985   */\n      revert\n        /* \"#utility.yul\":2997:3188   */\n    tag_72:\n        /* \"#utility.yul\":3037:3040   */\n      0x00\n        /* \"#utility.yul\":3056:3076   */\n      tag_121\n        /* \"#utility.yul\":3074:3075   */\n      dup3\n        /* \"#utility.yul\":3056:3076   */\n      tag_77\n      jump\t// in\n    tag_121:\n        /* \"#utility.yul\":3051:3076   */\n      swap2\n      pop\n        /* \"#utility.yul\":3090:3110   */\n      tag_122\n        /* \"#utility.yul\":3108:3109   */\n      dup4\n        /* \"#utility.yul\":3090:3110   */\n      tag_77\n      jump\t// in\n    tag_122:\n        /* \"#utility.yul\":3085:3110   */\n      swap3\n      pop\n        /* \"#utility.yul\":3133:3134   */\n      dup3\n        /* \"#utility.yul\":3130:3131   */\n      dup3\n        /* \"#utility.yul\":3126:3135   */\n      add\n        /* \"#utility.yul\":3119:3135   */\n      swap1\n      pop\n        /* \"#utility.yul\":3154:3157   */\n      dup1\n        /* \"#utility.yul\":3151:3152   */\n      dup3\n        /* \"#utility.yul\":3148:3158   */\n      gt\n        /* \"#utility.yul\":3145:3181   */\n      iszero\n      tag_123\n      jumpi\n        /* \"#utility.yul\":3161:3179   */\n      tag_124\n      tag_85\n      jump\t// in\n    tag_124:\n        /* \"#utility.yul\":3145:3181   */\n    tag_123:\n        /* \"#utility.yul\":2997:3188   */\n      swap3\n      swap2\n      pop\n      pop\n      jump\t// out\n\n    auxdata: 0xa2646970667358221220d166399e5cc80bc552aa98dee7094c46416265082943056e2f73814485ffefa764736f6c63430008220033\n}\n",
				"bytecode": {
					"linkReferences": {},
					"object": "6080604052348015600e575f5ffd5b506105078061001c5f395ff3fe60806040526004361061009b575f3560e01c806368d466b81161006357806368d466b81461016f578063771602f7146101975780637bf14593146101d3578063a806df85146101fd578063acbefdb214610227578063d0e30db0146102515761009b565b80630c55699c1461009f57806312065fe0146100c95780633f2bff51146100f35780634018d9aa1461011b57806341f654f714610143575b5f5ffd5b3480156100aa575f5ffd5b506100b361025b565b6040516100c0919061034d565b60405180910390f35b3480156100d4575f5ffd5b506100dd610260565b6040516100ea919061034d565b60405180910390f35b3480156100fe575f5ffd5b5061011960048036038101906101149190610394565b610267565b005b348015610126575f5ffd5b50610141600480360381019061013c9190610394565b610271565b005b34801561014e575f5ffd5b5061015761027a565b604051610166939291906103bf565b60405180910390f35b34801561017a575f5ffd5b5061019560048036038101906101909190610394565b6102fa565b005b3480156101a2575f5ffd5b506101bd60048036038101906101b891906103f4565b610304565b6040516101ca919061034d565b60405180910390f35b3480156101de575f5ffd5b506101e7610319565b6040516101f4919061034d565b60405180910390f35b348015610208575f5ffd5b50610211610322565b60405161021e919061034d565b60405180910390f35b348015610232575f5ffd5b5061023b61032b565b604051610248919061034d565b60405180910390f35b610259610333565b005b5f5481565b5f47905090565b8060028190555050565b805f8190555050565b5f5f5f5f543073ffffffffffffffffffffffffffffffffffffffff16637bf145936040518163ffffffff1660e01b8152600401602060405180830381865afa1580156102c8573d5f5f3e3d5ffd5b505050506040513d601f19601f820116820180604052508101906102ec9190610446565b600254925092509250909192565b8060018190555050565b5f8183610311919061049e565b905092915050565b5f600154905090565b5f600254905090565b5f5f54905090565b565b5f819050919050565b61034781610335565b82525050565b5f6020820190506103605f83018461033e565b92915050565b5f5ffd5b61037381610335565b811461037d575f5ffd5b50565b5f8135905061038e8161036a565b92915050565b5f602082840312156103a9576103a8610366565b5b5f6103b684828501610380565b91505092915050565b5f6060820190506103d25f83018661033e565b6103df602083018561033e565b6103ec604083018461033e565b949350505050565b5f5f6040838503121561040a57610409610366565b5b5f61041785828601610380565b925050602061042885828601610380565b9150509250929050565b5f815190506104408161036a565b92915050565b5f6020828403121561045b5761045a610366565b5b5f61046884828501610432565b91505092915050565b7f4e487b71000000000000000000000000000000000000000000000000000000005f52601160045260245ffd5b5f6104a882610335565b91506104b383610335565b92508282019050808211156104cb576104ca610471565b5b9291505056fea2646970667358221220d166399e5cc80bc552aa98dee7094c46416265082943056e2f73814485ffefa764736f6c63430008220033",
					"opcodes": "PUSH1 0x80 PUSH1 0x40 MSTORE CALLVALUE DUP1 ISZERO PUSH1 0xE JUMPI PUSH0 PUSH0 REVERT JUMPDEST POP PUSH2 0x507 DUP1 PUSH2 0x1C PUSH0 CODECOPY PUSH0 RETURN INVALID PUSH1 0x80 PUSH1 0x40 MSTORE PUSH1 0x4 CALLDATASIZE LT PUSH2 0x9B JUMPI PUSH0 CALLDATALOAD PUSH1 0xE0 SHR DUP1 PUSH4 0x68D466B8 GT PUSH2 0x63 JUMPI DUP1 PUSH4 0x68D466B8 EQ PUSH2 0x16F JUMPI DUP1 PUSH4 0x771602F7 EQ PUSH2 0x197 JUMPI DUP1 PUSH4 0x7BF14593 EQ PUSH2 0x1D3 JUMPI DUP1 PUSH4 0xA806DF85 EQ PUSH2 0x1FD JUMPI DUP1 PUSH4 0xACBEFDB2 EQ PUSH2 0x227 JUMPI DUP1 PUSH4 0xD0E30DB0 EQ PUSH2 0x251 JUMPI PUSH2 0x9B JUMP JUMPDEST DUP1 PUSH4 0xC55699C EQ PUSH2 0x9F JUMPI DUP1 PUSH4 0x12065FE0 EQ PUSH2 0xC9 JUMPI DUP1 PUSH4 0x3F2BFF51 EQ PUSH2 0xF3 JUMPI DUP1 PUSH4 0x4018D9AA EQ PUSH2 0x11B JUMPI DUP1 PUSH4 0x41F654F7 EQ PUSH2 0x143 JUMPI JUMPDEST PUSH0 PUSH0 REVERT JUMPDEST CALLVALUE DUP1 ISZERO PUSH2 0xAA JUMPI PUSH0 PUSH0 REVERT JUMPDEST POP PUSH2 0xB3 PUSH2 0x25B JUMP JUMPDEST PUSH1 0x40 MLOAD PUSH2 0xC0 SWAP2 SWAP1 PUSH2 0x34D JUMP JUMPDEST PUSH1 0x40 MLOAD DUP1 SWAP2 SUB SWAP1 RETURN JUMPDEST CALLVALUE DUP1 ISZERO PUSH2 0xD4 JUMPI PUSH0 PUSH0 REVERT JUMPDEST POP PUSH2 0xDD PUSH2 0x260 JUMP JUMPDEST PUSH1 0x40 MLOAD PUSH2 0xEA SWAP2 SWAP1 PUSH2 0x34D JUMP JUMPDEST PUSH1 0x40 MLOAD DUP1 SWAP2 SUB SWAP1 RETURN JUMPDEST CALLVALUE DUP1 ISZERO PUSH2 0xFE JUMPI PUSH0 PUSH0 REVERT JUMPDEST POP PUSH2 0x119 PUSH1 0x4 DUP1 CALLDATASIZE SUB DUP2 ADD SWAP1 PUSH2 0x114 SWAP2 SWAP1 PUSH2 0x394 JUMP JUMPDEST PUSH2 0x267 JUMP JUMPDEST STOP JUMPDEST CALLVALUE DUP1 ISZERO PUSH2 0x126 JUMPI PUSH0 PUSH0 REVERT JUMPDEST POP PUSH2 0x141 PUSH1 0x4 DUP1 CALLDATASIZE SUB DUP2 ADD SWAP1 PUSH2 0x13C SWAP2 SWAP1 PUSH2 0x394 JUMP JUMPDEST PUSH2 0x271 JUMP JUMPDEST STOP JUMPDEST CALLVALUE DUP1 ISZERO PUSH2 0x14E JUMPI PUSH0 PUSH0 REVERT JUMPDEST POP PUSH2 0x157 PUSH2 0x27A JUMP JUMPDEST PUSH1 0x40 MLOAD PUSH2 0x166 SWAP4 SWAP3 SWAP2 SWAP1 PUSH2 0x3BF JUMP JUMPDEST PUSH1 0x40 MLOAD DUP1 SWAP2 SUB SWAP1 RETURN JUMPDEST CALLVALUE DUP1 ISZERO PUSH2 0x17A JUMPI PUSH0 PUSH0 REVERT JUMPDEST POP PUSH2 0x195 PUSH1 0x4 DUP1 CALLDATASIZE SUB DUP2 ADD SWAP1 PUSH2 0x190 SWAP2 SWAP1 PUSH2 0x394 JUMP JUMPDEST PUSH2 0x2FA JUMP JUMPDEST STOP JUMPDEST CALLVALUE DUP1 ISZERO PUSH2 0x1A2 JUMPI PUSH0 PUSH0 REVERT JUMPDEST POP PUSH2 0x1BD PUSH1 0x4 DUP1 CALLDATASIZE SUB DUP2 ADD SWAP1 PUSH2 0x1B8 SWAP2 SWAP1 PUSH2 0x3F4 JUMP JUMPDEST PUSH2 0x304 JUMP JUMPDEST PUSH1 0x40 MLOAD PUSH2 0x1CA SWAP2 SWAP1 PUSH2 0x34D JUMP JUMPDEST PUSH1 0x40 MLOAD DUP1 SWAP2 SUB SWAP1 RETURN JUMPDEST CALLVALUE DUP1 ISZERO PUSH2 0x1DE JUMPI PUSH0 PUSH0 REVERT JUMPDEST POP PUSH2 0x1E7 PUSH2 0x319 JUMP JUMPDEST PUSH1 0x40 MLOAD PUSH2 0x1F4 SWAP2 SWAP1 PUSH2 0x34D JUMP JUMPDEST PUSH1 0x40 MLOAD DUP1 SWAP2 SUB SWAP1 RETURN JUMPDEST CALLVALUE DUP1 ISZERO PUSH2 0x208 JUMPI PUSH0 PUSH0 REVERT JUMPDEST POP PUSH2 0x211 PUSH2 0x322 JUMP JUMPDEST PUSH1 0x40 MLOAD PUSH2 0x21E SWAP2 SWAP1 PUSH2 0x34D JUMP JUMPDEST PUSH1 0x40 MLOAD DUP1 SWAP2 SUB SWAP1 RETURN JUMPDEST CALLVALUE DUP1 ISZERO PUSH2 0x232 JUMPI PUSH0 PUSH0 REVERT JUMPDEST POP PUSH2 0x23B PUSH2 0x32B JUMP JUMPDEST PUSH1 0x40 MLOAD PUSH2 0x248 SWAP2 SWAP1 PUSH2 0x34D JUMP JUMPDEST PUSH1 0x40 MLOAD DUP1 SWAP2 SUB SWAP1 RETURN JUMPDEST PUSH2 0x259 PUSH2 0x333 JUMP JUMPDEST STOP JUMPDEST PUSH0 SLOAD DUP2 JUMP JUMPDEST PUSH0 SELFBALANCE SWAP1 POP SWAP1 JUMP JUMPDEST DUP1 PUSH1 0x2 DUP2 SWAP1 SSTORE POP POP JUMP JUMPDEST DUP1 PUSH0 DUP2 SWAP1 SSTORE POP POP JUMP JUMPDEST PUSH0 PUSH0 PUSH0 PUSH0 SLOAD ADDRESS PUSH20 0xFFFFFFFFFFFFFFFFFFFFFFFFFFFFFFFFFFFFFFFF AND PUSH4 0x7BF14593 PUSH1 0x40 MLOAD DUP2 PUSH4 0xFFFFFFFF AND PUSH1 0xE0 SHL DUP2 MSTORE PUSH1 0x4 ADD PUSH1 0x20 PUSH1 0x40 MLOAD DUP1 DUP4 SUB DUP2 DUP7 GAS STATICCALL ISZERO DUP1 ISZERO PUSH2 0x2C8 JUMPI RETURNDATASIZE PUSH0 PUSH0 RETURNDATACOPY RETURNDATASIZE PUSH0 REVERT JUMPDEST POP POP POP POP PUSH1 0x40 MLOAD RETURNDATASIZE PUSH1 0x1F NOT PUSH1 0x1F DUP3 ADD AND DUP3 ADD DUP1 PUSH1 0x40 MSTORE POP DUP2 ADD SWAP1 PUSH2 0x2EC SWAP2 SWAP1 PUSH2 0x446 JUMP JUMPDEST PUSH1 0x2 SLOAD SWAP3 POP SWAP3 POP SWAP3 POP SWAP1 SWAP2 SWAP3 JUMP JUMPDEST DUP1 PUSH1 0x1 DUP2 SWAP1 SSTORE POP POP JUMP JUMPDEST PUSH0 DUP2 DUP4 PUSH2 0x311 SWAP2 SWAP1 PUSH2 0x49E JUMP JUMPDEST SWAP1 POP SWAP3 SWAP2 POP POP JUMP JUMPDEST PUSH0 PUSH1 0x1 SLOAD SWAP1 POP SWAP1 JUMP JUMPDEST PUSH0 PUSH1 0x2 SLOAD SWAP1 POP SWAP1 JUMP JUMPDEST PUSH0 PUSH0 SLOAD SWAP1 POP SWAP1 JUMP JUMPDEST JUMP JUMPDEST PUSH0 DUP2 SWAP1 POP SWAP2 SWAP1 POP JUMP JUMPDEST PUSH2 0x347 DUP2 PUSH2 0x335 JUMP JUMPDEST DUP3 MSTORE POP POP JUMP JUMPDEST PUSH0 PUSH1 0x20 DUP3 ADD SWAP1 POP PUSH2 0x360 PUSH0 DUP4 ADD DUP5 PUSH2 0x33E JUMP JUMPDEST SWAP3 SWAP2 POP POP JUMP JUMPDEST PUSH0 PUSH0 REVERT JUMPDEST PUSH2 0x373 DUP2 PUSH2 0x335 JUMP JUMPDEST DUP2 EQ PUSH2 0x37D JUMPI PUSH0 PUSH0 REVERT JUMPDEST POP JUMP JUMPDEST PUSH0 DUP2 CALLDATALOAD SWAP1 POP PUSH2 0x38E DUP2 PUSH2 0x36A JUMP JUMPDEST SWAP3 SWAP2 POP POP JUMP JUMPDEST PUSH0 PUSH1 0x20 DUP3 DUP5 SUB SLT ISZERO PUSH2 0x3A9 JUMPI PUSH2 0x3A8 PUSH2 0x366 JUMP JUMPDEST JUMPDEST PUSH0 PUSH2 0x3B6 DUP5 DUP3 DUP6 ADD PUSH2 0x380 JUMP JUMPDEST SWAP2 POP POP SWAP3 SWAP2 POP POP JUMP JUMPDEST PUSH0 PUSH1 0x60 DUP3 ADD SWAP1 POP PUSH2 0x3D2 PUSH0 DUP4 ADD DUP7 PUSH2 0x33E JUMP JUMPDEST PUSH2 0x3DF PUSH1 0x20 DUP4 ADD DUP6 PUSH2 0x33E JUMP JUMPDEST PUSH2 0x3EC PUSH1 0x40 DUP4 ADD DUP5 PUSH2 0x33E JUMP JUMPDEST SWAP5 SWAP4 POP POP POP POP JUMP JUMPDEST PUSH0 PUSH0 PUSH1 0x40 DUP4 DUP6 SUB SLT ISZERO PUSH2 0x40A JUMPI PUSH2 0x409 PUSH2 0x366 JUMP JUMPDEST JUMPDEST PUSH0 PUSH2 0x417 DUP6 DUP3 DUP7 ADD PUSH2 0x380 JUMP JUMPDEST SWAP3 POP POP PUSH1 0x20 PUSH2 0x428 DUP6 DUP3 DUP7 ADD PUSH2 0x380 JUMP JUMPDEST SWAP2 POP POP SWAP3 POP SWAP3 SWAP1 POP JUMP JUMPDEST PUSH0 DUP2 MLOAD SWAP1 POP PUSH2 0x440 DUP2 PUSH2 0x36A JUMP JUMPDEST SWAP3 SWAP2 POP POP JUMP JUMPDEST PUSH0 PUSH1 0x20 DUP3 DUP5 SUB SLT ISZERO PUSH2 0x45B JUMPI PUSH2 0x45A PUSH2 0x366 JUMP JUMPDEST JUMPDEST PUSH0 PUSH2 0x468 DUP5 DUP3 DUP6 ADD PUSH2 0x432 JUMP JUMPDEST SWAP2 POP POP SWAP3 SWAP2 POP POP JUMP JUMPDEST PUSH32 0x4E487B7100000000000000000000000000000000000000000000000000000000 PUSH0 MSTORE PUSH1 0x11 PUSH1 0x4 MSTORE PUSH1 0x24 PUSH0 REVERT JUMPDEST PUSH0 PUSH2 0x4A8 DUP3 PUSH2 0x335 JUMP JUMPDEST SWAP2 POP PUSH2 0x4B3 DUP4 PUSH2 0x335 JUMP JUMPDEST SWAP3 POP DUP3 DUP3 ADD SWAP1 POP DUP1 DUP3 GT ISZERO PUSH2 0x4CB JUMPI PUSH2 0x4CA PUSH2 0x471 JUMP JUMPDEST JUMPDEST SWAP3 SWAP2 POP POP JUMP INVALID LOG2 PUSH5 0x6970667358 0x22 SLT KECCAK256 DATALOADN 0x6639 SWAP15 TLOAD 0xC8 SIGNEXTEND 0xC5 MSTORE 0xAA SWAP9 0xDE SWAPN 0x9 0x4C CHAINID COINBASE PUSH3 0x650829 NUMBER SDIV PUSH15 0x2F73814485FFEFA764736F6C634300 ADDMOD 0x22 STOP CALLER "
				},
				"gasEstimates": {
					"creation": {
						"codeDepositCost": "257400",
						"executionCost": "298",
						"totalCost": "257698"
					},
					"external": {
						"add(uint256,uint256)": "infinite",
						"deposit()": "229",
						"getBalance()": "357",
						"readAll()": "infinite",
						"readX()": "2519",
						"readY()": "2476",
						"readZ()": "2498",
						"setX(uint256)": "22581",
						"setY(uint256)": "22515",
						"setZ(uint256)": "22560",
						"x()": "2425"
					}
				},
				"methodIdentifiers": {
					"add(uint256,uint256)": "771602f7",
					"deposit()": "d0e30db0",
					"getBalance()": "12065fe0",
					"readAll()": "41f654f7",
					"readX()": "acbefdb2",
					"readY()": "7bf14593",
					"readZ()": "a806df85",
					"setX(uint256)": "4018d9aa",
					"setY(uint256)": "68d466b8",
					"setZ(uint256)": "3f2bff51",
					"x()": "0c55699c"
				}
			},
			"storageLayout": {
				"storage": [
					{
						"astId": 3,
						"contract": "contracts/VisibilityDemo.sol:B",
						"label": "x",
						"offset": 0,
						"slot": "0",
						"type": "t_uint256"
					},
					{
						"astId": 5,
						"contract": "contracts/VisibilityDemo.sol:B",
						"label": "y",
						"offset": 0,
						"slot": "1",
						"type": "t_uint256"
					},
					{
						"astId": 7,
						"contract": "contracts/VisibilityDemo.sol:B",
						"label": "z",
						"offset": 0,
						"slot": "2",
						"type": "t_uint256"
					}
				],
				"types": {
					"t_uint256": {
						"encoding": "inplace",
						"label": "uint256",
						"numberOfBytes": "32"
					}
				}
			},
			"userdoc": {
				"kind": "user",
				"methods": {},
				"version": 1
			}
		}
	}
}