{
	"contracts/Hello.sol": {
		"Hello": {
			"abi": [
				{
					"inputs": [],
					"name": "get",
					"outputs": [
						{
							"internalType": "string",
							"name": "",
							"type": "string"
						}
					],
					"stateMutability": "view",
					"type": "function"
				},
				{
					"inputs": [],
					"name": "name",
					"outputs": [
						{
							"internalType": "string",
							"name": "",
							"type": "string"
						}
					],
					"stateMutability": "view",
					"type": "function"
				},
				{
					"inputs": [
						{
							"internalType": "string",
							"name": "_name",
							"type": "string"
						}
					],
					"name": "set",
					"outputs": [],
					"stateMutability": "nonpayable",
					"type": "function"
				}
			],
			"devdoc": {
				"kind": "dev",
				"methods": {},
				"version": 1
			},
			"evm": {
				"assembly": "    /* \"contracts/Hello.sol\":61:334  contract Hello{... */\n  mstore(0x40, 0x80)\n  callvalue\n  dup1\n  iszero\n  tag_1\n  jumpi\n  revert(0x00, 0x00)\ntag_1:\n  pop\n  dataSize(sub_0)\n  dup1\n  dataOffset(sub_0)\n  0x00\n  codecopy\n  0x00\n  return\nstop\n\nsub_0: assembly {\n        /* \"contracts/Hello.sol\":61:334  contract Hello{... */\n      mstore(0x40, 0x80)\n      callvalue\n      dup1\n      iszero\n      tag_1\n      jumpi\n      revert(0x00, 0x00)\n    tag_1:\n      pop\n      jumpi(tag_2, lt(calldatasize, 0x04))\n      shr(0xe0, calldataload(0x00))\n      dup1\n      0x06fdde03\n      eq\n      tag_3\n      jumpi\n      dup1\n      0x4ed3885e\n      eq\n      tag_4\n      jumpi\n      dup1\n      0x6d4ce63c\n      eq\n      tag_5\n      jumpi\n    tag_2:\n      revert(0x00, 0x00)\n        /* \"contracts/Hello.sol\":82:100  string public name */\n    tag_3:\n      tag_6\n      tag_7\n      jump\t// in\n    tag_6:\n      mload(0x40)\n      tag_8\n      swap2\n      swap1\n      tag_9\n      jump\t// in\n    tag_8:\n      mload(0x40)\n      dup1\n      swap2\n      sub\n      swap1\n      return\n        /* \"contracts/Hello.sol\":109:181  function set(string memory _name) public {... */\n    tag_4:\n      tag_10\n      0x04\n      dup1\n      calldatasize\n      sub\n      dup2\n      add\n      swap1\n      tag_11\n      swap2\n      swap1\n      tag_12\n      jump\t// in\n    tag_11:\n      tag_13\n      jump\t// in\n    tag_10:\n      stop\n        /* \"contracts/Hello.sol\":189:327  function get() public view returns(string memory){... */\n    tag_5:\n      tag_14\n      tag_15\n      jump\t// in\n    tag_14:\n      mload(0x40)\n      tag_16\n      swap2\n      swap1\n      tag_9\n      jump\t// in\n    tag_16:\n      mload(0x40)\n      dup1\n      swap2\n      sub\n      swap1\n      return\n        /* \"contracts/Hello.sol\":82:100  string public name */\n    tag_7:\n      0x00\n      dup1\n      sload\n      tag_17\n      swap1\n      tag_18\n      jump\t// in\n    tag_17:\n      dup1\n      0x1f\n      add\n      0x20\n      dup1\n      swap2\n      div\n      mul\n      0x20\n      add\n      mload(0x40)\n      swap1\n      dup2\n      add\n      0x40\n      mstore\n      dup1\n      swap3\n      swap2\n      swap1\n      dup2\n      dup2\n      mstore\n      0x20\n      add\n      dup3\n      dup1\n      sload\n      tag_19\n      swap1\n      tag_18\n      jump\t// in\n    tag_19:\n      dup1\n      iszero\n      tag_20\n      jumpi\n      dup1\n      0x1f\n      lt\n      tag_21\n      jumpi\n      0x0100\n      dup1\n      dup4\n      sload\n      div\n      mul\n      dup4\n      mstore\n      swap2\n      0x20\n      add\n      swap2\n      jump(tag_20)\n    tag_21:\n      dup3\n      add\n      swap2\n      swap1\n      0x00\n      mstore\n      keccak256(0x00, 0x20)\n      swap1\n    tag_22:\n      dup2\n      sload\n      dup2\n      mstore\n      swap1\n      0x01\n      add\n      swap1\n      0x20\n      add\n      dup1\n      dup4\n      gt\n      tag_22\n      jumpi\n      dup3\n      swap1\n      sub\n      0x1f\n      and\n      dup3\n      add\n      swap2\n    tag_20:\n      pop\n      pop\n      pop\n      pop\n      pop\n      dup2\n      jump\t// out\n        /* \"contracts/Hello.sol\":109:181  function set(string memory _name) public {... */\n    tag_13:\n        /* \"contracts/Hello.sol\":168:173  _name */\n      dup1\n        /* \"contracts/Hello.sol\":161:165  name */\n      0x00\n        /* \"contracts/Hello.sol\":161:173  name = _name */\n      swap1\n      dup2\n      tag_24\n      swap2\n      swap1\n      tag_25\n      jump\t// in\n    tag_24:\n      pop\n        /* \"contracts/Hello.sol\":109:181  function set(string memory _name) public {... */\n      pop\n      jump\t// out\n        /* \"contracts/Hello.sol\":189:327  function get() public view returns(string memory){... */\n    tag_15:\n        /* \"contracts/Hello.sol\":224:237  string memory */\n      0x60\n        /* \"contracts/Hello.sol\":249:266  string memory ans */\n      0x00\n        /* \"contracts/Hello.sol\":293:297  name */\n      0x00\n        /* \"contracts/Hello.sol\":269:298  string.concat(\"Hello \", name) */\n      add(0x20, mload(0x40))\n      tag_27\n      swap2\n      swap1\n      tag_28\n      jump\t// in\n    tag_27:\n      mload(0x40)\n      0x20\n      dup2\n      dup4\n      sub\n      sub\n      dup2\n      mstore\n      swap1\n      0x40\n      mstore\n        /* \"contracts/Hello.sol\":249:298  string memory ans = string.concat(\"Hello \", name) */\n      swap1\n      pop\n        /* \"contracts/Hello.sol\":316:319  ans */\n      dup1\n        /* \"contracts/Hello.sol\":309:319  return ans */\n      swap2\n      pop\n      pop\n        /* \"contracts/Hello.sol\":189:327  function get() public view returns(string memory){... */\n      swap1\n      jump\t// out\n        /* \"#utility.yul\":7:106   */\n    tag_29:\n        /* \"#utility.yul\":59:65   */\n      0x00\n        /* \"#utility.yul\":93:98   */\n      dup2\n        /* \"#utility.yul\":87:99   */\n      mload\n        /* \"#utility.yul\":77:99   */\n      swap1\n      pop\n        /* \"#utility.yul\":7:106   */\n      swap2\n      swap1\n      pop\n      jump\t// out\n        /* \"#utility.yul\":112:281   */\n    tag_30:\n        /* \"#utility.yul\":196:207   */\n      0x00\n        /* \"#utility.yul\":230:236   */\n      dup3\n        /* \"#utility.yul\":225:228   */\n      dup3\n        /* \"#utility.yul\":218:237   */\n      mstore\n        /* \"#utility.yul\":270:274   */\n      0x20\n        /* \"#utility.yul\":265:268   */\n      dup3\n        /* \"#utility.yul\":261:275   */\n      add\n        /* \"#utility.yul\":246:275   */\n      swap1\n      pop\n        /* \"#utility.yul\":112:281   */\n      swap3\n      swap2\n      pop\n      pop\n      jump\t// out\n        /* \"#utility.yul\":287:426   */\n    tag_31:\n        /* \"#utility.yul\":376:382   */\n      dup3\n        /* \"#utility.yul\":371:374   */\n      dup2\n        /* \"#utility.yul\":366:369   */\n      dup4\n        /* \"#utility.yul\":360:383   */\n      mcopy\n        /* \"#utility.yul\":417:418   */\n      0x00\n        /* \"#utility.yul\":408:414   */\n      dup4\n        /* \"#utility.yul\":403:406   */\n      dup4\n        /* \"#utility.yul\":399:415   */\n      add\n        /* \"#utility.yul\":392:419   */\n      mstore\n        /* \"#utility.yul\":287:426   */\n      pop\n      pop\n      pop\n      jump\t// out\n        /* \"#utility.yul\":432:534   */\n    tag_32:\n        /* \"#utility.yul\":473:479   */\n      0x00\n        /* \"#utility.yul\":524:526   */\n      0x1f\n        /* \"#utility.yul\":520:527   */\n      not\n        /* \"#utility.yul\":515:517   */\n      0x1f\n        /* \"#utility.yul\":508:513   */\n      dup4\n        /* \"#utility.yul\":504:518   */\n      add\n        /* \"#utility.yul\":500:528   */\n      and\n        /* \"#utility.yul\":490:528   */\n      swap1\n      pop\n        /* \"#utility.yul\":432:534   */\n      swap2\n      swap1\n      pop\n      jump\t// out\n        /* \"#utility.yul\":540:917   */\n    tag_33:\n        /* \"#utility.yul\":628:631   */\n      0x00\n        /* \"#utility.yul\":656:695   */\n      tag_72\n        /* \"#utility.yul\":689:694   */\n      dup3\n        /* \"#utility.yul\":656:695   */\n      tag_29\n      jump\t// in\n    tag_72:\n        /* \"#utility.yul\":711:782   */\n      tag_73\n        /* \"#utility.yul\":775:781   */\n      dup2\n        /* \"#utility.yul\":770:773   */\n      dup6\n        /* \"#utility.yul\":711:782   */\n      tag_30\n      jump\t// in\n    tag_73:\n        /* \"#utility.yul\":704:782   */\n      swap4\n      pop\n        /* \"#utility.yul\":791:856   */\n      tag_74\n        /* \"#utility.yul\":849:855   */\n      dup2\n        /* \"#utility.yul\":844:847   */\n      dup6\n        /* \"#utility.yul\":837:841   */\n      0x20\n        /* \"#utility.yul\":830:835   */\n      dup7\n        /* \"#utility.yul\":826:842   */\n      add\n        /* \"#utility.yul\":791:856   */\n      tag_31\n      jump\t// in\n    tag_74:\n        /* \"#utility.yul\":881:910   */\n      tag_75\n        /* \"#utility.yul\":903:909   */\n      dup2\n        /* \"#utility.yul\":881:910   */\n      tag_32\n      jump\t// in\n    tag_75:\n        /* \"#utility.yul\":876:879   */\n      dup5\n        /* \"#utility.yul\":872:911   */\n      add\n        /* \"#utility.yul\":865:911   */\n      swap2\n      pop\n        /* \"#utility.yul\":632:917   */\n      pop\n        /* \"#utility.yul\":540:917   */\n      swap3\n      swap2\n      pop\n      pop\n      jump\t// out\n        /* \"#utility.yul\":923:1236   */\n    tag_9:\n        /* \"#utility.yul\":1036:1040   */\n      0x00\n        /* \"#utility.yul\":1074:1076   */\n      0x20\n        /* \"#utility.yul\":1063:1072   */\n      dup3\n        /* \"#utility.yul\":1059:1077   */\n      add\n        /* \"#utility.yul\":1051:1077   */\n      swap1\n      pop\n        /* \"#utility.yul\":1123:1132   */\n      dup2\n        /* \"#utility.yul\":1117:1121   */\n      dup2\n        /* \"#utility.yul\":1113:1133   */\n      sub\n        /* \"#utility.yul\":1109:1110   */\n      0x00\n        /* \"#utility.yul\":1098:1107   */\n      dup4\n        /* \"#utility.yul\":1094:1111   */\n      add\n        /* \"#utility.yul\":1087:1134   */\n      mstore\n        /* \"#utility.yul\":1151:1229   */\n      tag_77\n        /* \"#utility.yul\":1224:1228   */\n      dup2\n        /* \"#utility.yul\":1215:1221   */\n      dup5\n        /* \"#utility.yul\":1151:1229   */\n      tag_33\n      jump\t// in\n    tag_77:\n        /* \"#utility.yul\":1143:1229   */\n      swap1\n      pop\n        /* \"#utility.yul\":923:1236   */\n      swap3\n      swap2\n      pop\n      pop\n      jump\t// out\n        /* \"#utility.yul\":1242:1317   */\n    tag_34:\n        /* \"#utility.yul\":1275:1281   */\n      0x00\n        /* \"#utility.yul\":1308:1310   */\n      0x40\n        /* \"#utility.yul\":1302:1311   */\n      mload\n        /* \"#utility.yul\":1292:1311   */\n      swap1\n      pop\n        /* \"#utility.yul\":1242:1317   */\n      swap1\n      jump\t// out\n        /* \"#utility.yul\":1323:1440   */\n    tag_35:\n        /* \"#utility.yul\":1432:1433   */\n      0x00\n        /* \"#utility.yul\":1429:1430   */\n      0x00\n        /* \"#utility.yul\":1422:1434   */\n      revert\n        /* \"#utility.yul\":1446:1563   */\n    tag_36:\n        /* \"#utility.yul\":1555:1556   */\n      0x00\n        /* \"#utility.yul\":1552:1553   */\n      0x00\n        /* \"#utility.yul\":1545:1557   */\n      revert\n        /* \"#utility.yul\":1569:1686   */\n    tag_37:\n        /* \"#utility.yul\":1678:1679   */\n      0x00\n        /* \"#utility.yul\":1675:1676   */\n      0x00\n        /* \"#utility.yul\":1668:1680   */\n      revert\n        /* \"#utility.yul\":1692:1809   */\n    tag_38:\n        /* \"#utility.yul\":1801:1802   */\n      0x00\n        /* \"#utility.yul\":1798:1799   */\n      0x00\n        /* \"#utility.yul\":1791:1803   */\n      revert\n        /* \"#utility.yul\":1815:1995   */\n    tag_39:\n        /* \"#utility.yul\":1863:1940   */\n      0x4e487b7100000000000000000000000000000000000000000000000000000000\n        /* \"#utility.yul\":1860:1861   */\n      0x00\n        /* \"#utility.yul\":1853:1941   */\n      mstore\n        /* \"#utility.yul\":1960:1964   */\n      0x41\n        /* \"#utility.yul\":1957:1958   */\n      0x04\n        /* \"#utility.yul\":1950:1965   */\n      mstore\n        /* \"#utility.yul\":1984:1988   */\n      0x24\n        /* \"#utility.yul\":1981:1982   */\n      0x00\n        /* \"#utility.yul\":1974:1989   */\n      revert\n        /* \"#utility.yul\":2001:2282   */\n    tag_40:\n        /* \"#utility.yul\":2084:2111   */\n      tag_85\n        /* \"#utility.yul\":2106:2110   */\n      dup3\n        /* \"#utility.yul\":2084:2111   */\n      tag_32\n      jump\t// in\n    tag_85:\n        /* \"#utility.yul\":2076:2082   */\n      dup2\n        /* \"#utility.yul\":2072:2112   */\n      add\n        /* \"#utility.yul\":2214:2220   */\n      dup2\n        /* \"#utility.yul\":2202:2212   */\n      dup2\n        /* \"#utility.yul\":2199:2221   */\n      lt\n        /* \"#utility.yul\":2178:2196   */\n      0xffffffffffffffff\n        /* \"#utility.yul\":2166:2176   */\n      dup3\n        /* \"#utility.yul\":2163:2197   */\n      gt\n        /* \"#utility.yul\":2160:2222   */\n      or\n        /* \"#utility.yul\":2157:2245   */\n      iszero\n      tag_86\n      jumpi\n        /* \"#utility.yul\":2225:2243   */\n      tag_87\n      tag_39\n      jump\t// in\n    tag_87:\n        /* \"#utility.yul\":2157:2245   */\n    tag_86:\n        /* \"#utility.yul\":2265:2275   */\n      dup1\n        /* \"#utility.yul\":2261:2263   */\n      0x40\n        /* \"#utility.yul\":2254:2276   */\n      mstore\n        /* \"#utility.yul\":2044:2282   */\n      pop\n        /* \"#utility.yul\":2001:2282   */\n      pop\n      pop\n      jump\t// out\n        /* \"#utility.yul\":2288:2417   */\n    tag_41:\n        /* \"#utility.yul\":2322:2328   */\n      0x00\n        /* \"#utility.yul\":2349:2369   */\n      tag_89\n      tag_34\n      jump\t// in\n    tag_89:\n        /* \"#utility.yul\":2339:2369   */\n      swap1\n      pop\n        /* \"#utility.yul\":2378:2411   */\n      tag_90\n        /* \"#utility.yul\":2406:2410   */\n      dup3\n        /* \"#utility.yul\":2398:2404   */\n      dup3\n        /* \"#utility.yul\":2378:2411   */\n      tag_40\n      jump\t// in\n    tag_90:\n        /* \"#utility.yul\":2288:2417   */\n      swap2\n      swap1\n      pop\n      jump\t// out\n        /* \"#utility.yul\":2423:2731   */\n    tag_42:\n        /* \"#utility.yul\":2485:2489   */\n      0x00\n        /* \"#utility.yul\":2575:2593   */\n      0xffffffffffffffff\n        /* \"#utility.yul\":2567:2573   */\n      dup3\n        /* \"#utility.yul\":2564:2594   */\n      gt\n        /* \"#utility.yul\":2561:2617   */\n      iszero\n      tag_92\n      jumpi\n        /* \"#utility.yul\":2597:2615   */\n      tag_93\n      tag_39\n      jump\t// in\n    tag_93:\n        /* \"#utility.yul\":2561:2617   */\n    tag_92:\n        /* \"#utility.yul\":2635:2664   */\n      tag_94\n        /* \"#utility.yul\":2657:2663   */\n      dup3\n        /* \"#utility.yul\":2635:2664   */\n      tag_32\n      jump\t// in\n    tag_94:\n        /* \"#utility.yul\":2627:2664   */\n      swap1\n      pop\n        /* \"#utility.yul\":2719:2723   */\n      0x20\n        /* \"#utility.yul\":2713:2717   */\n      dup2\n        /* \"#utility.yul\":2709:2724   */\n      add\n        /* \"#utility.yul\":2701:2724   */\n      swap1\n      pop\n        /* \"#utility.yul\":2423:2731   */\n      swap2\n      swap1\n      pop\n      jump\t// out\n        /* \"#utility.yul\":2737:2885   */\n    tag_43:\n        /* \"#utility.yul\":2835:2841   */\n      dup3\n        /* \"#utility.yul\":2830:2833   */\n      dup2\n        /* \"#utility.yul\":2825:2828   */\n      dup4\n        /* \"#utility.yul\":2812:2842   */\n      calldatacopy\n        /* \"#utility.yul\":2876:2877   */\n      0x00\n        /* \"#utility.yul\":2867:2873   */\n      dup4\n        /* \"#utility.yul\":2862:2865   */\n      dup4\n        /* \"#utility.yul\":2858:2874   */\n      add\n        /* \"#utility.yul\":2851:2878   */\n      mstore\n        /* \"#utility.yul\":2737:2885   */\n      pop\n      pop\n      pop\n      jump\t// out\n        /* \"#utility.yul\":2891:3316   */\n    tag_44:\n        /* \"#utility.yul\":2969:2974   */\n      0x00\n        /* \"#utility.yul\":2994:3060   */\n      tag_97\n        /* \"#utility.yul\":3010:3059   */\n      tag_98\n        /* \"#utility.yul\":3052:3058   */\n      dup5\n        /* \"#utility.yul\":3010:3059   */\n      tag_42\n      jump\t// in\n    tag_98:\n        /* \"#utility.yul\":2994:3060   */\n      tag_41\n      jump\t// in\n    tag_97:\n        /* \"#utility.yul\":2985:3060   */\n      swap1\n      pop\n        /* \"#utility.yul\":3083:3089   */\n      dup3\n        /* \"#utility.yul\":3076:3081   */\n      dup2\n        /* \"#utility.yul\":3069:3090   */\n      mstore\n        /* \"#utility.yul\":3121:3125   */\n      0x20\n        /* \"#utility.yul\":3114:3119   */\n      dup2\n        /* \"#utility.yul\":3110:3126   */\n      add\n        /* \"#utility.yul\":3159:3162   */\n      dup5\n        /* \"#utility.yul\":3150:3156   */\n      dup5\n        /* \"#utility.yul\":3145:3148   */\n      dup5\n        /* \"#utility.yul\":3141:3157   */\n      add\n        /* \"#utility.yul\":3138:3163   */\n      gt\n        /* \"#utility.yul\":3135:3247   */\n      iszero\n      tag_99\n      jumpi\n        /* \"#utility.yul\":3166:3245   */\n      tag_100\n      tag_38\n      jump\t// in\n    tag_100:\n        /* \"#utility.yul\":3135:3247   */\n    tag_99:\n        /* \"#utility.yul\":3256:3310   */\n      tag_101\n        /* \"#utility.yul\":3303:3309   */\n      dup5\n        /* \"#utility.yul\":3298:3301   */\n      dup3\n        /* \"#utility.yul\":3293:3296   */\n      dup6\n        /* \"#utility.yul\":3256:3310   */\n      tag_43\n      jump\t// in\n    tag_101:\n        /* \"#utility.yul\":2975:3316   */\n      pop\n        /* \"#utility.yul\":2891:3316   */\n      swap4\n      swap3\n      pop\n      pop\n      pop\n      jump\t// out\n        /* \"#utility.yul\":3336:3676   */\n    tag_45:\n        /* \"#utility.yul\":3392:3397   */\n      0x00\n        /* \"#utility.yul\":3441:3444   */\n      dup3\n        /* \"#utility.yul\":3434:3438   */\n      0x1f\n        /* \"#utility.yul\":3426:3432   */\n      dup4\n        /* \"#utility.yul\":3422:3439   */\n      add\n        /* \"#utility.yul\":3418:3445   */\n      slt\n        /* \"#utility.yul\":3408:3530   */\n      tag_103\n      jumpi\n        /* \"#utility.yul\":3449:3528   */\n      tag_104\n      tag_37\n      jump\t// in\n    tag_104:\n        /* \"#utility.yul\":3408:3530   */\n    tag_103:\n        /* \"#utility.yul\":3566:3572   */\n      dup2\n        /* \"#utility.yul\":3553:3573   */\n      calldataload\n        /* \"#utility.yul\":3591:3670   */\n      tag_105\n        /* \"#utility.yul\":3666:3669   */\n      dup5\n        /* \"#utility.yul\":3658:3664   */\n      dup3\n        /* \"#utility.yul\":3651:3655   */\n      0x20\n        /* \"#utility.yul\":3643:3649   */\n      dup7\n        /* \"#utility.yul\":3639:3656   */\n      add\n        /* \"#utility.yul\":3591:3670   */\n      tag_44\n      jump\t// in\n    tag_105:\n        /* \"#utility.yul\":3582:3670   */\n      swap2\n      pop\n        /* \"#utility.yul\":3398:3676   */\n      pop\n        /* \"#utility.yul\":3336:3676   */\n      swap3\n      swap2\n      pop\n      pop\n      jump\t// out\n        /* \"#utility.yul\":3682:4191   */\n    tag_12:\n        /* \"#utility.yul\":3751:3757   */\n      0x00\n        /* \"#utility.yul\":3800:3802   */\n      0x20\n        /* \"#utility.yul\":3788:3797   */\n      dup3\n        /* \"#utility.yul\":3779:3786   */\n      dup5\n        /* \"#utility.yul\":3775:3798   */\n      sub\n        /* \"#utility.yul\":3771:3803   */\n      slt\n        /* \"#utility.yul\":3768:3887   */\n      iszero\n      tag_107\n      jumpi\n        /* \"#utility.yul\":3806:3885   */\n      tag_108\n      tag_35\n      jump\t// in\n    tag_108:\n        /* \"#utility.yul\":3768:3887   */\n    tag_107:\n        /* \"#utility.yul\":3954:3955   */\n      0x00\n        /* \"#utility.yul\":3943:3952   */\n      dup3\n        /* \"#utility.yul\":3939:3956   */\n      add\n        /* \"#utility.yul\":3926:3957   */\n      calldataload\n        /* \"#utility.yul\":3984:4002   */\n      0xffffffffffffffff\n        /* \"#utility.yul\":3976:3982   */\n      dup2\n        /* \"#utility.yul\":3973:4003   */\n      gt\n        /* \"#utility.yul\":3970:4087   */\n      iszero\n      tag_109\n      jumpi\n        /* \"#utility.yul\":4006:4085   */\n      tag_110\n      tag_36\n      jump\t// in\n    tag_110:\n        /* \"#utility.yul\":3970:4087   */\n    tag_109:\n        /* \"#utility.yul\":4111:4174   */\n      tag_111\n        /* \"#utility.yul\":4166:4173   */\n      dup5\n        /* \"#utility.yul\":4157:4163   */\n      dup3\n        /* \"#utility.yul\":4146:4155   */\n      dup6\n        /* \"#utility.yul\":4142:4164   */\n      add\n        /* \"#utility.yul\":4111:4174   */\n      tag_45\n      jump\t// in\n    tag_111:\n        /* \"#utility.yul\":4101:4174   */\n      swap2\n      pop\n        /* \"#utility.yul\":3897:4184   */\n      pop\n        /* \"#utility.yul\":3682:4191   */\n      swap3\n      swap2\n      pop\n      pop\n      jump\t// out\n        /* \"#utility.yul\":4197:4377   */\n    tag_46:\n        /* \"#utility.yul\":4245:4322   */\n      0x4e487b7100000000000000000000000000000000000000000000000000000000\n        /* \"#utility.yul\":4242:4243   */\n      0x00\n        /* \"#utility.yul\":4235:4323   */\n      mstore\n        /* \"#utility.yul\":4342:4346   */\n      0x22\n        /* \"#utility.yul\":4339:4340   */\n      0x04\n        /* \"#utility.yul\":4332:4347   */\n      mstore\n        /* \"#utility.yul\":4366:4370   */\n      0x24\n        /* \"#utility.yul\":4363:4364   */\n      0x00\n        /* \"#utility.yul\":4356:4371   */\n      revert\n        /* \"#utility.yul\":4383:4703   */\n    tag_18:\n        /* \"#utility.yul\":4427:4433   */\n      0x00\n        /* \"#utility.yul\":4464:4465   */\n      0x02\n        /* \"#utility.yul\":4458:4462   */\n      dup3\n        /* \"#utility.yul\":4454:4466   */\n      div\n        /* \"#utility.yul\":4444:4466   */\n      swap1\n      pop\n        /* \"#utility.yul\":4511:4512   */\n      0x01\n        /* \"#utility.yul\":4505:4509   */\n      dup3\n        /* \"#utility.yul\":4501:4513   */\n      and\n        /* \"#utility.yul\":4532:4550   */\n      dup1\n        /* \"#utility.yul\":4522:4603   */\n      tag_114\n      jumpi\n        /* \"#utility.yul\":4588:4592   */\n      0x7f\n        /* \"#utility.yul\":4580:4586   */\n      dup3\n        /* \"#utility.yul\":4576:4593   */\n      and\n        /* \"#utility.yul\":4566:4593   */\n      swap2\n      pop\n        /* \"#utility.yul\":4522:4603   */\n    tag_114:\n        /* \"#utility.yul\":4650:4652   */\n      0x20\n        /* \"#utility.yul\":4642:4648   */\n      dup3\n        /* \"#utility.yul\":4639:4653   */\n      lt\n        /* \"#utility.yul\":4619:4637   */\n      dup2\n        /* \"#utility.yul\":4616:4654   */\n      sub\n        /* \"#utility.yul\":4613:4697   */\n      tag_115\n      jumpi\n        /* \"#utility.yul\":4669:4687   */\n      tag_116\n      tag_46\n      jump\t// in\n    tag_116:\n        /* \"#utility.yul\":4613:4697   */\n    tag_115:\n        /* \"#utility.yul\":4434:4703   */\n      pop\n        /* \"#utility.yul\":4383:4703   */\n      swap2\n      swap1\n      pop\n      jump\t// out\n        /* \"#utility.yul\":4709:4850   */\n    tag_47:\n        /* \"#utility.yul\":4758:4762   */\n      0x00\n        /* \"#utility.yul\":4781:4784   */\n      dup2\n        /* \"#utility.yul\":4773:4784   */\n      swap1\n      pop\n        /* \"#utility.yul\":4804:4807   */\n      dup2\n        /* \"#utility.yul\":4801:4802   */\n      0x00\n        /* \"#utility.yul\":4794:4808   */\n      mstore\n        /* \"#utility.yul\":4838:4842   */\n      0x20\n        /* \"#utility.yul\":4835:4836   */\n      0x00\n        /* \"#utility.yul\":4825:4843   */\n      keccak256\n        /* \"#utility.yul\":4817:4843   */\n      swap1\n      pop\n        /* \"#utility.yul\":4709:4850   */\n      swap2\n      swap1\n      pop\n      jump\t// out\n        /* \"#utility.yul\":4856:4949   */\n    tag_48:\n        /* \"#utility.yul\":4893:4899   */\n      0x00\n        /* \"#utility.yul\":4940:4942   */\n      0x20\n        /* \"#utility.yul\":4935:4937   */\n      0x1f\n        /* \"#utility.yul\":4928:4933   */\n      dup4\n        /* \"#utility.yul\":4924:4938   */\n      add\n        /* \"#utility.yul\":4920:4943   */\n      div\n        /* \"#utility.yul\":4910:4943   */\n      swap1\n      pop\n        /* \"#utility.yul\":4856:4949   */\n      swap2\n      swap1\n      pop\n      jump\t// out\n        /* \"#utility.yul\":4955:5062   */\n    tag_49:\n        /* \"#utility.yul\":4999:5007   */\n      0x00\n        /* \"#utility.yul\":5049:5054   */\n      dup3\n        /* \"#utility.yul\":5043:5047   */\n      dup3\n        /* \"#utility.yul\":5039:5055   */\n      shl\n        /* \"#utility.yul\":5018:5055   */\n      swap1\n      pop\n        /* \"#utility.yul\":4955:5062   */\n      swap3\n      swap2\n      pop\n      pop\n      jump\t// out\n        /* \"#utility.yul\":5068:5461   */\n    tag_50:\n        /* \"#utility.yul\":5137:5143   */\n      0x00\n        /* \"#utility.yul\":5187:5188   */\n      0x08\n        /* \"#utility.yul\":5175:5185   */\n      dup4\n        /* \"#utility.yul\":5171:5189   */\n      mul\n        /* \"#utility.yul\":5210:5307   */\n      tag_121\n        /* \"#utility.yul\":5240:5306   */\n      0xffffffffffffffffffffffffffffffffffffffffffffffffffffffffffffffff\n        /* \"#utility.yul\":5229:5238   */\n      dup3\n        /* \"#utility.yul\":5210:5307   */\n      tag_49\n      jump\t// in\n    tag_121:\n        /* \"#utility.yul\":5328:5367   */\n      tag_122\n        /* \"#utility.yul\":5358:5366   */\n      dup7\n        /* \"#utility.yul\":5347:5356   */\n      dup4\n        /* \"#utility.yul\":5328:5367   */\n      tag_49\n      jump\t// in\n    tag_122:\n        /* \"#utility.yul\":5316:5367   */\n      swap6\n      pop\n        /* \"#utility.yul\":5400:5404   */\n      dup1\n        /* \"#utility.yul\":5396:5405   */\n      not\n        /* \"#utility.yul\":5389:5394   */\n      dup5\n        /* \"#utility.yul\":5385:5406   */\n      and\n        /* \"#utility.yul\":5376:5406   */\n      swap4\n      pop\n        /* \"#utility.yul\":5449:5453   */\n      dup1\n        /* \"#utility.yul\":5439:5447   */\n      dup7\n        /* \"#utility.yul\":5435:5454   */\n      and\n        /* \"#utility.yul\":5428:5433   */\n      dup5\n        /* \"#utility.yul\":5425:5455   */\n      or\n        /* \"#utility.yul\":5415:5455   */\n      swap3\n      pop\n        /* \"#utility.yul\":5144:5461   */\n      pop\n      pop\n        /* \"#utility.yul\":5068:5461   */\n      swap4\n      swap3\n      pop\n      pop\n      pop\n      jump\t// out\n        /* \"#utility.yul\":5467:5544   */\n    tag_51:\n        /* \"#utility.yul\":5504:5511   */\n      0x00\n        /* \"#utility.yul\":5533:5538   */\n      dup2\n        /* \"#utility.yul\":5522:5538   */\n      swap1\n      pop\n        /* \"#utility.yul\":5467:5544   */\n      swap2\n      swap1\n      pop\n      jump\t// out\n        /* \"#utility.yul\":5550:5610   */\n    tag_52:\n        /* \"#utility.yul\":5578:5581   */\n      0x00\n        /* \"#utility.yul\":5599:5604   */\n      dup2\n        /* \"#utility.yul\":5592:5604   */\n      swap1\n      pop\n        /* \"#utility.yul\":5550:5610   */\n      swap2\n      swap1\n      pop\n      jump\t// out\n        /* \"#utility.yul\":5616:5758   */\n    tag_53:\n        /* \"#utility.yul\":5666:5675   */\n      0x00\n        /* \"#utility.yul\":5699:5752   */\n      tag_126\n        /* \"#utility.yul\":5717:5751   */\n      tag_127\n        /* \"#utility.yul\":5726:5750   */\n      tag_128\n        /* \"#utility.yul\":5744:5749   */\n      dup5\n        /* \"#utility.yul\":5726:5750   */\n      tag_51\n      jump\t// in\n    tag_128:\n        /* \"#utility.yul\":5717:5751   */\n      tag_52\n      jump\t// in\n    tag_127:\n        /* \"#utility.yul\":5699:5752   */\n      tag_51\n      jump\t// in\n    tag_126:\n        /* \"#utility.yul\":5686:5752   */\n      swap1\n      pop\n        /* \"#utility.yul\":5616:5758   */\n      swap2\n      swap1\n      pop\n      jump\t// out\n        /* \"#utility.yul\":5764:5839   */\n    tag_54:\n        /* \"#utility.yul\":5807:5810   */\n      0x00\n        /* \"#utility.yul\":5828:5833   */\n      dup2\n        /* \"#utility.yul\":5821:5833   */\n      swap1\n      pop\n        /* \"#utility.yul\":5764:5839   */\n      swap2\n      swap1\n      pop\n      jump\t// out\n        /* \"#utility.yul\":5845:6114   */\n    tag_55:\n        /* \"#utility.yul\":5955:5994   */\n      tag_131\n        /* \"#utility.yul\":5986:5993   */\n      dup4\n        /* \"#utility.yul\":5955:5994   */\n      tag_53\n      jump\t// in\n    tag_131:\n        /* \"#utility.yul\":6016:6107   */\n      tag_132\n        /* \"#utility.yul\":6065:6106   */\n      tag_133\n        /* \"#utility.yul\":6089:6105   */\n      dup3\n        /* \"#utility.yul\":6065:6106   */\n      tag_54\n      jump\t// in\n    tag_133:\n        /* \"#utility.yul\":6057:6063   */\n      dup5\n        /* \"#utility.yul\":6050:6054   */\n      dup5\n        /* \"#utility.yul\":6044:6055   */\n      sload\n        /* \"#utility.yul\":6016:6107   */\n      tag_50\n      jump\t// in\n    tag_132:\n        /* \"#utility.yul\":6010:6014   */\n      dup3\n        /* \"#utility.yul\":6003:6108   */\n      sstore\n        /* \"#utility.yul\":5921:6114   */\n      pop\n        /* \"#utility.yul\":5845:6114   */\n      pop\n      pop\n      pop\n      jump\t// out\n        /* \"#utility.yul\":6120:6193   */\n    tag_56:\n        /* \"#utility.yul\":6165:6168   */\n      0x00\n        /* \"#utility.yul\":6186:6187   */\n      0x00\n        /* \"#utility.yul\":6179:6187   */\n      swap1\n      pop\n        /* \"#utility.yul\":6120:6193   */\n      swap1\n      jump\t// out\n        /* \"#utility.yul\":6199:6388   */\n    tag_57:\n        /* \"#utility.yul\":6276:6308   */\n      tag_136\n      tag_56\n      jump\t// in\n    tag_136:\n        /* \"#utility.yul\":6317:6382   */\n      tag_137\n        /* \"#utility.yul\":6375:6381   */\n      dup2\n        /* \"#utility.yul\":6367:6373   */\n      dup5\n        /* \"#utility.yul\":6361:6365   */\n      dup5\n        /* \"#utility.yul\":6317:6382   */\n      tag_55\n      jump\t// in\n    tag_137:\n        /* \"#utility.yul\":6252:6388   */\n      pop\n        /* \"#utility.yul\":6199:6388   */\n      pop\n      pop\n      jump\t// out\n        /* \"#utility.yul\":6394:6608   */\n    tag_58:\n        /* \"#utility.yul\":6479:6480   */\n      0x00\n        /* \"#utility.yul\":6464:6602   */\n    tag_139:\n        /* \"#utility.yul\":6489:6498   */\n      dup3\n        /* \"#utility.yul\":6486:6487   */\n      dup2\n        /* \"#utility.yul\":6483:6499   */\n      lt\n        /* \"#utility.yul\":6464:6602   */\n      iszero\n      tag_141\n      jumpi\n        /* \"#utility.yul\":6541:6592   */\n      tag_142\n        /* \"#utility.yul\":6590:6591   */\n      0x00\n        /* \"#utility.yul\":6586:6587   */\n      dup3\n        /* \"#utility.yul\":6575:6584   */\n      dup5\n        /* \"#utility.yul\":6571:6588   */\n      add\n        /* \"#utility.yul\":6541:6592   */\n      tag_57\n      jump\t// in\n    tag_142:\n        /* \"#utility.yul\":6514:6515   */\n      0x01\n        /* \"#utility.yul\":6511:6512   */\n      dup2\n        /* \"#utility.yul\":6507:6516   */\n      add\n        /* \"#utility.yul\":6502:6516   */\n      swap1\n      pop\n        /* \"#utility.yul\":6464:6602   */\n      jump(tag_139)\n    tag_141:\n        /* \"#utility.yul\":6468:6482   */\n      pop\n        /* \"#utility.yul\":6394:6608   */\n      pop\n      pop\n      jump\t// out\n        /* \"#utility.yul\":6614:7360   */\n    tag_59:\n        /* \"#utility.yul\":6715:6717   */\n      0x1f\n        /* \"#utility.yul\":6710:6713   */\n      dup3\n        /* \"#utility.yul\":6707:6718   */\n      gt\n        /* \"#utility.yul\":6704:7353   */\n      iszero\n      tag_144\n      jumpi\n        /* \"#utility.yul\":6744:6754   */\n      dup3\n        /* \"#utility.yul\":6739:6742   */\n      dup3\n        /* \"#utility.yul\":6736:6755   */\n      gt\n        /* \"#utility.yul\":6733:7343   */\n      iszero\n      tag_145\n      jumpi\n        /* \"#utility.yul\":6790:6828   */\n      tag_146\n        /* \"#utility.yul\":6822:6827   */\n      dup2\n        /* \"#utility.yul\":6790:6828   */\n      tag_47\n      jump\t// in\n    tag_146:\n        /* \"#utility.yul\":6865:6887   */\n      tag_147\n        /* \"#utility.yul\":6883:6886   */\n      dup4\n        /* \"#utility.yul\":6865:6887   */\n      tag_48\n      jump\t// in\n    tag_147:\n        /* \"#utility.yul\":6924:6953   */\n      tag_148\n        /* \"#utility.yul\":6942:6952   */\n      dup6\n        /* \"#utility.yul\":6924:6953   */\n      tag_48\n      jump\t// in\n    tag_148:\n        /* \"#utility.yul\":7114:7116   */\n      0x20\n        /* \"#utility.yul\":7102:7112   */\n      dup7\n        /* \"#utility.yul\":7099:7117   */\n      lt\n        /* \"#utility.yul\":7096:7175   */\n      iszero\n      tag_149\n      jumpi\n        /* \"#utility.yul\":7156:7157   */\n      0x00\n        /* \"#utility.yul\":7140:7157   */\n      swap1\n      pop\n        /* \"#utility.yul\":7096:7175   */\n    tag_149:\n        /* \"#utility.yul\":7225:7237   */\n      dup1\n        /* \"#utility.yul\":7215:7223   */\n      dup4\n        /* \"#utility.yul\":7211:7238   */\n      add\n        /* \"#utility.yul\":7255:7329   */\n      tag_150\n        /* \"#utility.yul\":7315:7327   */\n      dup3\n        /* \"#utility.yul\":7301:7313   */\n      dup5\n        /* \"#utility.yul\":7297:7328   */\n      sub\n        /* \"#utility.yul\":7284:7295   */\n      dup3\n        /* \"#utility.yul\":7255:7329   */\n      tag_58\n      jump\t// in\n    tag_150:\n        /* \"#utility.yul\":6756:7343   */\n      pop\n      pop\n      pop\n      pop\n        /* \"#utility.yul\":6733:7343   */\n    tag_145:\n        /* \"#utility.yul\":6704:7353   */\n    tag_144:\n        /* \"#utility.yul\":6614:7360   */\n      pop\n      pop\n      pop\n      jump\t// out\n        /* \"#utility.yul\":7366:7483   */\n    tag_60:\n        /* \"#utility.yul\":7420:7428   */\n      0x00\n        /* \"#utility.yul\":7470:7475   */\n      dup3\n        /* \"#utility.yul\":7464:7468   */\n      dup3\n        /* \"#utility.yul\":7460:7476   */\n      shr\n        /* \"#utility.yul\":7439:7476   */\n      swap1\n      pop\n        /* \"#utility.yul\":7366:7483   */\n      swap3\n      swap2\n      pop\n      pop\n      jump\t// out\n        /* \"#utility.yul\":7489:7658   */\n    tag_61:\n        /* \"#utility.yul\":7533:7539   */\n      0x00\n        /* \"#utility.yul\":7566:7617   */\n      tag_153\n        /* \"#utility.yul\":7614:7615   */\n      0x00\n        /* \"#utility.yul\":7610:7616   */\n      not\n        /* \"#utility.yul\":7602:7607   */\n      dup5\n        /* \"#utility.yul\":7599:7600   */\n      0x08\n        /* \"#utility.yul\":7595:7608   */\n      mul\n        /* \"#utility.yul\":7566:7617   */\n      tag_60\n      jump\t// in\n    tag_153:\n        /* \"#utility.yul\":7562:7618   */\n      not\n        /* \"#utility.yul\":7647:7651   */\n      dup1\n        /* \"#utility.yul\":7641:7645   */\n      dup4\n        /* \"#utility.yul\":7637:7652   */\n      and\n        /* \"#utility.yul\":7627:7652   */\n      swap2\n      pop\n        /* \"#utility.yul\":7540:7658   */\n      pop\n        /* \"#utility.yul\":7489:7658   */\n      swap3\n      swap2\n      pop\n      pop\n      jump\t// out\n        /* \"#utility.yul\":7663:7958   */\n    tag_62:\n        /* \"#utility.yul\":7739:7743   */\n      0x00\n        /* \"#utility.yul\":7885:7914   */\n      tag_155\n        /* \"#utility.yul\":7910:7913   */\n      dup4\n        /* \"#utility.yul\":7904:7908   */\n      dup4\n        /* \"#utility.yul\":7885:7914   */\n      tag_61\n      jump\t// in\n    tag_155:\n        /* \"#utility.yul\":7877:7914   */\n      swap2\n      pop\n        /* \"#utility.yul\":7947:7950   */\n      dup3\n        /* \"#utility.yul\":7944:7945   */\n      0x02\n        /* \"#utility.yul\":7940:7951   */\n      mul\n        /* \"#utility.yul\":7934:7938   */\n      dup3\n        /* \"#utility.yul\":7931:7952   */\n      or\n        /* \"#utility.yul\":7923:7952   */\n      swap1\n      pop\n        /* \"#utility.yul\":7663:7958   */\n      swap3\n      swap2\n      pop\n      pop\n      jump\t// out\n        /* \"#utility.yul\":7963:9358   */\n    tag_25:\n        /* \"#utility.yul\":8080:8117   */\n      tag_157\n        /* \"#utility.yul\":8113:8116   */\n      dup3\n        /* \"#utility.yul\":8080:8117   */\n      tag_29\n      jump\t// in\n    tag_157:\n        /* \"#utility.yul\":8182:8200   */\n      0xffffffffffffffff\n        /* \"#utility.yul\":8174:8180   */\n      dup2\n        /* \"#utility.yul\":8171:8201   */\n      gt\n        /* \"#utility.yul\":8168:8224   */\n      iszero\n      tag_158\n      jumpi\n        /* \"#utility.yul\":8204:8222   */\n      tag_159\n      tag_39\n      jump\t// in\n    tag_159:\n        /* \"#utility.yul\":8168:8224   */\n    tag_158:\n        /* \"#utility.yul\":8248:8286   */\n      tag_160\n        /* \"#utility.yul\":8280:8284   */\n      dup3\n        /* \"#utility.yul\":8274:8285   */\n      sload\n        /* \"#utility.yul\":8248:8286   */\n      tag_18\n      jump\t// in\n    tag_160:\n        /* \"#utility.yul\":8333:8400   */\n      tag_161\n        /* \"#utility.yul\":8393:8399   */\n      dup3\n        /* \"#utility.yul\":8385:8391   */\n      dup3\n        /* \"#utility.yul\":8379:8383   */\n      dup6\n        /* \"#utility.yul\":8333:8400   */\n      tag_59\n      jump\t// in\n    tag_161:\n        /* \"#utility.yul\":8427:8428   */\n      0x00\n        /* \"#utility.yul\":8451:8455   */\n      0x20\n        /* \"#utility.yul\":8438:8455   */\n      swap1\n      pop\n        /* \"#utility.yul\":8483:8485   */\n      0x1f\n        /* \"#utility.yul\":8475:8481   */\n      dup4\n        /* \"#utility.yul\":8472:8486   */\n      gt\n        /* \"#utility.yul\":8500:8501   */\n      0x01\n        /* \"#utility.yul\":8495:9113   */\n      dup2\n      eq\n      tag_163\n      jumpi\n        /* \"#utility.yul\":9157:9158   */\n      0x00\n        /* \"#utility.yul\":9174:9180   */\n      dup5\n        /* \"#utility.yul\":9171:9248   */\n      iszero\n      tag_164\n      jumpi\n        /* \"#utility.yul\":9223:9232   */\n      dup3\n        /* \"#utility.yul\":9218:9221   */\n      dup8\n        /* \"#utility.yul\":9214:9233   */\n      add\n        /* \"#utility.yul\":9208:9234   */\n      mload\n        /* \"#utility.yul\":9199:9234   */\n      swap1\n      pop\n        /* \"#utility.yul\":9171:9248   */\n    tag_164:\n        /* \"#utility.yul\":9274:9341   */\n      tag_165\n        /* \"#utility.yul\":9334:9340   */\n      dup6\n        /* \"#utility.yul\":9327:9332   */\n      dup3\n        /* \"#utility.yul\":9274:9341   */\n      tag_62\n      jump\t// in\n    tag_165:\n        /* \"#utility.yul\":9268:9272   */\n      dup7\n        /* \"#utility.yul\":9261:9342   */\n      sstore\n        /* \"#utility.yul\":9130:9352   */\n      pop\n        /* \"#utility.yul\":8465:9352   */\n      jump(tag_162)\n        /* \"#utility.yul\":8495:9113   */\n    tag_163:\n        /* \"#utility.yul\":8547:8551   */\n      0x1f\n        /* \"#utility.yul\":8543:8552   */\n      not\n        /* \"#utility.yul\":8535:8541   */\n      dup5\n        /* \"#utility.yul\":8531:8553   */\n      and\n        /* \"#utility.yul\":8581:8618   */\n      tag_166\n        /* \"#utility.yul\":8613:8617   */\n      dup7\n        /* \"#utility.yul\":8581:8618   */\n      tag_47\n      jump\t// in\n    tag_166:\n        /* \"#utility.yul\":8640:8641   */\n      0x00\n        /* \"#utility.yul\":8654:8862   */\n    tag_167:\n        /* \"#utility.yul\":8668:8675   */\n      dup3\n        /* \"#utility.yul\":8665:8666   */\n      dup2\n        /* \"#utility.yul\":8662:8676   */\n      lt\n        /* \"#utility.yul\":8654:8862   */\n      iszero\n      tag_169\n      jumpi\n        /* \"#utility.yul\":8747:8756   */\n      dup5\n        /* \"#utility.yul\":8742:8745   */\n      dup10\n        /* \"#utility.yul\":8738:8757   */\n      add\n        /* \"#utility.yul\":8732:8758   */\n      mload\n        /* \"#utility.yul\":8724:8730   */\n      dup3\n        /* \"#utility.yul\":8717:8759   */\n      sstore\n        /* \"#utility.yul\":8798:8799   */\n      0x01\n        /* \"#utility.yul\":8790:8796   */\n      dup3\n        /* \"#utility.yul\":8786:8800   */\n      add\n        /* \"#utility.yul\":8776:8800   */\n      swap2\n      pop\n        /* \"#utility.yul\":8845:8847   */\n      0x20\n        /* \"#utility.yul\":8834:8843   */\n      dup6\n        /* \"#utility.yul\":8830:8848   */\n      add\n        /* \"#utility.yul\":8817:8848   */\n      swap5\n      pop\n        /* \"#utility.yul\":8691:8695   */\n      0x20\n        /* \"#utility.yul\":8688:8689   */\n      dup2\n        /* \"#utility.yul\":8684:8696   */\n      add\n        /* \"#utility.yul\":8679:8696   */\n      swap1\n      pop\n        /* \"#utility.yul\":8654:8862   */\n      jump(tag_167)\n    tag_169:\n        /* \"#utility.yul\":8890:8896   */\n      dup7\n        /* \"#utility.yul\":8881:8888   */\n      dup4\n        /* \"#utility.yul\":8878:8897   */\n      lt\n        /* \"#utility.yul\":8875:9054   */\n      iszero\n      tag_170\n      jumpi\n        /* \"#utility.yul\":8948:8957   */\n      dup5\n        /* \"#utility.yul\":8943:8946   */\n      dup10\n        /* \"#utility.yul\":8939:8958   */\n      add\n        /* \"#utility.yul\":8933:8959   */\n      mload\n        /* \"#utility.yul\":8991:9039   */\n      tag_171\n        /* \"#utility.yul\":9033:9037   */\n      0x1f\n        /* \"#utility.yul\":9025:9031   */\n      dup10\n        /* \"#utility.yul\":9021:9038   */\n      and\n        /* \"#utility.yul\":9010:9019   */\n      dup3\n        /* \"#utility.yul\":8991:9039   */\n      tag_61\n      jump\t// in\n    tag_171:\n        /* \"#utility.yul\":8983:8989   */\n      dup4\n        /* \"#utility.yul\":8976:9040   */\n      sstore\n        /* \"#utility.yul\":8898:9054   */\n      pop\n        /* \"#utility.yul\":8875:9054   */\n    tag_170:\n        /* \"#utility.yul\":9100:9101   */\n      0x01\n        /* \"#utility.yul\":9096:9097   */\n      0x02\n        /* \"#utility.yul\":9088:9094   */\n      dup9\n        /* \"#utility.yul\":9084:9098   */\n      mul\n        /* \"#utility.yul\":9080:9102   */\n      add\n        /* \"#utility.yul\":9074:9078   */\n      dup9\n        /* \"#utility.yul\":9067:9103   */\n      sstore\n        /* \"#utility.yul\":8502:9113   */\n      pop\n      pop\n      pop\n        /* \"#utility.yul\":8465:9352   */\n    tag_162:\n      pop\n        /* \"#utility.yul\":8055:9358   */\n      pop\n      pop\n      pop\n        /* \"#utility.yul\":7963:9358   */\n      pop\n      pop\n      jump\t// out\n        /* \"#utility.yul\":9364:9547   */\n    tag_63:\n        /* \"#utility.yul\":9532:9540   */\n      0x48656c6c6f200000000000000000000000000000000000000000000000000000\n        /* \"#utility.yul\":9527:9530   */\n      dup2\n        /* \"#utility.yul\":9520:9541   */\n      mstore\n        /* \"#utility.yul\":9364:9547   */\n      pop\n      jump\t// out\n        /* \"#utility.yul\":9553:9701   */\n    tag_64:\n        /* \"#utility.yul\":9655:9666   */\n      0x00\n        /* \"#utility.yul\":9692:9695   */\n      dup2\n        /* \"#utility.yul\":9677:9695   */\n      swap1\n      pop\n        /* \"#utility.yul\":9553:9701   */\n      swap3\n      swap2\n      pop\n      pop\n      jump\t// out\n        /* \"#utility.yul\":9731:10605   */\n    tag_65:\n        /* \"#utility.yul\":9834:9837   */\n      0x00\n        /* \"#utility.yul\":9871:9876   */\n      dup2\n        /* \"#utility.yul\":9865:9877   */\n      sload\n        /* \"#utility.yul\":9900:9936   */\n      tag_175\n        /* \"#utility.yul\":9926:9935   */\n      dup2\n        /* \"#utility.yul\":9900:9936   */\n      tag_18\n      jump\t// in\n    tag_175:\n        /* \"#utility.yul\":9952:10041   */\n      tag_176\n        /* \"#utility.yul\":10034:10040   */\n      dup2\n        /* \"#utility.yul\":10029:10032   */\n      dup7\n        /* \"#utility.yul\":9952:10041   */\n      tag_64\n      jump\t// in\n    tag_176:\n        /* \"#utility.yul\":9945:10041   */\n      swap5\n      pop\n        /* \"#utility.yul\":10072:10073   */\n      0x01\n        /* \"#utility.yul\":10061:10070   */\n      dup3\n        /* \"#utility.yul\":10057:10074   */\n      and\n        /* \"#utility.yul\":10088:10089   */\n      0x00\n        /* \"#utility.yul\":10083:10249   */\n      dup2\n      eq\n      tag_178\n      jumpi\n        /* \"#utility.yul\":10263:10264   */\n      0x01\n        /* \"#utility.yul\":10258:10599   */\n      dup2\n      eq\n      tag_179\n      jumpi\n        /* \"#utility.yul\":10050:10599   */\n      jump(tag_177)\n        /* \"#utility.yul\":10083:10249   */\n    tag_178:\n        /* \"#utility.yul\":10167:10171   */\n      0xff\n        /* \"#utility.yul\":10163:10172   */\n      not\n        /* \"#utility.yul\":10152:10161   */\n      dup4\n        /* \"#utility.yul\":10148:10173   */\n      and\n        /* \"#utility.yul\":10143:10146   */\n      dup7\n        /* \"#utility.yul\":10136:10174   */\n      mstore\n        /* \"#utility.yul\":10229:10235   */\n      dup2\n        /* \"#utility.yul\":10222:10236   */\n      iszero\n        /* \"#utility.yul\":10215:10237   */\n      iszero\n        /* \"#utility.yul\":10207:10213   */\n      dup3\n        /* \"#utility.yul\":10203:10238   */\n      mul\n        /* \"#utility.yul\":10198:10201   */\n      dup7\n        /* \"#utility.yul\":10194:10239   */\n      add\n        /* \"#utility.yul\":10187:10239   */\n      swap4\n      pop\n        /* \"#utility.yul\":10083:10249   */\n      jump(tag_177)\n        /* \"#utility.yul\":10258:10599   */\n    tag_179:\n        /* \"#utility.yul\":10325:10363   */\n      tag_180\n        /* \"#utility.yul\":10357:10362   */\n      dup6\n        /* \"#utility.yul\":10325:10363   */\n      tag_47\n      jump\t// in\n    tag_180:\n        /* \"#utility.yul\":10385:10386   */\n      0x00\n        /* \"#utility.yul\":10399:10553   */\n    tag_181:\n        /* \"#utility.yul\":10413:10419   */\n      dup4\n        /* \"#utility.yul\":10410:10411   */\n      dup2\n        /* \"#utility.yul\":10407:10420   */\n      lt\n        /* \"#utility.yul\":10399:10553   */\n      iszero\n      tag_183\n      jumpi\n        /* \"#utility.yul\":10487:10494   */\n      dup2\n        /* \"#utility.yul\":10481:10495   */\n      sload\n        /* \"#utility.yul\":10477:10478   */\n      dup2\n        /* \"#utility.yul\":10472:10475   */\n      dup10\n        /* \"#utility.yul\":10468:10479   */\n      add\n        /* \"#utility.yul\":10461:10496   */\n      mstore\n        /* \"#utility.yul\":10537:10538   */\n      0x01\n        /* \"#utility.yul\":10528:10535   */\n      dup3\n        /* \"#utility.yul\":10524:10539   */\n      add\n        /* \"#utility.yul\":10513:10539   */\n      swap2\n      pop\n        /* \"#utility.yul\":10435:10439   */\n      0x20\n        /* \"#utility.yul\":10432:10433   */\n      dup2\n        /* \"#utility.yul\":10428:10440   */\n      add\n        /* \"#utility.yul\":10423:10440   */\n      swap1\n      pop\n        /* \"#utility.yul\":10399:10553   */\n      jump(tag_181)\n    tag_183:\n        /* \"#utility.yul\":10582:10588   */\n      dup4\n        /* \"#utility.yul\":10577:10580   */\n      dup9\n        /* \"#utility.yul\":10573:10589   */\n      add\n        /* \"#utility.yul\":10566:10589   */\n      swap6\n      pop\n        /* \"#utility.yul\":10265:10599   */\n      pop\n      pop\n        /* \"#utility.yul\":10050:10599   */\n    tag_177:\n      pop\n        /* \"#utility.yul\":9838:10605   */\n      pop\n      pop\n        /* \"#utility.yul\":9731:10605   */\n      swap3\n      swap2\n      pop\n      pop\n      jump\t// out\n        /* \"#utility.yul\":10611:11144   */\n    tag_28:\n        /* \"#utility.yul\":10830:10833   */\n      0x00\n        /* \"#utility.yul\":10845:10982   */\n      tag_185\n        /* \"#utility.yul\":10978:10981   */\n      dup3\n        /* \"#utility.yul\":10845:10982   */\n      tag_63\n      jump\t// in\n    tag_185:\n        /* \"#utility.yul\":11007:11008   */\n      0x06\n        /* \"#utility.yul\":11002:11005   */\n      dup3\n        /* \"#utility.yul\":10998:11009   */\n      add\n        /* \"#utility.yul\":10991:11009   */\n      swap2\n      pop\n        /* \"#utility.yul\":11026:11118   */\n      tag_186\n        /* \"#utility.yul\":11114:11117   */\n      dup3\n        /* \"#utility.yul\":11105:11111   */\n      dup5\n        /* \"#utility.yul\":11026:11118   */\n      tag_65\n      jump\t// in\n    tag_186:\n        /* \"#utility.yul\":11019:11118   */\n      swap2\n      pop\n        /* \"#utility.yul\":11135:11138   */\n      dup2\n        /* \"#utility.yul\":11128:11138   */\n      swap1\n      pop\n        /* \"#utility.yul\":10611:11144   */\n      swap3\n      swap2\n      pop\n      pop\n      jump\t// out\n\n    auxdata: 0xa264697066735822122088a7c8cd1faf193f120dca5d096e3b9dfb3f52ab462f33ae404f314f6462c99964736f6c63430008220033\n}\n",
				"bytecode": {
					"linkReferences": {},
					"object": "6080604052348015600e575f5ffd5b506107698061001c5f395ff3fe608060405234801561000f575f5ffd5b506004361061003f575f3560e01c806306fdde03146100435780634ed3885e146100615780636d4ce63c1461007d575b5f5ffd5b61004b61009b565b60405161005891906101d4565b60405180910390f35b61007b60048036038101906100769190610331565b610126565b005b610085610138565b60405161009291906101d4565b60405180910390f35b5f80546100a7906103a5565b80601f01602080910402602001604051908101604052809291908181526020018280546100d3906103a5565b801561011e5780601f106100f55761010080835404028352916020019161011e565b820191905f5260205f20905b81548152906001019060200180831161010157829003601f168201915b505050505081565b805f9081610134919061058f565b5050565b60605f5f60405160200161014c919061070e565b60405160208183030381529060405290508091505090565b5f81519050919050565b5f82825260208201905092915050565b8281835e5f83830152505050565b5f601f19601f8301169050919050565b5f6101a682610164565b6101b0818561016e565b93506101c081856020860161017e565b6101c98161018c565b840191505092915050565b5f6020820190508181035f8301526101ec818461019c565b905092915050565b5f604051905090565b5f5ffd5b5f5ffd5b5f5ffd5b5f5ffd5b7f4e487b71000000000000000000000000000000000000000000000000000000005f52604160045260245ffd5b6102438261018c565b810181811067ffffffffffffffff821117156102625761026161020d565b5b80604052505050565b5f6102746101f4565b9050610280828261023a565b919050565b5f67ffffffffffffffff82111561029f5761029e61020d565b5b6102a88261018c565b9050602081019050919050565b828183375f83830152505050565b5f6102d56102d084610285565b61026b565b9050828152602081018484840111156102f1576102f0610209565b5b6102fc8482856102b5565b509392505050565b5f82601f83011261031857610317610205565b5b81356103288482602086016102c3565b91505092915050565b5f60208284031215610346576103456101fd565b5b5f82013567ffffffffffffffff81111561036357610362610201565b5b61036f84828501610304565b91505092915050565b7f4e487b71000000000000000000000000000000000000000000000000000000005f52602260045260245ffd5b5f60028204905060018216806103bc57607f821691505b6020821081036103cf576103ce610378565b5b50919050565b5f819050815f5260205f209050919050565b5f6020601f8301049050919050565b5f82821b905092915050565b5f600883026104317fffffffffffffffffffffffffffffffffffffffffffffffffffffffffffffffff826103f6565b61043b86836103f6565b95508019841693508086168417925050509392505050565b5f819050919050565b5f819050919050565b5f61047f61047a61047584610453565b61045c565b610453565b9050919050565b5f819050919050565b61049883610465565b6104ac6104a482610486565b848454610402565b825550505050565b5f5f905090565b6104c36104b4565b6104ce81848461048f565b505050565b5f5b828110156104f4576104e95f8284016104bb565b6001810190506104d5565b505050565b601f821115610547578282111561054657610513816103d5565b61051c836103e7565b610525856103e7565b6020861015610532575f90505b808301610541828403826104d3565b505050505b5b505050565b5f82821c905092915050565b5f6105675f198460080261054c565b1980831691505092915050565b5f61057f8383610558565b9150826002028217905092915050565b61059882610164565b67ffffffffffffffff8111156105b1576105b061020d565b5b6105bb82546103a5565b6105c68282856104f9565b5f60209050601f8311600181146105f7575f84156105e5578287015190505b6105ef8582610574565b865550610656565b601f198416610605866103d5565b5f5b8281101561062c57848901518255600182019150602085019450602081019050610607565b868310156106495784890151610645601f891682610558565b8355505b6001600288020188555050505b505050505050565b7f48656c6c6f200000000000000000000000000000000000000000000000000000815250565b5f81905092915050565b5f815461069a816103a5565b6106a48186610684565b9450600182165f81146106be57600181146106d357610705565b60ff1983168652811515820286019350610705565b6106dc856103d5565b5f5b838110156106fd578154818901526001820191506020810190506106de565b838801955050505b50505092915050565b5f6107188261065e565b600682019150610728828461068e565b91508190509291505056fea264697066735822122088a7c8cd1faf193f120dca5d096e3b9dfb3f52ab462f33ae404f314f6462c99964736f6c63430008220033",
					"opcodes": "PUSH1 0x80 PUSH1 0x40 MSTORE CALLVALUE DUP1 ISZERO PUSH1 0xE JUMPI PUSH0 PUSH0 REVERT JUMPDEST POP PUSH2 0x769 DUP1 PUSH2 0x1C PUSH0 CODECOPY PUSH0 RETURN INVALID PUSH1 0x80 PUSH1 0x40 MSTORE CALLVALUE DUP1 ISZERO PUSH2 0xF JUMPI PUSH0 PUSH0 REVERT JUMPDEST POP PUSH1 0x4 CALLDATASIZE LT PUSH2 0x3F JUMPI PUSH0 CALLDATALOAD PUSH1 0xE0 SHR DUP1 PUSH4 0x6FDDE03 EQ PUSH2 0x43 JUMPI DUP1 PUSH4 0x4ED3885E EQ PUSH2 0x61 JUMPI DUP1 PUSH4 0x6D4CE63C EQ PUSH2 0x7D JUMPI JUMPDEST PUSH0 PUSH0 REVERT JUMPDEST PUSH2 0x4B PUSH2 0x9B JUMP JUMPDEST PUSH1 0x40 MLOAD PUSH2 0x58 SWAP2 SWAP1 PUSH2 0x1D4 JUMP JUMPDEST PUSH1 0x40 MLOAD DUP1 SWAP2 SUB SWAP1 RETURN JUMPDEST PUSH2 0x7B PUSH1 0x4 DUP1 CALLDATASIZE SUB DUP2 ADD SWAP1 PUSH2 0x76 SWAP2 SWAP1 PUSH2 0x331 JUMP JUMPDEST PUSH2 0x126 JUMP JUMPDEST STOP JUMPDEST PUSH2 0x85 PUSH2 0x138 JUMP JUMPDEST PUSH1 0x40 MLOAD PUSH2 0x92 SWAP2 SWAP1 PUSH2 0x1D4 JUMP JUMPDEST PUSH1 0x40 MLOAD DUP1 SWAP2 SUB SWAP1 RETURN JUMPDEST PUSH0 DUP1 SLOAD PUSH2 0xA7 SWAP1 PUSH2 0x3A5 JUMP JUMPDEST DUP1 PUSH1 0x1F ADD PUSH1 0x20 DUP1 SWAP2 DIV MUL PUSH1 0x20 ADD PUSH1 0x40 MLOAD SWAP1 DUP2 ADD PUSH1 0x40 MSTORE DUP1 SWAP3 SWAP2 SWAP1 DUP2 DUP2 MSTORE PUSH1 0x20 ADD DUP3 DUP1 SLOAD PUSH2 0xD3 SWAP1 PUSH2 0x3A5 JUMP JUMPDEST DUP1 ISZERO PUSH2 0x11E JUMPI DUP1 PUSH1 0x1F LT PUSH2 0xF5 JUMPI PUSH2 0x100 DUP1 DUP4 SLOAD DIV MUL DUP4 MSTORE SWAP2 PUSH1 0x20 ADD SWAP2 PUSH2 0x11E JUMP JUMPDEST DUP3 ADD SWAP2 SWAP1 PUSH0 MSTORE PUSH1 0x20 PUSH0 KECCAK256 SWAP1 JUMPDEST DUP2 SLOAD DUP2 MSTORE SWAP1 PUSH1 0x1 ADD SWAP1 PUSH1 0x20 ADD DUP1 DUP4 GT PUSH2 0x101 JUMPI DUP3 SWAP1 SUB PUSH1 0x1F AND DUP3 ADD SWAP2 JUMPDEST POP POP POP POP POP DUP2 JUMP JUMPDEST DUP1 PUSH0 SWAP1 DUP2 PUSH2 0x134 SWAP2 SWAP1 PUSH2 0x58F JUMP JUMPDEST POP POP JUMP JUMPDEST PUSH1 0x60 PUSH0 PUSH0 PUSH1 0x40 MLOAD PUSH1 0x20 ADD PUSH2 0x14C SWAP2 SWAP1 PUSH2 0x70E JUMP JUMPDEST PUSH1 0x40 MLOAD PUSH1 0x20 DUP2 DUP4 SUB SUB DUP2 MSTORE SWAP1 PUSH1 0x40 MSTORE SWAP1 POP DUP1 SWAP2 POP POP SWAP1 JUMP JUMPDEST PUSH0 DUP2 MLOAD SWAP1 POP SWAP2 SWAP1 POP JUMP JUMPDEST PUSH0 DUP3 DUP3 MSTORE PUSH1 0x20 DUP3 ADD SWAP1 POP SWAP3 SWAP2 POP POP JUMP JUMPDEST DUP3 DUP2 DUP4 MCOPY PUSH0 DUP4 DUP4 ADD MSTORE POP POP POP JUMP JUMPDEST PUSH0 PUSH1 0x1F NOT PUSH1 0x1F DUP4 ADD AND SWAP1 POP SWAP2 SWAP1 POP JUMP JUMPDEST PUSH0 PUSH2 0x1A6 DUP3 PUSH2 0x164 JUMP JUMPDEST PUSH2 0x1B0 DUP2 DUP6 PUSH2 0x16E JUMP JUMPDEST SWAP4 POP PUSH2 0x1C0 DUP2 DUP6 PUSH1 0x20 DUP7 ADD PUSH2 0x17E JUMP JUMPDEST PUSH2 0x1C9 DUP2 PUSH2 0x18C JUMP JUMPDEST DUP5 ADD SWAP2 POP POP SWAP3 SWAP2 POP POP JUMP JUMPDEST PUSH0 PUSH1 0x20 DUP3 ADD SWAP1 POP DUP2 DUP2 SUB PUSH0 DUP4 ADD MSTORE PUSH2 0x1EC DUP2 DUP5 PUSH2 0x19C JUMP JUMPDEST SWAP1 POP SWAP3 SWAP2 POP POP JUMP JUMPDEST PUSH0 PUSH1 0x40 MLOAD SWAP1 POP SWAP1 JUMP JUMPDEST PUSH0 PUSH0 REVERT JUMPDEST PUSH0 PUSH0 REVERT JUMPDEST PUSH0 PUSH0 REVERT JUMPDEST PUSH0 PUSH0 REVERT JUMPDEST PUSH32 0x4E487B7100000000000000000000000000000000000000000000000000000000 PUSH0 MSTORE PUSH1 0x41 PUSH1 0x4 MSTORE PUSH1 0x24 PUSH0 REVERT JUMPDEST PUSH2 0x243 DUP3 PUSH2 0x18C JUMP JUMPDEST DUP2 ADD DUP2 DUP2 LT PUSH8 0xFFFFFFFFFFFFFFFF DUP3 GT OR ISZERO PUSH2 0x262 JUMPI PUSH2 0x261 PUSH2 0x20D JUMP JUMPDEST JUMPDEST DUP1 PUSH1 0x40 MSTORE POP POP POP JUMP JUMPDEST PUSH0 PUSH2 0x274 PUSH2 0x1F4 JUMP JUMPDEST SWAP1 POP PUSH2 0x280 DUP3 DUP3 PUSH2 0x23A JUMP JUMPDEST SWAP2 SWAP1 POP JUMP JUMPDEST PUSH0 PUSH8 0xFFFFFFFFFFFFFFFF DUP3 GT ISZERO PUSH2 0x29F JUMPI PUSH2 0x29E PUSH2 0x20D JUMP JUMPDEST JUMPDEST PUSH2 0x2A8 DUP3 PUSH2 0x18C JUMP JUMPDEST SWAP1 POP PUSH1 0x20 DUP2 ADD SWAP1 POP SWAP2 SWAP1 POP JUMP JUMPDEST DUP3 DUP2 DUP4 CALLDATACOPY PUSH0 DUP4 DUP4 ADD MSTORE POP POP POP JUMP JUMPDEST PUSH0 PUSH2 0x2D5 PUSH2 0x2D0 DUP5 PUSH2 0x285 JUMP JUMPDEST PUSH2 0x26B JUMP JUMPDEST SWAP1 POP DUP3 DUP2 MSTORE PUSH1 0x20 DUP2 ADD DUP5 DUP5 DUP5 ADD GT ISZERO PUSH2 0x2F1 JUMPI PUSH2 0x2F0 PUSH2 0x209 JUMP JUMPDEST JUMPDEST PUSH2 0x2FC DUP5 DUP3 DUP6 PUSH2 0x2B5 JUMP JUMPDEST POP SWAP4 SWAP3 POP POP POP JUMP JUMPDEST PUSH0 DUP3 PUSH1 0x1F DUP4 ADD SLT PUSH2 0x318 JUMPI PUSH2 0x317 PUSH2 0x205 JUMP JUMPDEST JUMPDEST DUP2 CALLDATALOAD PUSH2 0x328 DUP5 DUP3 PUSH1 0x20 DUP7 ADD PUSH2 0x2C3 JUMP JUMPDEST SWAP2 POP POP SWAP3 SWAP2 POP POP JUMP JUMPDEST PUSH0 PUSH1 0x20 DUP3 DUP5 SUB SLT ISZERO PUSH2 0x346 JUMPI PUSH2 0x345 PUSH2 0x1FD JUMP JUMPDEST JUMPDEST PUSH0 DUP3 ADD CALLDATALOAD PUSH8 0xFFFFFFFFFFFFFFFF DUP2 GT ISZERO PUSH2 0x363 JUMPI PUSH2 0x362 PUSH2 0x201 JUMP JUMPDEST JUMPDEST PUSH2 0x36F DUP5 DUP3 DUP6 ADD PUSH2 0x304 JUMP JUMPDEST SWAP2 POP POP SWAP3 SWAP2 POP POP JUMP JUMPDEST PUSH32 0x4E487B7100000000000000000000000000000000000000000000000000000000 PUSH0 MSTORE PUSH1 0x22 PUSH1 0x4 MSTORE PUSH1 0x24 PUSH0 REVERT JUMPDEST PUSH0 PUSH1 0x2 DUP3 DIV SWAP1 POP PUSH1 0x1 DUP3 AND DUP1 PUSH2 0x3BC JUMPI PUSH1 0x7F DUP3 AND SWAP2 POP JUMPDEST PUSH1 0x20 DUP3 LT DUP2 SUB PUSH2 0x3CF JUMPI PUSH2 0x3CE PUSH2 0x378 JUMP JUMPDEST JUMPDEST POP SWAP2 SWAP1 POP JUMP JUMPDEST PUSH0 DUP2 SWAP1 POP DUP2 PUSH0 MSTORE PUSH1 0x20 PUSH0 KECCAK256 SWAP1 POP SWAP2 SWAP1 POP JUMP JUMPDEST PUSH0 PUSH1 0x20 PUSH1 0x1F DUP4 ADD DIV SWAP1 POP SWAP2 SWAP1 POP JUMP JUMPDEST PUSH0 DUP3 DUP3 SHL SWAP1 POP SWAP3 SWAP2 POP POP JUMP JUMPDEST PUSH0 PUSH1 0x8 DUP4 MUL PUSH2 0x431 PUSH32 0xFFFFFFFFFFFFFFFFFFFFFFFFFFFFFFFFFFFFFFFFFFFFFFFFFFFFFFFFFFFFFFFF DUP3 PUSH2 0x3F6 JUMP JUMPDEST PUSH2 0x43B DUP7 DUP4 PUSH2 0x3F6 JUMP JUMPDEST SWAP6 POP DUP1 NOT DUP5 AND SWAP4 POP DUP1 DUP7 AND DUP5 OR SWAP3 POP POP POP SWAP4 SWAP3 POP POP POP JUMP JUMPDEST PUSH0 DUP2 SWAP1 POP SWAP2 SWAP1 POP JUMP JUMPDEST PUSH0 DUP2 SWAP1 POP SWAP2 SWAP1 POP JUMP JUMPDEST PUSH0 PUSH2 0x47F PUSH2 0x47A PUSH2 0x475 DUP5 PUSH2 0x453 JUMP JUMPDEST PUSH2 0x45C JUMP JUMPDEST PUSH2 0x453 JUMP JUMPDEST SWAP1 POP SWAP2 SWAP1 POP JUMP JUMPDEST PUSH0 DUP2 SWAP1 POP SWAP2 SWAP1 POP JUMP JUMPDEST PUSH2 0x498 DUP4 PUSH2 0x465 JUMP JUMPDEST PUSH2 0x4AC PUSH2 0x4A4 DUP3 PUSH2 0x486 JUMP JUMPDEST DUP5 DUP5 SLOAD PUSH2 0x402 JUMP JUMPDEST DUP3 SSTORE POP POP POP POP JUMP JUMPDEST PUSH0 PUSH0 SWAP1 POP SWAP1 JUMP JUMPDEST PUSH2 0x4C3 PUSH2 0x4B4 JUMP JUMPDEST PUSH2 0x4CE DUP2 DUP5 DUP5 PUSH2 0x48F JUMP JUMPDEST POP POP POP JUMP JUMPDEST PUSH0 JUMPDEST DUP3 DUP2 LT ISZERO PUSH2 0x4F4 JUMPI PUSH2 0x4E9 PUSH0 DUP3 DUP5 ADD PUSH2 0x4BB JUMP JUMPDEST PUSH1 0x1 DUP2 ADD SWAP1 POP PUSH2 0x4D5 JUMP JUMPDEST POP POP POP JUMP JUMPDEST PUSH1 0x1F DUP3 GT ISZERO PUSH2 0x547 JUMPI DUP3 DUP3 GT ISZERO PUSH2 0x546 JUMPI PUSH2 0x513 DUP2 PUSH2 0x3D5 JUMP JUMPDEST PUSH2 0x51C DUP4 PUSH2 0x3E7 JUMP JUMPDEST PUSH2 0x525 DUP6 PUSH2 0x3E7 JUMP JUMPDEST PUSH1 0x20 DUP7 LT ISZERO PUSH2 0x532 JUMPI PUSH0 SWAP1 POP JUMPDEST DUP1 DUP4 ADD PUSH2 0x541 DUP3 DUP5 SUB DUP3 PUSH2 0x4D3 JUMP JUMPDEST POP POP POP POP JUMPDEST JUMPDEST POP POP POP JUMP JUMPDEST PUSH0 DUP3 DUP3 SHR SWAP1 POP SWAP3 SWAP2 POP POP JUMP JUMPDEST PUSH0 PUSH2 0x567 PUSH0 NOT DUP5 PUSH1 0x8 MUL PUSH2 0x54C JUMP JUMPDEST NOT DUP1 DUP4 AND SWAP2 POP POP SWAP3 SWAP2 POP POP JUMP JUMPDEST PUSH0 PUSH2 0x57F DUP4 DUP4 PUSH2 0x558 JUMP JUMPDEST SWAP2 POP DUP3 PUSH1 0x2 MUL DUP3 OR SWAP1 POP SWAP3 SWAP2 POP POP JUMP JUMPDEST PUSH2 0x598 DUP3 PUSH2 0x164 JUMP JUMPDEST PUSH8 0xFFFFFFFFFFFFFFFF DUP2 GT ISZERO PUSH2 0x5B1 JUMPI PUSH2 0x5B0 PUSH2 0x20D JUMP JUMPDEST JUMPDEST PUSH2 0x5BB DUP3 SLOAD PUSH2 0x3A5 JUMP JUMPDEST PUSH2 0x5C6 DUP3 DUP3 DUP6 PUSH2 0x4F9 JUMP JUMPDEST PUSH0 PUSH1 0x20 SWAP1 POP PUSH1 0x1F DUP4 GT PUSH1 0x1 DUP2 EQ PUSH2 0x5F7 JUMPI PUSH0 DUP5 ISZERO PUSH2 0x5E5 JUMPI DUP3 DUP8 ADD MLOAD SWAP1 POP JUMPDEST PUSH2 0x5EF DUP6 DUP3 PUSH2 0x574 JUMP JUMPDEST DUP7 SSTORE POP PUSH2 0x656 JUMP JUMPDEST PUSH1 0x1F NOT DUP5 AND PUSH2 0x605 DUP7 PUSH2 0x3D5 JUMP JUMPDEST PUSH0 JUMPDEST DUP3 DUP2 LT ISZERO PUSH2 0x62C JUMPI DUP5 DUP10 ADD MLOAD DUP3 SSTORE PUSH1 0x1 DUP3 ADD SWAP2 POP PUSH1 0x20 DUP6 ADD SWAP5 POP PUSH1 0x20 DUP2 ADD SWAP1 POP PUSH2 0x607 JUMP JUMPDEST DUP7 DUP4 LT ISZERO PUSH2 0x649 JUMPI DUP5 DUP10 ADD MLOAD PUSH2 0x645 PUSH1 0x1F DUP10 AND DUP3 PUSH2 0x558 JUMP JUMPDEST DUP4 SSTORE POP JUMPDEST PUSH1 0x1 PUSH1 0x2 DUP9 MUL ADD DUP9 SSTORE POP POP POP JUMPDEST POP POP POP POP POP POP JUMP JUMPDEST PUSH32 0x48656C6C6F200000000000000000000000000000000000000000000000000000 DUP2 MSTORE POP JUMP JUMPDEST PUSH0 DUP2 SWAP1 POP SWAP3 SWAP2 POP POP JUMP JUMPDEST PUSH0 DUP2 SLOAD PUSH2 0x69A DUP2 PUSH2 0x3A5 JUMP JUMPDEST PUSH2 0x6A4 DUP2 DUP7 PUSH2 0x684 JUMP JUMPDEST SWAP5 POP PUSH1 0x1 DUP3 AND PUSH0 DUP2 EQ PUSH2 0x6BE JUMPI PUSH1 0x1 DUP2 EQ PUSH2 0x6D3 JUMPI PUSH2 0x705 JUMP JUMPDEST PUSH1 0xFF NOT DUP4 AND DUP7 MSTORE DUP2 ISZERO ISZERO DUP3 MUL DUP7 ADD SWAP4 POP PUSH2 0x705 JUMP JUMPDEST PUSH2 0x6DC DUP6 PUSH2 0x3D5 JUMP JUMPDEST PUSH0 JUMPDEST DUP4 DUP2 LT ISZERO PUSH2 0x6FD JUMPI DUP2 SLOAD DUP2 DUP10 ADD MSTORE PUSH1 0x1 DUP3 ADD SWAP2 POP PUSH1 0x20 DUP2 ADD SWAP1 POP PUSH2 0x6DE JUMP JUMPDEST DUP4 DUP9 ADD SWAP6 POP POP POP JUMPDEST POP POP POP SWAP3 SWAP2 POP POP JUMP JUMPDEST PUSH0 PUSH2 0x718 DUP3 PUSH2 0x65E JUMP JUMPDEST PUSH1 0x6 DUP3 ADD SWAP2 POP PUSH2 0x728 DUP3 DUP5 PUSH2 0x68E JUMP JUMPDEST SWAP2 POP DUP2 SWAP1 POP SWAP3 SWAP2 POP POP JUMP INVALID LOG2 PUSH5 0x6970667358 0x22 SLT KECCAK256 DUP9 0xA7 0xC8 0xCD 0x1F 0xAF NOT EXTCODEHASH SLT 0xD 0xCA TSTORE MULMOD PUSH15 0x3B9DFB3F52AB462F33AE404F314F64 PUSH3 0xC99964 PUSH20 0x6F6C634300082200330000000000000000000000 "
				},
				"gasEstimates": {
					"creation": {
						"codeDepositCost": "379400",
						"executionCost": "416",
						"totalCost": "379816"
					},
					"external": {
						"get()": "infinite",
						"name()": "infinite",
						"set(string)": "infinite"
					}
				},
				"methodIdentifiers": {
					"get()": "6d4ce63c",
					"name()": "06fdde03",
					"set(string)": "4ed3885e"
				}
			},
			"storageLayout": {
				"storage": [
					{
						"astId": 3,
						"contract": "contracts/Hello.sol:Hello",
						"label": "name",
						"offset": 0,
						"slot": "0",
						"type": "t_string_storage"
					}
				],
				"types": {
					"t_string_storage": {
						"encoding": "bytes",
						"label": "string",
						"numberOfBytes": "32"
					}
				}
			},
			"userdoc": {
				"kind": "user",
				"methods": {},
				"version": 1
			}
		}
	}
}