{
	"data": {
		"bytecode": {
			"linkReferences": {},
			"object": "6080604052348015600e575f5ffd5b5061048c8061001c5f395ff3fe608060405260043610610085575f3560e01c806341f654f71161005857806341f654f71461012d57806368d466b814610159578063771602f7146101815780637bf14593146101bd578063d0e30db0146101e757610085565b80630c55699c1461008957806312065fe0146100b35780633f2bff51146100dd5780634018d9aa14610105575b5f5ffd5b348015610094575f5ffd5b5061009d6101f1565b6040516100aa91906102d2565b60405180910390f35b3480156100be575f5ffd5b506100c76101f6565b6040516100d491906102d2565b60405180910390f35b3480156100e8575f5ffd5b5061010360048036038101906100fe9190610319565b6101fd565b005b348015610110575f5ffd5b5061012b60048036038101906101269190610319565b610207565b005b348015610138575f5ffd5b50610141610210565b60405161015093929190610344565b60405180910390f35b348015610164575f5ffd5b5061017f600480360381019061017a9190610319565b610290565b005b34801561018c575f5ffd5b506101a760048036038101906101a29190610379565b61029a565b6040516101b491906102d2565b60405180910390f35b3480156101c8575f5ffd5b506101d16102af565b6040516101de91906102d2565b60405180910390f35b6101ef6102b8565b005b5f5481565b5f47905090565b8060028190555050565b805f8190555050565b5f5f5f5f543073ffffffffffffffffffffffffffffffffffffffff16637bf145936040518163ffffffff1660e01b8152600401602060405180830381865afa15801561025e573d5f5f3e3d5ffd5b505050506040513d601f19601f8201168201806040525081019061028291906103cb565b600254925092509250909192565b8060018190555050565b5f81836102a79190610423565b905092915050565b5f600154905090565b565b5f819050919050565b6102cc816102ba565b82525050565b5f6020820190506102e55f8301846102c3565b92915050565b5f5ffd5b6102f8816102ba565b8114610302575f5ffd5b50565b5f81359050610313816102ef565b92915050565b5f6020828403121561032e5761032d6102eb565b5b5f61033b84828501610305565b91505092915050565b5f6060820190506103575f8301866102c3565b61036460208301856102c3565b61037160408301846102c3565b949350505050565b5f5f6040838503121561038f5761038e6102eb565b5b5f61039c85828601610305565b92505060206103ad85828601610305565b9150509250929050565b5f815190506103c5816102ef565b92915050565b5f602082840312156103e0576103df6102eb565b5b5f6103ed848285016103b7565b91505092915050565b7f4e487b71000000000000000000000000000000000000000000000000000000005f52601160045260245ffd5b5f61042d826102ba565b9150610438836102ba565b92508282019050808211156104505761044f6103f6565b5b9291505056fea2646970667358221220970411b4f0eb9d74517ff28f312d0735531df4ea7eb8a393dae056f34c2bbf8264736f6c63430008220033",
			"opcodes": "PUSH1 0x80 PUSH1 0x40 MSTORE CALLVALUE DUP1 ISZERO PUSH1 0xE JUMPI PUSH0 PUSH0 REVERT JUMPDEST POP PUSH2 0x48C DUP1 PUSH2 0x1C PUSH0 CODECOPY PUSH0 RETURN INVALID PUSH1 0x80 PUSH1 0x40 MSTORE PUSH1 0x4 CALLDATASIZE LT PUSH2 0x85 JUMPI PUSH0 CALLDATALOAD PUSH1 0xE0 SHR DUP1 PUSH4 0x41F654F7 GT PUSH2 0x58 JUMPI DUP1 PUSH4 0x41F654F7 EQ PUSH2 0x12D JUMPI DUP1 PUSH4 0x68D466B8 EQ PUSH2 0x159 JUMPI DUP1 PUSH4 0x771602F7 EQ PUSH2 0x181 JUMPI DUP1 PUSH4 0x7BF14593 EQ PUSH2 0x1BD JUMPI DUP1 PUSH4 0xD0E30DB0 EQ PUSH2 0x1E7 JUMPI PUSH2 0x85 JUMP JUMPDEST DUP1 PUSH4 0xC55699C EQ PUSH2 0x89 JUMPI DUP1 PUSH4 0x12065FE0 EQ PUSH2 0xB3 JUMPI DUP1 PUSH4 0x3F2BFF51 EQ PUSH2 0xDD JUMPI DUP1 PUSH4 0x4018D9AA EQ PUSH2 0x105 JUMPI JUMPDEST PUSH0 PUSH0 REVERT JUMPDEST CALLVALUE DUP1 ISZERO PUSH2 0x94 JUMPI PUSH0 PUSH0 REVERT JUMPDEST POP PUSH2 0x9D PUSH2 0x1F1 JUMP JUMPDEST PUSH1 0x40 MLOAD PUSH2 0xAA SWAP2 SWAP1 PUSH2 0x2D2 JUMP JUMPDEST PUSH1 0x40 MLOAD DUP1 SWAP2 SUB SWAP1 RETURN JUMPDEST CALLVALUE DUP1 ISZERO PUSH2 0xBE JUMPI PUSH0 PUSH0 REVERT JUMPDEST POP PUSH2 0xC7 PUSH2 0x1F6 JUMP JUMPDEST PUSH1 0x40 MLOAD PUSH2 0xD4 SWAP2 SWAP1 PUSH2 0x2D2 JUMP JUMPDEST PUSH1 0x40 MLOAD DUP1 SWAP2 SUB SWAP1 RETURN JUMPDEST CALLVALUE DUP1 ISZERO PUSH2 0xE8 JUMPI PUSH0 PUSH0 REVERT JUMPDEST POP PUSH2 0x103 PUSH1 0x4 DUP1 CALLDATASIZE SUB DUP2 ADD SWAP1 PUSH2 0xFE SWAP2 SWAP1 PUSH2 0x319 JUMP JUMPDEST PUSH2 0x1FD JUMP JUMPDEST STOP JUMPDEST CALLVALUE DUP1 ISZERO PUSH2 0x110 JUMPI PUSH0 PUSH0 REVERT JUMPDEST POP PUSH2 0x12B PUSH1 0x4 DUP1 CALLDATASIZE SUB DUP2 ADD SWAP1 PUSH2 0x126 SWAP2 SWAP1 PUSH2 0x319 JUMP JUMPDEST PUSH2 0x207 JUMP JUMPDEST STOP JUMPDEST CALLVALUE DUP1 ISZERO PUSH2 0x138 JUMPI PUSH0 PUSH0 REVERT JUMPDEST POP PUSH2 0x141 PUSH2 0x210 JUMP JUMPDEST PUSH1 0x40 MLOAD PUSH2 0x150 SWAP4 SWAP3 SWAP2 SWAP1 PUSH2 0x344 JUMP JUMPDEST PUSH1 0x40 MLOAD DUP1 SWAP2 SUB SWAP1 RETURN JUMPDEST CALLVALUE DUP1 ISZERO PUSH2 0x164 JUMPI PUSH0 PUSH0 REVERT JUMPDEST POP PUSH2 0x17F PUSH1 0x4 DUP1 CALLDATASIZE SUB DUP2 ADD SWAP1 PUSH2 0x17A SWAP2 SWAP1 PUSH2 0x319 JUMP JUMPDEST PUSH2 0x290 JUMP JUMPDEST STOP JUMPDEST CALLVALUE DUP1 ISZERO PUSH2 0x18C JUMPI PUSH0 PUSH0 REVERT JUMPDEST POP PUSH2 0x1A7 PUSH1 0x4 DUP1 CALLDATASIZE SUB DUP2 ADD SWAP1 PUSH2 0x1A2 SWAP2 SWAP1 PUSH2 0x379 JUMP JUMPDEST PUSH2 0x29A JUMP JUMPDEST PUSH1 0x40 MLOAD PUSH2 0x1B4 SWAP2 SWAP1 PUSH2 0x2D2 JUMP JUMPDEST PUSH1 0x40 MLOAD DUP1 SWAP2 SUB SWAP1 RETURN JUMPDEST CALLVALUE DUP1 ISZERO PUSH2 0x1C8 JUMPI PUSH0 PUSH0 REVERT JUMPDEST POP PUSH2 0x1D1 PUSH2 0x2AF JUMP JUMPDEST PUSH1 0x40 MLOAD PUSH2 0x1DE SWAP2 SWAP1 PUSH2 0x2D2 JUMP JUMPDEST PUSH1 0x40 MLOAD DUP1 SWAP2 SUB SWAP1 RETURN JUMPDEST PUSH2 0x1EF PUSH2 0x2B8 JUMP JUMPDEST STOP JUMPDEST PUSH0 SLOAD DUP2 JUMP JUMPDEST PUSH0 SELFBALANCE SWAP1 POP SWAP1 JUMP JUMPDEST DUP1 PUSH1 0x2 DUP2 SWAP1 SSTORE POP POP JUMP JUMPDEST DUP1 PUSH0 DUP2 SWAP1 SSTORE POP POP JUMP JUMPDEST PUSH0 PUSH0 PUSH0 PUSH0 SLOAD ADDRESS PUSH20 0xFFFFFFFFFFFFFFFFFFFFFFFFFFFFFFFFFFFFFFFF AND PUSH4 0x7BF14593 PUSH1 0x40 MLOAD DUP2 PUSH4 0xFFFFFFFF AND PUSH1 0xE0 SHL DUP2 MSTORE PUSH1 0x4 ADD PUSH1 0x20 PUSH1 0x40 MLOAD DUP1 DUP4 SUB DUP2 DUP7 GAS STATICCALL ISZERO DUP1 ISZERO PUSH2 0x25E JUMPI RETURNDATASIZE PUSH0 PUSH0 RETURNDATACOPY RETURNDATASIZE PUSH0 REVERT JUMPDEST POP POP POP POP PUSH1 0x40 MLOAD RETURNDATASIZE PUSH1 0x1F NOT PUSH1 0x1F DUP3 ADD AND DUP3 ADD DUP1 PUSH1 0x40 MSTORE POP DUP2 ADD SWAP1 PUSH2 0x282 SWAP2 SWAP1 PUSH2 0x3CB JUMP JUMPDEST PUSH1 0x2 SLOAD SWAP3 POP SWAP3 POP SWAP3 POP SWAP1 SWAP2 SWAP3 JUMP JUMPDEST DUP1 PUSH1 0x1 DUP2 SWAP1 SSTORE POP POP JUMP JUMPDEST PUSH0 DUP2 DUP4 PUSH2 0x2A7 SWAP2 SWAP1 PUSH2 0x423 JUMP JUMPDEST SWAP1 POP SWAP3 SWAP2 POP POP JUMP JUMPDEST PUSH0 PUSH1 0x1 SLOAD SWAP1 POP SWAP1 JUMP JUMPDEST JUMP JUMPDEST PUSH0 DUP2 SWAP1 POP SWAP2 SWAP1 POP JUMP JUMPDEST PUSH2 0x2CC DUP2 PUSH2 0x2BA JUMP JUMPDEST DUP3 MSTORE POP POP JUMP JUMPDEST PUSH0 PUSH1 0x20 DUP3 ADD SWAP1 POP PUSH2 0x2E5 PUSH0 DUP4 ADD DUP5 PUSH2 0x2C3 JUMP JUMPDEST SWAP3 SWAP2 POP POP JUMP JUMPDEST PUSH0 PUSH0 REVERT JUMPDEST PUSH2 0x2F8 DUP2 PUSH2 0x2BA JUMP JUMPDEST DUP2 EQ PUSH2 0x302 JUMPI PUSH0 PUSH0 REVERT JUMPDEST POP JUMP JUMPDEST PUSH0 DUP2 CALLDATALOAD SWAP1 POP PUSH2 0x313 DUP2 PUSH2 0x2EF JUMP JUMPDEST SWAP3 SWAP2 POP POP JUMP JUMPDEST PUSH0 PUSH1 0x20 DUP3 DUP5 SUB SLT ISZERO PUSH2 0x32E JUMPI PUSH2 0x32D PUSH2 0x2EB JUMP JUMPDEST JUMPDEST PUSH0 PUSH2 0x33B DUP5 DUP3 DUP6 ADD PUSH2 0x305 JUMP JUMPDEST SWAP2 POP POP SWAP3 SWAP2 POP POP JUMP JUMPDEST PUSH0 PUSH1 0x60 DUP3 ADD SWAP1 POP PUSH2 0x357 PUSH0 DUP4 ADD DUP7 PUSH2 0x2C3 JUMP JUMPDEST PUSH2 0x364 PUSH1 0x20 DUP4 ADD DUP6 PUSH2 0x2C3 JUMP JUMPDEST PUSH2 0x371 PUSH1 0x40 DUP4 ADD DUP5 PUSH2 0x2C3 JUMP JUMPDEST SWAP5 SWAP4 POP POP POP POP JUMP JUMPDEST PUSH0 PUSH0 PUSH1 0x40 DUP4 DUP6 SUB SLT ISZERO PUSH2 0x38F JUMPI PUSH2 0x38E PUSH2 0x2EB JUMP JUMPDEST JUMPDEST PUSH0 PUSH2 0x39C DUP6 DUP3 DUP7 ADD PUSH2 0x305 JUMP JUMPDEST SWAP3 POP POP PUSH1 0x20 PUSH2 0x3AD DUP6 DUP3 DUP7 ADD PUSH2 0x305 JUMP JUMPDEST SWAP2 POP POP SWAP3 POP SWAP3 SWAP1 POP JUMP JUMPDEST PUSH0 DUP2 MLOAD SWAP1 POP PUSH2 0x3C5 DUP2 PUSH2 0x2EF JUMP JUMPDEST SWAP3 SWAP2 POP POP JUMP JUMPDEST PUSH0 PUSH1 0x20 DUP3 DUP5 SUB SLT ISZERO PUSH2 0x3E0 JUMPI PUSH2 0x3DF PUSH2 0x2EB JUMP JUMPDEST JUMPDEST PUSH0 PUSH2 0x3ED DUP5 DUP3 DUP6 ADD PUSH2 0x3B7 JUMP JUMPDEST SWAP2 POP POP SWAP3 SWAP2 POP POP JUMP JUMPDEST PUSH32 0x4E487B7100000000000000000000000000000000000000000000000000000000 PUSH0 MSTORE PUSH1 0x11 PUSH1 0x4 MSTORE PUSH1 0x24 PUSH0 REVERT JUMPDEST PUSH0 PUSH2 0x42D DUP3 PUSH2 0x2BA JUMP JUMPDEST SWAP2 POP PUSH2 0x438 DUP4 PUSH2 0x2BA JUMP JUMPDEST SWAP3 POP DUP3 DUP3 ADD SWAP1 POP DUP1 DUP3 GT ISZERO PUSH2 0x450 JUMPI PUSH2 0x44F PUSH2 0x3F6 JUMP JUMPDEST JUMPDEST SWAP3 SWAP2 POP POP JUMP INVALID LOG2 PUSH5 0x6970667358 0x22 SLT KECCAK256 SWAP8 DIV GT 0xB4 CREATE 0xEB SWAP14 PUSH21 0x517FF28F312D0735531DF4EA7EB8A393DAE056F34C 0x2B 0xBF DUP3 PUSH5 0x736F6C6343 STOP ADDMOD 0x22 STOP CALLER "
		},
		"gasEstimates": {
			"creation": {
				"codeDepositCost": "232800",
				"executionCost": "273",
				"totalCost": "233073"
			},
			"external": {
				"add(uint256,uint256)": "infinite",
				"deposit()": "207",
				"getBalance()": "357",
				"readAll()": "infinite",
				"readY()": "2498",
				"setX(uint256)": "22581",
				"setY(uint256)": "22537",
				"setZ(uint256)": "22560",
				"x()": "2425"
			},
			"internal": {
				"readXY()": "infinite",
				"readXZ()": "infinite"
			}
		},
		"methodIdentifiers": {
			"add(uint256,uint256)": "771602f7",
			"deposit()": "d0e30db0",
			"getBalance()": "12065fe0",
			"readAll()": "41f654f7",
			"readY()": "7bf14593",
			"setX(uint256)": "4018d9aa",
			"setY(uint256)": "68d466b8",
			"setZ(uint256)": "3f2bff51",
			"x()": "0c55699c"
		}
	},
	"abi": [
		{
			"inputs": [
				{
					"internalType": "uint256",
					"name": "a",
					"type": "uint256"
				},
				{
					"internalType": "uint256",
					"name": "b",
					"type": "uint256"
				}
			],
			"name": "add",
			"outputs": [
				{
					"internalType": "uint256",
					"name": "",
					"type": "uint256"
				}
			],
			"stateMutability": "pure",
			"type": "function"
		},
		{
			"inputs": [],
			"name": "deposit",
			"outputs": [],
			"stateMutability": "payable",
			"type": "function"
		},
		{
			"inputs": [],
			"name": "getBalance",
			"outputs": [
				{
					"internalType": "uint256",
					"name": "",
					"type": "uint256"
				}
			],
			"stateMutability": "view",
			"type": "function"
		},
		{
			"inputs": [],
			"name": "readAll",
			"outputs": [
				{
					"internalType": "uint256",
					"name": "",
					"type": "uint256"
				},
				{
					"internalType": "uint256",
					"name": "",
					"type": "uint256"
				},
				{
					"internalType": "uint256",
					"name": "",
					"type": "uint256"
				}
			],
			"stateMutability": "view",
			"type": "function"
		},
		{
			"inputs": [],
			"name": "readY",
			"outputs": [
				{
					"internalType": "uint256",
					"name": "",
					"type": "uint256"
				}
			],
			"stateMutability": "view",
			"type": "function"
		},
		{
			"inputs": [
				{
					"internalType": "uint256",
					"name": "_x",
					"type": "uint256"
				}
			],
			"name": "setX",
			"outputs": [],
			"stateMutability": "nonpayable",
			"type": "function"
		},
		{
			"inputs": [
				{
					"internalType": "uint256",
					"name": "_y",
					"type": "uint256"
				}
			],
			"name": "setY",
			"outputs": [],
			"stateMutability": "nonpayable",
			"type": "function"
		},
		{
			"inputs": [
				{
					"internalType": "uint256",
					"name": "_z",
					"type": "uint256"
				}
			],
			"name": "setZ",
			"outputs": [],
			"stateMutability": "nonpayable",
			"type": "function"
		},
		{
			"inputs": [],
			"name": "x",
			"outputs": [
				{
					"internalType": "uint256",
					"name": "",
					"type": "uint256"
				}
			],
			"stateMutability": "view",
			"type": "function"
		}
	]
}