{
	"data": {
		"bytecode": {
			"linkReferences": {},
			"object": "608060405234801561000f575f5ffd5b50604051610dbc380380610dbc83398181016040528101906100319190610224565b8160019081610040919061049f565b50335f60016101000a81548173ffffffffffffffffffffffffffffffffffffffff021916908373ffffffffffffffffffffffffffffffffffffffff160217905550805f5f6101000a81548160ff021916908360ff160217905550505061056e565b5f604051905090565b5f5ffd5b5f5ffd5b5f5ffd5b5f5ffd5b5f601f19601f8301169050919050565b7f4e487b71000000000000000000000000000000000000000000000000000000005f52604160045260245ffd5b610100826100ba565b810181811067ffffffffffffffff8211171561011f5761011e6100ca565b5b80604052505050565b5f6101316100a1565b905061013d82826100f7565b919050565b5f67ffffffffffffffff82111561015c5761015b6100ca565b5b610165826100ba565b9050602081019050919050565b8281835e5f83830152505050565b5f61019261018d84610142565b610128565b9050828152602081018484840111156101ae576101ad6100b6565b5b6101b9848285610172565b509392505050565b5f82601f8301126101d5576101d46100b2565b5b81516101e5848260208601610180565b91505092915050565b5f60ff82169050919050565b610203816101ee565b811461020d575f5ffd5b50565b5f8151905061021e816101fa565b92915050565b5f5f6040838503121561023a576102396100aa565b5b5f83015167ffffffffffffffff811115610257576102566100ae565b5b610263858286016101c1565b925050602061027485828601610210565b9150509250929050565b5f81519050919050565b7f4e487b71000000000000000000000000000000000000000000000000000000005f52602260045260245ffd5b5f60028204905060018216806102cc57607f821691505b6020821081036102df576102de610288565b5b50919050565b5f819050815f5260205f209050919050565b5f6020601f8301049050919050565b5f82821b905092915050565b5f600883026103417fffffffffffffffffffffffffffffffffffffffffffffffffffffffffffffffff82610306565b61034b8683610306565b95508019841693508086168417925050509392505050565b5f819050919050565b5f819050919050565b5f61038f61038a61038584610363565b61036c565b610363565b9050919050565b5f819050919050565b6103a883610375565b6103bc6103b482610396565b848454610312565b825550505050565b5f5f905090565b6103d36103c4565b6103de81848461039f565b505050565b5f5b82811015610404576103f95f8284016103cb565b6001810190506103e5565b505050565b601f821115610457578282111561045657610423816102e5565b61042c836102f7565b610435856102f7565b6020861015610442575f90505b808301610451828403826103e3565b505050505b5b505050565b5f82821c905092915050565b5f6104775f198460080261045c565b1980831691505092915050565b5f61048f8383610468565b9150826002028217905092915050565b6104a88261027e565b67ffffffffffffffff8111156104c1576104c06100ca565b5b6104cb82546102b5565b6104d6828285610409565b5f60209050601f831160018114610507575f84156104f5578287015190505b6104ff8582610484565b865550610566565b601f198416610515866102e5565b5f5b8281101561053c57848901518255600182019150602085019450602081019050610517565b868310156105595784890151610555601f891682610468565b8355505b6001600288020188555050505b505050505050565b6108418061057b5f395ff3fe608060405234801561000f575f5ffd5b5060043610610055575f3560e01c80630c55699c1461005957806324b8ba5f14610077578063368b87721461009357806343d726d6146100af578063be9a6555146100b9575b5f5ffd5b6100616100c3565b60405161006e91906102a1565b60405180910390f35b610091600480360381019061008c91906102f5565b6100d4565b005b6100ad60048036038101906100a8919061045c565b61013e565b005b6100b761019f565b005b6100c1610212565b005b5f5f9054906101000a900460ff1681565b60025f9054906101000a900460ff16610122576040517f08c379a0000000000000000000000000000000000000000000000000000000008152600401610119906104fd565b60405180910390fd5b805f5f6101000a81548160ff021916908360ff16021790555050565b60025f9054906101000a900460ff1661018c576040517f08c379a0000000000000000000000000000000000000000000000000000000008152600401610183906104fd565b60405180910390fd5b806001908161019b919061073c565b5050565b5f60019054906101000a900473ffffffffffffffffffffffffffffffffffffffff1673ffffffffffffffffffffffffffffffffffffffff163373ffffffffffffffffffffffffffffffffffffffff16146101f7575f5ffd5b5f60025f6101000a81548160ff021916908315150217905550565b5f60019054906101000a900473ffffffffffffffffffffffffffffffffffffffff1673ffffffffffffffffffffffffffffffffffffffff163373ffffffffffffffffffffffffffffffffffffffff161461026a575f5ffd5b600160025f6101000a81548160ff021916908315150217905550565b5f60ff82169050919050565b61029b81610286565b82525050565b5f6020820190506102b45f830184610292565b92915050565b5f604051905090565b5f5ffd5b5f5ffd5b6102d481610286565b81146102de575f5ffd5b50565b5f813590506102ef816102cb565b92915050565b5f6020828403121561030a576103096102c3565b5b5f610317848285016102e1565b91505092915050565b5f5ffd5b5f5ffd5b5f601f19601f8301169050919050565b7f4e487b71000000000000000000000000000000000000000000000000000000005f52604160045260245ffd5b61036e82610328565b810181811067ffffffffffffffff8211171561038d5761038c610338565b5b80604052505050565b5f61039f6102ba565b90506103ab8282610365565b919050565b5f67ffffffffffffffff8211156103ca576103c9610338565b5b6103d382610328565b9050602081019050919050565b828183375f83830152505050565b5f6104006103fb846103b0565b610396565b90508281526020810184848401111561041c5761041b610324565b5b6104278482856103e0565b509392505050565b5f82601f83011261044357610442610320565b5b81356104538482602086016103ee565b91505092915050565b5f60208284031215610471576104706102c3565b5b5f82013567ffffffffffffffff81111561048e5761048d6102c7565b5b61049a8482850161042f565b91505092915050565b5f82825260208201905092915050565b7f666c61672069732066616c7365210000000000000000000000000000000000005f82015250565b5f6104e7600e836104a3565b91506104f2826104b3565b602082019050919050565b5f6020820190508181035f830152610514816104db565b9050919050565b5f81519050919050565b7f4e487b71000000000000000000000000000000000000000000000000000000005f52602260045260245ffd5b5f600282049050600182168061056957607f821691505b60208210810361057c5761057b610525565b5b50919050565b5f819050815f5260205f209050919050565b5f6020601f8301049050919050565b5f82821b905092915050565b5f600883026105de7fffffffffffffffffffffffffffffffffffffffffffffffffffffffffffffffff826105a3565b6105e886836105a3565b95508019841693508086168417925050509392505050565b5f819050919050565b5f819050919050565b5f61062c61062761062284610600565b610609565b610600565b9050919050565b5f819050919050565b61064583610612565b61065961065182610633565b8484546105af565b825550505050565b5f5f905090565b610670610661565b61067b81848461063c565b505050565b5f5b828110156106a1576106965f828401610668565b600181019050610682565b505050565b601f8211156106f457828211156106f3576106c081610582565b6106c983610594565b6106d285610594565b60208610156106df575f90505b8083016106ee82840382610680565b505050505b5b505050565b5f82821c905092915050565b5f6107145f19846008026106f9565b1980831691505092915050565b5f61072c8383610705565b9150826002028217905092915050565b6107458261051b565b67ffffffffffffffff81111561075e5761075d610338565b5b6107688254610552565b6107738282856106a6565b5f60209050601f8311600181146107a4575f8415610792578287015190505b61079c8582610721565b865550610803565b601f1984166107b286610582565b5f5b828110156107d9578489015182556001820191506020850194506020810190506107b4565b868310156107f657848901516107f2601f891682610705565b8355505b6001600288020188555050505b50505050505056fea2646970667358221220231c9b6d0a58d8903cb3008df0012e42072514a8fd3748664671cfad1f0ee1b364736f6c63430008220033",
			"opcodes": "PUSH1 0x80 PUSH1 0x40 MSTORE CALLVALUE DUP1 ISZERO PUSH2 0xF JUMPI PUSH0 PUSH0 REVERT JUMPDEST POP PUSH1 0x40 MLOAD PUSH2 0xDBC CODESIZE SUB DUP1 PUSH2 0xDBC DUP4 CODECOPY DUP2 DUP2 ADD PUSH1 0x40 MSTORE DUP2 ADD SWAP1 PUSH2 0x31 SWAP2 SWAP1 PUSH2 0x224 JUMP JUMPDEST DUP2 PUSH1 0x1 SWAP1 DUP2 PUSH2 0x40 SWAP2 SWAP1 PUSH2 0x49F JUMP JUMPDEST POP CALLER PUSH0 PUSH1 0x1 PUSH2 0x100 EXP DUP2 SLOAD DUP2 PUSH20 0xFFFFFFFFFFFFFFFFFFFFFFFFFFFFFFFFFFFFFFFF MUL NOT AND SWAP1 DUP4 PUSH20 0xFFFFFFFFFFFFFFFFFFFFFFFFFFFFFFFFFFFFFFFF AND MUL OR SWAP1 SSTORE POP DUP1 PUSH0 PUSH0 PUSH2 0x100 EXP DUP2 SLOAD DUP2 PUSH1 0xFF MUL NOT AND SWAP1 DUP4 PUSH1 0xFF AND MUL OR SWAP1 SSTORE POP POP POP PUSH2 0x56E JUMP JUMPDEST PUSH0 PUSH1 0x40 MLOAD SWAP1 POP SWAP1 JUMP JUMPDEST PUSH0 PUSH0 REVERT JUMPDEST PUSH0 PUSH0 REVERT JUMPDEST PUSH0 PUSH0 REVERT JUMPDEST PUSH0 PUSH0 REVERT JUMPDEST PUSH0 PUSH1 0x1F NOT PUSH1 0x1F DUP4 ADD AND SWAP1 POP SWAP2 SWAP1 POP JUMP JUMPDEST PUSH32 0x4E487B7100000000000000000000000000000000000000000000000000000000 PUSH0 MSTORE PUSH1 0x41 PUSH1 0x4 MSTORE PUSH1 0x24 PUSH0 REVERT JUMPDEST PUSH2 0x100 DUP3 PUSH2 0xBA JUMP JUMPDEST DUP2 ADD DUP2 DUP2 LT PUSH8 0xFFFFFFFFFFFFFFFF DUP3 GT OR ISZERO PUSH2 0x11F JUMPI PUSH2 0x11E PUSH2 0xCA JUMP JUMPDEST JUMPDEST DUP1 PUSH1 0x40 MSTORE POP POP POP JUMP JUMPDEST PUSH0 PUSH2 0x131 PUSH2 0xA1 JUMP JUMPDEST SWAP1 POP PUSH2 0x13D DUP3 DUP3 PUSH2 0xF7 JUMP JUMPDEST SWAP2 SWAP1 POP JUMP JUMPDEST PUSH0 PUSH8 0xFFFFFFFFFFFFFFFF DUP3 GT ISZERO PUSH2 0x15C JUMPI PUSH2 0x15B PUSH2 0xCA JUMP JUMPDEST JUMPDEST PUSH2 0x165 DUP3 PUSH2 0xBA JUMP JUMPDEST SWAP1 POP PUSH1 0x20 DUP2 ADD SWAP1 POP SWAP2 SWAP1 POP JUMP JUMPDEST DUP3 DUP2 DUP4 MCOPY PUSH0 DUP4 DUP4 ADD MSTORE POP POP POP JUMP JUMPDEST PUSH0 PUSH2 0x192 PUSH2 0x18D DUP5 PUSH2 0x142 JUMP JUMPDEST PUSH2 0x128 JUMP JUMPDEST SWAP1 POP DUP3 DUP2 MSTORE PUSH1 0x20 DUP2 ADD DUP5 DUP5 DUP5 ADD GT ISZERO PUSH2 0x1AE JUMPI PUSH2 0x1AD PUSH2 0xB6 JUMP JUMPDEST JUMPDEST PUSH2 0x1B9 DUP5 DUP3 DUP6 PUSH2 0x172 JUMP JUMPDEST POP SWAP4 SWAP3 POP POP POP JUMP JUMPDEST PUSH0 DUP3 PUSH1 0x1F DUP4 ADD SLT PUSH2 0x1D5 JUMPI PUSH2 0x1D4 PUSH2 0xB2 JUMP JUMPDEST JUMPDEST DUP2 MLOAD PUSH2 0x1E5 DUP5 DUP3 PUSH1 0x20 DUP7 ADD PUSH2 0x180 JUMP JUMPDEST SWAP2 POP POP SWAP3 SWAP2 POP POP JUMP JUMPDEST PUSH0 PUSH1 0xFF DUP3 AND SWAP1 POP SWAP2 SWAP1 POP JUMP JUMPDEST PUSH2 0x203 DUP2 PUSH2 0x1EE JUMP JUMPDEST DUP2 EQ PUSH2 0x20D JUMPI PUSH0 PUSH0 REVERT JUMPDEST POP JUMP JUMPDEST PUSH0 DUP2 MLOAD SWAP1 POP PUSH2 0x21E DUP2 PUSH2 0x1FA JUMP JUMPDEST SWAP3 SWAP2 POP POP JUMP JUMPDEST PUSH0 PUSH0 PUSH1 0x40 DUP4 DUP6 SUB SLT ISZERO PUSH2 0x23A JUMPI PUSH2 0x239 PUSH2 0xAA JUMP JUMPDEST JUMPDEST PUSH0 DUP4 ADD MLOAD PUSH8 0xFFFFFFFFFFFFFFFF DUP2 GT ISZERO PUSH2 0x257 JUMPI PUSH2 0x256 PUSH2 0xAE JUMP JUMPDEST JUMPDEST PUSH2 0x263 DUP6 DUP3 DUP7 ADD PUSH2 0x1C1 JUMP JUMPDEST SWAP3 POP POP PUSH1 0x20 PUSH2 0x274 DUP6 DUP3 DUP7 ADD PUSH2 0x210 JUMP JUMPDEST SWAP2 POP POP SWAP3 POP SWAP3 SWAP1 POP JUMP JUMPDEST PUSH0 DUP2 MLOAD SWAP1 POP SWAP2 SWAP1 POP JUMP JUMPDEST PUSH32 0x4E487B7100000000000000000000000000000000000000000000000000000000 PUSH0 MSTORE PUSH1 0x22 PUSH1 0x4 MSTORE PUSH1 0x24 PUSH0 REVERT JUMPDEST PUSH0 PUSH1 0x2 DUP3 DIV SWAP1 POP PUSH1 0x1 DUP3 AND DUP1 PUSH2 0x2CC JUMPI PUSH1 0x7F DUP3 AND SWAP2 POP JUMPDEST PUSH1 0x20 DUP3 LT DUP2 SUB PUSH2 0x2DF JUMPI PUSH2 0x2DE PUSH2 0x288 JUMP JUMPDEST JUMPDEST POP SWAP2 SWAP1 POP JUMP JUMPDEST PUSH0 DUP2 SWAP1 POP DUP2 PUSH0 MSTORE PUSH1 0x20 PUSH0 KECCAK256 SWAP1 POP SWAP2 SWAP1 POP JUMP JUMPDEST PUSH0 PUSH1 0x20 PUSH1 0x1F DUP4 ADD DIV SWAP1 POP SWAP2 SWAP1 POP JUMP JUMPDEST PUSH0 DUP3 DUP3 SHL SWAP1 POP SWAP3 SWAP2 POP POP JUMP JUMPDEST PUSH0 PUSH1 0x8 DUP4 MUL PUSH2 0x341 PUSH32 0xFFFFFFFFFFFFFFFFFFFFFFFFFFFFFFFFFFFFFFFFFFFFFFFFFFFFFFFFFFFFFFFF DUP3 PUSH2 0x306 JUMP JUMPDEST PUSH2 0x34B DUP7 DUP4 PUSH2 0x306 JUMP JUMPDEST SWAP6 POP DUP1 NOT DUP5 AND SWAP4 POP DUP1 DUP7 AND DUP5 OR SWAP3 POP POP POP SWAP4 SWAP3 POP POP POP JUMP JUMPDEST PUSH0 DUP2 SWAP1 POP SWAP2 SWAP1 POP JUMP JUMPDEST PUSH0 DUP2 SWAP1 POP SWAP2 SWAP1 POP JUMP JUMPDEST PUSH0 PUSH2 0x38F PUSH2 0x38A PUSH2 0x385 DUP5 PUSH2 0x363 JUMP JUMPDEST PUSH2 0x36C JUMP JUMPDEST PUSH2 0x363 JUMP JUMPDEST SWAP1 POP SWAP2 SWAP1 POP JUMP JUMPDEST PUSH0 DUP2 SWAP1 POP SWAP2 SWAP1 POP JUMP JUMPDEST PUSH2 0x3A8 DUP4 PUSH2 0x375 JUMP JUMPDEST PUSH2 0x3BC PUSH2 0x3B4 DUP3 PUSH2 0x396 JUMP JUMPDEST DUP5 DUP5 SLOAD PUSH2 0x312 JUMP JUMPDEST DUP3 SSTORE POP POP POP POP JUMP JUMPDEST PUSH0 PUSH0 SWAP1 POP SWAP1 JUMP JUMPDEST PUSH2 0x3D3 PUSH2 0x3C4 JUMP JUMPDEST PUSH2 0x3DE DUP2 DUP5 DUP5 PUSH2 0x39F JUMP JUMPDEST POP POP POP JUMP JUMPDEST PUSH0 JUMPDEST DUP3 DUP2 LT ISZERO PUSH2 0x404 JUMPI PUSH2 0x3F9 PUSH0 DUP3 DUP5 ADD PUSH2 0x3CB JUMP JUMPDEST PUSH1 0x1 DUP2 ADD SWAP1 POP PUSH2 0x3E5 JUMP JUMPDEST POP POP POP JUMP JUMPDEST PUSH1 0x1F DUP3 GT ISZERO PUSH2 0x457 JUMPI DUP3 DUP3 GT ISZERO PUSH2 0x456 JUMPI PUSH2 0x423 DUP2 PUSH2 0x2E5 JUMP JUMPDEST PUSH2 0x42C DUP4 PUSH2 0x2F7 JUMP JUMPDEST PUSH2 0x435 DUP6 PUSH2 0x2F7 JUMP JUMPDEST PUSH1 0x20 DUP7 LT ISZERO PUSH2 0x442 JUMPI PUSH0 SWAP1 POP JUMPDEST DUP1 DUP4 ADD PUSH2 0x451 DUP3 DUP5 SUB DUP3 PUSH2 0x3E3 JUMP JUMPDEST POP POP POP POP JUMPDEST JUMPDEST POP POP POP JUMP JUMPDEST PUSH0 DUP3 DUP3 SHR SWAP1 POP SWAP3 SWAP2 POP POP JUMP JUMPDEST PUSH0 PUSH2 0x477 PUSH0 NOT DUP5 PUSH1 0x8 MUL PUSH2 0x45C JUMP JUMPDEST NOT DUP1 DUP4 AND SWAP2 POP POP SWAP3 SWAP2 POP POP JUMP JUMPDEST PUSH0 PUSH2 0x48F DUP4 DUP4 PUSH2 0x468 JUMP JUMPDEST SWAP2 POP DUP3 PUSH1 0x2 MUL DUP3 OR SWAP1 POP SWAP3 SWAP2 POP POP JUMP JUMPDEST PUSH2 0x4A8 DUP3 PUSH2 0x27E JUMP JUMPDEST PUSH8 0xFFFFFFFFFFFFFFFF DUP2 GT ISZERO PUSH2 0x4C1 JUMPI PUSH2 0x4C0 PUSH2 0xCA JUMP JUMPDEST JUMPDEST PUSH2 0x4CB DUP3 SLOAD PUSH2 0x2B5 JUMP JUMPDEST PUSH2 0x4D6 DUP3 DUP3 DUP6 PUSH2 0x409 JUMP JUMPDEST PUSH0 PUSH1 0x20 SWAP1 POP PUSH1 0x1F DUP4 GT PUSH1 0x1 DUP2 EQ PUSH2 0x507 JUMPI PUSH0 DUP5 ISZERO PUSH2 0x4F5 JUMPI DUP3 DUP8 ADD MLOAD SWAP1 POP JUMPDEST PUSH2 0x4FF DUP6 DUP3 PUSH2 0x484 JUMP JUMPDEST DUP7 SSTORE POP PUSH2 0x566 JUMP JUMPDEST PUSH1 0x1F NOT DUP5 AND PUSH2 0x515 DUP7 PUSH2 0x2E5 JUMP JUMPDEST PUSH0 JUMPDEST DUP3 DUP2 LT ISZERO PUSH2 0x53C JUMPI DUP5 DUP10 ADD MLOAD DUP3 SSTORE PUSH1 0x1 DUP3 ADD SWAP2 POP PUSH1 0x20 DUP6 ADD SWAP5 POP PUSH1 0x20 DUP2 ADD SWAP1 POP PUSH2 0x517 JUMP JUMPDEST DUP7 DUP4 LT ISZERO PUSH2 0x559 JUMPI DUP5 DUP10 ADD MLOAD PUSH2 0x555 PUSH1 0x1F DUP10 AND DUP3 PUSH2 0x468 JUMP JUMPDEST DUP4 SSTORE POP JUMPDEST PUSH1 0x1 PUSH1 0x2 DUP9 MUL ADD DUP9 SSTORE POP POP POP JUMPDEST POP POP POP POP POP POP JUMP JUMPDEST PUSH2 0x841 DUP1 PUSH2 0x57B PUSH0 CODECOPY PUSH0 RETURN INVALID PUSH1 0x80 PUSH1 0x40 MSTORE CALLVALUE DUP1 ISZERO PUSH2 0xF JUMPI PUSH0 PUSH0 REVERT JUMPDEST POP PUSH1 0x4 CALLDATASIZE LT PUSH2 0x55 JUMPI PUSH0 CALLDATALOAD PUSH1 0xE0 SHR DUP1 PUSH4 0xC55699C EQ PUSH2 0x59 JUMPI DUP1 PUSH4 0x24B8BA5F EQ PUSH2 0x77 JUMPI DUP1 PUSH4 0x368B8772 EQ PUSH2 0x93 JUMPI DUP1 PUSH4 0x43D726D6 EQ PUSH2 0xAF JUMPI DUP1 PUSH4 0xBE9A6555 EQ PUSH2 0xB9 JUMPI JUMPDEST PUSH0 PUSH0 REVERT JUMPDEST PUSH2 0x61 PUSH2 0xC3 JUMP JUMPDEST PUSH1 0x40 MLOAD PUSH2 0x6E SWAP2 SWAP1 PUSH2 0x2A1 JUMP JUMPDEST PUSH1 0x40 MLOAD DUP1 SWAP2 SUB SWAP1 RETURN JUMPDEST PUSH2 0x91 PUSH1 0x4 DUP1 CALLDATASIZE SUB DUP2 ADD SWAP1 PUSH2 0x8C SWAP2 SWAP1 PUSH2 0x2F5 JUMP JUMPDEST PUSH2 0xD4 JUMP JUMPDEST STOP JUMPDEST PUSH2 0xAD PUSH1 0x4 DUP1 CALLDATASIZE SUB DUP2 ADD SWAP1 PUSH2 0xA8 SWAP2 SWAP1 PUSH2 0x45C JUMP JUMPDEST PUSH2 0x13E JUMP JUMPDEST STOP JUMPDEST PUSH2 0xB7 PUSH2 0x19F JUMP JUMPDEST STOP JUMPDEST PUSH2 0xC1 PUSH2 0x212 JUMP JUMPDEST STOP JUMPDEST PUSH0 PUSH0 SWAP1 SLOAD SWAP1 PUSH2 0x100 EXP SWAP1 DIV PUSH1 0xFF AND DUP2 JUMP JUMPDEST PUSH1 0x2 PUSH0 SWAP1 SLOAD SWAP1 PUSH2 0x100 EXP SWAP1 DIV PUSH1 0xFF AND PUSH2 0x122 JUMPI PUSH1 0x40 MLOAD PUSH32 0x8C379A000000000000000000000000000000000000000000000000000000000 DUP2 MSTORE PUSH1 0x4 ADD PUSH2 0x119 SWAP1 PUSH2 0x4FD JUMP JUMPDEST PUSH1 0x40 MLOAD DUP1 SWAP2 SUB SWAP1 REVERT JUMPDEST DUP1 PUSH0 PUSH0 PUSH2 0x100 EXP DUP2 SLOAD DUP2 PUSH1 0xFF MUL NOT AND SWAP1 DUP4 PUSH1 0xFF AND MUL OR SWAP1 SSTORE POP POP JUMP JUMPDEST PUSH1 0x2 PUSH0 SWAP1 SLOAD SWAP1 PUSH2 0x100 EXP SWAP1 DIV PUSH1 0xFF AND PUSH2 0x18C JUMPI PUSH1 0x40 MLOAD PUSH32 0x8C379A000000000000000000000000000000000000000000000000000000000 DUP2 MSTORE PUSH1 0x4 ADD PUSH2 0x183 SWAP1 PUSH2 0x4FD JUMP JUMPDEST PUSH1 0x40 MLOAD DUP1 SWAP2 SUB SWAP1 REVERT JUMPDEST DUP1 PUSH1 0x1 SWAP1 DUP2 PUSH2 0x19B SWAP2 SWAP1 PUSH2 0x73C JUMP JUMPDEST POP POP JUMP JUMPDEST PUSH0 PUSH1 0x1 SWAP1 SLOAD SWAP1 PUSH2 0x100 EXP SWAP1 DIV PUSH20 0xFFFFFFFFFFFFFFFFFFFFFFFFFFFFFFFFFFFFFFFF AND PUSH20 0xFFFFFFFFFFFFFFFFFFFFFFFFFFFFFFFFFFFFFFFF AND CALLER PUSH20 0xFFFFFFFFFFFFFFFFFFFFFFFFFFFFFFFFFFFFFFFF AND EQ PUSH2 0x1F7 JUMPI PUSH0 PUSH0 REVERT JUMPDEST PUSH0 PUSH1 0x2 PUSH0 PUSH2 0x100 EXP DUP2 SLOAD DUP2 PUSH1 0xFF MUL NOT AND SWAP1 DUP4 ISZERO ISZERO MUL OR SWAP1 SSTORE POP JUMP JUMPDEST PUSH0 PUSH1 0x1 SWAP1 SLOAD SWAP1 PUSH2 0x100 EXP SWAP1 DIV PUSH20 0xFFFFFFFFFFFFFFFFFFFFFFFFFFFFFFFFFFFFFFFF AND PUSH20 0xFFFFFFFFFFFFFFFFFFFFFFFFFFFFFFFFFFFFFFFF AND CALLER PUSH20 0xFFFFFFFFFFFFFFFFFFFFFFFFFFFFFFFFFFFFFFFF AND EQ PUSH2 0x26A JUMPI PUSH0 PUSH0 REVERT JUMPDEST PUSH1 0x1 PUSH1 0x2 PUSH0 PUSH2 0x100 EXP DUP2 SLOAD DUP2 PUSH1 0xFF MUL NOT AND SWAP1 DUP4 ISZERO ISZERO MUL OR SWAP1 SSTORE POP JUMP JUMPDEST PUSH0 PUSH1 0xFF DUP3 AND SWAP1 POP SWAP2 SWAP1 POP JUMP JUMPDEST PUSH2 0x29B DUP2 PUSH2 0x286 JUMP JUMPDEST DUP3 MSTORE POP POP JUMP JUMPDEST PUSH0 PUSH1 0x20 DUP3 ADD SWAP1 POP PUSH2 0x2B4 PUSH0 DUP4 ADD DUP5 PUSH2 0x292 JUMP JUMPDEST SWAP3 SWAP2 POP POP JUMP JUMPDEST PUSH0 PUSH1 0x40 MLOAD SWAP1 POP SWAP1 JUMP JUMPDEST PUSH0 PUSH0 REVERT JUMPDEST PUSH0 PUSH0 REVERT JUMPDEST PUSH2 0x2D4 DUP2 PUSH2 0x286 JUMP JUMPDEST DUP2 EQ PUSH2 0x2DE JUMPI PUSH0 PUSH0 REVERT JUMPDEST POP JUMP JUMPDEST PUSH0 DUP2 CALLDATALOAD SWAP1 POP PUSH2 0x2EF DUP2 PUSH2 0x2CB JUMP JUMPDEST SWAP3 SWAP2 POP POP JUMP JUMPDEST PUSH0 PUSH1 0x20 DUP3 DUP5 SUB SLT ISZERO PUSH2 0x30A JUMPI PUSH2 0x309 PUSH2 0x2C3 JUMP JUMPDEST JUMPDEST PUSH0 PUSH2 0x317 DUP5 DUP3 DUP6 ADD PUSH2 0x2E1 JUMP JUMPDEST SWAP2 POP POP SWAP3 SWAP2 POP POP JUMP JUMPDEST PUSH0 PUSH0 REVERT JUMPDEST PUSH0 PUSH0 REVERT JUMPDEST PUSH0 PUSH1 0x1F NOT PUSH1 0x1F DUP4 ADD AND SWAP1 POP SWAP2 SWAP1 POP JUMP JUMPDEST PUSH32 0x4E487B7100000000000000000000000000000000000000000000000000000000 PUSH0 MSTORE PUSH1 0x41 PUSH1 0x4 MSTORE PUSH1 0x24 PUSH0 REVERT JUMPDEST PUSH2 0x36E DUP3 PUSH2 0x328 JUMP JUMPDEST DUP2 ADD DUP2 DUP2 LT PUSH8 0xFFFFFFFFFFFFFFFF DUP3 GT OR ISZERO PUSH2 0x38D JUMPI PUSH2 0x38C PUSH2 0x338 JUMP JUMPDEST JUMPDEST DUP1 PUSH1 0x40 MSTORE POP POP POP JUMP JUMPDEST PUSH0 PUSH2 0x39F PUSH2 0x2BA JUMP JUMPDEST SWAP1 POP PUSH2 0x3AB DUP3 DUP3 PUSH2 0x365 JUMP JUMPDEST SWAP2 SWAP1 POP JUMP JUMPDEST PUSH0 PUSH8 0xFFFFFFFFFFFFFFFF DUP3 GT ISZERO PUSH2 0x3CA JUMPI PUSH2 0x3C9 PUSH2 0x338 JUMP JUMPDEST JUMPDEST PUSH2 0x3D3 DUP3 PUSH2 0x328 JUMP JUMPDEST SWAP1 POP PUSH1 0x20 DUP2 ADD SWAP1 POP SWAP2 SWAP1 POP JUMP JUMPDEST DUP3 DUP2 DUP4 CALLDATACOPY PUSH0 DUP4 DUP4 ADD MSTORE POP POP POP JUMP JUMPDEST PUSH0 PUSH2 0x400 PUSH2 0x3FB DUP5 PUSH2 0x3B0 JUMP JUMPDEST PUSH2 0x396 JUMP JUMPDEST SWAP1 POP DUP3 DUP2 MSTORE PUSH1 0x20 DUP2 ADD DUP5 DUP5 DUP5 ADD GT ISZERO PUSH2 0x41C JUMPI PUSH2 0x41B PUSH2 0x324 JUMP JUMPDEST JUMPDEST PUSH2 0x427 DUP5 DUP3 DUP6 PUSH2 0x3E0 JUMP JUMPDEST POP SWAP4 SWAP3 POP POP POP JUMP JUMPDEST PUSH0 DUP3 PUSH1 0x1F DUP4 ADD SLT PUSH2 0x443 JUMPI PUSH2 0x442 PUSH2 0x320 JUMP JUMPDEST JUMPDEST DUP2 CALLDATALOAD PUSH2 0x453 DUP5 DUP3 PUSH1 0x20 DUP7 ADD PUSH2 0x3EE JUMP JUMPDEST SWAP2 POP POP SWAP3 SWAP2 POP POP JUMP JUMPDEST PUSH0 PUSH1 0x20 DUP3 DUP5 SUB SLT ISZERO PUSH2 0x471 JUMPI PUSH2 0x470 PUSH2 0x2C3 JUMP JUMPDEST JUMPDEST PUSH0 DUP3 ADD CALLDATALOAD PUSH8 0xFFFFFFFFFFFFFFFF DUP2 GT ISZERO PUSH2 0x48E JUMPI PUSH2 0x48D PUSH2 0x2C7 JUMP JUMPDEST JUMPDEST PUSH2 0x49A DUP5 DUP3 DUP6 ADD PUSH2 0x42F JUMP JUMPDEST SWAP2 POP POP SWAP3 SWAP2 POP POP JUMP JUMPDEST PUSH0 DUP3 DUP3 MSTORE PUSH1 0x20 DUP3 ADD SWAP1 POP SWAP3 SWAP2 POP POP JUMP JUMPDEST PUSH32 0x666C61672069732066616C736521000000000000000000000000000000000000 PUSH0 DUP3 ADD MSTORE POP JUMP JUMPDEST PUSH0 PUSH2 0x4E7 PUSH1 0xE DUP4 PUSH2 0x4A3 JUMP JUMPDEST SWAP2 POP PUSH2 0x4F2 DUP3 PUSH2 0x4B3 JUMP JUMPDEST PUSH1 0x20 DUP3 ADD SWAP1 POP SWAP2 SWAP1 POP JUMP JUMPDEST PUSH0 PUSH1 0x20 DUP3 ADD SWAP1 POP DUP2 DUP2 SUB PUSH0 DUP4 ADD MSTORE PUSH2 0x514 DUP2 PUSH2 0x4DB JUMP JUMPDEST SWAP1 POP SWAP2 SWAP1 POP JUMP JUMPDEST PUSH0 DUP2 MLOAD SWAP1 POP SWAP2 SWAP1 POP JUMP JUMPDEST PUSH32 0x4E487B7100000000000000000000000000000000000000000000000000000000 PUSH0 MSTORE PUSH1 0x22 PUSH1 0x4 MSTORE PUSH1 0x24 PUSH0 REVERT JUMPDEST PUSH0 PUSH1 0x2 DUP3 DIV SWAP1 POP PUSH1 0x1 DUP3 AND DUP1 PUSH2 0x569 JUMPI PUSH1 0x7F DUP3 AND SWAP2 POP JUMPDEST PUSH1 0x20 DUP3 LT DUP2 SUB PUSH2 0x57C JUMPI PUSH2 0x57B PUSH2 0x525 JUMP JUMPDEST JUMPDEST POP SWAP2 SWAP1 POP JUMP JUMPDEST PUSH0 DUP2 SWAP1 POP DUP2 PUSH0 MSTORE PUSH1 0x20 PUSH0 KECCAK256 SWAP1 POP SWAP2 SWAP1 POP JUMP JUMPDEST PUSH0 PUSH1 0x20 PUSH1 0x1F DUP4 ADD DIV SWAP1 POP SWAP2 SWAP1 POP JUMP JUMPDEST PUSH0 DUP3 DUP3 SHL SWAP1 POP SWAP3 SWAP2 POP POP JUMP JUMPDEST PUSH0 PUSH1 0x8 DUP4 MUL PUSH2 0x5DE PUSH32 0xFFFFFFFFFFFFFFFFFFFFFFFFFFFFFFFFFFFFFFFFFFFFFFFFFFFFFFFFFFFFFFFF DUP3 PUSH2 0x5A3 JUMP JUMPDEST PUSH2 0x5E8 DUP7 DUP4 PUSH2 0x5A3 JUMP JUMPDEST SWAP6 POP DUP1 NOT DUP5 AND SWAP4 POP DUP1 DUP7 AND DUP5 OR SWAP3 POP POP POP SWAP4 SWAP3 POP POP POP JUMP JUMPDEST PUSH0 DUP2 SWAP1 POP SWAP2 SWAP1 POP JUMP JUMPDEST PUSH0 DUP2 SWAP1 POP SWAP2 SWAP1 POP JUMP JUMPDEST PUSH0 PUSH2 0x62C PUSH2 0x627 PUSH2 0x622 DUP5 PUSH2 0x600 JUMP JUMPDEST PUSH2 0x609 JUMP JUMPDEST PUSH2 0x600 JUMP JUMPDEST SWAP1 POP SWAP2 SWAP1 POP JUMP JUMPDEST PUSH0 DUP2 SWAP1 POP SWAP2 SWAP1 POP JUMP JUMPDEST PUSH2 0x645 DUP4 PUSH2 0x612 JUMP JUMPDEST PUSH2 0x659 PUSH2 0x651 DUP3 PUSH2 0x633 JUMP JUMPDEST DUP5 DUP5 SLOAD PUSH2 0x5AF JUMP JUMPDEST DUP3 SSTORE POP POP POP POP JUMP JUMPDEST PUSH0 PUSH0 SWAP1 POP SWAP1 JUMP JUMPDEST PUSH2 0x670 PUSH2 0x661 JUMP JUMPDEST PUSH2 0x67B DUP2 DUP5 DUP5 PUSH2 0x63C JUMP JUMPDEST POP POP POP JUMP JUMPDEST PUSH0 JUMPDEST DUP3 DUP2 LT ISZERO PUSH2 0x6A1 JUMPI PUSH2 0x696 PUSH0 DUP3 DUP5 ADD PUSH2 0x668 JUMP JUMPDEST PUSH1 0x1 DUP2 ADD SWAP1 POP PUSH2 0x682 JUMP JUMPDEST POP POP POP JUMP JUMPDEST PUSH1 0x1F DUP3 GT ISZERO PUSH2 0x6F4 JUMPI DUP3 DUP3 GT ISZERO PUSH2 0x6F3 JUMPI PUSH2 0x6C0 DUP2 PUSH2 0x582 JUMP JUMPDEST PUSH2 0x6C9 DUP4 PUSH2 0x594 JUMP JUMPDEST PUSH2 0x6D2 DUP6 PUSH2 0x594 JUMP JUMPDEST PUSH1 0x20 DUP7 LT ISZERO PUSH2 0x6DF JUMPI PUSH0 SWAP1 POP JUMPDEST DUP1 DUP4 ADD PUSH2 0x6EE DUP3 DUP5 SUB DUP3 PUSH2 0x680 JUMP JUMPDEST POP POP POP POP JUMPDEST JUMPDEST POP POP POP JUMP JUMPDEST PUSH0 DUP3 DUP3 SHR SWAP1 POP SWAP3 SWAP2 POP POP JUMP JUMPDEST PUSH0 PUSH2 0x714 PUSH0 NOT DUP5 PUSH1 0x8 MUL PUSH2 0x6F9 JUMP JUMPDEST NOT DUP1 DUP4 AND SWAP2 POP POP SWAP3 SWAP2 POP POP JUMP JUMPDEST PUSH0 PUSH2 0x72C DUP4 DUP4 PUSH2 0x705 JUMP JUMPDEST SWAP2 POP DUP3 PUSH1 0x2 MUL DUP3 OR SWAP1 POP SWAP3 SWAP2 POP POP JUMP JUMPDEST PUSH2 0x745 DUP3 PUSH2 0x51B JUMP JUMPDEST PUSH8 0xFFFFFFFFFFFFFFFF DUP2 GT ISZERO PUSH2 0x75E JUMPI PUSH2 0x75D PUSH2 0x338 JUMP JUMPDEST JUMPDEST PUSH2 0x768 DUP3 SLOAD PUSH2 0x552 JUMP JUMPDEST PUSH2 0x773 DUP3 DUP3 DUP6 PUSH2 0x6A6 JUMP JUMPDEST PUSH0 PUSH1 0x20 SWAP1 POP PUSH1 0x1F DUP4 GT PUSH1 0x1 DUP2 EQ PUSH2 0x7A4 JUMPI PUSH0 DUP5 ISZERO PUSH2 0x792 JUMPI DUP3 DUP8 ADD MLOAD SWAP1 POP JUMPDEST PUSH2 0x79C DUP6 DUP3 PUSH2 0x721 JUMP JUMPDEST DUP7 SSTORE POP PUSH2 0x803 JUMP JUMPDEST PUSH1 0x1F NOT DUP5 AND PUSH2 0x7B2 DUP7 PUSH2 0x582 JUMP JUMPDEST PUSH0 JUMPDEST DUP3 DUP2 LT ISZERO PUSH2 0x7D9 JUMPI DUP5 DUP10 ADD MLOAD DUP3 SSTORE PUSH1 0x1 DUP3 ADD SWAP2 POP PUSH1 0x20 DUP6 ADD SWAP5 POP PUSH1 0x20 DUP2 ADD SWAP1 POP PUSH2 0x7B4 JUMP JUMPDEST DUP7 DUP4 LT ISZERO PUSH2 0x7F6 JUMPI DUP5 DUP10 ADD MLOAD PUSH2 0x7F2 PUSH1 0x1F DUP10 AND DUP3 PUSH2 0x705 JUMP JUMPDEST DUP4 SSTORE POP JUMPDEST PUSH1 0x1 PUSH1 0x2 DUP9 MUL ADD DUP9 SSTORE POP POP POP JUMPDEST POP POP POP POP POP POP JUMP INVALID LOG2 PUSH5 0x6970667358 0x22 SLT KECCAK256 0x23 SHR SWAP12 PUSH14 0xA58D8903CB3008DF0012E420725 EQ 0xA8 REVERT CALLDATACOPY BASEFEE PUSH7 0x4671CFAD1F0EE1 0xB3 PUSH5 0x736F6C6343 STOP ADDMOD 0x22 STOP CALLER "
		},
		"gasEstimates": {
			"creation": {
				"codeDepositCost": "422600",
				"executionCost": "infinite",
				"totalCost": "infinite"
			},
			"external": {
				"close()": "26671",
				"set(uint8)": "26824",
				"setMessage(string)": "infinite",
				"start()": "26694",
				"x()": "2443"
			}
		},
		"methodIdentifiers": {
			"close()": "43d726d6",
			"set(uint8)": "24b8ba5f",
			"setMessage(string)": "368b8772",
			"start()": "be9a6555",
			"x()": "0c55699c"
		}
	},
	"abi": [
		{
			"inputs": [
				{
					"internalType": "string",
					"name": "_message",
					"type": "string"
				},
				{
					"internalType": "uint8",
					"name": "_x",
					"type": "uint8"
				}
			],
			"stateMutability": "nonpayable",
			"type": "constructor"
		},
		{
			"inputs": [],
			"name": "close",
			"outputs": [],
			"stateMutability": "nonpayable",
			"type": "function"
		},
		{
			"inputs": [
				{
					"internalType": "uint8",
					"name": "_x",
					"type": "uint8"
				}
			],
			"name": "set",
			"outputs": [],
			"stateMutability": "nonpayable",
			"type": "function"
		},
		{
			"inputs": [
				{
					"internalType": "string",
					"name": "_message",
					"type": "string"
				}
			],
			"name": "setMessage",
			"outputs": [],
			"stateMutability": "nonpayable",
			"type": "function"
		},
		{
			"inputs": [],
			"name": "start",
			"outputs": [],
			"stateMutability": "nonpayable",
			"type": "function"
		},
		{
			"inputs": [],
			"name": "x",
			"outputs": [
				{
					"internalType": "uint8",
					"name": "",
					"type": "uint8"
				}
			],
			"stateMutability": "view",
			"type": "function"
		}
	]
}